:020000040800F2
:10000000A809002065020008F1290008E929000874
:10001000ED290008110400080D3900080000000057
:10002000000000000000000000000000092D000892
:10003000E106000800000000F5290008DD34000892
:100040007F0200087F0200087F0200087F0200088C
:100050007F0200087F0200087F0200087F0200087C
:100060007F0200087F0200087F0200087F0200086C
:100070007F0200087F0200087F0200087F0200085C
:100080007F0200087F0200087F0200087F0200084C
:1000900015040008210400087F0200087F02000800
:1000A0007F0200087F0200087F0200087F0200082C
:1000B0007F0200087F0200087F0200087F0200081C
:1000C0007F0200087F0200087F0200087F0200080C
:1000D0007F0200087F0200087F0200087F020008FC
:1000E0007F0200087F0200087F0200087F020008EC
:1000F0007F020008B93500087F0200087F0200086F
:100100007F0200087F0200087F0200087F020008CB
:10011000013700080D3700087F0200087F02000841
:100120007F0200087F0200087F0200087F020008AB
:100130007F02000800000000000000007F020008AD
:100140002D040008390400087F0200087F0200081F
:100150007F0200087F0200087F0200087F0200087B
:100160007F0200087F0200087F0200087F0200086B
:100170007F0200087F0200087F02000800000000E4
:10018000000000007F0200080000000000000000E6
:100190007F02000800000000000000007F0200084D
:1001A0000000000000000000000000007F020008C6
:1001B0007F0200087F0200087F0200087F0200081B
:1001C0007F02000800F002F800F03CF80AA090E876
:1001D000000C82448344AAF10107DA4501D100F002
:1001E00031F8AFF2090EBAE80F0013F0010F18BF93
:1001F000FB1A43F0010318477043000090430000CE
:10020000103A24BF78C878C1FAD8520724BF30C842
:1002100030C144BF04680C60704700000023002414
:1002200000250026103A28BF78C1FBD8520728BF06
:1002300030C148BF0B6070471FB504F076F91FBD91
:1002400010B510BD00F0A9F81146FFF7F5FF03F057
:100250005FFB00F0C7F803B4FFF7F2FF03BC00F048
:10026000CFF800000948804709480047FEE7FEE74D
:10027000FEE7FEE7FEE7FEE7FEE7FEE7FEE7FEE756
:1002800004480549054A064B70470000A53500089B
:10029000C5010008A8030020A8090020A805002027
:1002A000A805002053EA020C00F069802DE9F04B0C
:1002B0004FF00006002B1FBFB3FA83F503FA05F4D5
:1002C00024FA05F65E4012BF1643B2FA82F502FA2E
:1002D00005F4C5F120051EBF22FA05FC44EA0C0412
:1002E000203556EA044C4FEA144418BF641C4FF002
:1002F00000084FF00009904271EB030C39D300293C
:1003000019BFB1FA81F701FA07F6B0FA80F700FADF
:1003100007F6C7F120071EBF20FA07FC46EA0C06C5
:100320002037B6FBF4FCA7EB0507103F07F01F0BC7
:10033000CBF120062CFA06F60CFA0BFB44BFB346B1
:100340000026202FA4BF5E464FF0000B5BEA060C90
:1003500008BF4FF0010B19EB0B0948EB0608ABFB8C
:10036000027C06FB02CC0BFB03CCC01B71EB0C0127
:10037000C1E70B46024641464846BDE8F08B13B53F
:10038000084318BF4FF0FF300146AFF30080BDE8CF
:100390001C407047704770477047754600F02CF856
:1003A000AE4605006946534620F00700854618B062
:1003B00020B5FFF765FFBDE820404FF000064FF085
:1003C00000074FF000084FF0000BAC46ACE8C00946
:1003D000ACE8C009ACE8C009ACE8C00921F00701ED
:1003E0008D46704710B50446AFF300802046BDE847
:1003F0001040FFF730BF0000004870474000002069
:1004000001491820ABBEFEE726000200704700003D
:10041000FEE7000040F25420C2F2000000F080BD70
:1004200040F25420C2F2000000F07ABD40F20420F5
:10043000C2F2000000F074BD40F20420C2F20000DD
:1004400000F06EBDB0B540F22015C2F2000595F87F
:10045000610040F294140828C2F2000430D195F8EB
:100460006200082846D195F8630008285CD195F809
:100470006400082872D195F86600082840F0898049
:1004800095F86700082840F09F8095F868000828D4
:1004900040F0B58095F86900082840F0CC8095F8C8
:1004A0006A00082840F0E38095F86B00082840F0C7
:1004B000FA804FF4FA60BDE8B04001F08FB800BF99
:1004C0003620214641F83C0F04200022086140F20A
:1004D0000420C1E9022205F1580205F13003C2F2FD
:1004E000000000F0BDFB012001F078F895F86200F3
:1004F0000828B8D05620214641F83C0F042000229D
:10050000086140F20420C1E9022205F1580205F118
:100510003003C2F2000000F0A3FB012001F05EF8FE
:1005200095F863000828A2D07620214641F83C0FB8
:1005300004200022086140F20420C1E9022205F1F2
:10054000580205F13003C2F2000000F089FB0120DF
:1005500001F044F895F8640008288CD096202146D4
:1005600041F83C0F04200022086140F20420C1E958
:10057000022205F1580205F13003C2F2000000F03A
:100580006FFB012001F02AF895F8660008283FF477
:1005900077AFD620214641F83C0F042000220861A5
:1005A00040F20420C1E9022205F1580205F13003AE
:1005B000C2F2000000F054FB012001F00FF895F8A2
:1005C000670008283FF461AFF620214641F83C0F50
:1005D00004200022086140F20420C1E9022205F152
:1005E000580205F13003C2F2000000F039FB01208F
:1005F00000F0F4FF95F8680008283FF44BAF4FF483
:100600008B70214641F83C0F04200022086140F223
:100610000420C1E9022205F1580205F13003C2F2BB
:10062000000000F01DFB012000F0D8FF95F86900E4
:1006300008283FF434AF4FF49B70214641F83C0F3B
:1006400004200022086140F20420C1E9022205F1E1
:10065000580205F13003C2F2000000F001FB012056
:1006600000F0BCFF95F86A0008283FF41DAF4FF476
:10067000AB70214641F83C0F04200022086140F293
:100680000420C1E9022205F1580205F13003C2F24B
:10069000000000F0E5FA012000F0A0FF95F86B00E3
:1006A00008283FF406AF4FF4BB7044F83C0F042019
:1006B0000021206140F20420C4E9021105F1580232
:1006C00005F13003C2F20000214600F0C9FA012012
:1006D00000F084FF4FF4FA60BDE8B04000F07EBF48
:1006E000704700002DE9F04F81B02DED048B40F2F2
:1006F000A004C2F20004A07840F200070028C2F271
:1007000000074ED0217800294BD06178022948D0CB
:100710002179E2798A4244D004290DD8DFE801F03A
:1007200010041604040000BF0020C4F2A000B1EEC3
:10073000040A206210E000BF94ED080A0CE000BF3C
:1007400000209FEDBA0A206214E000BF0020CCF226
:10075000A0002062B9EE040AB5EE400AF1EE10FAEC
:1007600008D094ED091AB5EE401AF1EE10FA01D155
:100770003878A0B1012002F0C9FA94ED080A0220ED
:1007800002F0C4FA94ED080A032002F0BFFA94EDD7
:10079000080A042002F0BAFA206A21796062A0787F
:1007A000E17140F28021C2F2000191ED010AB0EE48
:1007B000008AB4EE480AB8EE009A91ED021AF1EE02
:1007C00010FA4FF00002B4EE490A4FF0000391ED29
:1007D000032A91ED043AB8BF0122F1EE10FAC8BF26
:1007E00001231A40B4EE481A0023F1EE10FAB8BF04
:1007F00001231A40B4EE491A0023F1EE10FAC8BFE3
:1008000001231A40B4EE482A0023F1EE10FAB8BFD3
:1008100001231A40B4EE492A0023F1EE10FAC8BFB2
:100820000123B4EE483A00211A40F1EE10FA4FF0DD
:100830000003B4EE493AB8BF01231A40F1EE10FAB2
:10084000C8BF01211140397000EB80004FF0140146
:1008500001EB800000EE100A97ED082AB8EEC00AFE
:10086000B2EE041A18BFB0EE410AB4EE402AF1EE1F
:1008700010FA87ED070A00F0D48197ED091AB4EE5B
:10088000401AF1EE10FA40F3D38031EE098AB4EE4B
:10089000408AF1EE10FAC0F2A08140F22018C2F2B4
:1008A000000840F2042B40F20009002608F1580429
:1008B0004FF0080A08F13005C2F2000BC4F24829D3
:1008C00040F29417C2F200072F2047F83C0F44F281
:1008D0004820A8F85E005846394622462B463E7509
:1008E00088ED168AC7E90166C7E9036A00F0B8F91E
:1008F000012000F073FE5846394622462B4600F090
:10090000AFF9012000F06AFE5846394622462B46D0
:1009100000F0A6F9012000F061FE4F20C7E90006B3
:100920005846394622462B46C8F85C903E7588EDFD
:10093000168AC7E90266C7F810A000F091F90120F5
:1009400000F04CFE5846394622462B4600F088F906
:10095000012000F043FE5846394622462B4600F05F
:100960007FF9012000F03AFE6F20C7E900065846E3
:10097000394622462B46C8F85C903E7588ED168AAB
:10098000C7E90266C7F810A000F06AF9012000F07C
:1009900025FE5846394622462B4600F061F90120D3
:1009A00000F01CFE5846394622462B4600F058F906
:1009B000012000F013FE8F20C7E900065846394693
:1009C00022462B46C8F85C903E7588ED168AC7E92A
:1009D0000266C7F810A000F043F9012000F0FEFD08
:1009E0005846394622462B4600F03AF9012000F0DD
:1009F000F5FD5846394640F2000722462B46C2F222
:100A0000000700F02DF9012000F0E8FD0A20C8E9F8
:100A1000166600F0E3FD97ED070A38EE098AB4EE9A
:100A2000408AF1EE10FABFF64BAFD6E000000000AE
:100A300031EE089AB4EE409AF1EE10FA00F3CD8050
:100A400040F2201BC2F2000B40F2042640F20009E3
:100A50004FF000080BF158044FF0080A0BF1300575
:100A6000C2F20006C4F2482940F29417C2F200070D
:100A70002F2047F83C0F44F24820ABF85E00304688
:100A8000394622462B4687F814808BED169AC7E923
:100A90000188C7E9038A00F0E3F8012000F09EFD19
:100AA0003046394622462B4600F0DAF8012000F0A5
:100AB00095FD3046394622462B4600F0D1F80120FC
:100AC00000F08CFD4F20C7E9000830463946224629
:100AD0002B46CBF85C9087F814808BED169AC7E90B
:100AE0000288C7F810A000F0BBF8012000F076FDE6
:100AF0003046394622462B4600F0B2F8012000F07D
:100B00006DFD3046394622462B4600F0A9F80120FB
:100B100000F064FD6F20C7E90008304639462246E0
:100B20002B46CBF85C9087F814808BED169AC7E9BA
:100B30000288C7F810A000F093F8012000F04EFDE5
:100B40003046394622462B4600F08AF8012000F054
:100B500045FD3046394622462B4600F081F80120FB
:100B600000F03CFD8F20C7E9000830463946224698
:100B70002B46CBF85C9087F814808BED169AC7E96A
:100B80000288C7F810A000F06BF8012000F026FDE5
:100B90003046394622462B4600F062F8012000F02C
:100BA0001DFD3046394640F2000722462B46C2F270
:100BB000000700F055F8012000F010FD0A20CBE9F5
:100BC000168800F00BFD97ED070A39EE089AB4EE8F
:100BD000409AF1EE10FA7FF747AF40F2A004C2F25C
:100BE0000004207887ED080A87ED090AC8B9207942
:100BF000B8B19FED0E8A0120B0EE480A02F086F8E7
:100C00000220B0EE480A02F081F80320B0EE480A54
:100C100002F07CF80420B0EE480A02F077F80020D9
:100C20002071BDEC048B01B0BDE8F08F0000000026
:100C300090F82020013A012A08D8006800F1140237
:100C40000020136819431160704700BF00F12402AF
:100C500001204FF480211368194311607047000090
:100C600010B590F820E0D0F800C0AEF1010EBEF152
:100C7000010FDCF808E011D81EF0E05F18D0CEF3C9
:100C8000016EBEF1030F1DD100F1240101204FF4CC
:100C900000020B681A430A6010BD00BF00F1240176
:100CA00001204FF480220B681A430A6010BD00BF78
:100CB00000F1240101204FF400120B681A430A606E
:100CC00010BD00BF012000FA0EF01860886818B14E
:100CD0004B6840EAC30001E008684005D1E90334ED
:100CE00003430CEB0E10C0F88031C0F88441097D3D
:100CF000012905D100F5C2710B6843F480730B60C4
:100D00005168C0F88C11126800F5C071C0F88821D4
:100D1000002001220B681A430A6010BDB0B590F89C
:100D20002020013A012A2FD846F20060C4F20000C8
:100D3000026842F001020260026822F47C52026002
:100D4000D1F814E0CC694A6A0368012C43EA022214
:100D500002600EF01F024FF0010303FA02F2C369B2
:100D60006FEA020C23EA0203C36113D02CBBC368F1
:100D700003EA0C03C360CB688C8844EA034300EBAE
:100D8000CE0423640B4611E0416A41F480214162A4
:100D90000120B0BDC3681343C3600B688C8844EA6C
:100DA000034300EBCE04236401F10C038C681B8821
:100DB00043EA044300EBCE04636443688D6943EA6D
:100DC0000204D1F810E0096A002D08BF03EA0C0400
:100DD00044604369BEF1000F43EA020408BF03EA1E
:100DE0000C040129446102D1C1691143C161016848
:100DF00021F0010101600020B0BD0000704700003B
:100E000010B590F82040013C012C71D8D0F800C0FA
:100E1000002977D0DCF81040A40777D00CEB011C38
:100E2000DCF8B0410CF5D87E14F004049460DCF8D2
:100E3000B04119BFE4085460640D1460DEF800404E
:100E4000002904F00204D460DCF8B44104F00F047B
:100E50001461DCF8B441C4F307249461DCF8B441B4
:100E60004FEA14445461DCF8B8211A70026802EBAE
:100E70000112D2F8B8214FEA12225A70026802EB2E
:100E80000112D2F8B8214FEA12429A70026802EBBE
:100E90000112D2F8B8214FEA1262DA70026802EB4E
:100EA0000112D2F8BC211A71026802EB0112D2F8C9
:100EB000BC214FEA12225A71026802EB0112D2F8E9
:100EC000BC214FEA12429A71026802EB0112D2F879
:100ED000BC214FEA1262DA71006814BF00F1100100
:100EE00000F10C01002020220B681A430A6010BD9B
:100EF00000F1240101204FF480220B681A430A609C
:100F000010BD00BFDCF80C40A40787D100F124011C
:100F100001204FF400120B681A430A6010BD000054
:100F20002DE9F04F81B0044600684669D0F804907E
:100F30008768D0F80CB0D0F810A0D0F81880F1076E
:100F400004D1002530071DD424E000BFF90710D0DC
:100F50000121BA07816009D4780700F1AF80380712
:100F600000F1B680204600F0CFFA02E0204600F003
:100F7000CDFA0025F80500F18780F80300F1B18073
:100F8000300707D51BF0100004D0206845F4007529
:100F90001021C160700708D51BF0080005D020683B
:100FA0000821C160204600F0FBF9B00706D5206893
:100FB000C068800702D0204600F0F4F9700607D51B
:100FC0001AF0100004D0206845F4806510210161FA
:100FD000B00608D51AF0080005D020680821016184
:100FE000204600F05DFAF00606D52068006980070B
:100FF00002D0204600F056FAB00308D519F01000D0
:1010000005D0206810214160204600F04DFAF00321
:1010100008D519F0080005D0206808214160204655
:1010200000F07EFA300440F19B805FEA497040F1A5
:10103000948006F4807008EA102028435FEA8871E3
:10104000014648BF41F00201B20558BF01465FEAC0
:1010500048700D4648BF45F00405700558BF0D4661
:10106000300540F17A8018F0700000F0768010387A
:10107000000905286CD8DFE800F003595D61656957
:1010800045F0080564E000BF20684FF48071BA05A0
:1010900081600BD4780515D438051DD4204600F0A6
:1010A00037FAF8037FF56CAF1BE000BF204600F075
:1010B00031FAF8037FF564AF13E000BF4FF4006529
:1010C00058E700BF05F50055F8037FF559AF08E074
:1010D0004FF480554EE700BF05F58045F8037FF5D6
:1010E0004FAF20684FF48031BA0381600AD478038F
:1010F00010D4380314D4204600F00EFA30073FF520
:1011000041AF47E7204600F009FA30073FF53AAF14
:1011100040E700BF05F5004530073FF533AF39E73D
:1011200005F5803530073FF52DAF33E745F0100565
:101130000EE000BF45F020050AE000BF45F0400585
:1011400006E000BF45F0800502E000BF45F4807571
:101150002068816921F0700181612068042141606B
:1011600055B1606A40EA05012046616201B0BDE800
:10117000F04FFFF743BE00BF01B0BDE8F08F0000A5
:10118000B0B5C8B1044690F8200010B9204600F070
:1011900071F82068016841F00101016000F01CFB5A
:1011A000054600BF20684168C90707D100F014FB5D
:1011B000401B0B28F6D312E00120B0BD016821F0DE
:1011C0000201016000F008FB054600BF206841688D
:1011D00089070DD500F000FB401B0B28F6D3606A91
:1011E000052140F400306062012084F82010B0BD79
:1011F000217E0268012922F0800208BF803202604D
:10120000617E0268012922F0400208BF403202607C
:10121000A17E0268012922F0200208BF203202606C
:10122000E17E0268012922F0100218BF103202602C
:10123000217F0268012922F0080208BF08320260FB
:10124000617F0268012922F0040208BF04320260B3
:10125000D4E901C2D4E9033561691A432A43114331
:10126000ACF101021143C16100200121606284F8E8
:101270002010B0BDB0B586B0006846F60002C4F2DA
:10128000000200219042CDE90411CDE90211019143
:1012900030D046F20041C4F2000188427DD140F2D4
:1012A0007C21C2F200010A6843F64000C4F2020049
:1012B000531C0B6052B900210091016841F000718C
:1012C0000160016801F00071009100990021009116
:1012D00050F8101C152441F0020140F8101C50F881
:1012E000100C142500F00200009000984FF440709C
:1012F00033E000BF43F64000C4F2020000910168F1
:1013000041F080610160016801F080610091009905
:1013100040F27C21C2F200010A68531C0B6052B9F2
:1013200000210091016841F000710160016801F045
:101330000071009100990021009150F8101C412487
:1013400041F0020140F8101C50F8100C402500F04C
:101350000200009000984FF440500190022002904B
:1013600000200390032004900920059040F20040E3
:10137000C4F2020001A900F045F92846002100222C
:1013800000F0AAFA284600F097FA20460021002231
:1013900000F0A2FA204600F08FFA06B0B0BD0000BF
:1013A0007047000070B540F2941540F2201640F2EC
:1013B0000424C2F20005C2F20006C2F2000405F1E4
:1013C000540206F1340320460021FFF719FD40F2D4
:1013D000A001C2F20001487A6B6D013048725809D1
:1013E00003F01F02512BC8810A8201D170BD00BFDA
:1013F000013A162A88BF70BDDFE802F0180C2632C9
:10140000340C0C0C0E0C0C0C0C0C0C0C0C0C0C44BA
:101410000E0C4000EAE700BFB16B40F2802280B2C0
:10142000C2F20002F16342F8201070BD81B204EBF9
:1014300041010A8D16FA80F001320A8596F83810BB
:1014400080F8601070BD00BFB16B80B200EE101A62
:10145000BDEEC00AF16310EE101A295470BD00BF32
:10146000B16B00E0716B00EE101ABDEEC00AF163C3
:1014700010EE101A15FA80F0017570BD706BC86619
:1014800070BD00BFB16B15FA80F000EE101ABDEE12
:10149000C00AF16310EE101A80F8281070BD000029
:1014A000704700007047000070470000B0B5044668
:1014B00090F8200001281DD1022084F82000206827
:1014C000016821F00101016000F086F9054600BFC6
:1014D00020684068C00713D000F07EF9401B0B283D
:1014E000F6D3606A40F400306062052084F8200082
:1014F0000120B0BD606A40F4002060620120B0BDF0
:1015000000206062B0BD000070470000704700001E
:1015100070470000704700007047000070470000EF
:101520007047000070B5866D044600F055F994F8D8
:10153000351002292ED105462068216C026822F060
:1015400016020260426922F08002426109B9A16C70
:1015500019B1016821F008010160016821F0010161
:1015600001600068C00708D000F036F9401B05286C
:1015700018D820680068C007F6D1E06D3F2101FA55
:1015800000F0B060012084F835000020002184F8CC
:10159000341070BD802060650120002184F8341073
:1015A00070BD00BF20206065032084F83500002155
:1015B00084F8341070BD000090F83510022909D16C
:1015C000052180F835100068016821F001010160F3
:1015D000002070478021416501207047B0B5044666
:1015E00000F0FAF8054640F23400C2F2000000783C
:1015F000611C18BF044400BF00F0EEF8401BA0427D
:10160000FAD3B0BD2DE9F04F82B000F13E4241F671
:10161000000502F1FF77C4F2020507224FEAB72660
:10162000A84208BF0622062E38BF4FEAB7224FF065
:10163000010A002400274FF00008009208E000BFD4
:10164000023708F10108202F04F1040400F0B480EF
:101650000E680AFA08F916EA090FF1D0D1F804A0C9
:101660000AF0030BABF10106012E17D8032286689E
:1016700002FA07FECA6826EA0E06BA4032438260C2
:101680004268CAF3001522EA090205FA08F54FEA92
:10169000480C6FEA0E062A4342600BE00322BA4070
:1016A000D643BBF1030FBC4604D1BC464FF0030B3D
:1016B00022E000BFC2688D68324005FA0CF52A436B
:1016C000BBF1020FC26017D16FF0030202EA5802A9
:1016D000024404F01C030F25D2F820E005FA03FAB7
:1016E0000D692EEA0A0E05FA03F343EA0E031362AC
:1016F000D1F804A00AF0030B02680BFA0CF3324095
:101700001A431AF4403F4FF0010A026098D00022B9
:1017100043F644030192C4F202031A6843F6004EF2
:1017200042F480421A601A68C4F2010E02F4804248
:101730000192019A28F003024FF6084C7244CFF64A
:10174000FF7C52F80C3004F00C060F25B540AB437B
:10175000009D05FA06F6334342F80C30DEF8082007
:101760004B6842EA090643F60C4CDD0258BF22EAF8
:101770000906CEF80860C4F2010CDCF800209D02D6
:1017800042EA090658BF22EA0906CCF80060DEF8F2
:1017900004209D0342EA090658BF22EA0906CEF852
:1017A0000460DEF80020DB0342EA090658BF22EAA3
:1017B0000906CEF8006043E702B0BDE8F08F0000F4
:1017C0000069084018BF012070470000002A08BFC8
:1017D000090481617047000040F2A030C2F20000AD
:1017E0000068704740F2340040F2A031C2F20000BD
:1017F000C2F2000100780A681044086070470000D7
:1018000080B543F60040C4F20200016841F4007163
:101810000160016841F480610160016841F48071F8
:101820000160032000F084F80F2000F005F800F0BC
:1018300027F8002080BD000070B540F23406C2F2E7
:10184000000640F23C013278C2F200014FF47A7394
:101850000968B3FBF2F20446B1FBF2F1084600F06E
:10186000B7FB0F2C4FF0010508D838B94FF0FF3007
:1018700021460022002500F02FF87460284670BD34
:1018800082B0002043F640010190C4F202014A6890
:1018900042F480424A604A6802F480420192019A0E
:1018A0000090086840F080500860086800F08050A0
:1018B0000090009802B07047002848BF704700F0C1
:1018C0001F01012202FA01F14EF200124009CEF28C
:1018D000000242F82010704710B54EF60C5CCEF2B4
:1018E000000CDCF80030C3F3022E8EF00704042C49
:1018F00028BF0424BEF103034FF0FF3E0EFA04F4A8
:1019000038BF0023A14399400EFA03F39A4300F035
:101910000F03043B1143634409010C3300F160429F
:10192000B0F1FF3FC8BF02F56443197010BD00005D
:101930004EF60C51CEF200010A684FF6FF031A4032
:1019400060F30A2242F0806040F0FD70086070474A
:1019500070B582B00020019043F64000C4F202004E
:101960000168402641F0805101600068C4F20E26F3
:1019700000F080500190019847F204050120C4F264
:1019800000053060FFF728FF044600BF2868C00349
:1019900006D4FFF721FF001BB0F57A7FF6D90EE0E1
:1019A00001207060FFF718FF044600BF286880031D
:1019B00008D4FFF711FF001BB0F57A7FF6D903209A
:1019C00002B070BD002002B070BD00002DE9F041F2
:1019D000002800F08B8043F60808C4F20208044691
:1019E000D8F8F8030D4600F00F00884207D288F8B7
:1019F000F853D8F8F80300F00F00A84276D1206819
:101A0000810717D5410705D5D8F8001041F4E051FA
:101A1000C8F80010010705D5D8F8001041F460415E
:101A2000C8F80010D8F80010A26821F0F0011143A6
:101A3000C8F80010C0073FD1D8F8F80300F00F0035
:101A4000A84207D988F8F853D8F8F80300F00F0037
:101A5000A8424BD12068410707D5D8F80010E268AA
:101A600021F4E0511143C8F80010000708D5D8F858
:101A70000000216920F4604040EAC100C8F800007D
:101A800000F07CF8D8F8001044F24E52C1F3031174
:101A9000C0F60002515C40F23C0220FA01F140F233
:101AA0003800C2F200000068C2F200021160FFF7C5
:101AB000C3FE0020BDE8F0816068811E022907D2C4
:101AC00058F8081C89015CBF0120BDE8F08111E0D5
:101AD000012807D158F8081C89035CBF0120BDE824
:101AE000F08107E058F8081C890703D40120BDE8FD
:101AF000F08100BFD8F8001021F003010843C8F8B6
:101B00000000FFF769FE064641F28837D8F800006A
:101B1000616800F00C00B0EB810F8DD0FFF75CFE28
:101B2000801BB842F2D90320BDE8F08140F23C00AE
:101B300043F60801C2F20000C4F20201006809681D
:101B400044F25E52C1F38221C0F60002515CC840EB
:101B50007047000040F23C0043F60801C2F200006A
:101B6000C4F202010068096844F25E52C1F34231D6
:101B7000C0F60002515CC8407047000010B543F643
:101B80000404C4F202046068C0F3810142F2004020
:101B9000C0F2F400DFE801F04402081841F200202E
:101BA000C0F27A0010BD00BF216801F03F02216839
:101BB00023684902C3F3881116D4A1FB0001002356
:101BC000FEF770FB17E000BF216801F03F022168BB
:101BD00023684902C3F3881116D4A1FB0001002336
:101BE000FEF760FB17E000BF41F20020C0F27A0070
:101BF0004843B0FBF2F021680222C1F3014102EB3D
:101C00004101B0FBF1F010BD41F20020C0F27A00BA
:101C10004843B0FBF2F02168C1F30271B0FBF1F070
:101C200010BD00002DE9F04182B0002800F0968040
:101C30000446007843F60006C007C4F202062BD023
:101C4000B06800F00C00042820D0B06800F00C0050
:101C5000082802D17068400218D4B06800F00C0067
:101C60000C2802D17068400210D46068B0F5803F43
:101C700007D0B0F5A02F40F03B81306840F48020C1
:101C80003060306840F4803030603BE13068800381
:101C900002D56068002861D02078800722D5B0681E
:101CA00010F00C0F11D0B06800F00C00082802D121
:101CB0007068400209D5B06800F00C000C2840F0B4
:101CC0009F807068400200F19B803068800702D5D9
:101CD000E068012842D13068216920F0F80040EA2C
:101CE000C1003060207800073CD42078400751D4F0
:101CF000A5698DB3B06800F00C00082840F0A880FA
:101D0000012D2BD07068E16900F480028A4225D150
:101D1000216A00F03F028A4220D147F6C071626A10
:101D20000140B1EB821F19D1A26A0023CFF6FF73E5
:101D300003EBC23200F440316FF30F0291420DD138
:101D4000E16A00F07062B2EB016F07D1216B00F025
:101D5000E040B0EB017F01D1002035E1012002B06D
:101D6000BDE8F0816069002840F20000C4F247201D
:101D70005ED00121C0F8801EFFF72EFD054600BF92
:101D8000706F8007B1D4FFF727FD401B0228F7D9F9
:101D9000C5E000BF306C10F080580AD100200190DF
:101DA000306C40F080503064306C00F08050019016
:101DB000019847F20007C4F200073868C00511D443
:101DC000386840F480703860FFF706FD054600BFB4
:101DD0003868C00506D4FFF7FFFC401B0228F7D97E
:101DE0009DE000BFA068012805D0052852D1306FC2
:101DF00040F004003067306F40F00100306753E07E
:101E0000E068002860D00020C4F247200121016072
:101E1000FFF7E2FC054600BF306880073FF55BAF87
:101E2000FFF7DAFC401B02284FF00300F4D9CBE0A7
:101E30000021C0F8801EFFF7CFFC0546706F8007B9
:101E40007FF553AFFFF7C8FC401B0228F6D966E0C8
:101E50000027C4F2472700203866FFF7BDFC022D9B
:101E600005460BD1306880015ED5FFF7B5FC401BFD
:101E700002284FF00300F5D9A6E000BF30688001CA
:101E80007FF56AAFFFF7A8FC401B02284FF0030064
:101E9000F4D999E0316F002821F001013167316FE9
:101EA00021F00401316765D0FFF796FC054641F249
:101EB000883700BF306F80076ED4FFF78DFC401B62
:101EC000B842F7D92BE000BF0020C4F24720002120
:101ED0000160FFF781FC0546306880077FF502AF9F
:101EE000FFF77AFC401B02284FF00300F4D96BE0A7
:101EF0003168002821F480313160316821F480217B
:101F0000316053D0FFF768FC054600BF306880039E
:101F10003FF5C2AEFFF760FC401B6428F6D90320F2
:101F200002B0BDE8F08100BF04F11C052FCD246B89
:101F300008430021CFF6FF7140EA821001EBC33164
:101F40006FF30F0140EA0560084340EA04707060D7
:101F500001203866FFF740FC044600BF306880016E
:101F60003FF5FAAEFFF738FC001B02284FF00300E4
:101F7000F4D929E0FFF730FC054641F2883700BF6D
:101F8000306F800708D5FFF727FC401BB8424FF0A1
:101F90000300F5D918E000BFB8F1000F7FF4A8AE38
:101FA000306C20F080503064A2E600BFFFF714FCD4
:101FB0000546306880037FF56FAEFFF70DFC401BD0
:101FC00064284FF00300F4D902B0BDE8F0810000AE
:101FD000411E0020B0EB116F1CBF012070474EF274
:101FE0001002CEF2000251604EF62351CEF20001F3
:101FF000F0230B700721906011607047704700005C
:1020000070470000002804BF0120704710B5044647
:1020100090F83D0028B9002084F83C00204600F0EC
:102020001FF8022084F83D002068211D01F0CAFA43
:10203000012084F8460084F83E0084F83F0084F8CC
:10204000400084F8410084F8420084F8430084F89A
:10205000440084F8450084F83D00002010BD0000D5
:1020600080B582B0006842F20001C4F200018842EB
:102070001CBF02B080BD0020019043F64000C4F2B6
:1020800002000168002241F48071016000680021B3
:1020900000F48070019001982D20FFF71DFC2D2089
:1020A00002B0BDE88040FFF707BC000070470000A9
:1020B00010B5016804460869800744BFC8685FEA34
:1020C000807039D40869400744BFC8685FEA40702F
:1020D0003ED40869000744BFC8685FEA007045D471
:1020E0000869C00644BFC8685FEAC0604AD408698E
:1020F000C0071CBFC8685FEAC07051D108690006FC
:1021000044BFC8685FEA006052D40869400644BF13
:10211000C8685FEA406053D40869800646BFC86853
:102120005FEA806010BD6FF0200220460A61BDE8C2
:102130001040FFF765BF00BF6FF00200086101208B
:1021400020778869800743D02046FFF7AFFF45E03E
:102150006FF00400086102202077886910F4407F46
:1021600040D02046FFF7A2FF42E000BF6FF008001A
:10217000086104202077C86980073DD02046FFF71A
:1021800095FF3FE06FF01000086108202077C869D4
:1021900010F4407F3AD02046FFF788FF3CE000BFB4
:1021A0006FF001000861204600F03EF82168A5E7C5
:1021B0006FF0800008612046FFF720FF2168A4E748
:1021C0006FF040000861204600F030F82168A3E776
:1021D000204600F025F8204600F024F82168002071
:1021E00020776FE7204600F01BF8204600F01AF831
:1021F0002168002020776CE7204600F011F8204687
:1022000000F010F821680020207769E7204600F0F0
:1022100007F8204600F006F821680020207766E7DE
:1022200070470000704700007047000070470000D2
:102230007047000070470000B0B582B005680446E2
:102240002968EA68686901F02F03202B02F0200357
:1022500006D12BB1204602B0BDE8B04001F062BA11
:102260005FEA017C1EBF00F0010E02F4907010EBDB
:102270000E002FD1236B02EA0100C10618D5012BF5
:1022800016D100200190286801906868019001989B
:102290006869400628D4A08DE18DE28D002A1CBF1C
:1022A000411A5FEA014040F0D58102B0B0BD00BFE5
:1022B000010600F1D1804006F7D5E868202120F022
:1022C0004000E860204684F83D1002B0BDE8B04010
:1022D00000F088BBC80718BF12F4807040F0D080AF
:1022E000480700F1D380D8E0A06B01684A6893B238
:1022F000002BDAD0A18D8B42D7D2E285C069B0F530
:10230000807F00F0A08055E8030F216820F48070E2
:1023100041E80302F2B1206850E8030F216820F47D
:10232000807041E80302AAB1206850E8030F2168D9
:1023300020F4807041E8030262B1206850E8030F86
:10234000216820F4807041E803021AB1206850E847
:10235000030FDAE7206850E8050F216820F001003C
:1023600041E80502BAB3206850E8050F216820F063
:10237000010041E8050272B3206850E8050F2168AA
:1023800020F0010041E805022AB3206850E8050F5B
:10239000216820F0010041E80502002ADAD11AE0A4
:1023A000206850E8050F216820F0400041E8050250
:1023B000DAB1206850E8050F216820F0400041E8BC
:1023C000050292B1206850E8050F216820F0400016
:1023D00041E805024AB1206850E8050F216820F065
:1023E000400041E80502002ADAD1202084F83E00AE
:1023F00000202063206850E8030F216820F01000BF
:1024000041E80302DAB1206850E8030F216820F0A8
:10241000100041E8030292B1206850E8030F2168E0
:1024200020F0100041E803024AB1206850E8030F91
:10243000216820F0100041E80302002ADAD1A06BE5
:10244000FFF770F8A18DE08D081A81B2204602B026
:10245000BDE8B040FFF7ECBE94F83D0021287FF4C2
:1024600024AFA068B0F5805F03D12069002800F098
:102470008781206A411C21620078686087E100BF83
:10248000206C40F001002064480706D5BEF1000F23
:1024900003D0206C40F002002064880706D5BEF10E
:1024A000000F03D0206C40F004002064BCF1000F4A
:1024B00006D55EEA030003D0206C40F008002064DB
:1024C000206C00283FF4F1AE02EA0100800603D53B
:1024D000204601F027F925686869216C00F040006A
:1024E00001F00801401800F0AD8055E8030F00BF6F
:1024F000216820F4907041E80302D2B3206850E8CC
:10250000030F216820F4907041E803028AB3206829
:1025100050E8030F216820F4907041E8030242B3B1
:10252000206850E8030F216820F4907041E803020E
:10253000FAB1206850E8030FDAE700BF206850E8DE
:10254000050F216820F0010041E80502DAB120689A
:1025500050E8050F216820F0010041E8050292B122
:10256000206850E8050F216820F0010041E80502CD
:102570004AB1206850E8050F216820F0010041E8C9
:102580000502002ADAD1206B012824D1206850E806
:10259000030F216820F0100041E80302DAB120683F
:1025A00050E8030F216820F0100041E8030292B1C7
:1025B000206850E8030F216820F0100041E8030272
:1025C0004AB1206850E8030F216820F0100041E86C
:1025D0000302002ADAD1202084F83E000020206384
:1025E00020684169490640F1C58050E8050F21681F
:1025F00020F0400041E80502002A00F0A980206890
:1026000050E8050F216820F0400041E80502002A4B
:1026100000F09E80206850E8050F216820F04000FF
:1026200041E80502002A00F09380206850E8050F79
:10263000216820F0400041E80502002A00F088806F
:102640002068D2E72046FFF7F5FD0020206402B0A5
:10265000B0BD00BF55E8030F226820F4907042E837
:102660000303D3B3206850E8030F226820F490706E
:1026700042E803038BB3206850E8030F226820F47C
:10268000907042E8030343B3206850E8030F2268C8
:1026900020F4907042E80303FBB1206850E8030F78
:1026A000DAE700BF206850E8050F226820F001003B
:1026B00042E80503DBB1206850E8050F226820F0EE
:1026C000010042E8050393B1206850E8050F226835
:1026D00020F0010042E805034BB1206850E8050FE7
:1026E000226820F0010042E80503002BDAD1202007
:1026F00084F83E0000202063206850E8030F226821
:1027000020F0100042E80303DBB1206850E8030F1B
:10271000226820F0100042E8030393B1206850E8DB
:10272000030F226820F0100042E803034BB1206839
:1027300050E8030F226820F0100042E80303002B4A
:10274000DAD189B2204602B0BDE8B040FFF770BDD3
:10275000A06B78B143F21971C0F600010165FEF774
:102760002BFF00283FF4A1ADA06B016D02B0BDE8C6
:10277000B0400847204602B0BDE8B040FFF75ABD60
:10278000206A30F8021B6FF35F2169602062E08CE1
:1027900001380104E0847FF488ADE86820F080000F
:1027A000E860E86840F04000E86002B0B0BD0000BA
:1027B000002804BF0120704710B5044690F83D0082
:1027C00028B9002084F83C00204600F021F824209D
:1027D00084F83D002068C16821F40051C1602046A2
:1027E00001F022F82068016921F4904101614169FA
:1027F00021F02A014161C16841F40051C16000200B
:102800002021206484F83D1084F83E1010BD0000A3
:10281000F0B587B0006845F20001C4F20001002461
:102820008842CDE90544CDE9034402942AD044F618
:102830000041C4F2000188426DD1002043F630010E
:102840000190C4F202010A69342442F400220A61B0
:102850000A6902F400220192019A01900A6842F08A
:1028600001020A600968022201F001010191019947
:102870000321CDE90320002002910591C4F202005A
:102880003CE000BF43F630000194C4F2020001694D
:10289000002741F4801101610169C4F2020701F4CB
:1028A00080110191019901940168022541F0040110
:1028B00001600168032601F004010191019901946E
:1028C000016841F008010160006802A900F00800F9
:1028D000019001984FF4805002900820069007F56F
:1028E0000060CDE903540596FEF78CFE0420CDE987
:1028F0000205CDE9044607F540603524082106911C
:1029000002A9FEF77FFE204600210022FEF7E4FF29
:102910002046FEF7D1FF07B0F0BD000090F83E3032
:10292000202B0BD100294FF0010318BF002A01D141
:102930001846704790F83C30012B01D102207047B7
:1029400000230363816222218285C285036480F8AB
:102950003E100269016880F83C301AB1C86840F442
:102960008070C8604869002340F001004861C86871
:1029700040F02000C86018467047000080B500682D
:1029800044F60041C4F20001884215D045F200012E
:10299000C4F20001884218BF80BD40F22010C2F28C
:1029A000000000F1440140F25C30C2F20000082255
:1029B000BDE88040FFF7B2BF40F22010C2F2000035
:1029C00000F14C0140F21830C2F200000822FFF77B
:1029D000A5FF40F2A000C2F20000817A01318172AD
:1029E00080BD000070470000FEE70000FEE7000029
:1029F000FEE70000704700002DE9F0472DED028B47
:102A000040F2A009C2F2000999F80100022840F042
:102A1000758199F8040099F8071040F2201481425A
:102A2000C2F200040AD194ED000A94ED021AB4EE49
:102A3000401AF1EE10FA31D16CE000BF04281ED824
:102A4000DFE800F004080E14180000BF0021C9F8E8
:102A5000701012E00021CCF2A011C9F870100EE045
:102A60000021C4F2A011C9F8701008E00021C4F2DE
:102A7000A01102E00021CCF2A011C9F8741099ED68
:102A80001C0A89F8070084ED000A84ED010A94ED20
:102A9000021AB4EE401AF1EE10FA3BD040F294154F
:102AA000C2F2000540F22D1040F2042845F83C0F18
:102AB0004FF0000A042004F1580604F13007C2F276
:102AC0000008C5E903A04046294632463B4685F842
:102AD00014A0C5E901AA84ED160AFEF7C1F8012089
:102AE000FEF77CFD4046294632463B46FEF7B8F8E5
:102AF0000120FEF773FD4046294632463B46FEF76D
:102B0000AFF80120FEF76AFD2068C4F858A0C4F8A9
:102B10005CA0A06094ED010A94ED031AB4EE401A93
:102B2000F1EE10FA3BD040F29415C2F2000540F2EB
:102B30004D1040F2042845F83C0F4FF0000A0420E5
:102B400004F1580604F13007C2F20008C5E903A0F9
:102B50004046294632463B4685F814A0C5E901AAFD
:102B600084ED160AFEF77CF80120FEF737FD40469B
:102B7000294632463B46FEF773F80120FEF72EFD4C
:102B80004046294632463B46FEF76AF80120FEF7EA
:102B900025FD6068C4F858A0C4F85CA0E06099ED19
:102BA0001D0A99ED1E1AB4EE401AF1EE10FA00F06B
:102BB000A580B5EE400AF1EE10FA4DD0B1EE048AD0
:102BC0000120B0EE480A00F0A1F80220B0EE480A59
:102BD00000F09CF80320B0EE480A00F097F80420BB
:102BE000B0EE480A042600F091F8D9F8740040F2DB
:102BF0009415C2F2000540F20D1145F83C1F002764
:102C000044F8580F40F20428C5E90376A4F12806D9
:102C1000C2F2000840462946224633462F75C5E9D0
:102C20000177FEF71DF80120FEF7D8FC4046294643
:102C300022463346FEF714F80120FEF7CFFC40464B
:102C4000294622463346FEF70BF80120FEF7C6FC64
:102C5000C4E900774EE000BF40F29415C2F20005CF
:102C600040F20D1040F2042845F83C0F4FF0000AE6
:102C7000042004F1580604F13007C2F20008C5E947
:102C800003A04046294632463B4685F814A0C5E9D4
:102C900001AA84ED160AFDF7E3FF0120FEF79EFC72
:102CA0004046294632463B46FDF7DAFF0120FEF753
:102CB00095FC4046294632463B46FDF7D1FF0120B0
:102CC000FEF78CFC9FED0F8A0120B0EE480AC4E9A4
:102CD00016AA00F01BF80220B0EE480A00F016F821
:102CE0000320B0EE480A00F011F80420B0EE480AC4
:102CF00000F00CF8D9F87400C9F87800BDEC028B2C
:102D0000BDE8F08700000000704700002DE9F043A7
:102D100081B0411E032940F2A001C2F200014A78AD
:102D2000B1EE401A38BFB0EE410A022A15D0097937
:102D3000032909D0042910D1C11EB1EE401A02297D
:102D400038BFB0EE410A08E0C11EB1EE401A0229B8
:102D500038BFB0EE401AB0EE410A40F29414400180
:102D600040F22019C2F200040E30C2F2000940F213
:102D7000042844F83C0F0027042009F1580509F104
:102D80003006C2F20008C4E90370404621462A46D4
:102D900033462775C4E9017789ED160AFDF760FF10
:102DA0000120FEF71BFC404621462A463346FDF72C
:102DB00057FF0120FEF712FC404621462A463346C3
:102DC000FDF74EFF0120FEF709FCC9E9167701B0B7
:102DD000BDE8F0832DE9F04F81B02DED048B40F27A
:102DE000A008C2F2000898F80100022800F0E8826A
:102DF00098F8069040F2000BC2F2000BA9F15A00BD
:102E00009BED079A00EE100AB8EEC08A19EE100A80
:102E100018EE106A88ED0B8A01F016FB044626F0C6
:102E200000400D4601F010FB9FED6A0A064689EE50
:102E3000000A0F4610EE100A01F006FB32463B4630
:102E400001F016F902460B462046294601F068F8C3
:102E500001F034F898ED0D1A00EE100AB4EE481A9D
:102E6000F1EE10FAC8F8300014D198ED0E2AB4EE45
:102E7000402AF1EE10FA0DD198F8040098ED0A2AD4
:102E800003EE100AB8EE433AB4EE432AF1EE10FA1C
:102E900000F09682B3EE042AB4EE420AF1EE10FA84
:102EA00040F37F82B9F1560F00F2968040F2802005
:102EB000C2F2000090ED042AB4EE481AF1EE10FAC6
:102EC000B0EEC21A80F22481B0EE008A31EE089A88
:102ED000B4EE409AF1EE10FAC24600F3638240F27B
:102EE000201BC2F2000B40F2042900260BF158040B
:102EF0000BF13005C2F200094FF0080840F29417B8
:102F0000C2F200076F2147F83C1F44F24821ABF89A
:102F10005E104846394622462B463E758BED169A82
:102F2000C7E90166C7E90368FDF79AFE0120FEF7CD
:102F300055FB4846394622462B46FDF791FE0120B7
:102F4000FEF74CFB4846394622462B46FDF788FEE5
:102F50000120FEF743FB0020C4F24820CBF85C00C0
:102F60008F20C7E900064846394622462B463E7563
:102F70008BED169AC7E90266C7F81080FDF770FE60
:102F80000120FEF72BFB4846394622462B46FDF72B
:102F900067FE0120FEF722FB4846394622462B46B3
:102FA000FDF75EFE0120FEF719FB0A20CBE916664D
:102FB000FEF714FB40F20000C2F200009AED0C0A8A
:102FC00080ED069A39EE089AB4EE409AF1EE10FAC6
:102FD00094DDE7E10000C8C2B9F15D0F40F2228143
:102FE00040F28020C2F2000090ED012AB4EE481AAF
:102FF000F1EE10FAB0EEC21A40F3E881B0EE008AAA
:1030000031EE089AB4EE409AF1EE10FAC24600F39F
:10301000C98140F22019C2F2000940F204264FF0A3
:10302000000B09F1580409F13005C2F200064FF017
:10303000080800BF40F29417C2F200072F2147F89A
:103040003C1F44F24821A9F85E103046394622461A
:103050002B4687F814B089ED169AC7E901BBC7E97A
:1030600003B8FDF7FDFD0120FEF7B8FA30463946FA
:1030700022462B46FDF7F4FD0120FEF7AFFA30465D
:10308000394622462B46FDF7EBFD0120FEF7A6FA56
:103090000020C4F24820C9F85C004F20C7E9000BAB
:1030A0003046394622462B4687F814B089ED169AE9
:1030B000C7E902BBC7F81080FDF7D2FD0120FEF77B
:1030C0008DFA3046394622462B46FDF7C9FD0120D0
:1030D000FEF784FA3046394622462B46FDF7C0FDFE
:1030E0000120FEF77BFA0A20C9E916BBFEF776FA43
:1030F00040F20000C2F200009AED0C0A80ED069A40
:1031000039EE089AB4EE409AF1EE10FA92DD49E1F8
:10311000BFEE008A31EE089AB4EE409AF1EE10FA52
:10312000C246C0F23F8140F22010D846C2F20000F1
:1031300040F2042640F2201B4FF0000900F1580431
:1031400000F13005C2F20006C2F2000B40F2941703
:10315000C2F200076F2047F83C0F44F24820ABF85A
:103160005E00082038613046394622462B4687F8F3
:1031700014908BED169AC7E90199C7F80C90FDF7EA
:103180006FFD0120FEF72AFA3046394622462B46CB
:10319000FDF766FD0120FEF721FA3046394622464A
:1031A0002B46FDF75DFD0120FEF718FA0020C4F262
:1031B0004820CBF85C008F20C7E90009082038615F
:1031C0003046394622462B4687F814908BED169AE6
:1031D000C7E90299FDF744FD0120FEF7FFF93046EB
:1031E000394622462B46FDF73BFD0120FEF7F6F956
:1031F0003046394622462B46FDF732FD0120FEF7C8
:10320000EDF90A20CBE91699FEF7E8F99AED0C0AD8
:1032100088ED069A39EE089AB4EE409AF1EE10FA6B
:1032200094DABFE040F29414C2F200042F2040F27E
:10323000201944F83C0FC2F2000944F2482040F241
:10324000042A0027A9F85E0009F15805082009F1B1
:103250003006C2F2000AC4E90370504621462A46ED
:103260003346277589ED169AC4E90177FDF7F8FC16
:103270000120FEF7B3F9504621462A463346FDF7B2
:10328000EFFC0120FEF7AAF9504621462A463346B4
:10329000FDF7E6FC0120FEF7A1F90021DBF81C0098
:1032A000C4F24821C9E916014F20C4E900070820EB
:1032B0002061504621462A4633462775C4E90277E5
:1032C000FDF7CEFC0120FEF789F9504621462A463B
:1032D0003346FDF7C5FC0120FEF780F95046214634
:1032E0002A463346FDF7BCFC0120FEF777F9DBF8F0
:1032F0001C000021C4F24821C9E916016F20C4E96D
:10330000000708202061504621462A46334627758B
:10331000C4E90277FDF7A4FC0120FEF75FF95046EF
:1033200021462A463346FDF79BFC0120FEF756F95D
:10333000504621462A463346FDF792FC0120FEF70F
:103340004DF9DBF81C000021C4F24821C9E916013F
:103350008F20C4E9000708202061504621462A46F4
:1033600033462775C4E90277FDF77AFC0120FEF7A2
:1033700035F9504621462A463346FDF771FC0120B7
:10338000FEF72CF9504621462A463346FDF768FCE5
:103390000120FEF723F998ED0C0AC9F85870C9F816
:1033A0005C70C246DAF82C008AED0E0ACAF83400C6
:1033B0009AF8040000EE100AB8EE400A8AED0A0AF4
:1033C000BDEC048B01B0BDE8F08F00BFBFEE008AFA
:1033D00031EE089AB4EE409AF1EE10FAC246E1DB03
:1033E00040F22019C2F2000940F204264FF0000B0F
:1033F00009F1580409F13005C2F200064FF008083F
:1034000040F29417C2F200072F2147F83C1F44F204
:103410004821A9F85E103046394622462B4687F8E7
:1034200014B089ED169AC7E901BBC7E903B8FDF7E7
:1034300017FC0120FEF7D2F83046394622462B46CB
:10344000FDF70EFC0120FEF7C9F83046394622464A
:103450002B46FDF705FC0120FEF7C0F80020C4F262
:103460004820C9F85C004F20C7E9000B30463946B8
:1034700022462B4687F814B089ED169AC7E902BB9D
:10348000C7F81080FDF7ECFB0120FEF7A7F83046E7
:10349000394622462B46FDF7E3FB0120FEF79EF856
:1034A0003046394622462B46FDF7DAFB0120FEF76F
:1034B00095F83220C9E916BBFEF790F840F20000FB
:1034C000C2F200009AED0C0A80ED069A39EE089AD5
:1034D000B4EE409AF1EE10FA92DA63E7FEF782B9A1
:1034E00080B594B0002043F64001CDE90B00CDE952
:1034F00009000690CDE90400CDE902000190C4F274
:1035000002010A6842F080520A60096801F08051A5
:1035100001910199019047F20000C4F20000016896
:1035200041F44041016000684FF4800100F44040E4
:1035300001900198012007904FF480300E910421F2
:10354000089002200F91B4210D90CDE91010CDE923
:10355000120007A8FEF766FB20B1EFF3108072B6E9
:10356000FEE700BFFEF7F4F920B1EFF3108072B66A
:10357000FEE700BF0F20029003200390002004907C
:103580004FF4A05005904FF48050069002A80521FA
:10359000FEF71CFA20B1EFF3108072B6FEE700BF11
:1035A00014B080BD4EF68850CEF20000016841F4A0
:1035B000700101607047000040F2D020C2F20000AC
:1035C000FEF776BD10B540F6FF3E0368C4F2000E6C
:1035D00040F2004C7045C4F2010C27DCB0F1804F82
:1035E00031D040F20042C4F2000290422BD040F6AB
:1035F0000002C4F20002904225D041F6FF72C4F2EC
:103600000002904229DC70453CDCB0F1804F5FD075
:1036100040F20042C4F20002904259D040F600024B
:10362000C4F20002904253D056E000BF40F6004280
:10363000C4F20002904206D0604504D00022C4F2D9
:1036400001029042D9D14A6823F07003134341F636
:10365000FF72C4F200029042D5DD43F6FF72C4F25D
:103660000102904222DC42F20002C4F200029042C7
:103670002ED00022C4F20102904229D0604527D00A
:103680002AE000BF40F60042C4F2000290421FD080
:1036900041F60002C4F20002904219D041F6004205
:1036A000C4F20002904213D016E000BF44F20002C0
:1036B000C4F2010290420BD044F60002C4F20102AF
:1036C000904205D044F20042C4F20102904203D17C
:1036D000CA6823F44073134323F080024B69D1F886
:1036E00000E08C681A430260C46240F48062C0F853
:1036F00028E0624504BF096901630121416110BDF1
:1037000040F21830C2F20000FEF796BD40F25C3085
:10371000C2F20000FEF790BD806B0021C185C1841C
:10372000FEF788BD81B090F83E10222920D1836831
:10373000B3F5805F08D10169002957D000F1280155
:103740000A6803685B680AE0014651F8282F13B93C
:103750000369002BF5D003685B6803F07F031370E7
:103760000A6801320A60C18D01390A04C18501D09D
:1037700001B070470168CA6822F02002CA60CA68B6
:1037800022F48072CA604A6922F001024A61202252
:1037900080F83E20026B012A32D10022026300BF72
:1037A00051E8031F026821F0100142E803135BB3E4
:1037B000016851E8031F026821F0100142E8031379
:1037C00013B3016851E8031F026821F0100142E8B9
:1037D0000313CBB1016851E8031F026821F0100107
:1037E00042E8031383B10168DAE700BF0168826A27
:1037F00049686FF35F2122F8021B8262B3E700BFC2
:1038000001B0FFF7BBB800BF01680A68D20606D551
:10381000002200920A680092496800910099818D07
:1038200001B0FEF705BD000010B504460068D4E9FC
:1038300002C22369016921F44051114301616269A7
:1038400043EA0C01E3691143C268194349F20C636E
:103850009A431143C1604169A26921F4407141F268
:103860000043114340F48062C4F201039A42416173
:1038700002D1FEF76FF901E0FEF758F9E1696368DC
:103880001922B1F5004FA0FB02011FD15A00DB0F36
:10389000FCF708FD48F21F51C5F2EB11A0FB012314
:1038A0005A096FF0630302FB0300322303EBC000ED
:1038B000A0FB01014FF4F87000EA111000EB0210B8
:1038C000C1F3421122680843906010BD9A009B0F1B
:1038D000FCF7E8FC48F21F51C5F2EB11A0FB0123F5
:1038E0005A096FF0630302FB0300322303EB00105D
:1038F000A0FB0101F02000EA511000EB0210C1F31F
:10390000431122680843906010BD0000FEE70000EC
:103910008CB040F6000BC4F2020BFDF771FFFFF70D
:10392000DFFD002643F6300006960196C4F2020041
:103930000168002241F004010160016801F0040106
:10394000019101990196016841F0800101600168CF
:1039500001F08001019101990196016841F0010196
:103960000160016801F0010101910199019601686E
:1039700041F002010160016801F002010191019929
:103980000196016841F0080101600068C42100F05F
:103990000800019001985846FDF718FF02AD042772
:1039A0000124584629460297CDE903460594FDF7C0
:1039B00029FEABF500602946CDE902760496FDF7B5
:1039C00021FEC02002A951C1584629460596FDF79F
:1039D00019FE4FF40060CDE90206584629460496C8
:1039E000FDF710FE40F20425C2F20005ABF5D2311E
:1039F000284640F8501F0C274FF430214FF4801216
:103A0000C0E90176C0E90361C0E905268683FDF7B8
:103A1000B7FB28B1EFF3108072B600BFFEE700BF1E
:103A2000ABF5D0304FF42021C5E9000705F11000B7
:103A30004FF4001246C02846C5E90266AE83FDF782
:103A40009FFB28B1EFF3108072B600BFFEE700BF06
:103A5000012000260A900E21CDE9086040F20420E2
:103A600007910B91C2F2000002A9CDE90266CDE9EF
:103A700004660696FDF752F940F2D020ABF5F4311A
:103A8000C2F2000040F2E73342F2273280E84600FB
:103A9000C0E903368661FEF7B5FA28B1EFF310806E
:103AA00072B600BFFEE700BF584640210022FDF776
:103AB0008DFE584680210022FDF788FE40F2042545
:103AC000C2F200052846FDF7F1FC28460221FDF769
:103AD000AFF840F6B830FDF781FD40F21830ABF595
:103AE000DE31C2F200004FF4E1370C25C0E90017C7
:103AF000C0E90266C0E90465C0E90666FEF758FE43
:103B000020B1EFF3108072B6FEE700BF40F25C30E8
:103B1000ABF5DC31C2F200004FF0000A80E882040D
:103B2000C0E903AAC0E9055AC0F81CA0FEF740FE90
:103B300020B1EFF3108072B6FEE700BF40F220150F
:103B4000C2F2000540F25C3005F14401C2F200000F
:103B500008220824FEF7E2FE2F4640F2941647F8AA
:103B6000584FC2F20006A72040F2042846F83C0F46
:103B70000420A7F12809C2F200083061404631460E
:103B80003A464B460824C6E902AAFDF769F8142014
:103B9000FDF724FD404631463A464B46FDF760F8B6
:103BA0001420FDF71BFD404631463A464B46FDF7D3
:103BB00057F81420FDF712FD404631463A464B4671
:103BC000FDF74EF81420FDF709FD404631463A4610
:103BD0004B46FDF745F81420FDF700FD6420FDF786
:103BE000FDFC04203061C7203060404631463A4633
:103BF0004B463C600824C6E902AAFDF731F81420C0
:103C0000FDF7ECFC404631463A464B46FDF728F8B6
:103C10001420FDF7E3FC404631463A464B46FDF79B
:103C20001FF81420FDF7DAFC404631463A464B4671
:103C3000FDF716F81420FDF7D1FC404631463A4610
:103C40004B46FDF70DF81420FDF7C8FC6420FDF786
:103C5000C5FC04203061E7203060404631463A46DA
:103C60004B463C60C6E902AA0424FCF7F9FF142085
:103C7000FDF7B4FC404631463A464B46FCF7F0FFB0
:103C80001420FDF7ABFC404631463A464B46FCF764
:103C9000E7FF1420FDF7A2FC404631463A464B466A
:103CA000FCF7DEFF1420FDF799FC404631463A460A
:103CB0004B46FCF7D5FF1420FDF790FC6420FDF780
:103CC0008DFC0820386040F20710306040463146D5
:103CD0003A464B46C6E902AA3461FCF7C1FF1420FC
:103CE000FDF77CFC404631463A464B46FCF7B8FFB0
:103CF0001420FDF773FC404631463A464B46FCF72C
:103D0000AFFF1420FDF76AFC404631463A464B4669
:103D1000FCF7A6FF1420FDF761FC404631463A4609
:103D20004B46FCF79DFF1420FDF758FC6420FDF77F
:103D300055FC082038600420306140F227103060C4
:103D4000404631463A464B460824C6E902AAFCF7EB
:103D500087FF1420FDF742FC404631463A464B4669
:103D6000FCF77EFF1420FDF739FC404631463A4609
:103D70004B46FCF775FF1420FDF730FC40463146FA
:103D80003A464B46FCF76CFF1420FDF727FC4046F3
:103D900031463A464B46FCF763FF1420FDF71EFC04
:103DA0006420FDF71BFC0420306140F247103060B6
:103DB000404631463A464B463C60C6E902AAFCF70B
:103DC0004FFF1420FDF70AFC404631463A464B4669
:103DD000FCF746FF1420FDF701FC404631463A4609
:103DE0004B46FCF73DFF1420FDF7F8FB40463146FB
:103DF0003A464B46FCF734FF1420FDF7EFFB4046F4
:103E000031463A464B46FCF72BFF1420FDF7E6FB04
:103E10006420FDF7E3FBFCF715FB4FF4FA60FDF7B8
:103E2000DDFBFCF70FFB4FF4FA60FDF7D7FBFCF767
:103E300009FB4FF4FA60FDF7D1FBFCF703FB4FF4ED
:103E4000FA60FDF7CBFB584640210122FDF7BEFC8E
:103E5000584680210122FDF7B9FC40F2A006C2F2CB
:103E6000000605E0FCF73EFCFEF7C6FDFEF7B2FFDC
:103E700058464FF40061FDF7A3FC95F844103070EC
:103E8000AA29EFD195F84B00FF28EBD195F8450012
:103E900095F846107070B07895F8472095F848303E
:103EA000002918BF0846B07095F8490095F84A10E7
:103EB0007271B3713071F170D4E7000021F00042EB
:103EC00001F00043A2F16052B2F5801F28BFD2F189
:103ED0007F6C0BD95FEA001C43EAC20242EB5070D0
:103EE00018BF704728BF20F001007047B2F5801F4F
:103EF000BCBF184670474FEA410C1CF5001F02D2A8
:103F0000084600F01FBB70B500F05CF900000089A6
:103F1000FFF7F6BF4FF00040A0F5800070470000AB
:103F200010B591EA030F48BF83F0004300F1A6816A
:103F3000841A71EB030C05D2121943EB0C03001B1E
:103F400061EB0C014FEA1154A4EB135CDFF81CE1A8
:103F50001EEA430F18BF9EEA445F00F0748021EA16
:103F6000045123EA0E0343F48013DCF1200E32D314
:103F700022FA0CFE10EB0E0023FA0CFE41EB0E01B0
:103F8000CCF1200E03FA0EFE10EB0E00CCF1200E49
:103F900051F10001B1F5801F32D201EB045112FA48
:103FA0000EF2BDE8104058BF7047401C38BF5FEAB2
:103FB000420218BF7047002814BF20F0010041F1F1
:103FC00000014FEA410313F5001F38BF7047A1F10C
:103FD000C04100F045B9012A43EB0302ACF1200CCB
:103FE000DCF11F0E32BF4FF0000E23FA0CF310EB82
:103FF000030041EB0451B4EB115FD0D0A1EB0451AD
:1040000001F58011490801EB04515FEA30000ED33D
:1040100050F1000038BF12FA0EFE08D1BDE8104082
:10402000C9E7401C38BF5FEA4202CAD1C3E7BDE816
:1040300010404FEA410313F5001F38BF7047A1F14C
:10404000C04100F00DB99EEA445F08D011EA5E0F4E
:10405000BDE8104004BF01F0004100207047BDE8FA
:10406000104070B500F0AEF864FBBE3E0000E0FF0B
:1040700070B5DFF848C11CEA111E1EBF1CEA1315FB
:104080009EEA0C0F95EA0C0F00F06F8081EA0304A2
:104090004EEAD47EAE4421EA4C1123EA4C1341F49B
:1040A000801143F48013AEF17F7EA1FB024CA0FB94
:1040B0000365361955EB0C05A1FB034C4CF10003CD
:1040C000A0FB021C16EB0C06654153F100030942EC
:1040D00018BF46F0010613F4007F0BD14FEA0331FD
:1040E0004FEA053041EA155140EA165034036FF0AB
:1040F00003020AE04FEAC3214FEAC52041EA5551C5
:1041000040EA5650F4026FF0020202EB2E4201EB3D
:10411000025585EACE710AD05FEA440C18BF24F03C
:10412000004450F1000041F1000120EAD47040F257
:10413000FE7C624500D270BDA84214BF4FF080449F
:104140004FF04044002E08BF0024BEF1806FA8BF8E
:10415000A1F1C041BDE8704080F2828001F1C04110
:1041600001F000414FF0000070470CEA13159EEA81
:104170000C0F18BF95EA0C0F06D081EA030E4FF022
:1041800000000EF0004170BD00F01CF88900013EF7
:1041900000F007B800F009B84FEA430C5FEA5C5C36
:1041A00008D081EA030100F05BB84FEA410C5FEAF6
:1041B0005C5CF6D102494FF0000070470000FF0739
:1041C0000000F87F0EF1020E2EF0030E5EF8046B75
:1041D000364205D4012A43EB030515F5001F12D81A
:1041E000012841EB010C1CF5001F0CD80ED14FEA41
:1041F000D17C0CEB4C0C0CF1020C15F5001F08BF28
:104200004CEBD37C04E04FF0080C01E04FEAD37C88
:104210000CEB4C0526FA05F606F00706B6F1040C81
:1042200006D20EEB860CBDE870404CF0010C6047E6
:10423000DFE80CF0090B02024FF00041A1F500216C
:104240004FF0000070BD19461046012851EB0104E3
:1042500018BFD4F5001484BF002001F0004170BDE8
:104260000808A0F500114FEA3101704710B591EA36
:10427000030F48BF83F000433FF55AAE841A71EB39
:10428000030C07D28CF0004C121943EB0C03001BFB
:1042900061EB0C014FEA1154A4EB135CDFF8A4E1CD
:1042A0001EEA430F18BF9EEA445F00F0B48021EA83
:1042B000045123EA6E035242C3EB6E0338BF5B1E08
:1042C000DCF1200E25D322FA0CFE10EB0E0043FA8F
:1042D0000CFE41EB0E01CCF1200E03FA0EFE10EBAA
:1042E0000E00CCF1200E51F1000129D401EB045154
:1042F00012FA0EF2BDE8104058BF7047401C1CBFB8
:10430000B2F1004F704700280CBF491C20F001009B
:10431000704712EB020E43EB030218BF4FF0010E81
:104320004EEA4202ACF1200CDCF11E0E56D943FAE3
:104330000CFE10EB0E00CCF11E0E51F1FF31D5D565
:104340000EF1010E12FA0EFE404141EB010101EBAC
:10435000445C5FEA5C5C10D901EB045110EBDE7049
:1043600038BFBEF1004FBDE8104018BF70470028AD
:104370000CBF491C20F00100704734D24FEAD42C06
:1043800024F4006411F500111BD0B1FA81F20B3A4C
:10439000A41AA41ED2F12003914030FA03F319436A
:1043A000904001EBCC7101EB0451002CBDE81040B2
:1043B000A8BF704701F1C04101F000414FF000007B
:1043C0007047B0FA80F310FA03F102D1BDE8104053
:1043D0007047E41A173C4805C90AE2E701EB0451AB
:1043E000BDE81040704749104FEA300001EB04511E
:1043F000BDE8104002E04FF0000170474A0008BFDE
:104400000042F8D0B2F5001F28BF704701F000410C
:104410004FF0000070479EEA445F07D011EA5E0F3C
:10442000BDE8104004BF002100207047BDE81040E7
:1044300070B5FFF7C7FE00BF40DFF63E104683F0C1
:10444000004170470000E0FF43004FEAD30C4FEA01
:104450003C0C43401FBF40070CF1605113F0FE4F6E
:1044600070471CF0006F03D10CF000410020704732
:104470000CF0004343EA507040EACC0010B500F065
:104480000EF800BF000000924FEA0001FFF7E8BEFF
:104490004FF00041A1F500214FF0000070470EF1F0
:1044A000020E2EF0030E5EF8044B244204D44FEAB1
:1044B0004102B2F17F4F11D84FEA4003B3F17F4F71
:1044C0000CD80ED14FEAD07C0CEB4C0C0CF1020C4A
:1044D000B2F17F4F08BF4CEBD17C04E04FF0080CE9
:1044E00001E04FEAD17C0CEB4C0324FA03F404F016
:1044F0000704B4F1040C06D20EEB840CBDE81040A6
:104500004CF0010C6047DFE80CF0070802024FF0A6
:104510000040A0F5800010BD0846420018BFD2F14F
:10452000807288BF00F0004010BDF1EE100A4FF617
:10453000FF71C0F2C03120EA010040F04070E1EEAE
:10454000100A7047FF2141EAD050C00570470000B3
:104550000000000000000102030406070809000033
:10456000000001020304000088450008000000204C
:104570004000000000020008C8450008400000207C
:10458000680900001C020008010C0D0E0101020167
:10459000270072018E012101BD01BF027D000000D4
:1045A000000020420000803F0000803FCDCC4CBE88
:1045B000110000000F0000000F00000001000000CB
:0845C000100000000024F400CB
:04000005080001C529
:00000001FF
