:020000040800F2
:10000000180A002065020008C1290008B929000863
:10001000BD2900081104000851410008000000003B
:10002000000000000000000000000000E9300008AF
:100030004D05000800000000A12D0008A5360008AD
:100040007F0200087F0200087F0200087F0200088C
:100050007F0200087F0200087F0200087F0200087C
:100060007F0200087F0200087F0200087F0200086C
:100070007F0200087F0200087F0200087F0200085C
:100080007F0200087F0200087F0200087F0200084C
:1000900015040008210400087F0200087F02000800
:1000A0007F0200087F0200087F0200087F0200082C
:1000B0007F0200087F0200087F0200087F0200081C
:1000C0007F0200087F0200087F0200087F0200080C
:1000D0007F0200087F0200087F0200087F020008FC
:1000E0007F0200087F0200087F0200087F020008EC
:1000F0007F020008813700087F0200087F020008A5
:100100007F0200087F0200087F0200087F020008CB
:10011000453F0008513F00087F0200087F020008A9
:100120007F0200087F0200087F0200087F020008AB
:100130007F02000800000000000000007F020008AD
:100140002D040008390400087F0200087F0200081F
:100150007F0200087F0200087F0200087F0200087B
:100160007F0200087F0200087F0200087F0200086B
:100170007F0200087F0200087F02000800000000E4
:10018000000000007F0200080000000000000000E6
:100190007F02000800000000000000007F0200084D
:1001A0000000000000000000000000007F020008C6
:1001B0007F0200087F0200087F0200087F0200081B
:1001C0007F02000800F002F800F03CF80AA090E876
:1001D000000C82448344AAF10107DA4501D100F002
:1001E00031F8AFF2090EBAE80F0013F0010F18BF93
:1001F000FB1A43F001031847444500006445000022
:10020000103A24BF78C878C1FAD8520724BF30C842
:1002100030C144BF04680C60704700000023002414
:1002200000250026103A28BF78C1FBD8520728BF06
:1002300030C148BF0B6070471FB504F065FA1FBDA1
:1002400010B510BD00F0A9F81146FFF7F5FF03F057
:1002500081FF00F0C7F803B4FFF7F2FF03BC00F022
:10026000CFF800000948804709480047FEE7FEE74D
:10027000FEE7FEE7FEE7FEE7FEE7FEE7FEE7FEE756
:1002800004480549054A064B704700006D370008D1
:10029000C501000818040020180A002018060020D4
:1002A0001806002053EA020C00F069802DE9F04B9B
:1002B0004FF00006002B1FBFB3FA83F503FA05F4D5
:1002C00024FA05F65E4012BF1643B2FA82F502FA2E
:1002D00005F4C5F120051EBF22FA05FC44EA0C0412
:1002E000203556EA044C4FEA144418BF641C4FF002
:1002F00000084FF00009904271EB030C39D300293C
:1003000019BFB1FA81F701FA07F6B0FA80F700FADF
:1003100007F6C7F120071EBF20FA07FC46EA0C06C5
:100320002037B6FBF4FCA7EB0507103F07F01F0BC7
:10033000CBF120062CFA06F60CFA0BFB44BFB346B1
:100340000026202FA4BF5E464FF0000B5BEA060C90
:1003500008BF4FF0010B19EB0B0948EB0608ABFB8C
:10036000027C06FB02CC0BFB03CCC01B71EB0C0127
:10037000C1E70B46024641464846BDE8F08B13B53F
:10038000084318BF4FF0FF300146AFF30080BDE8CF
:100390001C407047704770477047754600F02CF856
:1003A000AE4605006946534620F00700854618B062
:1003B00020B5FFF765FFBDE820404FF000064FF085
:1003C00000074FF000084FF0000BAC46ACE8C00946
:1003D000ACE8C009ACE8C009ACE8C00921F00701ED
:1003E0008D46704710B50446AFF300802046BDE847
:1003F0001040FFF730BF0000004870476000002049
:1004000001491820ABBEFEE726000200704700003D
:10041000FEE7000040F2FC20C2F2000000F0C6BA85
:1004200040F2FC20C2F2000000F0C0BA40F24C20C2
:10043000C2F2000000F0BABA40F24C20C2F2000052
:1004400000F0B4BA70B540F2B814C2F20004607C97
:1004500040F2302540F23C160828C2F20005C2F2F4
:1004600000063BD1A07C082853D1E07C082817D097
:100470007620214641F8600F04200022C1E90222C3
:100480000861A1F1580205F11C0006F15C0300F0BF
:100490002DF9012000F014FF4FF4FA6000F010FF76
:1004A000207D082808BF70BD962044F8600F042006
:1004B0000021C4E902112061A4F1580205F11C00D9
:1004C00006F15C03214600F011F9012000F0F8FE6E
:1004D0004FF4FA60BDE8704000F0F2BE36202146CD
:1004E00041F8600F04200022C1E902220861A1F155
:1004F000580205F11C0006F15C0300F0F7F801203A
:1005000000F0DEFE4FF4FA6000F0DAFEA07C08286E
:10051000ABD05620214641F8600F04200022C1E9EB
:1005200002220861A1F1580205F11C0006F15C03EA
:1005300000F0DCF8012000F0C3FE4FF4FA6000F098
:10054000BFFEE07C0828ABD092E7000070470000B7
:10055000F0B581B040F2F437044643F60C46C2F2DF
:1005600000070020C4F20206F86101F01FF93168AB
:10057000C9031DD43068C0071CBF0120306030683B
:1005800010F4F97F30D03068C00635D4306880066A
:100590003BD43068400641D43068000647D4306808
:1005A000C0054DD43068800754D4012001B0F0BD9F
:1005B000F4B10546601C0DD13068C003DAD530684F
:1005C000C00344BF30685FEAC030D3D53068C00391
:1005D000F2D4CFE701F0EAF8401BA04208D8306817
:1005E000C003F7D4C6E700BF002001B0F0BD00BFD4
:1005F000032001B0F0BD00BFF86940F01000F861C1
:100600001020306030688006C3D5F86940F00800DB
:10061000F8612020306030684006BDD5F86940F0B0
:100620000400F8614020306030680006B7D5F869F2
:1006300040F00200F861802030603068C005B1D51C
:10064000F86940F00100F8614FF480703060306864
:100650008007AAD5F86940F02000F86102203060D8
:10066000012001B0F0BD0000B0B586B00C460546D3
:1006700000F09AFF002001900220059048F200004F
:10068000C0F600000321854208BF0221012003912A
:10069000049001A8694600F027FE28B1EFF310800E
:1006A00072B600BFFEE700BFE317012029462246CD
:1006B00000F0EAFE00F0DEFE06B0B0BD90F82020AB
:1006C000013A012A08D8006800F1140200201368DA
:1006D00019431160704700BF00F1240201204FF45C
:1006E00080211368194311607047000010B590F81D
:1006F00020E0D0F800C0AEF1010EBEF1010FDCF831
:1007000008E011D81EF0E05F18D0CEF3016EBEF104
:10071000030F1DD100F1240101204FF400020B68EA
:100720001A430A6010BD00BF00F1240101204FF4FC
:1007300080220B681A430A6010BD00BF00F124013B
:1007400001204FF400120B681A430A6010BD00BF6D
:10075000012000FA0EF01860886818B14B6840EA72
:10076000C30001E008684005D1E9033403430CEB02
:100770000E10C0F88031C0F88441097D012905D1EF
:1007800000F5C2710B6843F480730B605168C0F8C8
:100790008C11126800F5C071C0F888210020012278
:1007A0000B681A430A6010BDB0B590F82020013ADA
:1007B000012A2FD846F20060C4F20000026842F01D
:1007C00001020260026822F47C520260D1F814E057
:1007D000CC694A6A0368012C43EA022202600EF0E7
:1007E0001F024FF0010303FA02F2C3696FEA020C21
:1007F00023EA0203C36113D02CBBC36803EA0C03D2
:10080000C360CB688C8844EA034300EBCE042364C6
:100810000B4611E0416A41F4802141620120B0BDE4
:10082000C3681343C3600B688C8844EA034300EB3E
:10083000CE04236401F10C038C681B8843EA044353
:1008400000EBCE04636443688D6943EA0204D1F887
:1008500010E0096A002D08BF03EA0C0444604369F4
:10086000BEF1000F43EA020408BF03EA0C040129A9
:10087000446102D1C1691143C161016821F00101E4
:1008800001600020B0BD00007047000010B590F876
:100890002040013C012C71D8D0F800C0002977D04D
:1008A000DCF81040A40777D00CEB011CDCF8B04159
:1008B0000CF5D87E14F004049460DCF8B04119BF44
:1008C000E4085460640D1460DEF80040002904F070
:1008D0000204D460DCF8B44104F00F041461DCF8C5
:1008E000B441C4F307249461DCF8B4414FEA1444E2
:1008F0005461DCF8B8211A70026802EB0112D2F8D8
:10090000B8214FEA12225A70026802EB0112D2F8A3
:10091000B8214FEA12429A70026802EB0112D2F833
:10092000B8214FEA1262DA70026802EB0112D2F8C3
:10093000BC211A71026802EB0112D2F8BC214FEA05
:1009400012225A71026802EB0112D2F8BC214FEA5E
:1009500012429A71026802EB0112D2F8BC214FEAEE
:100960001262DA71006814BF00F1100100F10C018D
:10097000002020220B681A430A6010BD00F12401F8
:1009800001204FF480220B681A430A6010BD00BF9B
:10099000DCF80C40A40787D100F1240101204FF4BA
:1009A00000120B681A430A6010BD00002DE9F04FD9
:1009B00081B0044600684669D0F804908768D0F892
:1009C0000CB0D0F810A0D0F81880F10704D10025A1
:1009D00030071DD424E000BFF90710D00121BA0769
:1009E000816009D4780700F1AF80380700F1B68044
:1009F000204600F0FBFB02E0204600F0F9FB00255A
:100A0000F80500F18780F80300F1B180300707D5C1
:100A10001BF0100004D0206845F400751021C1605F
:100A2000700708D51BF0080005D020680821C160B8
:100A3000204600F0FBF9B00706D52068C0688007A3
:100A400002D0204600F0F4F9700607D51AF0100025
:100A500004D0206845F4806510210161B00608D5F6
:100A60001AF0080005D0206808210161204600F036
:100A700089FBF00606D520680069800702D0204671
:100A800000F082FBB00308D519F0100005D02068F3
:100A900010214160204600F079FBF00308D519F0E1
:100AA000080005D0206808214160204600F0AAFB1C
:100AB000300440F19B805FEA497040F1948006F475
:100AC000807008EA102028435FEA8871014648BF19
:100AD00041F00201B20558BF01465FEA48700D4679
:100AE00048BF45F00405700558BF0D46300540F17C
:100AF0007A8018F0700000F0768010380009052820
:100B00006CD8DFE800F003595D61656945F00805C0
:100B100064E000BF20684FF48071BA0581600BD497
:100B2000780515D438051DD4204600F063FBF80382
:100B30007FF56CAF1BE000BF204600F05DFBF803C3
:100B40007FF564AF13E000BF4FF4006558E700BFC6
:100B500005F50055F8037FF559AF08E04FF48055CF
:100B60004EE700BF05F58045F8037FF54FAF2068DD
:100B70004FF48031BA0381600AD4780310D438036B
:100B800014D4204600F03AFB30073FF541AF47E769
:100B9000204600F035FB30073FF53AAF40E700BF95
:100BA00005F5004530073FF533AF39E705F58035EA
:100BB00030073FF52DAF33E745F010050EE000BFDD
:100BC00045F020050AE000BF45F0400506E000BF03
:100BD00045F0800502E000BF45F48075206881691A
:100BE00021F07001816120680421416055B1606A83
:100BF00040EA05012046616201B0BDE8F04FFFF711
:100C000043BE00BF01B0BDE8F08F0000B0B5C8B171
:100C1000044690F8200010B9204600F071F82068D2
:100C2000016841F00101016000F0C0FD054600BF10
:100C300020684168C90707D100F0B8FD401B0B28A8
:100C4000F6D312E00120B0BD016821F0020101607D
:100C500000F0ACFD054600BF2068416889070DD54E
:100C600000F0A4FD401B0B28F6D3606A052140F478
:100C700000306062012084F82010B0BD217E02683F
:100C8000012922F0800208BF80320260617E026882
:100C9000012922F0400208BF40320260A17E0268B2
:100CA000012922F0200208BF20320260E17E0268A2
:100CB000012922F0100218BF10320260217F026861
:100CC000012922F0080208BF08320260617F026831
:100CD000012922F0040208BF04320260D4E901C2F3
:100CE000D4E9033561691A432A431143ACF1010287
:100CF0001143C16100200121606284F82010B0BD61
:100D0000B0B586B0006846F60002C4F200020021C9
:100D10009042CDE90411CDE90211019130D046F2A3
:100D20000041C4F2000188427DD140F2A021C2F20C
:100D300000010A6843F64000C4F20200531C0B6035
:100D400052B900210091016841F000710160016811
:100D500001F00071009100990021009150F8101CE1
:100D6000152441F0020140F8101C50F8100C142515
:100D700000F00200009000984FF4407033E000BF94
:100D800043F64000C4F202000091016841F0806126
:100D90000160016801F080610091009940F2A0219A
:100DA000C2F200010A68531C0B6052B90021009185
:100DB000016841F000710160016801F0007100916B
:100DC00000990021009150F8101C412441F00201CB
:100DD00040F8101C50F8100C402500F00200009064
:100DE00000984FF4405001900220029000200390A0
:100DF000032004900920059040F20040C4F2020054
:100E000001A900F0E9FB28460021002200F04EFD78
:100E1000284600F03BFD20460021002200F046FD60
:100E2000204600F033FD06B0B0BD00007047000062
:100E300070B540F2302440F23C16C2F20004C2F217
:100E4000000604F11C0006F1600300212246FFF7B2
:100E50001DFD40F2C000C2F20000417A236801315A
:100E60004172590903F01F02053B122B8182C28295
:100E700000F2D480DFE813F014005E009800D20086
:100E8000D200D200D200D200D200D200D200D200D2
:100E9000D200D200D200D200D200D200F80000BFAF
:100EA000B4F85C20B6F860300132A4F85C201ABABD
:100EB000120C028300EE102A40F20002C2F200027D
:100EC0001289B8EE400A01EE102AB8EE411A30EE4F
:100ED000410A9FEDA81A9FEDA82A30EE011AB4EE40
:100EE000420AF1EE10FAC8BFB0EE410A9FEDA31A14
:100EF0009FEDA32A30EE011AB4EE420AF1EE10FA89
:100F0000B8BFB0EE410AB6EE001A20EE010A80ED3D
:100F10001B0A95E000EE100A40F2B812BDEEC00ABE
:100F2000C2F20002B06610EE100A12FA81F181F8E6
:100F3000380070BDB4F85E10B6F860200131A4F836
:100F40005E1011BA090C418300EE101A40F2000144
:100F5000C2F200014989B8EE400A01EE101AB8EE5B
:100F6000411A30EE410A9FED831A9FED832A30EE3D
:100F7000011AB4EE420AF1EE10FAC8BFB0EE410A0F
:100F80009FED7E1A9FED7E2A30EE011AB4EE420AE2
:100F9000F1EE10FAB8BFB0EE410AB6EE001A20EE3C
:100FA000010A80ED1C0A70BDB4F86010B6F860202C
:100FB0000131A4F8601011BA090C818300EE101AF7
:100FC00040F20001C2F200018989B8EE400A01EE48
:100FD000101AB8EE411A30EE410A9FED661A9FEDE5
:100FE000662A30EE011AB4EE420AF1EE10FAC8BFDA
:100FF000B0EE410A9FED611A9FED612A30EE011AB1
:10100000B4EE420AF1EE10FAB8BFB0EE410AB6EE05
:10101000001A20EE010A80ED1D0A70BD013A162A61
:1010200000F2A680DFE802F00EA45C6E0CA4A4A47B
:1010300070A4A4A4A4A4A4A4A4A4A48698A4A20074
:10104000306E67E788B204EB4000B0F8442001320C
:10105000A0F8442040F2B81296F86400C2F20002F0
:1010600012FA81F1087470BDB4F86200B6F860102D
:101070000130A4F8620008BA000C00EE100A40F239
:101080000000C2F20000C08AB8EE400A01EE100A69
:10109000B8EE411A86ED0E0A30EE410A9FED351A80
:1010A0009FED352A30EE011AB4EE420AF1EE10FA45
:1010B000C8BFB0EE410A9FED311A9FED312A30EEE4
:1010C000011AB4EE420AF1EE10FAB8BFB0EE410ACE
:1010D000B6EE001A20EE010A86ED090A70BD00BFC7
:1010E000706E40F2B81200EE100ABDEEC00AC2F2F5
:1010F0000002B06610EE100A12FA81F181F82400A5
:1011000070BD00BF706E05E7706E8AB240F2A42316
:10111000C9B2C2F200030829B06643F8220018BF22
:1011200070BD306E00EE100ABDEEC00AF06186EDB3
:10113000080A70BD706E40F2B81200EE100ABDEEE3
:10114000C00AC2F20002B06610EE100A12FA81F173
:1011500081F84C0070BD00BF706E40F2A42289B2CD
:10116000C2F20002B06642F8210070BD316E8167A4
:1011700070BD00BF000034C40000B443000034441C
:101180000080B3C370470000704700007047000044
:10119000B0B5044690F8200001281DD1022084F843
:1011A00020002068016821F00101016000F0FEFAD2
:1011B000054600BF20684068C00713D000F0F6FA6B
:1011C000401B0B28F6D3606A40F4003060620520B3
:1011D00084F820000120B0BD606A40F40020606205
:1011E0000120B0BD00206062B0BD0000704700006B
:1011F0007047000070470000704700007047000013
:10120000704700007047000070B5866D044600F01E
:10121000CDFA94F8351002292ED105462068216CAC
:10122000026822F016020260426922F080024261E6
:1012300009B9A16C19B1016821F0080101600168C8
:1012400021F0010101600068C00708D000F0AEFA8B
:10125000401B052818D820680068C007F6D1E06D4B
:101260003F2101FA00F0B060012084F83500002031
:10127000002184F8341070BD8020606501200021B9
:1012800084F8341070BD00BF20206065032084F80E
:101290003500002184F8341070BD000090F835103E
:1012A000022909D1052180F835100068016821F074
:1012B00001010160002070478021416501207047D5
:1012C000B0B5044600F072FA054640F24800C2F29A
:1012D00000000078611C18BF044400BF00F066FAEB
:1012E000401BA042FAD3B0BD2DE9F04381B040F2DB
:1012F000F438C2F2000898F81820012A04D102201C
:1013000001B0BDE8F08300BF0546012088F8180051
:101310004CF250308946FFF71BF928B1002188F8BC
:10132000181001B0BDE8F0834FF0FF30C9F800009D
:10133000286843F610470128C4F202071CD1286927
:101340003968000221F440713960396880B241F097
:10135000040139603968084340F4803038604CF249
:101360005030FFF7F5F8396821F00401396057F87B
:10137000101C89053BD452E0D5E902603044864216
:1013800030D2F40028694FF44072C1B203293968A1
:101390004FEA002021F440713960396838BF82B2C9
:1013A00041EA02003860386820F0F8003860386898
:1013B000204340F002003860386840F480303860E4
:1013C0004CF25030FFF7C4F83968002821F0FA01D8
:1013D000396047D1D5E9020101360844864204F15B
:1013E0000804CFD3002057F8101C890517D557F8EB
:1013F000101C21F4007147F8101C57F8101C41F420
:10140000006147F8101C57F8101C21F4006147F8E0
:10141000101C57F8101C41F4007147F8101C57F8C5
:10142000101C49057FF57AAF57F8101C21F4806134
:1014300047F8101C57F8101C41F4805147F8101C55
:1014400057F8101C21F4805147F8101C57F8101C55
:1014500041F4806147F8101C002188F8181001B091
:10146000BDE8F083C9F8006057F8101C8905BED4A8
:10147000D5E7000043F61041C4F20201086840F0CD
:10148000004200200A6070472DE9F04381B040F22D
:10149000F434C2F200049046227E012A04D10220D4
:1014A00001B0BDE8F08300BF0746012020764CF272
:1014B00050301E460D46FFF74BF828B1002121762B
:1014C00001B0BDE8F08300BF43F61049022FC4F21B
:1014D000020917D0012F2BD0002F3FD1D9F80000DF
:1014E00020F44070C9F80000D9F80000C9F80000E5
:1014F000D9F8000040F00100C9F8000085F800802C
:1015000043E000BFD9F8000020F44070C9F80000A3
:10151000D9F8000040F40070C9F80000D9F80000C4
:1015200040F00100C9F80000C5F800802DE000BFC0
:10153000D9F8000020F44070C9F80000D9F8000084
:1015400040F48070C9F80000D9F8000040F00100B4
:10155000C9F80000A5F8008017E000BFD9F8000026
:1015600020F44070C9F80000D9F8000040F4407041
:10157000C9F80000D9F8000040F00100C9F80000E7
:10158000C5F80080BFF36F8F6E604CF25030FEF7ED
:10159000DFFFD9F8001021F00101C9F80010002187
:1015A000217601B0BDE8F08343F60440C4F20200A6
:1015B000C168B1F1FF3FC4BF0020704740F2231162
:1015C000C4F26751016048F6AB11CCF6EF510160EF
:1015D000C068C00F704700002DE9F04F82B000F1E5
:1015E0003E4241F6000502F1FF77C4F202050722F0
:1015F0004FEAB726A84208BF0622062E38BF4FEA98
:10160000B7224FF0010A002400274FF00008009293
:1016100008E000BF023708F10108202F04F104049C
:1016200000F0B4800E680AFA08F916EA090FF1D042
:10163000D1F804A00AF0030BABF10106012E17D874
:101640000322866802FA07FECA6826EA0E06BA4036
:10165000324382604268CAF3001522EA090205FAA1
:1016600008F54FEA480C6FEA0E062A4342600BE089
:101670000322BA40D643BBF1030FBC4604D1BC469B
:101680004FF0030B22E000BFC2688D68324005FABC
:101690000CF52A43BBF1020FC26017D16FF00302B1
:1016A00002EA5802024404F01C030F25D2F820E09D
:1016B00005FA03FA0D692EEA0A0E05FA03F343EA66
:1016C0000E031362D1F804A00AF0030B02680BFAB0
:1016D0000CF332401A431AF4403F4FF0010A026003
:1016E00098D0002243F644030192C4F202031A6820
:1016F00043F6004E42F480421A601A68C4F2010EAA
:1017000002F480420192019A28F003024FF6084C3D
:101710007244CFF6FF7C52F80C3004F00C060F2513
:10172000B540AB43009D05FA06F6334342F80C3052
:10173000DEF808204B6842EA090643F60C4CDD024D
:1017400058BF22EA0906CEF80860C4F2010CDCF8A2
:1017500000209D0242EA090658BF22EA0906CCF899
:101760000060DEF804209D0342EA090658BF22EA21
:101770000906CEF80460DEF80020DB0342EA090621
:1017800058BF22EA0906CEF8006043E702B0BDE880
:10179000F08F00000069084018BF0120704700006A
:1017A000002A08BF090481617047000040F214401C
:1017B000C2F200000068704740F2480040F2144155
:1017C000C2F20000C2F2000100780A68104408600A
:1017D0007047000080B543F60040C4F20200016883
:1017E00041F400710160016841F4806101600168A9
:1017F00041F480710160032000F084F80F2000F0B4
:1018000005F800F027F8002080BD000070B540F218
:101810004806C2F2000640F254013278C2F20001DA
:101820004FF47A730968B3FBF2F20446B1FBF2F1AC
:10183000084600F0B7FB0F2C4FF0010508D838B967
:101840004FF0FF3021460022002500F02FF8746091
:10185000284670BD82B0002043F640010190C4F2DA
:1018600002014A6842F480424A604A6802F48042B7
:101870000192019A0090086840F080500860086862
:1018800000F080500090009802B07047002848BFD8
:10189000704700F01F01012202FA01F14EF200121E
:1018A0004009CEF2000242F82010704710B54EF603
:1018B0000C5CCEF2000CDCF80030C3F3022E8EF08C
:1018C0000704042C28BF0424BEF103034FF0FF3E9D
:1018D0000EFA04F438BF0023A14399400EFA03F333
:1018E0009A4300F00F03043B1143634409010C3396
:1018F00000F16042B0F1FF3FC8BF02F564431970C8
:1019000010BD00004EF60C51CEF200010A684FF6F1
:10191000FF031A4060F30A2242F0806040F0FD703D
:101920000860704770B582B00020019043F6400017
:10193000C4F202000168402641F080510160006855
:10194000C4F20E2600F080500190019847F2040581
:101950000120C4F200053060FFF728FF044600BFF5
:101960002868C00306D4FFF721FF001BB0F57A7F7B
:10197000F6D90EE001207060FFF718FF044600BFA3
:101980002868800308D4FFF711FF001BB0F57A7FA9
:10199000F6D9032002B070BD002002B070BD000077
:1019A0002DE9F041002800F08B8043F60808C4F2CE
:1019B00002080446D8F8F8030D4600F00F008842EC
:1019C00007D288F8F853D8F8F80300F00F00A842BF
:1019D00076D12068810717D5410705D5D8F80010C2
:1019E00041F4E051C8F80010010705D5D8F80010FF
:1019F00041F46041C8F80010D8F80010A26821F046
:101A0000F0011143C8F80010C0073FD1D8F8F8031F
:101A100000F00F00A84207D988F8F853D8F8F80367
:101A200000F00F00A8424BD12068410707D5D8F835
:101A30000010E26821F4E0511143C8F800100007DB
:101A400008D5D8F80000216920F4604040EAC100C0
:101A5000C8F8000000F07CF8D8F8001044F22272B8
:101A6000C1F30311C0F60002515C40F2540220FAA7
:101A700001F140F24C00C2F200000068C2F2000224
:101A80001160FFF7C3FE0020BDE8F0816068811E91
:101A9000022907D258F8081C89015CBF0120BDE863
:101AA000F08111E0012807D158F8081C89035CBFB8
:101AB0000120BDE8F08107E058F8081C890703D42D
:101AC0000120BDE8F08100BFD8F8001021F003012B
:101AD0000843C8F80000FFF769FE064641F2883760
:101AE000D8F80000616800F00C00B0EB810F8DD0D9
:101AF000FFF75CFE801BB842F2D90320BDE8F081FD
:101B000040F2540043F60801C2F20000C4F20201A0
:101B10000068096844F23272C1F38221C0F6000203
:101B2000515CC8407047000040F2540043F6080181
:101B3000C2F20000C4F202010068096844F2327285
:101B4000C1F34231C0F60002515CC840704700004A
:101B500010B543F60404C4F202046068C0F38101C6
:101B600042F20040C0F2F400DFE801F0440208183D
:101B700041F20020C0F27A0010BD00BF216801F0E0
:101B80003F02216823684902C3F3881116D4A1FBE0
:101B900000010023FEF786FB17E000BF216801F07B
:101BA0003F02216823684902C3F3881116D4A1FBC0
:101BB00000010023FEF776FB17E000BF41F2002092
:101BC000C0F27A004843B0FBF2F021680222C1F370
:101BD000014102EB4101B0FBF1F010BD41F20020E8
:101BE000C0F27A004843B0FBF2F02168C1F3027101
:101BF000B0FBF1F010BD00002DE9F04182B00028EB
:101C000000F096800446007843F60006C007C4F250
:101C100002062BD0B06800F00C00042820D0B06879
:101C200000F00C00082802D17068400218D4B06897
:101C300000F00C000C2802D17068400210D46068DB
:101C4000B0F5803F07D0B0F5A02F40F03B81306861
:101C500040F480203060306840F4803030603BE1F8
:101C60003068800302D56068002861D02078800742
:101C700022D5B06810F00C0F11D0B06800F00C0045
:101C8000082802D17068400209D5B06800F00C0045
:101C90000C2840F09F807068400200F19B80306803
:101CA000800702D5E068012842D13068216920F020
:101CB000F80040EAC1003060207800073CD420786A
:101CC000400751D4A5698DB3B06800F00C00082816
:101CD00040F0A880012D2BD07068E16900F48002EB
:101CE0008A4225D1216A00F03F028A4220D147F67C
:101CF000C071626A0140B1EB821F19D1A26A002350
:101D0000CFF6FF7303EBC23200F440316FF30F02E2
:101D100091420DD1E16A00F07062B2EB016F07D120
:101D2000216B00F0E040B0EB017F01D1002035E1F4
:101D3000012002B0BDE8F0816069002840F2000097
:101D4000C4F247205ED00121C0F8801EFFF72EFDAF
:101D5000054600BF706F8007B1D4FFF727FD401B19
:101D60000228F7D9C5E000BF306C10F080580AD1C6
:101D700000200190306C40F080503064306C00F0F6
:101D800080500190019847F20007C4F200073868BC
:101D9000C00511D4386840F480703860FFF706FD44
:101DA000054600BF3868C00506D4FFF7FFFC401B9E
:101DB0000228F7D99DE000BFA068012805D00528BA
:101DC00052D1306F40F004003067306F40F00100B6
:101DD000306753E0E068002860D00020C4F247205C
:101DE00001210160FFF7E2FC054600BF3068800773
:101DF0003FF55BAFFFF7DAFC401B02284FF0030012
:101E0000F4D9CBE00021C0F8801EFFF7CFFC0546D7
:101E1000706F80077FF553AFFFF7C8FC401B0228A7
:101E2000F6D966E00027C4F2472700203866FFF79E
:101E3000BDFC022D05460BD1306880015ED5FFF751
:101E4000B5FC401B02284FF00300F5D9A6E000BF07
:101E5000306880017FF56AAFFFF7A8FC401B0228BD
:101E60004FF00300F4D999E0316F002821F001010F
:101E70003167316F21F00401316765D0FFF796FCBF
:101E8000054641F2883700BF306F80076ED4FFF7F8
:101E90008DFC401BB842F7D92BE000BF0020C4F2F4
:101EA000472000210160FFF781FC0546306880076C
:101EB0007FF502AFFFF77AFC401B02284FF00300CA
:101EC000F4D96BE03168002821F480313160316849
:101ED00021F48021316053D0FFF768FC054600BF34
:101EE000306880033FF5C2AEFFF760FC401B6428FA
:101EF000F6D9032002B0BDE8F08100BF04F11C0553
:101F00002FCD246B08430021CFF6FF7140EA8210E9
:101F100001EBC3316FF30F0140EA0560084340EA6B
:101F20000470706001203866FFF740FC044600BF73
:101F3000306880013FF5FAAEFFF738FC001B02283D
:101F40004FF00300F4D929E0FFF730FC054641F2D9
:101F5000883700BF306F800708D5FFF727FC401B8C
:101F6000B8424FF00300F5D918E000BFB8F1000FF8
:101F70007FF4A8AE306C20F080503064A2E600BF41
:101F8000FFF714FC0546306880037FF56FAEFFF75E
:101F90000DFC401B64284FF00300F4D902B0BDE8EB
:101FA000F0810000411E0020B0EB116F1CBF01202A
:101FB00070474EF21002CEF2000251604EF62351ED
:101FC000CEF20001F0230B70072190601160704782
:101FD0007047000070470000002804BF01207047D0
:101FE00010B5044690F83D0028B9002084F83C0064
:101FF000204600F01FF8022084F83D002068211DD3
:1020000001F0E8FB012084F8460084F83E0084F8E3
:102010003F0084F8400084F8410084F8420084F8CE
:10202000430084F8440084F8450084F83D00002013
:1020300010BD000080B582B0006842F20001C4F219
:10204000000188421CBF02B080BD0020019043F611
:102050004000C4F202000168002241F48071016076
:102060000068002100F48070019001982D20FFF796
:102070001DFC2D2002B0BDE88040FFF707BC00002A
:102080007047000010B5016804460869800744BF26
:10209000C8685FEA807039D40869400744BFC868DF
:1020A0005FEA40703ED40869000744BFC8685FEA31
:1020B000007045D40869C00644BFC8685FEAC060C4
:1020C0004AD40869C0071CBFC8685FEAC07051D114
:1020D0000869000644BFC8685FEA006052D4086916
:1020E000400644BFC8685FEA406053D40869800670
:1020F00046BFC8685FEA806010BD6FF020022046CE
:102100000A61BDE81040FFF765BF00BF6FF0020035
:102110000861012020778869800743D02046FFF7B7
:10212000AFFF45E06FF00400086102202077886966
:1021300010F4407F40D02046FFF7A2FF42E000BFEE
:102140006FF00800086104202077C86980073DD03F
:102150002046FFF795FF3FE06FF010000861082070
:102160002077C86910F4407F3AD02046FFF788FFF7
:102170003CE000BF6FF001000861204600F03EF82F
:102180002168A5E76FF0800008612046FFF720FF77
:102190002168A4E76FF040000861204600F030F8A5
:1021A0002168A3E7204600F025F8204600F024F837
:1021B0002168002020776FE7204600F01BF82046BA
:1021C00000F01AF82168002020776CE7204600F024
:1021D00011F8204600F010F821680020207769E708
:1021E000204600F007F8204600F006F8216800209D
:1021F000207766E7704700007047000070470000D6
:10220000704700007047000070470000B0B582B012
:10221000056804462968EA68686901F02F03202BE5
:1022200002F0200306D12BB1204602B0BDE8B04039
:1022300001F09ABE5FEA017C1EBF00F0010E02F4BD
:10224000907010EB0E002FD1236B02EA0100C10643
:1022500018D5012B16D100200190286801906868DC
:10226000019001986869400628D4A08DE18DE28D27
:10227000002A1CBF411A5FEA014040F0D58102B03C
:10228000B0BD00BF010600F1D1804006F7D5E86877
:10229000202120F04000E860204684F83D1002B084
:1022A000BDE8B04000F086BBC80718BF12F48070CC
:1022B00040F0D080480700F1D380D8E0A06B0168DF
:1022C0004A6893B2002BDAD0A18D8B42D7D2E28537
:1022D000C069B0F5807F00F0A08055E8030F216849
:1022E00020F4807041E80302F2B1206850E8030F47
:1022F000216820F4807041E80302AAB1206850E808
:10230000030F216820F4807041E8030262B1206865
:1023100050E8030F216820F4807041E803021AB1ED
:10232000206850E8030FDAE7206850E8050F2168BD
:1023300020F0010041E80502BAB3206850E8050F1B
:10234000216820F0010041E8050272B3206850E8DE
:10235000050F216820F0010041E805022AB320683A
:1023600050E8050F216820F0010041E80502002A2D
:10237000DAD11AE0206850E8050F216820F040000B
:1023800041E80502DAB1206850E8050F216820F025
:10239000400041E8050292B1206850E8050F21682D
:1023A00020F0400041E805024AB1206850E8050FDE
:1023B000216820F0400041E80502002ADAD12020FF
:1023C00084F83E0000202063206850E8030F216855
:1023D00020F0100041E80302DAB1206850E8030F52
:1023E000216820F0100041E8030292B1206850E813
:1023F000030F216820F0100041E803024AB1206871
:1024000050E8030F216820F0100041E80302002A81
:10241000DAD1A06BFEF7F8FEA18DE08D081A81B22B
:10242000204602B0BDE8B040FFF7ECBE94F83D0096
:1024300021287FF424AFA068B0F5805F03D1206924
:10244000002800F08781206A411C216200786860C2
:1024500087E100BF206C40F001002064480706D5EA
:10246000BEF1000F03D0206C40F00200206488070A
:1024700006D5BEF1000F03D0206C40F004002064AC
:10248000BCF1000F06D55EEA030003D0206C40F0DB
:1024900008002064206C00283FF4F1AE02EA01003D
:1024A000800603D5204601F05FFD25686869216C30
:1024B00000F0400001F00801401800F0AD8055E840
:1024C000030F00BF216820F4907041E80302D2B3EB
:1024D000206850E8030F216820F4907041E803025F
:1024E0008AB3206850E8030F216820F4907041E817
:1024F000030242B3206850E8030F216820F4907073
:1025000041E80302FAB1206850E8030FDAE700BFA0
:10251000206850E8050F216820F0010041E805021D
:10252000DAB1206850E8050F216820F0010041E889
:10253000050292B1206850E8050F216820F00100E3
:1025400041E805024AB1206850E8050F216820F0F3
:10255000010041E80502002ADAD1206B012824D1CC
:10256000206850E8030F216820F0100041E80302C2
:10257000DAB1206850E8030F216820F0100041E82C
:10258000030292B1206850E8030F216820F0100088
:1025900041E803024AB1206850E8030F216820F0A7
:1025A000100041E80302002ADAD1202084F83E001E
:1025B0000020206320684169490640F1C58050E849
:1025C000050F216820F0400041E80502002A00F0D4
:1025D000A980206850E8050F216820F0400041E8FC
:1025E0000502002A00F09E80206850E8050F21684F
:1025F00020F0400041E80502002A00F093802068A6
:1026000050E8050F216820F0400041E80502002A4B
:1026100000F088802068D2E72046FFF7F5FD002013
:10262000206402B0B0BD00BF55E8030F226820F45B
:10263000907042E80303D3B3206850E8030F226888
:1026400020F4907042E803038BB3206850E8030F36
:10265000226820F4907042E8030343B3206850E8F6
:10266000030F226820F4907042E80303FBB1206856
:1026700050E8030FDAE700BF206850E8050F226832
:1026800020F0010042E80503DBB1206850E8050FA7
:10269000226820F0010042E8050393B1206850E869
:1026A000050F226820F0010042E805034BB12068C5
:1026B00050E8050F226820F0010042E80503002BD6
:1026C000DAD1202084F83E0000202063206850E802
:1026D000030F226820F0100042E80303DBB12068FA
:1026E00050E8030F226820F0100042E8030393B182
:1026F000206850E8030F226820F0100042E803032E
:102700004BB1206850E8030F226820F0100042E827
:102710000303002BDAD189B2204602B0BDE8B040F5
:10272000FFF770BDA06B78B143F65D71C0F6000194
:102730000165FEF7B3FD00283FF4A1ADA06B016D6C
:1027400002B0BDE8B0400847204602B0BDE8B04046
:10275000FFF75ABD206A30F8021B6FF35F216960F2
:102760002062E08C01380104E0847FF488ADE868E1
:1027700020F08000E860E86840F04000E86002B0C7
:10278000B0BD0000002804BF0120704710B504460A
:1027900090F83D0028B9002084F83C00204600F065
:1027A00021F8242084F83D002068C16821F40051FC
:1027B000C160204601F05AFC2068016921F4904173
:1027C0000161416921F02A014161C16841F4005170
:1027D000C16000202021206484F83D1084F83E1060
:1027E00010BD0000F0B587B0006845F20001C4F2EA
:1027F000000100248842CDE90544CDE90344029458
:102800002AD044F60041C4F2000188426DD1002074
:1028100043F630010190C4F202010A69342442F403
:1028200000220A610A6902F400220192019A0190D1
:102830000A6842F001020A600968022201F00101FF
:10284000019101990321CDE9032000200291059116
:10285000C4F202003CE000BF43F630000194C4F231
:1028600002000169002741F4801101610169C4F28D
:10287000020701F480110191019901940168022578
:1028800041F0040101600168032601F00401019197
:1028900001990194016841F008010160006802A9F2
:1028A00000F00800019001984FF480500290082039
:1028B000069007F50060CDE903540596FEF78CFEFF
:1028C0000420CDE90205CDE9044607F54060352432
:1028D0000821069102A9FEF77FFE20460021002272
:1028E000FEF7E4FF2046FEF7D1FF07B0F0BD000081
:1028F00090F83E30202B0BD100294FF0010318BF78
:10290000002A01D11846704790F83C30012B01D1C4
:102910000220704700230363816222218285C285E1
:10292000036480F83E100269016880F83C301AB1F7
:10293000C86840F48070C8604869002340F0010016
:102940004861C86840F02000C86018467047000021
:1029500080B5006844F60041C4F20001884215D0F9
:1029600045F20001C4F20001884218BF80BD40F268
:102970003C10C2F2000000F1700140F2B030C2F22F
:1029800000000822BDE88040FFF7B2BF40F26C3083
:1029900040F2B811C2F20000C2F200010822FFF7B3
:1029A000A7FF40F2C000C2F20000817A01318172BB
:1029B00080BD000070470000FEE70000FEE7000059
:1029C000FEE700002DE9F04F81B040F2C009C2F2ED
:1029D000000999F8021099F80100002945D099F8EA
:1029E0000020002A41D002283FD099F8042099F80D
:1029F0000730934239D0042A0CD8DFE802F00F03E5
:102A0000150303000020C4F2A000B1EE040AC9F8C7
:102A1000280010E099ED0A0A0DE000BF00209FEDAC
:102A2000DE0AC9F8280006E00020CCF2A000C9F8B0
:102A30002800B9EE040A012000F058FB99ED0A0ABB
:102A4000022000F053FB99ED0A0A032000F04EFB30
:102A500099ED0A0A042000F049FB99F8010099F861
:102A6000042099F8021089F8072040F2A422C2F24B
:102A7000000292ED010AB0EE004AB4EE440AB8EE4C
:102A8000005A92ED021AF1EE10FA4FF00003B4EE84
:102A9000450A4FF0000792ED032A92ED043AB8BFC1
:102AA0000123F1EE10FAC8BF01273B40B4EE441AEF
:102AB0000027F1EE10FAB8BF01273B40B4EE451AEB
:102AC0000027F1EE10FAC8BF01273B40B4EE442ABC
:102AD0000027F1EE10FAB8BF01273B40B4EE452ABB
:102AE0000027F1EE10FAC8BF0127B4EE443A0022E5
:102AF0003B40F1EE10FA4FF00007B4EE453AB8BF94
:102B000001273B40F1EE10FAC8BF012240F2000A53
:102B10001A40C2F2000A8AF8002001EB81010A2261
:102B200002EB810100EE101AB8EEC00A02288AED0D
:102B3000070A00F02E8199F806009FED982A5A386E
:102B400001EE100AB8EEC13A83EE021AB9EE042A79
:102B500089ED0D3A21EE001AB4EE421AF1EE10FAA8
:102B600089ED0E1A08DA31EE002A8AED0A2A0AF1F6
:102B70002C00B0EE401A15E0B1EE042AB4EE421A71
:102B8000F1EE10FA06DD30EE411A8AED0B1A0AF169
:102B9000280005E00AF12C00B0EE401A8AED0A0A7E
:102BA000B0EE402A99ED113A40F2B814B4EE423A30
:102BB00040F2302140F23C1240F2000BF1EE10FAEC
:102BC000C2F20004C2F20001C2F20002C4F2482BB9
:102BD00080ED000A72D02F20254645F8600F44F2A0
:102BE00048204FF0000B25F8520CA5F1580808209A
:102BF00001F11C0602F15C07C5E903B03046294625
:102C000042463B4685F814B005ED162AC5E901BBDE
:102C1000FDF76CFD0120FEF753FB30462946424686
:102C20003B46FDF763FD0120FEF74AFB304629468F
:102C300042463B46FDF75AFD0120FEF741FBDAF81C
:102C400028000021C4F2482145E916014F20C5E9BA
:102C5000000B082028613046294642463B4685F84D
:102C600014B0C5E902BBFDF741FD0120FEF728FBCA
:102C70003046294642463B46FDF738FD0120FEF727
:102C80001FFB3046294642463B46FDF72FFD0120FB
:102C9000FEF716FB40F23C1240F2302145E916BB2C
:102CA00040F2000BDAF828009AED0B1AC2F200028B
:102CB000C2F20001C4F2482BC9F844009AED0C0A94
:102CC000B4EE410AF1EE10FA63D06F2044F8600FC1
:102CD00044F24820A4F1580501F11C0702F15C06FA
:102CE0004FF0000824F8520C4FF0080938462146EE
:102CF0002A46334684F8148004ED161AC4E9018884
:102D0000C4E90389FDF7F2FC0120FEF7D9FA384641
:102D100021462A463346FDF7E9FC0120FEF7D0FAAA
:102D2000384621462A463346FDF7E0FC0120FEF7EF
:102D3000C7FADAF82C00214644E9160B8F20C4E9C3
:102D4000000838462A46334684F81480C4E90288CD
:102D5000C4F81090FDF7CAFC0120FEF7B1FA38461E
:102D600021462A463346FDF7C1FC0120FEF7A8FAAA
:102D7000384621462A463346FDF7B8FC0120FEF7C7
:102D80009FFADAF82C0044F8588C44F8548CCAF8AE
:102D9000300001B0BDE8F08F000000000000C84224
:102DA000704700002DE9F0472DED028B40F2C0097D
:102DB000C2F2000999F80100022840F08E8199F8CA
:102DC000040099F8071040F23C188142C2F2000852
:102DD0000AD198ED030A98ED051AB4EE401AF1EE07
:102DE00010FA31D170E000BF04281ED8DFE800F0EF
:102DF00004080E14180000BF0021C8F8001012E0EB
:102E00000021CCF2A011C8F800100EE00021C4F29D
:102E1000A011C8F8001008E00021C4F2202102E04F
:102E20000021CCF22021C8F8041098ED000A89F89E
:102E3000070088ED030A88ED040A98ED051AB4EE40
:102E4000401AF1EE10FA3FD040F2B814C2F200047A
:102E500040F22D1044F8600F4FF0000A0420C4E93E
:102E600003A040F23020C2F20000A4F1580500F1A6
:102E70001C0608F15C07304621462A463B4684F88A
:102E800014A0C4E901AA04ED160AFDF72FFC0120E5
:102E9000FEF716FA304621462A463B46FDF726FC49
:102EA0000120FEF70DFA304621462A463B46FDF743
:102EB0001DFC0120FEF704FAD8F80C0044F858ACC9
:102EC00044F854ACC8F8140098ED040A98ED061ABA
:102ED000B4EE401AF1EE10FA3FD040F2B814C2F24C
:102EE000000440F24D1044F8600F4FF0000A042037
:102EF000C4E903A040F23020C2F20000A4F158055A
:102F000000F11C0608F15C07304621462A463B4684
:102F100084F814A0C4E901AA04ED160AFDF7E6FB43
:102F20000120FEF7CDF9304621462A463B46FDF703
:102F3000DDFB0120FEF7C4F9304621462A463B4618
:102F4000FDF7D4FB0120FEF7BBF9D8F8100044F8D8
:102F500058AC44F854ACC8F8180098ED010A98ED44
:102F6000021AB4EE401AF1EE10FA00F0B680B5EE97
:102F7000400AF1EE10FA09D099F80500022857D05E
:102F800001286BD1B1EE048A54E000BF40F2B814BE
:102F9000C2F2000440F20D1044F8600F4FF0000937
:102FA0000420C4E9039040F23020C2F20000A4F1F2
:102FB000580500F11C0608F15C07304621462A46F8
:102FC0003B4684F81490C4E9019904ED160AFDF714
:102FD0008DFB0120FEF774F9304621462A463B4618
:102FE000FDF784FB0120FEF76BF9304621462A46A7
:102FF0003B46FDF77BFB0120FEF762F99FED398A26
:103000000120B0EE480A44E9169900F06FF802205A
:10301000B0EE480A00F06AF80320B0EE480A00F06B
:1030200065F80420B0EE480A00F060F851E000BFF7
:10303000B9EE048A0120B0EE480A00F057F80220E9
:10304000B0EE480A00F052F80320B0EE480A00F053
:103050004DF80420B0EE480A00F048F8D8F8040013
:1030600040F2B814C2F2000444F8080F4FF000090F
:103070000420C4E9199040F20D10254645F8580F78
:1030800040F23020C2F2000000F11C0608F15C079B
:103090003046294622463B4684F86C90C4E917998D
:1030A000FDF724FB0120FEF70BF9304629462246A6
:1030B0003B46FDF71BFB0120FEF702F9304629468F
:1030C00022463B46FDF712FB0120FEF7F9F8C4E962
:1030D0000099D8F80400C8F80800BDEC028BBDE8E0
:1030E000F08700BF00000000704700002DE9F041AC
:1030F000411E032940F2C001C2F200014A78B1EE3C
:10310000401A38BFB0EE410A022A16D009790329C5
:103110000AD0042911D1C11EB1EE401A022938BFCC
:10312000B0EE410A09E000BFC11EB1EE401A02290B
:1031300038BFB0EE401AB0EE410A40F2B814400178
:10314000C2F200040E3044F8600F4FF00008042073
:10315000C4E9038040F23020C2F2000000F11C06F6
:1031600040F23C10C2F20000A4F1580500F15C07E7
:10317000304621462A463B4684F81480C4E901883B
:1031800004ED160AFDF7B2FA0120FEF799F8304671
:1031900021462A463B46FDF7A9FA0120FEF790F8A2
:1031A000304621462A463B46FDF7A0FA0120FEF7AD
:1031B00087F844E91688BDE8F08100002DE9F04F5A
:1031C00081B040F2C001C2F20001C878097A8142A0
:1031D00000F08781022840F0C78040F23020C2F220
:1031E000000000F11C0440F23C10C2F2000040F26A
:1031F000000A4FF005094FF0000B00F15C05C4F226
:10320000F01A00BF40F2B81640F20008C2F2000601
:10321000C4F2A01846F8088F374640F24D2047F810
:10322000580F4FF004082046394632462B4686F8A0
:103230006CB0C6E917BBC6F864B0C6F86880FDF785
:1032400055FA0120FEF73CF82046394632462B4617
:10325000FDF74CFA0120FEF733F820463946324696
:103260002B46FDF743FA0120FEF72AF840F22D2005
:1032700038602046394632462B4686F86CB0C6E99F
:1032800017BBC6E919B8C6E900ABFDF72FFA012054
:10329000FEF716F82046394632462B46FDF726FA49
:1032A0000120FEF70DF82046394632462B46FDF741
:1032B0001DFA0120FEF704F840F26D203860204628
:1032C000394632462B4686F86CB0C6E917BBC6E9CC
:1032D00019B8C6E900ABFDF709FA0120FDF7F0FFC8
:1032E0002046394632462B46FDF700FA0120FDF70D
:1032F000E7FF2046394632462B46FDF7F7F9012015
:10330000FDF7DEFF0020C4F2A010C6E9000B40F27A
:103310008D2038602046394632462B4686F86CB000
:10332000C6E917BBC6E919B8FDF7E0F90120FDF7BA
:10333000C7FF2046394632462B46FDF7D7F9012014
:10334000FDF7BEFF2046394632462B46FDF7CEF943
:103350000120FDF7B5FFB9F10109C6F800B0C6F8C4
:1033600004B07FF44FAFB6E040F23020C2F200006C
:1033700000F11C0B40F23C10C2F200004FF00409B7
:10338000002400F15C0540F28D284FF0040A00BFD4
:1033900040F2B816C2F2000646F8084F374640F22F
:1033A0002D2047F8580F5846394632462B4686F8A6
:1033B0006C40C6E91744C6E91949FDF797F90120A1
:1033C000FDF77EFF5846394632462B46FDF78EF90B
:1033D0000120FDF775FF5846394632462B46FDF76A
:1033E00085F90120FDF76CFF40F24D20386058460A
:1033F000394632462B46C6E9004486F86C40C6E999
:103400001744C6E91949FDF771F90120FDF758FF86
:103410005846394632462B46FDF768F90120FDF73C
:103420004FFF5846394632462B46FDF75FF90120DB
:10343000FDF746FF40F26D20386058463946324667
:103440002B46C6E9004486F86C40C6E91744C6E935
:103450001949FDF74BF90120FDF732FF584639466F
:1034600032462B46FDF742F90120FDF729FF584669
:10347000394632462B46FDF739F90120FDF720FF8A
:103480005846394632462B46C6E9004486F86C4019
:10349000C6E91744C6E91949C7F80080FDF726F9BF
:1034A0000120FDF70DFF5846394632462B46FDF701
:1034B0001DF90120FDF704FF5846394632462B46D8
:1034C000FDF714F90120FDF7FBFEBAF1010A3460A3
:1034D00074607FF45DAF40F2C001C2F20001C878B1
:1034E000087201B0BDE8F08F2DE9F04381B02DEDF9
:1034F000028B9FED6B8A0120B0EE480AFFF7F6FDC4
:103500000220B0EE480AFFF7F1FD0320B0EE480AB2
:10351000FFF7ECFD0420B0EE480A4FF00409FFF776
:10352000E5FD40F2B814C2F2000440F20D1044F878
:10353000600F40F23020C2F2000000F11C0740F2A0
:103540003C104FF000082546C2F2000045F8588DA7
:1035500000F15C06384621462A46334684F814803A
:10356000C4E90188C4E90389FDF7C0F80120FDF72B
:10357000A7FE384621462A463346FDF7B7F8012014
:10358000FDF79EFE384621462A463346FDF7AEF843
:103590000120FDF795FE40F22D10C4E900083846E1
:1035A00021462A46334644F8548CC5F8008084F8F6
:1035B0001480C4E90288C4F81090FDF797F8012040
:1035C000FDF77EFE384621462A463346FDF78EF843
:1035D0000120FDF775FE384621462A463346FDF7A1
:1035E00085F80120FDF76CFE40F24D10C4E900089B
:1035F000384621462A46334644F8548CC5F80080A4
:1036000084F81480C4E90288C4F81090FDF76EF8BD
:103610000120FDF755FE384621462A463346FDF780
:1036200065F80120FDF74CFE384621462A46334610
:10363000FDF75CF80120FDF743FE40F26D10C4E990
:103640000008384621462A46334644F8548CC5F8CB
:10365000008084F81480C4E90288C4F81090FDF753
:1036600045F80120FDF72CFE384621462A46334610
:10367000FDF73CF80120FDF723FE384621462A4697
:103680003346FDF733F80120FDF71AFE44F8548C59
:10369000C5F80080BDEC028B01B0BDE8F08300BF2F
:1036A00000000000FEF788B880B594B0002043F613
:1036B0004001CDE90B00CDE909000690CDE90400F9
:1036C000CDE902000190C4F202010A6842F0805282
:1036D0000A60096801F0805101910199019047F257
:1036E0000000C4F20000016841F44041016000683C
:1036F0004FF4800100F440400190019801200790B0
:103700004FF480300E910421089002200F91B421D3
:103710000D90CDE91010CDE9120007A8FEF76CFA64
:1037200020B1EFF3108072B6FEE700BFFEF7FAF8A3
:1037300020B1EFF3108072B6FEE700BF0F200290B9
:1037400003200390002004904FF4A05005904FF404
:103750008050069002A80521FEF722F920B1EFF370
:10376000108072B6FEE700BF14B080BD4EF68850E0
:10377000CEF20000016841F4700101607047000062
:1037800070B540F2F424C2F200042088013081B206
:103790000229208016D340F2F82540F25C16C2F2CE
:1037A0000005C2F2000628683168884208D040F25D
:1037B0005800C2F200000068FCF756FF306828602D
:1037C0000020208040F22430C2F20000BDE87040AA
:1037D000FEF758BC10B540F6FF3E0368C4F2000E79
:1037E00040F2004C7045C4F2010C27DCB0F1804F70
:1037F00031D040F20042C4F2000290422BD040F699
:103800000002C4F20002904225D041F6FF72C4F2D9
:103810000002904229DC70453CDCB0F1804F5FD063
:1038200040F20042C4F20002904259D040F6000239
:10383000C4F20002904253D056E000BF40F600426E
:10384000C4F20002904206D0604504D00022C4F2C7
:1038500001029042D9D14A6823F07003134341F624
:10386000FF72C4F200029042D5DD43F6FF72C4F24B
:103870000102904222DC42F20002C4F200029042B5
:103880002ED00022C4F20102904229D0604527D0F8
:103890002AE000BF40F60042C4F2000290421FD06E
:1038A00041F60002C4F20002904219D041F60042F3
:1038B000C4F20002904213D016E000BF44F20002AE
:1038C000C4F2010290420BD044F60002C4F201029D
:1038D000904205D044F20042C4F20102904203D16A
:1038E000CA6823F44073134323F080024B69D1F874
:1038F00000E08C681A430260C46240F48062C0F841
:1039000028E0624504BF096901630121416110BDDE
:103910002DE9F04F81B040F23C1CC2F2000C9CED4E
:10392000091A9CED0A0AB2EE042A9CED0B3AB4EE99
:10393000421A40F2C006B3EE045A9CED0C4AF1EE76
:1039400010FA4FF000004FF00002C2F20006B4EE91
:10395000450A4FF00003D8BF0120C8BF0122B2734F
:10396000F1EE10FAC8BF0123B4EE453A0021F3731B
:10397000F1EE10FA4FF00003B4EE454AC8BF012340
:10398000F1EE10FAC8BF01211940B174717840F20C
:10399000000A0329C2F2000A327433D1B4EE421A8B
:1039A000F1EE10FA58DD9AED100ADCF834109AEDB9
:1039B000113AB8EEC00A012030EE410A7074481C7A
:1039C00023EE003AB1EE040ACCF8340000209FED5B
:1039D0007B4AB4EE403AB0EE430AF073F1EE10FACF
:1039E000B8BFB0EE440AB9EE044AB4EE443AB0EEC1
:1039F000434AF1EE10FAC8BFB0EE404A86ED124AD3
:103A00006DE000BF9AF8060096ED1B1A00EE100A52
:103A1000B8EE403AB4EE431AF1EE10FA09DC414236
:103A200000EE101AB8EEC00AB4EE401AF1EE10FA29
:103A300020DABAEE0E0AB4EE431AB2EE0E2AF1EE16
:103A400010FAC8BFB0EE420A96ED1C2AB4EE432A23
:103A5000F1EE10FA17DD21E0717CB1FA81F2520922
:103A600002422FD0B2EE0E2AB0EE421AB0EE420A57
:103A7000CCE000BF9FED510A96ED1C2AB4EE432A1C
:103A8000F1EE10FA0ADC414201EE101AB8EEC11A4A
:103A9000B4EE412AF1EE10FA80F29280B2EE0E1AE4
:103AA000B4EE432ABAEE0E4AF1EE10FAC8BFB0EEF9
:103AB000441A96ED1D4AB4EE434AF1EE10FA40F373
:103AC000888090E051B3DCF834009FED3C4A01302F
:103AD000CCF834000020F073B064B0EE443AB1EE9C
:103AE000045AB4EE453AB9EE046AF1EE10FAB0EEBB
:103AF000435AB4EE463A9FED310AB8BFB0EE405A91
:103B0000F1EE10FAB4EE421AC8BFB0EE453AF1EE4B
:103B100010FA86ED133A86ED164A07DD96ED120A85
:103B200096ED131A96ED162A70E000BF9AF806007B
:103B300096ED1B1A02EE100AB8EE423AB4EE431AA2
:103B4000F1EE10FA09DC414202EE101AB8EEC22A78
:103B5000B4EE421AF1EE10FA0ADABAEE0E0AB4EE38
:103B6000431AB2EE0E2AF1EE10FAC8BFB0EE420AC6
:103B700096ED1C2AB4EE432AF1EE10FA0ADC41421B
:103B800001EE101AB8EEC11AB4EE412AF1EE10FAA5
:103B900080F2AE81B2EE0E1AB4EE432ABAEE0E4AAD
:103BA000F1EE10FAC8BFB0EE441A96ED1D4AB4EE1D
:103BB000434AF1EE10FA40F3A481ACE100000000AA
:103BC0009FEDDD1A96ED1D4AB4EE434AF1EE10FA70
:103BD00009DC404202EE100AB8EEC22AB4EE424AB4
:103BE000F1EE10FA0CDABAEE0E2AB4EE434AB2EE57
:103BF0000E5AF1EE10FAC8BFB0EE452A02E000BF3F
:103C00009FEDCD2A00207074CCF834009FEDCB4A94
:103C10009FEDCB5AB4EE440AF1EE10FAB8BFB0EE05
:103C2000440AB4EE450AF1EE10FAB0EE453AB4EEAD
:103C3000441AB8BFB0EE403AF1EE10FAB8BFB0EE99
:103C4000441AB4EE451AF1EE10FAB0EE450AB4EE9D
:103C5000442AB8BFB0EE410A86ED123A86ED130A47
:103C6000F1EE10FAB8BFB0EE442AB4EE452AF1EEF8
:103C700010FAB8BFB0EE425A96ED1B1AB5EE403AB4
:103C8000F1EE10FA86ED165A06DDBBEE092AB4EE07
:103C9000421AF1EE10FA0BDBB7EE002AB4EE421A2C
:103CA000F1EE10FA08DDB5EE403AF1EE10FA03DA63
:103CB0009FEDA13A0020B06496ED141A40F2B818B6
:103CC000B4EE431A40F23021F1EE10FAC2F20008CD
:103CD000C2F2000142D09AF80100454640010D3081
:103CE00045F8600F4FF0000B0420A5F1580901F1D1
:103CF0001C070CF15C04C5E903B0384629464A4666
:103D0000234685F814B0C5E901BB05ED163AE24635
:103D1000FCF7ECFC0120FDF7D3FA384629464A4669
:103D20002346FCF7E3FC0120FDF7CAFA3846294692
:103D30004A462346FCF7DAFC0120FDF7C1FA40F2BF
:103D40003021D44640F2000AB06C96ED130AC2F25C
:103D50000001C2F2000A45E916BB306596ED1C1A57
:103D6000B5EE400AF1EE10FA06DDB3EE092AB4EE24
:103D7000421AF1EE10FA0BDCB7EE002AB4EE421A4A
:103D8000F1EE10FA08DAB5EE400AF1EE10FA03DAB5
:103D90009FED690A0020F06496ED151AB4EE401A02
:103DA000F1EE10FA42D09AF80200454640010D307B
:103DB00045F8600F4FF0000B0420A5F1580901F100
:103DC0001C040CF15C07C5E903B0204629464A46AD
:103DD0003B4685F814B0C5E901BB05ED160A6646F9
:103DE000FCF784FC0120FDF76BFA204629464A4681
:103DF0003B46FCF77BFC0120FDF762FA2046294692
:103E00004A463B46FCF772FC0120FDF759FAB446DE
:103E100040F2C006C2F2000640F23021F06CC2F25D
:103E2000000145F858BC45F854BC706596ED160A7B
:103E300096ED1D1AB5EE400AF1EE10FA06DDBBEE66
:103E4000092AB4EE421AF1EE10FA0BDBB7EE002AA3
:103E5000B4EE421AF1EE10FA08DDB5EE400AF1EECA
:103E600010FA03DA9FED340A0020B06596ED171AB8
:103E7000B4EE401AF1EE10FA37D09AF803004FF082
:103E8000000940010D3048F8600F0420A8F15805E2
:103E900001F11C040CF15C07C8E90390204641467F
:103EA0002A463B4688F81490C8E9019908ED160A9D
:103EB000FCF71CFC0120FDF703FA204641462A4688
:103EC0003B46FCF713FC0120FDF7FAF9204641467A
:103ED0002A463B46FCF70AFC0120FDF7F1F9B06DDC
:103EE00048F8589C48F8549CF06501B0BDE8F08F44
:103EF0009FED111A96ED1D4AB4EE434AF1EE10FA09
:103F000009DC404202EE100AB8EEC22AB4EE424A80
:103F1000F1EE10FA0CDABAEE0E2AB4EE434AB2EE23
:103F20000E5AF1EE10FAC8BFB0EE452A6EE600BF99
:103F30009FED012A6AE600BF00000000000048C2B1
:103F40000000484240F26C30C2F20000FEF75EB959
:103F500040F2B030C2F20000FEF758B9806B002189
:103F6000C185C184FEF750B981B090F83E10222976
:103F700020D18368B3F5805F08D10169002957D04B
:103F800000F128010A6803685B680AE0014651F8FD
:103F9000282F13B90369002BF5D003685B6803F081
:103FA0007F0313700A6801320A60C18D01390A0467
:103FB000C18501D001B070470168CA6822F02002B3
:103FC000CA60CA6822F48072CA604A6922F001029B
:103FD0004A61202280F83E20026B012A32D1002261
:103FE000026300BF51E8031F026821F0100142E89C
:103FF00003135BB3016851E8031F026821F010014D
:1040000042E8031313B3016851E8031F026821F06B
:10401000100142E80313CBB1016851E8031F0268A5
:1040200021F0100142E8031383B10168DAE700BF11
:104030000168826A49686FF35F2122F8021B82627D
:10404000B3E700BF01B0FEF783BC00BF01680A6898
:10405000D20606D5002200920A68009249680091B3
:104060000099818D01B0FEF7CDB8000010B504466F
:104070000068D4E902C22369016921F44051114367
:104080000161626943EA0C01E3691143C2681943A3
:1040900049F20C639A431143C1604169A26921F45A
:1040A000407141F20043114340F48062C4F20103C5
:1040B0009A42416102D1FDF737FD01E0FDF720FD95
:1040C000E16963681922B1F5004FA0FB02011FD11D
:1040D0005A00DB0FFCF7E6F848F21F51C5F2EB116E
:1040E000A0FB01235A096FF0630302FB0300322394
:1040F00003EBC000A0FB01014FF4F87000EA1110BF
:1041000000EB0210C1F3421122680843906010BD19
:104110009A009B0FFCF7C6F848F21F51C5F2EB114D
:10412000A0FB01235A096FF0630302FB0300322353
:1041300003EB0010A0FB0101F02000EA511000EB9E
:104140000210C1F3431122680843906010BD0000C3
:10415000FEE700008CB040F60009C4F20209FDF74A
:1041600039FBFFF7A1FA002643F6300006960196C8
:10417000C4F202000168002241F0040101600168FC
:1041800001F00401019101990196016841F080015B
:104190000160016801F080010191019901960168B7
:1041A00041F001010160016801F0010101910199F3
:1041B0000196016841F002010160016801F002010D
:1041C000019101990196016841F0080101600068C0
:1041D000C42100F00800019001984846FDF7E0FA7C
:1041E00002AD04270124484629460297CDE903463B
:1041F0000594FDF7F1F9A9F500602946CDE90276AD
:104200000496FDF7E9F9C02002A951C148462946A4
:104210000596FDF7E1F94FF40060CDE90206484646
:1042200029460496FDF7D8F940F23025C2F2000580
:10423000A9F5D031284640F81C1F0C214FF420224C
:104240004FF40013C0E90116C0E90362C0E9053666
:104250008683FCF7DBFC28B1EFF3108072B600BF59
:10426000FEE700BF0E2005F11C08CDE906600B90AB
:1042700002A940460A94CDE90266CDE90466CDE97B
:104280000864FCF791FA40F22430A9F5F431C2F247
:10429000000040F2E73342F2273280E84600C0E9EE
:1042A00003368661FDF798FE20B1EFF3108072B6F9
:1042B000FEE700BF4846402100220024FDF770FAC7
:1042C000484680210022FDF76BFA4046FCF760FF6C
:1042D00040460221FCF7F2F941F28830FCF7F0FF8A
:1042E00040F26C30A9F5DE31C2F200004FF4E13645
:1042F0000C25C0E90016C0E90244C0E90445C0E944
:104300000644FEF73FFA28B1EFF3108072B600BF03
:10431000FEE700BF40F2B030A9F5DC31C2F2000088
:10432000C0E90016C0E90244C0E90445C0E90644FA
:10433000FEF728FA20B1EFF3108072B6FEE700BF57
:1043400040F23C17C2F2000740F2B03007F17001B2
:10435000C2F2000008220826FEF7CAFA40F2B81B93
:10436000C2F2000BA7205D4645F8600F2C4644F8CA
:10437000586D042007F15C064FF0000A28614046A2
:10438000294622463346C5E902AAFCF7AFF91420B4
:10439000FCF796FF4046294622463346FCF7A6F92D
:1043A0001420FCF78DFF4046294622463346FCF791
:1043B0009DF91420FCF784FF4046294622463346E7
:1043C000FCF794F91420FCF77BFF4046294622466F
:1043D0003346FCF78BF91420FCF772FF0A20FCF738
:1043E0006FFF0820206004202861C7202860404615
:1043F000294622463346C5E902AAFCF777F914207C
:10440000FCF75EFF4046294622463346FCF76EF92C
:104410001420FCF755FF4046294622463346FCF758
:1044200065F91420FCF74CFF4046294622463346E6
:10443000FCF75CF91420FCF743FF4046294622466E
:104440003346FCF753F91420FCF73AFF0A20FCF737
:1044500037FF0820206004202861E72028604046BC
:10446000294622463346C5E902AAFCF73FF9142043
:10447000FCF726FF4046294622463346FCF736F92C
:104480001420FCF71DFF4046294622463346FCF720
:104490002DF91420FCF714FF4046294622463346E6
:1044A000FCF724F91420FCF70BFF4046294622466E
:1044B0003346FCF71BF91420FCF702FF0A20FCF737
:1044C000FFFE082020600420286140F207102860C9
:1044D0004046294622463346C5E902AAFCF706F9BA
:1044E0001420FCF7EDFE4046294622463346FCF7F1
:1044F000FDF81420FCF7E4FE4046294622463346E8
:10450000FCF7F4F81420FCF7DBFE4046294622466F
:104510003346FCF7EBF81420FCF7D2FE4046294660
:1045200022463346FCF7E2F81420FCF7C9FE0A20C5
:10453000FCF7C6FE082020600420286140F2271006
:1045400028604046294622463346C5E902AAFCF7C0
:10455000CDF81420FCF7B4FE4046294622463346E7
:10456000FCF7C4F81420FCF7ABFE4046294622466F
:104570003346FCF7BBF81420FCF7A2FE4046294660
:1045800022463346FCF7B2F81420FCF799FE404669
:10459000294622463346FCF7A9F81420FCF790FE82
:1045A0000A20FCF78DFE082020600420286140F2DC
:1045B000471028604046294622463346C5E902AAEC
:1045C000FCF794F81420FCF77BFE4046294622466F
:1045D0003346FCF78BF81420FCF772FE4046294660
:1045E00022463346FCF782F81420FCF769FE404669
:1045F000294622463346FCF779F81420FCF760FE82
:104600004046294622463346FCF770F81420FCF752
:1046100057FE0A20FCF754FE4846402101224FF085
:104620000108FDF7BDF8484680210122FDF7B8F8E2
:1046300040F2C00440F25005C2F20004C2F200058C
:1046400006E000BFFFF764F9FEF7BCF9FEF7AAFB2E
:1046500048464FF40061FDF79DF897F87010207000
:10466000AA2919D197F87700FF2815D197F8760075
:1046700097F872206070A07897F8711097F87330EF
:1046800097F87460002A18BF1046A07097F875005C
:104690006371A6712071E1709BF81100082818BFA2
:1046A00085F800A09BF81200082818BF85F800A024
:1046B0009BF81300082818BF85F800A09BF8140089
:1046C000082818BF85F800A0FEF778FD2878002894
:1046D000B8D1484640210022FDF762F848468021C3
:1046E0000022FDF75DF8FEF7FFFEFBF7ABFE484644
:1046F0004021012285F80080FDF752F848468021CC
:104700000122FDF74DF8A3E7F1EE100A4FF6FF7115
:10471000C0F2C03120EA010040F04070E1EE100A22
:1047200070470000000000000000010203040607BB
:1047300008090000000001020304000060470008AF
:10474000000000206000000000020008C0470008D0
:1047500060000020B80900001C02000800000000F2
:1047600001050607010102015C01EB01990121012C
:10477000BD01BF027D00D401000020420000803F47
:104780000000803FCDCC4CBE0000803F0000803F49
:104790000000803F110000000F0000000F0000002B
:1047A0001400000000004040010000001000000064
:1047B000010000000024F40000C000080000000018
:04000005080001C529
:00000001FF
