:020000040800F2
:10000000080A002065020008152E00080D2E0008C1
:10001000112E000811040008153E00080000000021
:10002000000000000000000000000000C12F0008D8
:100030004505000800000000192E00085539000889
:100040007F0200087F0200087F0200087F0200088C
:100050007F0200087F0200087F0200087F0200087C
:100060007F0200087F0200087F0200087F0200086C
:100070007F0200087F0200087F0200087F0200085C
:100080007F0200087F0200087F0200087F0200084C
:1000900015040008210400087F0200087F02000800
:1000A0007F0200087F0200087F0200087F0200082C
:1000B0007F0200087F0200087F0200087F0200081C
:1000C0007F0200087F0200087F0200087F0200080C
:1000D0007F0200087F0200087F0200087F020008FC
:1000E0007F0200087F0200087F0200087F020008EC
:1000F0007F020008193A00087F0200087F0200080A
:100100007F0200087F0200087F0200087F020008CB
:10011000093C0008153C00087F0200087F02000827
:100120007F0200087F0200087F0200087F020008AB
:100130007F02000800000000000000007F020008AD
:100140002D040008390400087F0200087F0200081F
:100150007F0200087F0200087F0200087F0200087B
:100160007F0200087F0200087F0200087F0200086B
:100170007F0200087F0200087F02000800000000E4
:10018000000000007F0200080000000000000000E6
:100190007F02000800000000000000007F0200084D
:1001A0000000000000000000000000007F020008C6
:1001B0007F0200087F0200087F0200087F0200081B
:1001C0007F02000800F002F800F03CF80AA090E876
:1001D000000C82448344AAF10107DA4501D100F002
:1001E00031F8AFF2090EBAE80F0013F0010F18BF93
:1001F000FB1A43F001031847E447000004480000DD
:10020000103A24BF78C878C1FAD8520724BF30C842
:1002100030C144BF04680C60704700000023002414
:1002200000250026103A28BF78C1FBD8520728BF06
:1002300030C148BF0B6070471FB504F0B0FB1FBD55
:1002400010B510BD00F0A9F81146FFF7F5FF03F057
:10025000E3FD00F0C7F803B4FFF7F2FF03BC00F0C2
:10026000CFF800000948804709480047FEE7FEE74D
:10027000FEE7FEE7FEE7FEE7FEE7FEE7FEE7FEE756
:1002800004480549054A064B70470000053A000836
:10029000C501000808040020080A00200806002004
:1002A0000806002053EA020C00F069802DE9F04BAB
:1002B0004FF00006002B1FBFB3FA83F503FA05F4D5
:1002C00024FA05F65E4012BF1643B2FA82F502FA2E
:1002D00005F4C5F120051EBF22FA05FC44EA0C0412
:1002E000203556EA044C4FEA144418BF641C4FF002
:1002F00000084FF00009904271EB030C39D300293C
:1003000019BFB1FA81F701FA07F6B0FA80F700FADF
:1003100007F6C7F120071EBF20FA07FC46EA0C06C5
:100320002037B6FBF4FCA7EB0507103F07F01F0BC7
:10033000CBF120062CFA06F60CFA0BFB44BFB346B1
:100340000026202FA4BF5E464FF0000B5BEA060C90
:1003500008BF4FF0010B19EB0B0948EB0608ABFB8C
:10036000027C06FB02CC0BFB03CCC01B71EB0C0127
:10037000C1E70B46024641464846BDE8F08B13B53F
:10038000084318BF4FF0FF300146AFF30080BDE8CF
:100390001C407047704770477047754600F02CF856
:1003A000AE4605006946534620F00700854618B062
:1003B00020B5FFF765FFBDE820404FF000064FF085
:1003C00000074FF000084FF0000BAC46ACE8C00946
:1003D000ACE8C009ACE8C009ACE8C00921F00701ED
:1003E0008D46704710B50446AFF300802046BDE847
:1003F0001040FFF730BF0000004870475000002059
:1004000001491820ABBEFEE726000200704700003D
:10041000FEE7000040F2E820C2F2000000F094BEC7
:1004200040F2E820C2F2000000F08EBE40F22C2024
:10043000C2F2000000F088BE40F22C20C2F20000A0
:1004400000F082BE70B540F2A814C2F200046078D9
:1004500040F2102640F230150828C2F20006C2F21F
:1004600000050FD1A078082823D1E078082837D1DB
:10047000207908284BD14FF4FA60BDE8704001F0B4
:10048000FDB900BF3620214641F8500F042000225C
:10049000C1E90222086106F11C0005F1700205F1B4
:1004A000480300F0F1FC012001F0E8F9A0780828E9
:1004B000DBD05620214641F8500F04200022C1E92C
:1004C0000222086106F11C0005F1700205F14803E3
:1004D00000F0DAFC012001F0D1F9E0780828C7D05B
:1004E0007620214641F8500F04200022C1E9022263
:1004F000086106F11C0005F1700205F1480300F0E7
:10050000C3FC012001F0BAF920790828B3D0962065
:1005100044F8500F04200021C4E90211206106F1C3
:100520001C0005F1700205F14803214600F0ACFC07
:10053000012001F0A3F94FF4FA60BDE8704001F02A
:100540009DB90000704700002DE9F04F81B02DEDFE
:10055000048B40F2B004C2F20004A07840F200071D
:100560000028C2F2000750D0217800294DD06178D0
:1005700002294AD02179E2798A4246D004290DD84D
:10058000DFE801F012041804040000BF0020C4F2E8
:10059000A000B1EE040A206312E000BF94ED0C0A43
:1005A0000EE000BF0000000000201FED020A2063E3
:1005B00014E000BF0020CCF2A0002063B9EE040AD2
:1005C000B5EE400AF1EE10FA08D094ED0D1AB5EE32
:1005D000401AF1EE10FA01D13878A0B1012002F0F2
:1005E000F1FC94ED0C0A022002F0ECFC94ED0C0AF4
:1005F000032002F0E7FC94ED0C0A042002F0E2FC78
:10060000206B21796063A078E17140F29421C2F2FD
:10061000000191ED010AB0EE008AB4EE480AB8EE8E
:10062000009A91ED021AF1EE10FA4FF00002B4EECA
:10063000490A4FF0000391ED032A91ED043AB8BF47
:100640000122F1EE10FAC8BF01231A40B4EE481A95
:100650000023F1EE10FAB8BF01231A40B4EE491A94
:100660000023F1EE10FAC8BF01231A40B4EE482A65
:100670000023F1EE10FAB8BF01231A40B4EE492A64
:100680000023F1EE10FAC8BF0123B4EE483A00216E
:100690001A40F1EE10FA4FF00003B4EE493AB8BF39
:1006A00001231A40F1EE10FAC8BF01211140397040
:1006B00000EB80004FF0140101EB800000EE100A07
:1006C00097ED082AB8EEC00AB2EE041A18BFB0EED1
:1006D000410AB4EE402AF1EE10FA87ED070A00F065
:1006E000DC8197ED091AB4EE401AF1EE10FA40F3EE
:1006F000D98031EE098AB4EE408AF1EE10FAC0F2E8
:10070000A88140F2301840F21020C2F20008C2F274
:10071000000040F200094FF0000B08F170044FF0A8
:10072000080A00F11C0508F14806C4F2482900BF78
:1007300040F2A817C2F200072F2047F8500F44F2EA
:100740004820A8F87600284639462246334687F8DE
:1007500014B088ED1C8AC7E901BBC7E903BA00F0F1
:1007600093FB012001F08AF8284639462246334699
:1007700000F08AFB012001F081F828463946224624
:10078000334600F081FB012001F078F84F20C7E9E3
:10079000000B2846394622463346C8F8749087F83D
:1007A00014B088ED1C8AC7E902BBC7F810A000F09E
:1007B0006BFB012001F062F8284639462246334699
:1007C00000F062FB012001F059F828463946224624
:1007D000334600F059FB012001F050F86F20C7E9C3
:1007E000000B2846394622463346C8F8749087F8ED
:1007F00014B088ED1C8AC7E902BBC7F810A000F04E
:1008000043FB012001F03AF8284639462246334698
:1008100000F03AFB012001F031F828463946224623
:10082000334600F031FB012001F028F88F20C7E9A2
:10083000000B2846394622463346C8F8749087F89C
:1008400014B088ED1C8AC7E902BBC7F810A000F0FD
:100850001BFB012001F012F8284639462246334698
:1008600000F012FB012001F009F82846394640F259
:10087000000722463346C2F2000700F005FB0120C4
:1008800000F0FCFF0A20C8E91CBB00F0F7FF97ED61
:10089000070A38EE098AB4EE408AF1EE10FABFF684
:1008A00047AFD6E031EE089AB4EE409AF1EE10FA76
:1008B00000F3CF8040F2301B40F21020C2F2000B58
:1008C000C2F2000040F200094FF000080BF1700482
:1008D0004FF0080A00F11C050BF14806C4F2482944
:1008E00040F2A817C2F200072F2047F8500F44F239
:1008F0004820ABF87600284639462246334687F82A
:1009000014808BED1C9AC7E90188C7E9038A00F0BF
:10091000BBFA012000F0B2FF284639462246334692
:1009200000F0B2FA012000F0A9FF2846394622461D
:10093000334600F0A9FA012000F0A0FF4F20C7E9DC
:1009400000082846394622463346CBF8749087F88B
:1009500014808BED1C9AC7E90288C7F810A000F03C
:1009600093FA012000F08AFF284639462246334692
:1009700000F08AFA012000F081FF2846394622461D
:10098000334600F081FA012000F078FF6F20C7E9BC
:1009900000082846394622463346CBF8749087F83B
:1009A00014808BED1C9AC7E90288C7F810A000F0EC
:1009B0006BFA012000F062FF284639462246334692
:1009C00000F062FA012000F059FF2846394622461D
:1009D000334600F059FA012000F050FF8F20C7E99C
:1009E00000082846394622463346CBF8749087F8EB
:1009F00014808BED1C9AC7E90288C7F810A000F09C
:100A000043FA012000F03AFF284639462246334691
:100A100000F03AFA012000F031FF2846394640F252
:100A2000000722463346C2F2000700F02DFA0120EB
:100A300000F024FF0A20CBE91C8800F01FFF97ED8F
:100A4000070A39EE089AB4EE409AF1EE10FA7FF7F1
:100A500047AF40F2B004C2F20004207887ED080AE4
:100A600087ED090AC8B92079B8B19FED0E8A012037
:100A7000B0EE480A02F0A6FA0220B0EE480A02F0F0
:100A8000A1FA0320B0EE480A02F09CFA0420B0EE6E
:100A9000480A02F097FA00202071BDEC048B01B0E7
:100AA000BDE8F08F00000000EFF3108072B640F256
:100AB00010209FED988AC2F200004FF00408002435
:100AC00000F11C0B40F24D1A40F26D190120B0EEFE
:100AD000480A02F077FA0220B0EE480A02F072FAF1
:100AE0000320B0EE480A02F06DFA0420B0EE480A86
:100AF00002F068FA40F2301540F2A816C2F2000582
:100B0000C2F20006AD2045F8704F46F8500FA5F12F
:100B10002807584631462A463B463475C6E9014403
:100B2000C6E9034800F0B0F9012000F0A7FE5846DE
:100B300031462A463B4600F0A7F9012000F09EFE10
:100B4000584631462A463B4600F09EF9012000F007
:100B500095FECD20C6E90004584631462A463B465C
:100B6000C5E900443475C6E90244C6F8108000F0B7
:100B70008BF9012000F082FE584631462A463B465A
:100B800000F082F9012000F079FE584631462A46ED
:100B90003B4600F079F9012000F070FEED20C6E937
:100BA0000004584631462A463B46C5E900443475A0
:100BB000C6E90244C6F8108000F066F9012000F092
:100BC0005DFE584631462A463B4600F05DF901205D
:100BD00000F054FE584631462A463B4600F054F990
:100BE000012000F04BFE40F20D10C6E9000458460B
:100BF00031462A463B46C5E900443475C6E90244FD
:100C0000C6F8108000F040F9012000F037FE584689
:100C100031462A463B4600F037F9012000F02EFE0F
:100C2000584631462A463B4600F02EF9012000F096
:100C300025FE40F22D10C6E90004584631462A46EA
:100C40003B46C5E900443475C6E90244C6F8108045
:100C500000F01AF9012000F011FE584631462A46EC
:100C60003B4600F011F9012000F008FE58463146DD
:100C70002A463B4600F008F9012000F0FFFD5846E7
:100C800031462A463B46C5E900443475C6E900A40E
:100C9000C6E90244C6F8108000F0F6F8012000F022
:100CA000EDFD584631462A463B4600F0EDF801205E
:100CB00000F0E4FD584631462A463B4600F0E4F891
:100CC000012000F0DBFD584631462A463B46C5E987
:100CD00000443475C6E90094C6E90244C6F81080A1
:100CE00000F0D2F8012000F0C9FD584631462A46EE
:100CF0003B4600F0C9F8012000F0C0FD58463146DF
:100D00002A463B4600F0C0F8012000F0B7FDC5E9D7
:100D10000044DBE600000000F0B581B040F2E037AF
:100D2000044643F60C46C2F200070020C4F2020655
:100D3000F86100F089FF3168C9031DD43068C0072D
:100D40001CBF01203060306810F4F97F30D030686B
:100D5000C00635D4306880063BD43068400641D4A4
:100D60003068000647D43068C0054DD4306880072D
:100D700054D4012001B0F0BDF4B10546601C0DD182
:100D80003068C003DAD53068C00344BF30685FEA1A
:100D9000C030D3D53068C003F2D4CFE700F054FFA1
:100DA000401BA04208D83068C003F7D4C6E700BF94
:100DB000002001B0F0BD00BF032001B0F0BD00BFB6
:100DC000F86940F01000F86110203060306880064B
:100DD000C3D5F86940F00800F86120203060306821
:100DE0004006BDD5F86940F00400F861402030604D
:100DF00030680006B7D5F86940F00200F86180203D
:100E000030603068C005B1D5F86940F00100F86184
:100E10004FF48070306030688007AAD5F86940F0E0
:100E20002000F86102203060012001B0F0BD000018
:100E300080B586B000200190022005900720039025
:100E40000120049001A8694600F02CFD002804BF91
:100E500006B080BDFFF728FE90F82020013A012A55
:100E600008D8006800F114020020136819431160CB
:100E7000704700BF00F1240201204FF48021136865
:100E8000194311607047000010B590F820E0D0F8C9
:100E900000C0AEF1010EBEF1010FDCF808E011D880
:100EA0001EF0E05F18D0CEF3016EBEF1030F1DD12E
:100EB00000F1240101204FF400020B681A430A607C
:100EC00010BD00BF00F1240101204FF480220B6807
:100ED0001A430A6010BD00BF00F1240101204FF445
:100EE00000120B681A430A6010BD00BF012000FA0F
:100EF0000EF01860886818B14B6840EAC30001E042
:100F000008684005D1E9033403430CEB0E10C0F828
:100F10008031C0F88441097D012905D100F5C271F5
:100F20000B6843F480730B605168C0F88C11126831
:100F300000F5C071C0F88821002001220B681A4317
:100F40000A6010BDB0B590F82020013A012A2FD8D0
:100F500046F20060C4F20000026842F00102026042
:100F6000026822F47C520260D1F814E0CC694A6A2B
:100F70000368012C43EA022202600EF01F024FF0C8
:100F8000010303FA02F2C3696FEA020C23EA0203C7
:100F9000C36113D02CBBC36803EA0C03C360CB68E6
:100FA0008C8844EA034300EBCE0423640B4611E033
:100FB000416A41F4802141620120B0BDC3681343FE
:100FC000C3600B688C8844EA034300EBCE042364BF
:100FD00001F10C038C681B8843EA044300EBCE0448
:100FE000636443688D6943EA0204D1F810E0096A3A
:100FF000002D08BF03EA0C0444604369BEF1000FF2
:1010000043EA020408BF03EA0C040129446102D147
:10101000C1691143C161016821F001010160002033
:10102000B0BD00007047000010B590F82040013CB2
:10103000012C71D8D0F800C0002977D0DCF810401E
:10104000A40777D00CEB011CDCF8B0410CF5D87E7E
:1010500014F004049460DCF8B04119BFE408546053
:10106000640D1460DEF80040002904F00204D4602E
:10107000DCF8B44104F00F041461DCF8B441C4F3AB
:1010800007249461DCF8B4414FEA14445461DCF85D
:10109000B8211A70026802EB0112D2F8B8214FEAA7
:1010A00012225A70026802EB0112D2F8B8214FEAFC
:1010B00012429A70026802EB0112D2F8B8214FEA8C
:1010C0001262DA70026802EB0112D2F8BC211A71C6
:1010D000026802EB0112D2F8BC214FEA12225A71C7
:1010E000026802EB0112D2F8BC214FEA12429A7157
:1010F000026802EB0112D2F8BC214FEA1262DA71E7
:10110000006814BF00F1100100F10C010020202242
:101110000B681A430A6010BD00F1240101204FF44E
:1011200080220B681A430A6010BD00BFDCF80C4037
:10113000A40787D100F1240101204FF400120B68AD
:101140001A430A6010BD00002DE9F04F81B004463B
:1011500000684669D0F804908768D0F80CB0D0F8E1
:1011600010A0D0F81880F10704D1002530071DD455
:1011700024E000BFF90710D00121BA07816009D42B
:10118000780700F1AF80380700F1B680204600F004
:101190000BFB02E0204600F009FB0025F80500F1FA
:1011A0008780F80300F1B180300707D51BF01000ED
:1011B00004D0206845F400751021C160700708D57F
:1011C0001BF0080005D020680821C160204600F00F
:1011D000FBF9B00706D52068C068800702D020461A
:1011E00000F0F4F9700607D51AF0100004D020685A
:1011F00045F4806510210161B00608D51AF0080099
:1012000005D0206808210161204600F099FAF00617
:1012100006D520680069800702D0204600F092FAC7
:10122000B00308D519F0100005D0206810214160E6
:10123000204600F089FAF00308D519F0080005D01F
:10124000206808214160204600F0BAFA300440F1DD
:101250009B805FEA497040F1948006F4807008EA50
:10126000102028435FEA8871014648BF41F002011F
:10127000B20558BF01465FEA48700D4648BF45F0C9
:101280000405700558BF0D46300540F17A8018F00E
:10129000700000F076801038000905286CD8DFE86F
:1012A00000F003595D61656945F0080564E000BF21
:1012B00020684FF48071BA0581600BD4780515D48D
:1012C00038051DD4204600F073FAF8037FF56CAFA3
:1012D0001BE000BF204600F06DFAF8037FF564AF15
:1012E00013E000BF4FF4006558E700BF05F5005557
:1012F000F8037FF559AF08E04FF480554EE700BF83
:1013000005F58045F8037FF54FAF20684FF4803135
:10131000BA0381600AD4780310D4380314D4204669
:1013200000F04AFA30073FF541AF47E7204600F0AA
:1013300045FA30073FF53AAF40E700BF05F50045F5
:1013400030073FF533AF39E705F5803530073FF516
:101350002DAF33E745F010050EE000BF45F0200546
:101360000AE000BF45F0400506E000BF45F08005FB
:1013700002E000BF45F480752068816921F07001AA
:10138000816120680421416055B1606A40EA05012D
:101390002046616201B0BDE8F04FFFF743BE00BFD9
:1013A00001B0BDE8F08F0000B0B5C8B1044690F8B8
:1013B000200010B9204600F071F82068016841F063
:1013C0000101016000F040FC054600BF2068416853
:1013D000C90707D100F038FC401B0B28F6D312E0F8
:1013E0000120B0BD016821F00201016000F02CFC79
:1013F000054600BF2068416889070DD500F024FC30
:10140000401B0B28F6D3606A052140F4003060626F
:10141000012084F82010B0BD217E0268012922F04D
:10142000800208BF80320260617E0268012922F0DA
:10143000400208BF40320260A17E0268012922F00A
:10144000200208BF20320260E17E0268012922F0FA
:10145000100218BF10320260217F0268012922F0B9
:10146000080208BF08320260617F0268012922F089
:10147000040208BF04320260D4E901C2D4E9033592
:1014800061691A432A431143ACF101021143C1615E
:1014900000200121606284F82010B0BDB0B586B094
:1014A000006846F60002C4F2000200219042CDE935
:1014B0000411CDE90211019130D046F20041C4F28D
:1014C000000188427DD140F29021C2F200010A68F9
:1014D00043F64000C4F20200531C0B6052B90021D5
:1014E0000091016841F000710160016801F0007134
:1014F000009100990021009150F8101C152441F032
:10150000020140F8101C50F8100C142500F00200E5
:10151000009000984FF4407033E000BF43F6400065
:10152000C4F202000091016841F08061016001682D
:1015300001F080610091009940F29021C2F2000117
:101540000A68531C0B6052B900210091016841F0F8
:1015500000710160016801F00071009100990021A3
:10156000009150F8101C412441F0020140F8101C79
:1015700050F8100C402500F00200009000984FF445
:10158000405001900220029000200390032004901C
:101590000920059040F20040C4F2020001A900F0C9
:1015A00069FA28460021002200F0CEFB284600F010
:1015B000BBFB20460021002200F0C6FB204600F0C5
:1015C000B3FB06B0B0BD000070470000B0B540F2FC
:1015D000102440F23015C2F20004C2F2000504F1FA
:1015E0001C0005F14C0300212246FFF71DFD40F2CF
:1015F000B000C2F20000417A2368013141725909FA
:1016000003F01F02512BC181028201D1B0BD00BF86
:10161000013A162AFAD8DFE802F00F0D1F2F310D1C
:101620000D0D630D0D0D0D0D0D0D0D0D0D43550D16
:101630005F0000BFEAE700BF88B204EB4001B1F8E9
:1016400044200132A1F8442095F8501040F2A8122D
:10165000C2F200021154B0BD286D40F2A81200EE93
:10166000100ABDEEC00AC2F20002686510EE100A50
:1016700012FA81F10875B0BD286D00E0E86C00EE4B
:10168000100A40F2A812BDEEC00AC2F2000268655C
:1016900010EE100A12FA81F181F82800B0BD00BFE7
:1016A000286D40F2A81200EE100ABDEEC00AC2F288
:1016B0000002686510EE100A12FA81F181F83C0010
:1016C000B0BD00BF286D40F2942289B2C2F2000280
:1016D000686542F82100B0BDE86C2860B0BD00BF6D
:1016E0002A6D8BB240F29424C9B2C2F200040A29D6
:1016F0006A6544F823200FD0092917D0082918BF9C
:10170000B0BDE96C00EE101ABDEEC00AE96110EE42
:10171000101A0183B0BD00BFE96C00EE101ABDEED7
:10172000C00A696210EE101A8183B0BDE96C00EE48
:10173000101ABDEEC00A296210EE101A4183B0BD26
:10174000704700007047000070470000B0B50446C5
:1017500090F8200001281DD1022084F82000206884
:10176000016821F00101016000F06EFA054600BF3A
:1017700020684068C00713D000F066FA401B0B28B1
:10178000F6D3606A40F400306062052084F82000DF
:101790000120B0BD606A40F4002060620120B0BD4D
:1017A00000206062B0BD000070470000704700007C
:1017B000704700007047000070470000704700004D
:1017C0007047000070B5866D044600F03DFA94F84D
:1017D000351002292ED105462068216C026822F0BE
:1017E00016020260426922F08002426109B9A16CCE
:1017F00019B1016821F008010160016821F00101BF
:1018000001600068C00708D000F01EFA401B0528E0
:1018100018D820680068C007F6D1E06D3F2101FAB2
:1018200000F0B060012084F835000020002184F829
:10183000341070BD802060650120002184F83410D0
:1018400070BD00BF20206065032084F835000021B2
:1018500084F8341070BD000090F83510022909D1C9
:10186000052180F835100068016821F00101016050
:10187000002070478021416501207047B0B50446C3
:1018800000F0E2F9054640F23400C2F200000078B0
:10189000611C18BF044400BF00F0D6F9401BA042F1
:1018A000FAD3B0BD2DE9F04381B040F2E038C2F286
:1018B000000898F81820012A04D1022001B0BDE8E0
:1018C000F08300BF0546012088F818004CF2503024
:1018D0008946FFF721FA28B1002188F8181001B0D5
:1018E000BDE8F0834FF0FF30C9F80000286843F6E8
:1018F00010470128C4F202071CD128693968000288
:1019000021F440713960396880B241F004013960D6
:101910003968084340F4803038604CF25030FFF7AB
:10192000FBF9396821F00401396057F8101C89056A
:101930003BD452E0D5E902603044864230D2F40014
:1019400028694FF44072C1B2032939684FEA002078
:1019500021F440713960396838BF82B241EA02002F
:101960003860386820F0F80038603868204340F06C
:1019700002003860386840F4803038604CF25030F3
:10198000FFF7CAF93968002821F0FA01396047D118
:10199000D5E9020101360844864204F10804CFD398
:1019A000002057F8101C890517D557F8101C21F492
:1019B000007147F8101C57F8101C41F4006147F8FB
:1019C000101C57F8101C21F4006147F8101C57F840
:1019D000101C41F4007147F8101C57F8101C490501
:1019E0007FF57AAF57F8101C21F4806147F8101C7E
:1019F00057F8101C41F4805147F8101C57F8101C80
:101A000021F4805147F8101C57F8101C41F48061F4
:101A100047F8101C002188F8181001B0BDE8F083C9
:101A2000C9F8006057F8101C8905BED4D5E700003E
:101A300043F61041C4F20201086840F00042002061
:101A40000A60704743F60440C4F20200C168B1F175
:101A5000FF3FC4BF0020704740F22311C4F267511A
:101A6000016048F6AB11CCF6EF510160C068C00FC1
:101A7000704700002DE9F04F82B000F13E4241F680
:101A8000000502F1FF77C4F2020507224FEAB726EC
:101A9000A84208BF0622062E38BF4FEAB7224FF0F1
:101AA000010A002400274FF00008009208E000BF60
:101AB000023708F10108202F04F1040400F0B4807B
:101AC0000E680AFA08F916EA090FF1D0D1F804A055
:101AD0000AF0030BABF10106012E17D8032286682A
:101AE00002FA07FECA6826EA0E06BA40324382604E
:101AF0004268CAF3001522EA090205FA08F54FEA1E
:101B0000480C6FEA0E062A4342600BE00322BA40FB
:101B1000D643BBF1030FBC4604D1BC464FF0030BC8
:101B200022E000BFC2688D68324005FA0CF52A43F6
:101B3000BBF1020FC26017D16FF0030202EA580234
:101B4000024404F01C030F25D2F820E005FA03FA42
:101B50000D692EEA0A0E05FA03F343EA0E03136237
:101B6000D1F804A00AF0030B02680BFA0CF3324020
:101B70001A431AF4403F4FF0010A026098D0002245
:101B800043F644030192C4F202031A6843F6004E7E
:101B900042F480421A601A68C4F2010E02F48042D4
:101BA0000192019A28F003024FF6084C7244CFF6D6
:101BB000FF7C52F80C3004F00C060F25B540AB4307
:101BC000009D05FA06F6334342F80C30DEF8082093
:101BD0004B6842EA090643F60C4CDD0258BF22EA84
:101BE0000906CEF80860C4F2010CDCF800209D0262
:101BF00042EA090658BF22EA0906CCF80060DEF87E
:101C000004209D0342EA090658BF22EA0906CEF8DD
:101C10000460DEF80020DB0342EA090658BF22EA2E
:101C20000906CEF8006043E702B0BDE8F08F00007F
:101C30000069084018BF012070470000002A08BF53
:101C4000090481617047000040F20040C2F20000C8
:101C50000068704740F2340040F20041C2F20000D8
:101C6000C2F2000100780A68104408607047000062
:101C700080B543F60040C4F20200016841F40071EF
:101C80000160016841F480610160016841F4807184
:101C90000160032000F084F80F2000F005F800F048
:101CA00027F8002080BD000070B540F23406C2F273
:101CB000000640F248013278C2F200014FF47A7314
:101CC0000968B3FBF2F20446B1FBF2F1084600F0FA
:101CD000B7FB0F2C4FF0010508D838B94FF0FF3093
:101CE00021460022002500F02FF87460284670BDC0
:101CF00082B0002043F640010190C4F202014A681C
:101D000042F480424A604A6802F480420192019A99
:101D10000090086840F080500860086800F080502B
:101D20000090009802B07047002848BF704700F04C
:101D30001F01012202FA01F14EF200124009CEF217
:101D4000000242F82010704710B54EF60C5CCEF23F
:101D5000000CDCF80030C3F3022E8EF00704042CD4
:101D600028BF0424BEF103034FF0FF3E0EFA04F433
:101D700038BF0023A14399400EFA03F39A4300F0C1
:101D80000F03043B1143634409010C3300F160422B
:101D9000B0F1FF3FC8BF02F56443197010BD0000E9
:101DA0004EF60C51CEF200010A684FF6FF031A40BE
:101DB00060F30A2242F0806040F0FD7008607047D6
:101DC00070B582B00020019043F64000C4F20200DA
:101DD0000168402641F0805101600068C4F20E267F
:101DE00000F080500190019847F204050120C4F2F0
:101DF00000053060FFF728FF044600BF2868C003D5
:101E000006D4FFF721FF001BB0F57A7FF6D90EE06C
:101E100001207060FFF718FF044600BF28688003A8
:101E200008D4FFF711FF001BB0F57A7FF6D9032025
:101E300002B070BD002002B070BD00002DE9F0417D
:101E4000002800F08B8043F60808C4F2020804461C
:101E5000D8F8F8030D4600F00F00884207D288F842
:101E6000F853D8F8F80300F00F00A84276D12068A4
:101E7000810717D5410705D5D8F8001041F4E05186
:101E8000C8F80010010705D5D8F8001041F46041EA
:101E9000C8F80010D8F80010A26821F0F001114332
:101EA000C8F80010C0073FD1D8F8F80300F00F00C1
:101EB000A84207D988F8F853D8F8F80300F00F00C3
:101EC000A8424BD12068410707D5D8F80010E26836
:101ED00021F4E0511143C8F80010000708D5D8F8E4
:101EE0000000216920F4604040EAC100C8F8000009
:101EF00000F07CF8D8F8001044F6C212C1F30311C8
:101F0000C0F60002515C40F2480220FA01F140F2B2
:101F10003800C2F200000068C2F200021160FFF750
:101F2000C3FE0020BDE8F0816068811E022907D24F
:101F300058F8081C89015CBF0120BDE8F08111E060
:101F4000012807D158F8081C89035CBF0120BDE8AF
:101F5000F08107E058F8081C890703D40120BDE888
:101F6000F08100BFD8F8001021F003010843C8F841
:101F70000000FFF769FE064641F28837D8F80000F6
:101F8000616800F00C00B0EB810F8DD0FFF75CFEB4
:101F9000801BB842F2D90320BDE8F08140F248002E
:101FA00043F60801C2F20000C4F2020100680968A9
:101FB00044F6D212C1F38221C0F60002515CC8403F
:101FC0007047000040F2480043F60801C2F20000EA
:101FD000C4F202010068096844F6D212C1F342312A
:101FE000C0F60002515CC8407047000010B543F6CF
:101FF0000404C4F202046068C0F3810142F20040AC
:10200000C0F2F400DFE801F04402081841F20020B9
:10201000C0F27A0010BD00BF216801F03F022168C4
:1020200023684902C3F3881116D4A1FB00010023E1
:10203000FEF738F917E000BF216801F03F02216880
:1020400023684902C3F3881116D4A1FB00010023C1
:10205000FEF728F917E000BF41F20020C0F27A0035
:102060004843B0FBF2F021680222C1F3014102EBC8
:102070004101B0FBF1F010BD41F20020C0F27A0046
:102080004843B0FBF2F02168C1F30271B0FBF1F0FC
:1020900010BD00002DE9F04182B0002800F09680CC
:1020A0000446007843F60006C007C4F202062BD0AF
:1020B000B06800F00C00042820D0B06800F00C00DC
:1020C000082802D17068400218D4B06800F00C00F3
:1020D0000C2802D17068400210D46068B0F5803FCF
:1020E00007D0B0F5A02F40F03B81306840F480204D
:1020F0003060306840F4803030603BE1306880030D
:1021000002D56068002861D02078800722D5B068A9
:1021100010F00C0F11D0B06800F00C00082802D1AC
:102120007068400209D5B06800F00C000C2840F03F
:102130009F807068400200F19B803068800702D564
:10214000E068012842D13068216920F0F80040EAB7
:10215000C1003060207800073CD42078400751D47B
:10216000A5698DB3B06800F00C00082840F0A88085
:10217000012D2BD07068E16900F480028A4225D1DC
:10218000216A00F03F028A4220D147F6C071626A9C
:102190000140B1EB821F19D1A26A0023CFF6FF7371
:1021A00003EBC23200F440316FF30F0291420DD1C4
:1021B000E16A00F07062B2EB016F07D1216B00F0B1
:1021C000E040B0EB017F01D1002035E1012002B0F9
:1021D000BDE8F0816069002840F20000C4F24720A9
:1021E0005ED00121C0F8801EFFF72EFD054600BF1E
:1021F000706F8007B1D4FFF727FD401B0228F7D985
:10220000C5E000BF306C10F080580AD1002001906A
:10221000306C40F080503064306C00F080500190A1
:10222000019847F20007C4F200073868C00511D4CE
:10223000386840F480703860FFF706FD054600BF3F
:102240003868C00506D4FFF7FFFC401B0228F7D909
:102250009DE000BFA068012805D0052852D1306F4D
:1022600040F004003067306F40F00100306753E009
:10227000E068002860D00020C4F2472001210160FE
:10228000FFF7E2FC054600BF306880073FF55BAF13
:10229000FFF7DAFC401B02284FF00300F4D9CBE033
:1022A0000021C0F8801EFFF7CFFC0546706F800745
:1022B0007FF553AFFFF7C8FC401B0228F6D966E054
:1022C0000027C4F2472700203866FFF7BDFC022D27
:1022D00005460BD1306880015ED5FFF7B5FC401B89
:1022E00002284FF00300F5D9A6E000BF3068800156
:1022F0007FF56AAFFFF7A8FC401B02284FF00300F0
:10230000F4D999E0316F002821F001013167316F74
:1023100021F00401316765D0FFF796FC054641F2D4
:10232000883700BF306F80076ED4FFF78DFC401BED
:10233000B842F7D92BE000BF0020C4F247200021AB
:102340000160FFF781FC0546306880077FF502AF2A
:10235000FFF77AFC401B02284FF00300F4D96BE032
:102360003168002821F480313160316821F4802106
:10237000316053D0FFF768FC054600BF306880032A
:102380003FF5C2AEFFF760FC401B6428F6D903207E
:1023900002B0BDE8F08100BF04F11C052FCD246B15
:1023A00008430021CFF6FF7140EA821001EBC331F0
:1023B0006FF30F0140EA0560084340EA0470706063
:1023C00001203866FFF740FC044600BF30688001FA
:1023D0003FF5FAAEFFF738FC001B02284FF0030070
:1023E000F4D929E0FFF730FC054641F2883700BFF9
:1023F000306F800708D5FFF727FC401BB8424FF02D
:102400000300F5D918E000BFB8F1000F7FF4A8AEC3
:10241000306C20F080503064A2E600BFFFF714FC5F
:102420000546306880037FF56FAEFFF70DFC401B5B
:1024300064284FF00300F4D902B0BDE8F081000039
:10244000411E0020B0EB116F1CBF012070474EF2FF
:102450001002CEF2000251604EF62351CEF200017E
:10246000F0230B70072190601160704770470000E7
:1024700070470000002804BF0120704710B50446D3
:1024800090F83D0028B9002084F83C00204600F078
:102490001FF8022084F83D002068211D01F016FB82
:1024A000012084F8460084F83E0084F83F0084F858
:1024B000400084F8410084F8420084F8430084F826
:1024C000440084F8450084F83D00002010BD000061
:1024D00080B582B0006842F20001C4F20001884277
:1024E0001CBF02B080BD0020019043F64000C4F242
:1024F00002000168002241F480710160006800213F
:1025000000F48070019001982D20FFF71DFC2D2014
:1025100002B0BDE88040FFF707BC00007047000034
:1025200010B5016804460869800744BFC8685FEABF
:10253000807039D40869400744BFC8685FEA4070BA
:102540003ED40869000744BFC8685FEA007045D4FC
:102550000869C00644BFC8685FEAC0604AD4086919
:10256000C0071CBFC8685FEAC07051D10869000687
:1025700044BFC8685FEA006052D40869400644BF9F
:10258000C8685FEA406053D40869800646BFC868DF
:102590005FEA806010BD6FF0200220460A61BDE84E
:1025A0001040FFF765BF00BF6FF002000861012017
:1025B00020778869800743D02046FFF7AFFF45E0CA
:1025C0006FF00400086102202077886910F4407FD2
:1025D00040D02046FFF7A2FF42E000BF6FF00800A6
:1025E000086104202077C86980073DD02046FFF7A6
:1025F00095FF3FE06FF01000086108202077C86960
:1026000010F4407F3AD02046FFF788FF3CE000BF3F
:102610006FF001000861204600F03EF82168A5E750
:102620006FF0800008612046FFF720FF2168A4E7D3
:102630006FF040000861204600F030F82168A3E701
:10264000204600F025F8204600F024F821680020FC
:1026500020776FE7204600F01BF8204600F01AF8BC
:102660002168002020776CE7204600F011F8204612
:1026700000F010F821680020207769E7204600F07C
:1026800007F8204600F006F821680020207766E76A
:10269000704700007047000070470000704700005E
:1026A0007047000070470000B0B582B0056804466E
:1026B0002968EA68686901F02F03202B02F02003E3
:1026C00006D12BB1204602B0BDE8B04001F0AEBA51
:1026D0005FEA017C1EBF00F0010E02F4907010EB67
:1026E0000E002FD1236B02EA0100C10618D5012B81
:1026F00016D1002001902868019068680190019827
:102700006869400628D4A08DE18DE28D002A1CBFA7
:10271000411A5FEA014040F0D58102B0B0BD00BF70
:10272000010600F1D1804006F7D5E868202120F0AD
:102730004000E860204684F83D1002B0BDE8B0409B
:1027400000F062BBC80718BF12F4807040F0D08060
:10275000480700F1D380D8E0A06B01684A6893B2C3
:10276000002BDAD0A18D8B42D7D2E285C069B0F5BB
:10277000807F00F0A08055E8030F216820F480706E
:1027800041E80302F2B1206850E8030F216820F409
:10279000807041E80302AAB1206850E8030F216865
:1027A00020F4807041E8030262B1206850E8030F12
:1027B000216820F4807041E803021AB1206850E8D3
:1027C000030FDAE7206850E8050F216820F00100C8
:1027D00041E80502BAB3206850E8050F216820F0EF
:1027E000010041E8050272B3206850E8050F216836
:1027F00020F0010041E805022AB3206850E8050FE7
:10280000216820F0010041E80502002ADAD11AE02F
:10281000206850E8050F216820F0400041E80502DB
:10282000DAB1206850E8050F216820F0400041E847
:10283000050292B1206850E8050F216820F04000A1
:1028400041E805024AB1206850E8050F216820F0F0
:10285000400041E80502002ADAD1202084F83E0039
:1028600000202063206850E8030F216820F010004A
:1028700041E80302DAB1206850E8030F216820F034
:10288000100041E8030292B1206850E8030F21686C
:1028900020F0100041E803024AB1206850E8030F1D
:1028A000216820F0100041E80302002ADAD1A06B71
:1028B000FEF788FFA18DE08D081A81B2204602B094
:1028C000BDE8B040FFF7ECBE94F83D0021287FF44E
:1028D00024AFA068B0F5805F03D12069002800F024
:1028E0008781206A411C21620078686087E100BF0F
:1028F000206C40F001002064480706D5BEF1000FAF
:1029000003D0206C40F002002064880706D5BEF199
:10291000000F03D0206C40F004002064BCF1000FD5
:1029200006D55EEA030003D0206C40F00800206466
:10293000206C00283FF4F1AE02EA0100800603D5C6
:10294000204601F073F925686869216C00F04000A9
:1029500001F00801401800F0AD8055E8030F00BFFA
:10296000216820F4907041E80302D2B3206850E857
:10297000030F216820F4907041E803028AB32068B5
:1029800050E8030F216820F4907041E8030242B33D
:10299000206850E8030F216820F4907041E803029A
:1029A000FAB1206850E8030FDAE700BF206850E86A
:1029B000050F216820F0010041E80502DAB1206826
:1029C00050E8050F216820F0010041E8050292B1AE
:1029D000206850E8050F216820F0010041E8050259
:1029E0004AB1206850E8050F216820F0010041E855
:1029F0000502002ADAD1206B012824D1206850E892
:102A0000030F216820F0100041E80302DAB12068CA
:102A100050E8030F216820F0100041E8030292B152
:102A2000206850E8030F216820F0100041E80302FD
:102A30004AB1206850E8030F216820F0100041E8F7
:102A40000302002ADAD1202084F83E00002020630F
:102A500020684169490640F1C58050E8050F2168AA
:102A600020F0400041E80502002A00F0A98020681B
:102A700050E8050F216820F0400041E80502002AD7
:102A800000F09E80206850E8050F216820F040008B
:102A900041E80502002A00F09380206850E8050F05
:102AA000216820F0400041E80502002A00F08880FB
:102AB0002068D2E72046FFF7F5FD0020206402B031
:102AC000B0BD00BF55E8030F226820F4907042E8C3
:102AD0000303D3B3206850E8030F226820F49070FA
:102AE00042E803038BB3206850E8030F226820F408
:102AF000907042E8030343B3206850E8030F226854
:102B000020F4907042E80303FBB1206850E8030F03
:102B1000DAE700BF206850E8050F226820F00100C6
:102B200042E80503DBB1206850E8050F226820F079
:102B3000010042E8050393B1206850E8050F2268C0
:102B400020F0010042E805034BB1206850E8050F72
:102B5000226820F0010042E80503002BDAD1202092
:102B600084F83E0000202063206850E8030F2268AC
:102B700020F0100042E80303DBB1206850E8030FA7
:102B8000226820F0100042E8030393B1206850E867
:102B9000030F226820F0100042E803034BB12068C5
:102BA00050E8030F226820F0100042E80303002BD6
:102BB000DAD189B2204602B0BDE8B040FFF770BD5F
:102BC000A06B78B143F62141C0F600010165FEF724
:102BD00043FE00283FF4A1ADA06B016D02B0BDE83B
:102BE000B0400847204602B0BDE8B040FFF75ABDEC
:102BF000206A30F8021B6FF35F2169602062E08C6D
:102C000001380104E0847FF488ADE86820F080009A
:102C1000E860E86840F04000E86002B0B0BD000045
:102C2000002804BF0120704710B5044690F83D000D
:102C300028B9002084F83C00204600F021F8242028
:102C400084F83D002068C16821F40051C16020462D
:102C500001F06EF82068016921F490410161416939
:102C600021F02A014161C16841F40051C160002096
:102C70002021206484F83D1084F83E1010BD00002F
:102C8000F0B587B0006845F20001C4F200010024ED
:102C90008842CDE90544CDE9034402942AD044F6A4
:102CA0000041C4F2000188426DD1002043F630019A
:102CB0000190C4F202010A69342442F400220A613C
:102CC0000A6902F400220192019A01900A6842F016
:102CD00001020A600968022201F0010101910199D3
:102CE0000321CDE90320002002910591C4F20200E6
:102CF0003CE000BF43F630000194C4F202000169D9
:102D0000002741F4801101610169C4F2020701F456
:102D100080110191019901940168022541F004019B
:102D200001600168032601F00401019101990194F9
:102D3000016841F008010160006802A900F0080084
:102D4000019001984FF4805002900820069007F5FA
:102D50000060CDE903540596FEF78CFE0420CDE912
:102D60000205CDE9044607F54060352408210691A7
:102D700002A9FEF77FFE204600210022FEF7E4FFB5
:102D80002046FEF7D1FF07B0F0BD000090F83E30BE
:102D9000202B0BD100294FF0010318BF002A01D1CD
:102DA0001846704790F83C30012B01D10220704743
:102DB00000230363816222218285C285036480F837
:102DC0003E100269016880F83C301AB1C86840F4CE
:102DD0008070C8604869002340F001004861C868FD
:102DE00040F02000C86018467047000040F23010E4
:102DF000C2F2000000F1600140F29C30C2F200001B
:102E00000822FFF7C3BF000070470000FEE7000084
:102E1000FEE70000FEE70000704700002DE9F04FDC
:102E200081B040F2B000C2F200004178022940F0C7
:102E3000C480C18B428B838B1144028C41841A4421
:102E40000179C37940F230198B42C2F200098284C1
:102E500002D199ED030A27E004291ED8DFE801F02A
:102E600004080E14180000BF0022C9F8042012E064
:102E70000022CCF2A012C9F804200EE00022C4F215
:102E8000A012C9F8042008E00022C4F2202202E0C7
:102E90000022CCF22022C9F8082099ED010AC17164
:102EA00089ED030A89ED040A99ED051A40F2A81488
:102EB000B4EE401A40F2102AF1EE10FAC2F2000409
:102EC000C2F2000A38D040F22D10254645F8500FC6
:102ED0004FF0000B042009F170080AF11C0709F1FA
:102EE0004806C5E903B0384629464246334685F8C8
:102EF00014B0C5E901BB89ED1C0AFDF7C5FF01202F
:102F0000FEF7BCFC3846294642463346FDF7BCFF77
:102F10000120FEF7B3FC3846294642463346FDF70A
:102F2000B3FF0120FEF7AAFCD9F80C00C9F870B075
:102F3000C9F874B0C9F8140099ED040A99ED061A9D
:102F4000B4EE401AF1EE10FA37D040F24D1044F8CA
:102F5000500F4FF00008042009F170050AF11C061B
:102F600009F14807C4E90380304621462A463B461A
:102F700084F81480C4E9018889ED1C0AFDF784FFF8
:102F80000120FEF77BFC304621462A463B46FDF7F2
:102F90007BFF0120FEF772FC304621462A463B4665
:102FA000FDF772FF0120FEF769FCD9F81000C9F89F
:102FB0007080C9F87480C9F8180001B0BDE8F08FBE
:102FC000704700002DE9F04381B0411E032940F213
:102FD000B001C2F200014A78B1EE401A38BFB0EE3B
:102FE000410A022A15D00979032909D0042910D1F0
:102FF000C11EB1EE401A022938BFB0EE410A08E006
:10300000C11EB1EE401A022938BFB0EE401AB0EE30
:10301000410A40F2A8144001C2F200040E3044F804
:10302000500F4FF000080420C4E9038040F230192B
:1030300040F21020C2F20009C2F2000009F170054E
:1030400000F11C0609F14807304621462A463B4656
:1030500084F81480C4E9018889ED1C0AFDF714FF87
:103060000120FEF70BFC304621462A463B46FDF781
:103070000BFF0120FEF702FC304621462A463B4664
:10308000FDF702FF0120FEF7F9FBC9E91C8801B03A
:10309000BDE8F083000000002DE9F04F81B02DED78
:1030A000048B40F2B008C2F2000898F80100022830
:1030B00000F0EC8298F80660A6F15A0000EE100AC3
:1030C000B8EEC08A18EE100A20F0004088ED0F8A92
:1030D00001F0F4FB9FEDBC0B53EC102B01F096F9C3
:1030E00040F20009C2F2000999ED079A044619EE70
:1030F000100A0D4601F0E2FB02460B462046294627
:1031000001F0DEFA01F050F998ED111A00EE100A04
:10311000B4EE481AF1EE10FAC8F8400014D198ED58
:10312000122AB4EE402AF1EE10FA0DD198F80400FC
:1031300098ED0E2A03EE100AB8EE433AB4EE432A95
:10314000F1EE10FA00F0A282B3EE042AB4EE420AC5
:10315000F1EE10FA40F38C82562E00F2998040F284
:103160009420C2F2000090ED042AB4EE481AF1EE69
:1031700010FAB0EEC21A80F22B81B0EE008A31EE66
:10318000089AB4EE409AF1EE10FA00F3718240F220
:10319000301B40F21020C2F2000BC2F200004FF0D0
:1031A00000090BF170044FF0080A00F11C050BF147
:1031B000480600BF40F2A817C2F200076F2047F888
:1031C000500F44F24820ABF8760028463946224694
:1031D000334687F814908BED1C9AC7E90199C7E92B
:1031E000039AFDF751FE0120FEF748FB28463946B9
:1031F00022463346FDF748FE0120FEF73FFB2846F6
:10320000394622463346FDF73FFE0120FEF736FBE6
:103210000020C4F24820CBF874008F20C7E90009D1
:10322000284639462246334687F814908BED1C9A7F
:10323000C7E90299C7F810A0FDF726FE0120FEF7A6
:103240001DFB2846394622463346FDF71DFE012068
:10325000FEF714FB2846394622463346FDF714FE96
:103260000120FEF70BFB0A20CBE91C99FEF706FBB9
:1032700040F20000C2F2000098ED100A80ED069ABC
:1032800039EE089AB4EE409AF1EE10FA92DDEFE1D1
:103290005D2E40F2278140F29420C2F2000090EDB2
:1032A000012AB4EE481AF1EE10FAB0EEC21A40F359
:1032B000F381B0EE008A31EE089AB4EE409AF1EE56
:1032C00010FA00F3D58140F2301940F21020C2F21A
:1032D0000009C2F200004FF0000B09F170044FF03A
:1032E000080A00F11C0509F1480600BF40F2A817C2
:1032F000C2F200072F2047F8500F44F24820A9F8E7
:103300007600284639462246334687F814B089EDC0
:103310001C9AC7E901BBC7E903BAFDF7B5FD012057
:10332000FEF7ACFA2846394622463346FDF7ACFD97
:103330000120FEF7A3FA2846394622463346FDF718
:10334000A3FD0120FEF79AFA0020C4F24820C9F834
:1033500074004F20C7E9000B284639462246334601
:1033600087F814B089ED1C9AC7E902BBC7F810A012
:10337000FDF78AFD0120FEF781FA284639462246EC
:103380003346FDF781FD0120FEF778FA28463946DD
:1033900022463346FDF778FD0120FEF76FFA0A203A
:1033A000C9E91CBBFEF76AFA40F20000C2F2000055
:1033B00098ED100A80ED069A39EE089AB4EE409A1C
:1033C000F1EE10FA92DD53E10000000000005940D8
:1033D000BFEE008A31EE089AB4EE409AF1EE10FA90
:1033E000C0F2468140F2301B40F21020C2F2000BC6
:1033F000C2F200004FF000090BF170044FF0080A10
:1034000000F11C050BF1480640F2A817C2F20007B4
:103410006F2047F8500F44F24820ABF8760028465A
:1034200039462246334687F814908BED1C9AC7E93B
:103430000199C7E9039AFDF727FD0120FEF71EFA5F
:103440002846394622463346FDF71EFD0120FEF789
:1034500015FA2846394622463346FDF715FD012068
:10346000FEF70CFA0020C4F24820CBF874008F203D
:10347000C7E90009284639462246334687F81490A2
:103480008BED1C9AC7E90299C7F810A0FDF7FCFC68
:103490000120FEF7F3F92846394622463346FDF768
:1034A000F3FC0120FEF7EAF9284639462246334666
:1034B000FDF7EAFC0120FEF7E1F90A20CBE91C99AF
:1034C000FEF7DCF940F20000C2F2000098ED100AAD
:1034D00080ED069A39EE089AB4EE409AF1EE10FAB1
:1034E00092DAC5E040F2A814C2F200042F2040F2A4
:1034F000301B44F8500FC2F2000B44F248204FF04A
:10350000000AABF876000820C4E903A040F21020BE
:10351000C2F200000BF1700500F11C070BF1480628
:10352000384621462A46334684F814A08BED1C9A6F
:10353000C4E901AAFDF7A8FC0120FEF79FF938466F
:1035400021462A463346FDF79FFC0120FEF796F9F7
:10355000384621462A463346FDF796FC0120FEF701
:103560008DF90021D9F81C00C4F24821CBE91C01D7
:103570004F20C4E9000A08202061384621462A4627
:10358000334684F814A0C4E902AAFDF77DFC0120AB
:10359000FEF774F9384621462A463346FDF774FC97
:1035A0000120FEF76BF9384621462A463346FDF7DF
:1035B0006BFC0120FEF762F9D9F81C000021C4F26F
:1035C0004821CBE91C016F20C4E9000A08202061D2
:1035D000384621462A46334684F814A0C4E902AA94
:1035E000FDF752FC0120FEF749F9384621462A46EC
:1035F0003346FDF749FC0120FEF740F938462146E5
:103600002A463346FDF740FC0120FEF737F9D9F88A
:103610001C000021C4F24821CBE91C018F20C4E921
:10362000000A08202061384621462A46334684F89D
:1036300014A0C4E902AAFDF727FC0120FEF71EF939
:10364000384621462A463346FDF71EFC0120FEF788
:1036500015F9384621462A463346FDF715FC012068
:10366000FEF70CF998ED100ACBF870A0CBF874A017
:10367000D8F83C0088ED120AC8F8440098F8040015
:1036800000EE100AB8EE400A88ED0E0ABDEC048B7D
:1036900001B0BDE8F08F00BFBFEE008A31EE089A9E
:1036A000B4EE409AF1EE10FAE2DB40F2301940F24B
:1036B0001020C2F20009C2F200004FF0000B09F125
:1036C00070044FF0080A00F11C0509F1480600BF1C
:1036D00040F2A817C2F200072F2047F8500F44F21B
:1036E0004820A9F87600284639462246334687F80E
:1036F00014B089ED1C9AC7E901BBC7E903BAFDF70D
:10370000C3FB0120FEF7BAF8284639462246334665
:10371000FDF7BAFB0120FEF7B1F8284639462246EC
:103720003346FDF7B1FB0120FEF7A8F80020C4F2F4
:103730004820C9F874004F20C7E9000B28463946D5
:103740002246334687F814B089ED1C9AC7E902BBBC
:10375000C7F810A0FDF798FB0120FEF78FF8284668
:10376000394622463346FDF78FFB0120FEF786F8E7
:103770002846394622463346FDF786FB0120FEF7F0
:103780007DF83220C9E91CBBFEF778F840F2000052
:10379000C2F2000098ED100A80ED069A39EE089A00
:1037A000B4EE409AF1EE10FA92DA61E72DE9F043B7
:1037B00081B02DED028B9FED668A0120B0EE480AA4
:1037C000FFF700FC0220B0EE480AFFF7FBFB0320E6
:1037D000B0EE480AFFF7F6FB0420B0EE480A4FF0BF
:1037E0000409FFF7EFFB40F2A814C2F2000440F214
:1037F0000D1040F2301544F8500F4FF00008C2F29F
:10380000000540F2102045F8708FC2F20000A5F1CB
:10381000280600F11C07384621462A46334684F81C
:103820001480C4E90188C4E90389FDF72DFB012058
:10383000FEF724F8384621462A463346FDF724FB96
:103840000120FEF71BF8384621462A463346FDF78D
:103850001BFB0120FEF712F840F22D10C4E900080E
:10386000384621462A463346C5E9008884F8148044
:10387000C4E90288C4F81090FDF706FB0120FDF7AB
:10388000FDFF384621462A463346FDF7FDFA012062
:10389000FDF7F4FF384621462A463346FDF7F4FA91
:1038A0000120FDF7EBFF40F24D10C4E90008384657
:1038B00021462A463346C5E9008884F81480C4E9C5
:1038C0000288C4F81090FDF7DFFA0120FDF7D6FF5B
:1038D000384621462A463346FDF7D6FA0120FDF741
:1038E000CDFF384621462A463346FDF7CDFA012062
:1038F000FDF7C4FF40F26D10C4E9000838462146C8
:103900002A463346C5E9008884F81480C4E9028851
:10391000C4F81090FDF7B8FA0120FDF7AFFF384664
:1039200021462A463346FDF7AFFA0120FDF7A6FFF0
:10393000384621462A463346FDF7A6FA0120FDF710
:103940009DFFC5E90088BDEC028B01B0BDE8F083A6
:1039500000000000FEF77EB980B594B0002043F669
:103960004001CDE90B00CDE909000690CDE9040046
:10397000CDE902000190C4F202010A6842F08052CF
:103980000A60096801F0805101910199019047F2A4
:103990000000C4F20000016841F440410160006889
:1039A0004FF4800100F440400190019801200790FD
:1039B0004FF480300E910421089002200F91B42121
:1039C0000D90CDE91010CDE9120007A8FEF762FBBB
:1039D000B0B9FEF7F5F998B90F20029003200390D3
:1039E000002004904FF4A05005904FF480500690B2
:1039F00002A80521FEF722FA002804BF14B080BDFA
:103A0000FDF752F84EF68850CEF20000016841F4FE
:103A10007001016070470000F0B581B040F2E4240D
:103A2000C2F200042088013081B20A29208044D3E8
:103A300040F2802540F2C80140F2D202C2F20005F5
:103A4000C2F20001C2F2000228680968B2F900203F
:103A50000843D11740F2D4030904C2F2000340F234
:103A6000882741EA1241B3F90030C2F20007084347
:103A7000D7E9001640EAE37043EA024286EA00030F
:103A800051401943C5E9002015D0FDF7DBFF40F296
:103A90004000C2F200000068FDF7CAF940F244009D
:103AA000C2F200000068FDF7C3F9FDF7C1FFD5E9D8
:103AB0000001C7E900010020208040F21030C2F26E
:103AC000000001B0BDE8F040FEF72ABD10B540F699
:103AD000FF3E0368C4F2000E40F2004C7045C4F291
:103AE000010C27DCB0F1804F31D040F20042C4F22B
:103AF000000290422BD040F60002C4F20002904235
:103B000025D041F6FF72C4F20002904229DC7045D4
:103B10003CDCB0F1804F5FD040F20042C4F20002C2
:103B2000904259D040F60002C4F20002904253D0B5
:103B300056E000BF40F60042C4F20002904206D0B8
:103B4000604504D00022C4F201029042D9D14A68F3
:103B500023F07003134341F6FF72C4F20002904257
:103B6000D5DD43F6FF72C4F20102904222DC42F23C
:103B70000002C4F2000290422ED00022C4F20102E0
:103B8000904229D0604527D02AE000BF40F600428D
:103B9000C4F2000290421FD041F60002C4F20002BB
:103BA000904219D041F60042C4F20002904213D074
:103BB00016E000BF44F20002C4F2010290420BD0B2
:103BC00044F60002C4F20102904205D044F20042E1
:103BD000C4F20102904203D1CA6823F44073134334
:103BE00023F080024B69D1F800E08C681A43026030
:103BF000C46240F48062C0F828E0624504BF0969ED
:103C000001630121416110BD40F25830C2F2000051
:103C1000FEF74ABD40F29C30C2F20000FEF744BD00
:103C2000806B0021C185C184FEF73CBD81B090F856
:103C30003E10222920D18368B3F5805F08D1016945
:103C4000002957D000F128010A6803685B680AE080
:103C5000014651F8282F13B90369002BF5D00368EA
:103C60005B6803F07F0313700A6801320A60C18D3C
:103C700001390A04C18501D001B070470168CA68E2
:103C800022F02002CA60CA6822F48072CA604A69BF
:103C900022F001024A61202280F83E20026B012AB4
:103CA00032D10022026300BF51E8031F026821F0F5
:103CB000100142E803135BB3016851E8031F026877
:103CC00021F0100142E8031313B3016851E8031F08
:103CD000026821F0100142E80313CBB1016851E8FA
:103CE000031F026821F0100142E8031383B1016849
:103CF000DAE700BF0168826A49686FF35F2122F842
:103D0000021B8262B3E700BF01B0FFF76FB800BFCC
:103D100001680A68D20606D5002200920A6800925D
:103D2000496800910099818D01B0FEF7B9BC00008F
:103D300010B504460068D4E902C22369016921F480
:103D4000405111430161626943EA0C01E369114387
:103D5000C268194349F20C639A431143C160416937
:103D6000A26921F4407141F20043114340F48062A2
:103D7000C4F201039A42416102D1FEF723F901E046
:103D8000FEF70CF9E16963681922B1F5004FA0FB59
:103D900002011FD15A00DB0FFCF784FA48F21F51D1
:103DA000C5F2EB11A0FB01235A096FF0630302FB7C
:103DB0000300322303EBC000A0FB01014FF4F870B5
:103DC00000EA111000EB0210C1F34211226808430F
:103DD000906010BD9A009B0FFCF764FA48F21F51E7
:103DE000C5F2EB11A0FB01235A096FF0630302FB3C
:103DF0000300322303EB0010A0FB0101F02000EAD6
:103E0000511000EB0210C1F3431122680843906087
:103E100010BD0000FEE700008CB040F60008C4F2C0
:103E20000208FDF725FFFFF797FD002643F6300057
:103E300006960196C4F202000168002241F00401D6
:103E40000160016801F00401019101990196016886
:103E500041F080010160016801F080010191019948
:103E60000196016841F001010160016801F0010162
:103E7000019101990196016841F002010160016818
:103E800001F00201019101990196016841F00801D8
:103E900001600068C42100F00800019001984046CC
:103EA000FDF7CCFE02AD04270124404629460297C7
:103EB000CDE903460594FDF7DDFDA8F50060294630
:103EC000CDE902760496FDF7D5FDC02002A951C1C7
:103ED000404629460596FDF7CDFD4FF40060CDE93B
:103EE0000206404629460496FDF7C4FD40F210251F
:103EF000C2F20005A8F5D031284640F81C1F0C215D
:103F00004FF420224FF40013C0E90116C0E9036208
:103F1000C0E905368683FDF747FA002840F0428263
:103F20000A940E20CDE9086405F11C04CDE9066071
:103F30000B9002A92046CDE90266CDE90466FDF7A3
:103F400001F840F21030A8F5F431C2F2000040F25E
:103F5000E73342F2273280E84600C0E90336866143
:103F6000FEF788FA002840F01D82404640210022DA
:103F70004FF0000AFDF762FE404680210022FDF767
:103F80005DFE2046FDF7E2FB20460221FCF764FFC0
:103F900040F6B830FDF772FC40F29C30A8F5DC31F9
:103FA000C2F200000C234FF4E13280E80604C0E9BD
:103FB00003AAC0E9053AC0F81CA0FEF731FE0028AC
:103FC00040F0F0816420FDF759FC40F23016C2F257
:103FD000000640F29C3006F16001C2F200000822A7
:103FE0000827FEF7D3FE354645F8707F40F2A81744
:103FF000C2F20007A720BB464BF8500F0420A5F1E2
:104000002809CBF81000204659462A464B46CBE9F2
:1040100002AAFCF739FF1420FDF730FC2046594670
:104020002A464B46FCF730FF1420FDF727FC2046BC
:1040300059462A464B46FCF727FF1420FDF71EFC85
:10404000204659462A464B46FCF71EFF1420FDF732
:1040500015FC204659462A464B46FCF715FF14200E
:10406000FDF70CFC0A20FDF709FC0820286004205D
:10407000CBF81000C720CBF80000204659462A464E
:104080004B46CBE902AAFCF7FFFE1420FDF7F6FB36
:10409000204659462A464B46FCF7F6FE1420FDF70B
:1040A000EDFB204659462A464B46FCF7EDFE142010
:1040B000FDF7E4FB204659462A464B46FCF7E4FE52
:1040C0001420FDF7DBFB204659462A464B46FCF7F9
:1040D000DBFE1420FDF7D2FB0A20FDF7CFFB082002
:1040E00028600420CBF81000E720CBF80000204621
:1040F00059462A464B46CBE902AAFCF7C5FE1420D6
:10410000FDF7BCFB204659462A464B46FCF7BCFE51
:104110001420FDF7B3FB204659462A464B46FCF7D0
:10412000B3FE1420FDF7AAFB204659462A464B460B
:10413000FCF7AAFE1420FDF7A1FB204659462A46AB
:104140004B46FCF7A1FE1420FDF798FB0A20FDF773
:1041500095FB082028600420CBF8100040F20710DF
:10416000CBF80000204659462A464B46CBE902AA26
:10417000FCF78AFE1420FDF781FB204659462A46AB
:104180004B46FCF781FE1420FDF778FB204659468C
:104190002A464B46FCF778FE1420FDF76FFB2046BD
:1041A00059462A464B46FCF76FFE1420FDF766FB86
:1041B000204659462A464B46FCF766FE1420FDF77A
:1041C0005DFB0A20FDF75AFB082028600420CBF88D
:1041D000100040F22710CBF80000204659462A462E
:1041E0004B46CBE902AAFCF74FFE1420FDF746FB35
:1041F000204659462A464B46FCF746FE1420FDF75A
:104200003DFB204659462A464B46FCF73DFE14200E
:10421000FDF734FB204659462A464B46FCF734FE50
:104220001420FDF72BFB204659462A464B46FCF747
:104230002BFE1420FDF722FB0A20FDF71FFB0820B0
:1042400028600420CBF8100040F24710CBF80000A3
:10425000204659462A464B46CBE902AAFCF714FEF3
:104260001420FDF70BFB204659462A464B46FCF727
:104270000BFE1420FDF702FB204659462A464B460A
:10428000FCF702FE1420FDF7F9FA204659462A46AB
:104290004B46FCF7F9FD1420FDF7F0FA204659468D
:1042A0002A464B46FCF7F0FD1420FDF7E7FA0A20FA
:1042B000FDF7E4FA40F2B004C2F2000440464021A7
:1042C0000122C4F81EA04FF00109FDF7B7FC4046DB
:1042D00080210122FDF7B2FC40F23C05C2F200054C
:1042E0001CE000BF85F800A0404640210022FDF7F9
:1042F000A5FC404680210022FDF7A0FCFFF756FAFE
:10430000FCF7A0F840464021012285F80090FDF717
:1043100095FC404680210122FDF790FC40464FF479
:104320000061FDF785FC96F860102070AA291BD16A
:1043300096F86700FF2817D196F8610096F862108A
:104340006070A07896F8632096F86430002918BF52
:104350000846A07096F8650096F866106271A37121
:104360002071E17002E000BFC6E918AA7878082839
:1043700018BF85F800A0B878082818BF85F800A0F5
:10438000F878082818BF85F800A038790828A9D13E
:1043900028780028A8D0FCF7D7F8FEF73FFDFEF7F5
:1043A0007BFEBBE7FCF780FB21F0004201F00043FD
:1043B000A2F16052B2F5801F28BFD2F17F6C0BD9F9
:1043C0005FEA001C43EAC20242EB507018BF70471C
:1043D00028BF20F001007047B2F5801FBCBF18460F
:1043E00070474FEA410C1CF5001F02D2084600F04E
:1043F000E3BA70B500F00EFA00000089FFF7F6BFCF
:104400004FF00040A0F58000704700002DE9C0414A
:1044100030B4DFF8A4C23CEA111418BF3CEA13140C
:1044200000F0ED801CEA111481EA030544EAD5741A
:1044300018BF1CEA131500F0C880A4EB050404F1B2
:104440007F7404F500344FF0004545EAC12145EA88
:10445000C32341EA505143EA52534FEAC0204FEA86
:10446000C222994208BF904200F09D804FEA136536
:104470000FF24416765D4FEA134506FB05F7C7F1C8
:10448000807706FB07F74FEAD737A7FB036876422A
:10449000A7FB06CEC8F5803838BFA8F1010807FB96
:1044A00008E6A6FB028C4FF0000EE6FB03CEDCF123
:1044B000000CCEF1004E38BFAEF1010EA6FB0C5839
:1044C0004FF00007E6FB0E87A1FB08C6A0FB07CE56
:1044D00016EB0E064FF0000545F10005E1FB076500
:1044E00015F1E04E7EBFA4F580345FEA46066D41CB
:1044F00016F1800745F100054FEA172747EA0567DF
:104500004FEA15254FEA0666A6F1DE46B6F1805F52
:1045100020D9384605EBC47124F0010C01EB0C11D5
:10452000BCF1FE6F02D8F0BCBDE8008124425CBF44
:1045300001F5801E9EEAC47F02D4F0BCBDE8008174
:10454000244200F13980A1F1C041F0BCBDE8004136
:1045500000F0AEB94FEAD02040EA41504FEAD121F5
:104560004FEAD22242EA43524FEAD323A7FB028604
:1045700007FB036605FB02661EEA0E0F58BFA6EB9B
:104580000056B6EB00564FEA520E4EEAC37E18EBC9
:104590000E0E56EB530EBCD518EB02085E417F1C85
:1045A00055F10005B5E74FF480154FF000074FF0C7
:1045B00000064FF00008ACE701F1C04101F00041F6
:1045C0004FF00000F0BCBDE800810CEA131511EAC1
:1045D0000C1F00D00CE013EA0C1F00F026804FF0F7
:1045E000000081EA030101F00041F0BCBDE8008158
:1045F000F0BCBDE8004181EA030100F059B9F0BC0C
:10460000BDE8004170B500F005F900BF097EFC3E31
:1046100000F007B84FF0000081EA030101F000410B
:10462000704781EA030100F043B9F0BCBDE80041E6
:1046300022494FF000007047FFFDFBF9F7F5F4F257
:10464000F0EEEDEBE9E8E6E4E3E1E0DEDDDBDAD82D
:10465000D7D5D4D3D1D0CFCDCCCBCAC8C7C6C5C48B
:10466000C2C1C0BFBEBDBCBBBAB9B8B7B6B5B4B3A2
:10467000B2B1B0AFAEADACABAAA9A8A8A7A6A5A48D
:10468000A3A3A2A1A09F9F9E9D9C9C9B9A99999851
:104690009797969595949393929191908F8F8E8EF4
:1046A0008D8C8C8B8B8A8989888887878685858481
:1046B00084838382828181800000FF070000F87F6D
:1046C00070B5DFF848C11CEA111E1EBF1CEA1315A5
:1046D0009EEA0C0F95EA0C0F00F06F8081EA03044C
:1046E0004EEAD47EAE4421EA4C1123EA4C1341F445
:1046F000801143F48013AEF17F7EA1FB024CA0FB3E
:104700000365361955EB0C05A1FB034C4CF1000376
:10471000A0FB021C16EB0C06654153F10003094295
:1047200018BF46F0010613F4007F0BD14FEA0331A6
:104730004FEA053041EA155140EA165034036FF054
:1047400003020AE04FEAC3214FEAC52041EA55516E
:1047500040EA5650F4026FF0020202EB2E4201EBE7
:10476000025585EACE710AD05FEA440C18BF24F0E6
:10477000004450F1000041F1000120EAD47040F201
:10478000FE7C624500D270BDA84214BF4FF0804449
:104790004FF04044002E08BF0024BEF1806FA8BF38
:1047A000A1F1C041BDE8704080F2828001F1C041BA
:1047B00001F000414FF0000070470CEA13159EEA2B
:1047C0000C0F18BF95EA0C0F06D081EA030E4FF0CC
:1047D00000000EF0004170BD00F01CF88900013EA1
:1047E00000F007B800F009B84FEA430C5FEA5C5CE0
:1047F00008D081EA030100F05BB84FEA410C5FEAA0
:104800005C5CF6D102494FF0000070470000FF07E2
:104810000000F87F0EF1020E2EF0030E5EF8046B1E
:10482000364205D4012A43EB030515F5001F12D8C3
:10483000012841EB010C1CF5001F0CD80ED14FEAEA
:10484000D17C0CEB4C0C0CF1020C15F5001F08BFD1
:104850004CEBD37C04E04FF0080C01E04FEAD37C32
:104860000CEB4C0526FA05F606F00706B6F1040C2B
:1048700006D20EEB860CBDE870404CF0010C604790
:10488000DFE80CF0090B02024FF00041A1F5002116
:104890004FF0000070BD19461046012851EB01048D
:1048A00018BFD4F5001484BF002001F0004170BD92
:1048B0000808A0F500114FEA3101704743004FEAA4
:1048C000D30C4FEA3C0C43401FBF40070CF1605132
:1048D00013F0FE4F70471CF0006F03D10CF0004145
:1048E000002070470CF0004343EA507040EACC00CF
:1048F00010B500F00EF800BF000000924FEA000172
:10490000FFF7D6BF4FF00041A1F500214FF00000A6
:1049100070470EF1020E2EF0030E5EF8044B244297
:1049200004D44FEA4102B2F17F4F11D84FEA40035D
:10493000B3F17F4F0CD80ED14FEAD07C0CEB4C0C6E
:104940000CF1020CB2F17F4F08BF4CEBD17C04E0BC
:104950004FF0080C01E04FEAD17C0CEB4C0324FA39
:1049600003F404F00704B4F1040C06D20EEB840C3B
:10497000BDE810404CF0010C6047DFE80CF0070880
:1049800002024FF00040A0F5800010BD0846420032
:1049900018BFD2F1807288BF00F0004010BDF1EE68
:1049A000100A4FF6FF71C0F2C03120EA010040F05A
:1049B0004070E1EE100A7047FF2141EAD050C00577
:1049C0007047000000000000000001020304060719
:1049D000080900000000010203040000004A00086A
:1049E000000000205000000000020008504A0008AB
:1049F00050000020B80900001C0200080000000060
:104A0000010C0D0E01010201270072018E0121012E
:104A1000BD01BF027D000000000020420000803F79
:104A20000000803FCDCC4CBE110000000F00000004
:104A30000F00000001000000100000000100000055
:104A400000000608100006080024F4000000000022
:04000005080001C529
:00000001FF
