:020000040800F2
:100000007809002065020008852400087D24000886
:100010008124000811040008BD2800080000000029
:100020000000000000000000000000008D24000817
:10003000E10600080000000089240008912400085F
:100040007F0200087F0200087F0200087F0200088C
:100050007F0200087F0200087F0200087F0200087C
:100060007F0200087F0200087F0200087F0200086C
:100070007F0200087F0200087F0200087F0200085C
:100080007F0200087F0200087F0200087F0200084C
:1000900015040008210400087F0200087F02000800
:1000A0007F0200087F0200087F0200087F0200082C
:1000B0007F0200087F0200087F0200087F0200081C
:1000C0007F0200087F0200087F0200087F0200080C
:1000D0007F0200087F0200087F0200087F020008FC
:1000E0007F0200087F0200087F0200087F020008EC
:1000F0007F0200086D2500087F0200087F020008CB
:100100007F0200087F0200087F0200087F020008CB
:10011000B5260008C12600087F0200087F020008FB
:100120007F0200087F0200087F0200087F020008AB
:100130007F02000800000000000000007F020008AD
:100140002D040008390400087F0200087F0200081F
:100150007F0200087F0200087F0200087F0200087B
:100160007F0200087F0200087F0200087F0200086B
:100170007F0200087F0200087F02000800000000E4
:10018000000000007F0200080000000000000000E6
:100190007F02000800000000000000007F0200084D
:1001A0000000000000000000000000007F020008C6
:1001B0007F0200087F0200087F0200087F0200081B
:1001C0007F02000800F002F800F03CF80AA090E876
:1001D000000C82448344AAF10107DA4501D100F002
:1001E00031F8AFF2090EBAE80F0013F0010F18BF93
:1001F000FB1A43F001031847782A0000982A0000F0
:10020000103A24BF78C878C1FAD8520724BF30C842
:1002100030C144BF04680C60704700000023002414
:1002200000250026103A28BF78C1FBD8520728BF06
:1002300030C148BF0B6070471FB502F000FD1FBD05
:1002400010B510BD00F0A9F81146FFF7F5FF02F058
:1002500037FB00F0C7F803B4FFF7F2FF03BC00F070
:10026000CFF800000948804709480047FEE7FEE74D
:10027000FEE7FEE7FEE7FEE7FEE7FEE7FEE7FEE756
:1002800004480549054A064B7047000059250008F7
:10029000C5010008780300207809002078050020B7
:1002A0007805002053EA020C00F069802DE9F04B3C
:1002B0004FF00006002B1FBFB3FA83F503FA05F4D5
:1002C00024FA05F65E4012BF1643B2FA82F502FA2E
:1002D00005F4C5F120051EBF22FA05FC44EA0C0412
:1002E000203556EA044C4FEA144418BF641C4FF002
:1002F00000084FF00009904271EB030C39D300293C
:1003000019BFB1FA81F701FA07F6B0FA80F700FADF
:1003100007F6C7F120071EBF20FA07FC46EA0C06C5
:100320002037B6FBF4FCA7EB0507103F07F01F0BC7
:10033000CBF120062CFA06F60CFA0BFB44BFB346B1
:100340000026202FA4BF5E464FF0000B5BEA060C90
:1003500008BF4FF0010B19EB0B0948EB0608ABFB8C
:10036000027C06FB02CC0BFB03CCC01B71EB0C0127
:10037000C1E70B46024641464846BDE8F08B13B53F
:10038000084318BF4FF0FF300146AFF30080BDE8CF
:100390001C407047704770477047754600F02CF856
:1003A000AE4605006946534620F00700854618B062
:1003B00020B5FFF765FFBDE820404FF000064FF085
:1003C00000074FF000084FF0000BAC46ACE8C00946
:1003D000ACE8C009ACE8C009ACE8C00921F00701ED
:1003E0008D46704710B50446AFF300802046BDE847
:1003F0001040FFF730BF0000004870471000002099
:1004000001491820ABBEFEE726000200704700003D
:10041000FEE7000040F22420C2F2000000F0DABA49
:1004200040F22420C2F2000000F0D4BA40F2D4100E
:10043000C2F2000000F0CEBA40F2D410C2F20000C6
:1004400000F0C8BAB0B540F2F005C2F2000595F868
:10045000610040F264140828C2F2000430D195F81B
:100460006200082846D195F8630008285CD195F809
:100470006400082872D195F86600082840F0898049
:1004800095F86700082840F09F8095F868000828D4
:1004900040F0B58095F86900082840F0CC8095F8C8
:1004A0006A00082840F0E38095F86B00082840F0C7
:1004B000FA804FF4FA60BDE8B04000F0E9BD00BF3B
:1004C0003620214641F83C0F04200022086140F20A
:1004D000D410C1E9022205F1580205F13003C2F23D
:1004E000000000F017F9012000F0D2FD95F862003D
:1004F0000828B8D05620214641F83C0F042000229D
:10050000086140F2D410C1E9022205F1580205F158
:100510003003C2F2000000F0FDF8012000F0B8FD49
:1005200095F863000828A2D07620214641F83C0FB8
:1005300004200022086140F2D410C1E9022205F132
:10054000580205F13003C2F2000000F0E3F8012088
:1005500000F09EFD95F8640008288CD09620214676
:1005600041F83C0F04200022086140F2D410C1E998
:10057000022205F1580205F13003C2F2000000F03A
:10058000C9F8012000F084FD95F8660008283FF4C2
:1005900077AFD620214641F83C0F042000220861A5
:1005A00040F2D410C1E9022205F1580205F13003EE
:1005B000C2F2000000F0AEF8012000F069FD95F8ED
:1005C000670008283FF461AFF620214641F83C0F50
:1005D00004200022086140F2D410C1E9022205F192
:1005E000580205F13003C2F2000000F093F8012038
:1005F00000F04EFD95F8680008283FF44BAF4FF42B
:100600008B70214641F83C0F04200022086140F223
:10061000D410C1E9022205F1580205F13003C2F2FB
:10062000000000F077F8012000F032FD95F8690035
:1006300008283FF434AF4FF49B70214641F83C0F3B
:1006400004200022086140F2D410C1E9022205F121
:10065000580205F13003C2F2000000F05BF80120FF
:1006600000F016FD95F86A0008283FF41DAF4FF41E
:10067000AB70214641F83C0F04200022086140F293
:10068000D410C1E9022205F1580205F13003C2F28B
:10069000000000F03FF8012000F0FAFC95F86B0034
:1006A00008283FF406AF4FF4BB7044F83C0F042019
:1006B0000021206140F2D410C4E9021105F1580272
:1006C00005F13003C2F20000214600F023F80120BA
:1006D00000F0DEFC4FF4FA60BDE8B04000F0D8BC9A
:1006E0007047000090F82020013A012A08D80068DD
:1006F00000F114020020136819431160704700BF15
:1007000000F1240201204FF4802113681943116085
:100710007047000010B590F820E0D0F800C0AEF1AE
:10072000010EBEF1010FDCF808E011D81EF0E05F09
:1007300018D0CEF3016EBEF1030F1DD100F12401DC
:1007400001204FF400020B681A430A6010BD00BF7D
:1007500000F1240101204FF480220B681A430A6043
:1007600010BD00BF00F1240101204FF400120B68FE
:100770001A430A6010BD00BF012000FA0EF0186095
:10078000886818B14B6840EAC30001E0086840057A
:10079000D1E9033403430CEB0E10C0F88031C0F8EC
:1007A0008441097D012905D100F5C2710B6843F42C
:1007B00080730B605168C0F88C11126800F5C0712D
:1007C000C0F88821002001220B681A430A6010BD7E
:1007D000B0B590F82020013A012A2FD846F20060E7
:1007E000C4F20000026842F001020260026822F4D2
:1007F0007C520260D1F814E0CC694A6A0368012C8B
:1008000043EA022202600EF01F024FF0010303FAD6
:1008100002F2C3696FEA020C23EA0203C36113D038
:100820002CBBC36803EA0C03C360CB688C8844EA22
:10083000034300EBCE0423640B4611E0416A41F40C
:10084000802141620120B0BDC3681343C3600B68BF
:100850008C8844EA034300EBCE04236401F10C03CB
:100860008C681B8843EA044300EBCE04636443684E
:100870008D6943EA0204D1F810E0096A002D08BF2F
:1008800003EA0C0444604369BEF1000F43EA02042A
:1008900008BF03EA0C040129446102D1C169114374
:1008A000C161016821F0010101600020B0BD0000BC
:1008B0007047000010B590F82040013C012C71D821
:1008C000D0F800C0002977D0DCF81040A40777D01A
:1008D0000CEB011CDCF8B0410CF5D87E14F00404DC
:1008E0009460DCF8B04119BFE4085460640D1460F2
:1008F000DEF80040002904F00204D460DCF8B441C2
:1009000004F00F041461DCF8B441C4F307249461CB
:10091000DCF8B4414FEA14445461DCF8B8211A7091
:10092000026802EB0112D2F8B8214FEA12225A7083
:10093000026802EB0112D2F8B8214FEA12429A7013
:10094000026802EB0112D2F8B8214FEA1262DA70A3
:10095000026802EB0112D2F8BC211A71026802EBA4
:100960000112D2F8BC214FEA12225A71026802EB3E
:100970000112D2F8BC214FEA12429A71026802EBCE
:100980000112D2F8BC214FEA1262DA71006814BF7A
:1009900000F1100100F10C01002020220B681A4325
:1009A0000A6010BD00F1240101204FF480220B6881
:1009B0001A430A6010BD00BFDCF80C40A40787D1C1
:1009C00000F1240101204FF400120B681A430A6061
:1009D00010BD00002DE9F04F81B004460068466963
:1009E000D0F804908768D0F80CB0D0F810A0D0F8F8
:1009F0001880F10704D1002530071DD424E000BF82
:100A0000F90710D00121BA07816009D4780700F1F5
:100A1000AF80380700F1B680204600F0CFFA02E040
:100A2000204600F0CDFA0025F80500F18780F80394
:100A300000F1B180300707D51BF0100004D020680A
:100A400045F400751021C160700708D51BF008003F
:100A500005D020680821C160204600F0FBF9B007EE
:100A600006D52068C068800702D0204600F0F4F95F
:100A7000700607D51AF0100004D0206845F4806590
:100A800010210161B00608D51AF0080005D02068D1
:100A900008210161204600F05DFAF00606D52068C5
:100AA0000069800702D0204600F056FAB00308D54E
:100AB00019F0100005D0206810214160204600F098
:100AC0004DFAF00308D519F0080005D02068082178
:100AD0004160204600F07EFA300440F19B805FEADE
:100AE000497040F1948006F4807008EA1020284391
:100AF0005FEA8871014648BF41F00201B20558BF64
:100B000001465FEA48700D4648BF45F00405700590
:100B100058BF0D46300540F17A8018F0700000F0A3
:100B200076801038000905286CD8DFE800F00359FA
:100B30005D61656945F0080564E000BF20684FF419
:100B40008071BA0581600BD4780515D438051DD4A1
:100B5000204600F037FAF8037FF56CAF1BE000BFCA
:100B6000204600F031FAF8037FF564AF13E000BFD0
:100B70004FF4006558E700BF05F50055F8037FF511
:100B800059AF08E04FF480554EE700BF05F58045AA
:100B9000F8037FF54FAF20684FF48031BA038160CE
:100BA0000AD4780310D4380314D4204600F00EFA87
:100BB00030073FF541AF47E7204600F009FA30071C
:100BC0003FF53AAF40E700BF05F5004530073FF578
:100BD00033AF39E705F5803530073FF52DAF33E703
:100BE00045F010050EE000BF45F020050AE000BF0B
:100BF00045F0400506E000BF45F0800502E000BF7B
:100C000045F480752068816921F070018161206858
:100C10000421416055B1606A40EA050120466162E5
:100C200001B0BDE8F04FFFF743BE00BF01B0BDE823
:100C3000F08F0000B0B5C8B1044690F8200010B99C
:100C4000204600F071F82068016841F00101016060
:100C500000F01CFB054600BF20684168C90707D1AA
:100C600000F014FB401B0B28F6D312E00120B0BDAE
:100C7000016821F00201016000F008FB054600BF99
:100C80002068416889070DD500F000FB401B0B2848
:100C9000F6D3606A052140F400306062012084F8D8
:100CA0002010B0BD217E0268012922F0800208BF19
:100CB00080320260617E0268012922F0400208BF92
:100CC00040320260A17E0268012922F0200208BFA2
:100CD00020320260E17E0268012922F0100218BF72
:100CE00010320260217F0268012922F0080208BF49
:100CF00008320260617F0268012922F0040208BF05
:100D000004320260D4E901C2D4E9033561691A43AF
:100D10002A431143ACF101021143C16100200121BA
:100D2000606284F82010B0BDB0B586B0006846F6A9
:100D30000002C4F2000200219042CDE90411CDE985
:100D40000211019130D046F20041C4F20001884204
:100D50007DD140F24C21C2F200010A6843F6400006
:100D6000C4F20200531C0B6052B9002100910168CB
:100D700041F000710160016801F00071009100997B
:100D80000021009150F8101C152441F0020140F898
:100D9000101C50F8100C142500F002000090009870
:100DA0004FF4407033E000BF43F64000C4F202004D
:100DB0000091016841F080610160016801F080618B
:100DC0000091009940F24C21C2F200010A68531CC4
:100DD0000B6052B900210091016841F0007101607F
:100DE000016801F00071009100990021009150F814
:100DF000101C412441F0020140F8101C50F8100C66
:100E0000402500F00200009000984FF440500190FF
:100E100002200290002003900320049009200590F6
:100E200040F20040C4F2020001A900F045F9284652
:100E30000021002200F0AAFA284600F097FA204686
:100E40000021002200F0A2FA204600F08FFA06B03E
:100E5000B0BD00007047000070B540F2641540F26C
:100E6000F00640F2D414C2F20005C2F20006C2F24B
:100E7000000405F1540206F1340320460021FFF777
:100E800019FD40F27001C2F20001487A6B6D013029
:100E90004872580903F01F02512BC8810A8201D100
:100EA00070BD00BF013A162A88BF70BDDFE802F0AE
:100EB000180C2632340C0C0C0E0C0C0C0C0C0C0CFC
:100EC0000C0C0C440E0C4000EAE700BFB16B40F282
:100ED000502280B2C2F20002F16342F8201070BDCD
:100EE00081B204EB41010A8D16FA80F001320A85C5
:100EF00096F8381080F8601070BD00BFB16B80B2FA
:100F000000EE101ABDEEC00AF16310EE101A29545B
:100F100070BD00BFB16B00E0716B00EE101ABDEE4A
:100F2000C00AF16310EE101A15FA80F0017570BD59
:100F3000706BC86670BD00BFB16B15FA80F000EE33
:100F4000101ABDEEC00AF16310EE101A80F82810D6
:100F500070BD00007047000070470000704700003F
:100F6000B0B5044690F8200001281DD1022084F875
:100F700020002068016821F00101016000F086F97D
:100F8000054600BF20684068C00713D000F07EF916
:100F9000401B0B28F6D3606A40F4003060620520E5
:100FA00084F820000120B0BD606A40F40020606237
:100FB0000120B0BD00206062B0BD0000704700009D
:100FC0007047000070470000704700007047000045
:100FD000704700007047000070B5866D044600F051
:100FE00055F994F8351002292ED105462068216C58
:100FF000026822F016020260426922F08002426119
:1010000009B9A16C19B1016821F0080101600168FA
:1010100021F0010101600068C00708D000F036F936
:10102000401B052818D820680068C007F6D1E06D7D
:101030003F2101FA00F0B060012084F83500002063
:10104000002184F8341070BD8020606501200021EB
:1010500084F8341070BD00BF20206065032084F840
:101060003500002184F8341070BD000090F8351070
:10107000022909D1052180F835100068016821F0A6
:101080000101016000207047802141650120704707
:10109000B0B5044600F0FAF8054640F20000C2F28E
:1010A00000000078611C18BF044400BF00F0EEF897
:1010B000401BA042FAD3B0BD2DE9F04F82B000F141
:1010C0003E4241F6000502F1FF77C4F20205072215
:1010D0004FEAB726A84208BF0622062E38BF4FEABD
:1010E000B7224FF0010A002400274FF000080092B9
:1010F00008E000BF023708F10108202F04F10404C2
:1011000000F0B4800E680AFA08F916EA090FF1D067
:10111000D1F804A00AF0030BABF10106012E17D899
:101120000322866802FA07FECA6826EA0E06BA405B
:10113000324382604268CAF3001522EA090205FAC6
:1011400008F54FEA480C6FEA0E062A4342600BE0AE
:101150000322BA40D643BBF1030FBC4604D1BC46C0
:101160004FF0030B22E000BFC2688D68324005FAE1
:101170000CF52A43BBF1020FC26017D16FF00302D6
:1011800002EA5802024404F01C030F25D2F820E0C2
:1011900005FA03FA0D692EEA0A0E05FA03F343EA8B
:1011A0000E031362D1F804A00AF0030B02680BFAD5
:1011B0000CF332401A431AF4403F4FF0010A026028
:1011C00098D0002243F644030192C4F202031A6845
:1011D00043F6004E42F480421A601A68C4F2010ECF
:1011E00002F480420192019A28F003024FF6084C63
:1011F0007244CFF6FF7C52F80C3004F00C060F2539
:10120000B540AB43009D05FA06F6334342F80C3077
:10121000DEF808204B6842EA090643F60C4CDD0272
:1012200058BF22EA0906CEF80860C4F2010CDCF8C7
:1012300000209D0242EA090658BF22EA0906CCF8BE
:101240000060DEF804209D0342EA090658BF22EA46
:101250000906CEF80460DEF80020DB0342EA090646
:1012600058BF22EA0906CEF8006043E702B0BDE8A5
:10127000F08F00000069084018BF0120704700008F
:10128000002A08BF090481617047000040F27030F5
:10129000C2F200000068704740F2000040F2703176
:1012A000C2F20000C2F2000100780A68104408602F
:1012B0007047000080B543F60040C4F202000168A8
:1012C00041F400710160016841F4806101600168CE
:1012D00041F480710160032000F084F80F2000F0D9
:1012E00005F800F027F8002080BD000070B540F23E
:1012F0000006C2F2000640F208013278C2F2000194
:101300004FF47A730968B3FBF2F20446B1FBF2F1D1
:10131000084600F0B7FB0F2C4FF0010508D838B98C
:101320004FF0FF3021460022002500F02FF87460B6
:10133000284670BD82B0002043F640010190C4F2FF
:1013400002014A6842F480424A604A6802F48042DC
:101350000192019A0090086840F080500860086887
:1013600000F080500090009802B07047002848BFFD
:10137000704700F01F01012202FA01F14EF2001243
:101380004009CEF2000242F82010704710B54EF628
:101390000C5CCEF2000CDCF80030C3F3022E8EF0B1
:1013A0000704042C28BF0424BEF103034FF0FF3EC2
:1013B0000EFA04F438BF0023A14399400EFA03F358
:1013C0009A43114300F00F02043A624409010C32BF
:1013D00000F16043B0F1FF3FC8BF03F564421170F4
:1013E00010BD00004EF60C51CEF200010A684FF617
:1013F000FF031A4060F30A2242F0806040F0FD7063
:101400000860704770B582B00020019043F640003C
:10141000C4F202000168402641F08051016000687A
:10142000C4F20E2600F080500190019847F20405A6
:101430000120C4F200053060FFF728FF044600BF1A
:101440002868C00306D4FFF721FF001BB0F57A7FA0
:10145000F6D90EE001207060FFF718FF044600BFC8
:101460002868800308D4FFF711FF001BB0F57A7FCE
:10147000F6D9032002B070BD002002B070BD00009C
:101480002DE9F041002800F08B8043F60808C4F2F3
:1014900002080446D8F8F8030D4600F00F00884211
:1014A00007D288F8F853D8F8F80300F00F00A842E4
:1014B00076D12068810717D5410705D5D8F80010E7
:1014C00041F4E051C8F80010010705D5D8F8001024
:1014D00041F46041C8F80010D8F80010A26821F06B
:1014E000F0011143C8F80010C0073FD1D8F8F80345
:1014F00000F00F00A84207D988F8F853D8F8F8038D
:1015000000F00F00A8424BD12068410707D5D8F85A
:101510000010E26821F4E0511143C8F80010000700
:1015200008D5D8F80000216920F4604040EAC100E5
:10153000C8F8000000F07CF8D8F8001042F65842D5
:10154000C1F30311C0F60002515C40F2080220FA18
:1015500001F140F20400C2F200000068C2F2000291
:101560001160FFF7C3FE0020BDE8F0816068811EB6
:10157000022907D258F8081C89015CBF0120BDE888
:10158000F08111E0012807D158F8081C89035CBFDD
:101590000120BDE8F08107E058F8081C890703D452
:1015A0000120BDE8F08100BFD8F8001021F0030150
:1015B0000843C8F80000FFF769FE064641F2883785
:1015C000D8F80000616800F00C00B0EB810F8DD0FE
:1015D000FFF75CFE801BB842F2D90320BDE8F08122
:1015E00040F2080043F60801C2F20000C4F2020112
:1015F0000068096842F66842C1F38221C0F6000221
:10160000515CC8407047000040F2080043F60801F2
:10161000C2F20000C4F202010068096842F66842A2
:10162000C1F34231C0F60002515CC840704700006F
:1016300010B543F60404C4F202046068C0F38101EB
:1016400042F20040C0F2F400DFE801F04402081862
:1016500041F20020C0F27A0010BD00BF216801F005
:101660003F02216823684902C3F3881116D4A1FB05
:1016700000010023FEF716FE17E000BF216801F00D
:101680003F02216823684902C3F3881116D4A1FBE5
:1016900000010023FEF706FE17E000BF41F2002024
:1016A000C0F27A004843B0FBF2F021680222C1F395
:1016B000014102EB4101B0FBF1F010BD41F200200D
:1016C000C0F27A004843B0FBF2F02168C1F3027126
:1016D000B0FBF1F010BD00002DE9F04182B0002810
:1016E00000F096800446007843F60006C007C4F276
:1016F00002062BD0B06800F00C00042820D0B0689F
:1017000000F00C00082802D17068400218D4B068BC
:1017100000F00C000C2802D17068400210D4606800
:10172000B0F5803F07D0B0F5A02F40F03B81306886
:1017300040F480203060306840F4803030603BE11D
:101740003068800302D56068002861D02078800767
:1017500022D5B06810F00C0F11D0B06800F00C006A
:10176000082802D17068400209D5B06800F00C006A
:101770000C2840F09F807068400200F19B80306828
:10178000800702D5E068012842D13068216920F045
:10179000F80040EAC1003060207800073CD420788F
:1017A000400751D4A5698DB3B06800F00C0008283B
:1017B00040F0A880012D2BD07068E16900F4800210
:1017C0008A4225D1216A00F03F028A4220D147F6A1
:1017D000C071626A0140B1EB821F19D1A26A002375
:1017E000CFF6FF7303EBC23200F440316FF30F0208
:1017F00091420DD1E16A00F07062B2EB016F07D146
:10180000216B00F0E040B0EB017F01D1002035E119
:10181000012002B0BDE8F0816069002840F20000BC
:10182000C4F247205ED00121C0F8801EFFF72EFDD4
:10183000054600BF706F8007B1D4FFF727FD401B3E
:101840000228F7D9C5E000BF306C10F080580AD1EB
:1018500000200190306C40F080503064306C00F01B
:1018600080500190019847F20007C4F200073868E1
:10187000C00511D4386840F480703860FFF706FD69
:10188000054600BF3868C00506D4FFF7FFFC401BC3
:101890000228F7D99DE000BFA068012805D00528DF
:1018A00052D1306F40F004003067306F40F00100DB
:1018B000306753E0E068002860D00020C4F2472081
:1018C00001210160FFF7E2FC054600BF3068800798
:1018D0003FF55BAFFFF7DAFC401B02284FF0030037
:1018E000F4D9CBE00021C0F8801EFFF7CFFC0546FD
:1018F000706F80077FF553AFFFF7C8FC401B0228CD
:10190000F6D966E00027C4F2472700203866FFF7C3
:10191000BDFC022D05460BD1306880015ED5FFF776
:10192000B5FC401B02284FF00300F5D9A6E000BF2C
:10193000306880017FF56AAFFFF7A8FC401B0228E2
:101940004FF00300F4D999E0316F002821F0010134
:101950003167316F21F00401316765D0FFF796FCE4
:10196000054641F2883700BF306F80076ED4FFF71D
:101970008DFC401BB842F7D92BE000BF0020C4F219
:10198000472000210160FFF781FC05463068800791
:101990007FF502AFFFF77AFC401B02284FF00300EF
:1019A000F4D96BE03168002821F48031316031686E
:1019B00021F48021316053D0FFF768FC054600BF59
:1019C000306880033FF5C2AEFFF760FC401B64281F
:1019D000F6D9032002B0BDE8F08100BF04F11C0578
:1019E0002FCD246B08430021CFF6FF7140EA82100F
:1019F00001EBC3316FF30F0140EA0560084340EA91
:101A00000470706001203866FFF740FC044600BF98
:101A1000306880013FF5FAAEFFF738FC001B022862
:101A20004FF00300F4D929E0FFF730FC054641F2FE
:101A3000883700BF306F800708D5FFF727FC401BB1
:101A4000B8424FF00300F5D918E000BFB8F1000F1D
:101A50007FF4A8AE306C20F080503064A2E600BF66
:101A6000FFF714FC0546306880037FF56FAEFFF783
:101A70000DFC401B64284FF00300F4D902B0BDE810
:101A8000F0810000411E0020B0EB116F1CBF01204F
:101A900070474EF21002CEF2000251604EF6235112
:101AA000CEF20001F0230B700721906011607047A7
:101AB0007047000070470000002804BF01207047F5
:101AC00010B5044690F83D0028B9002084F83C0089
:101AD000204600F01FF8022084F83D002068211DF8
:101AE00000F04AFD012084F8460084F83E0084F8A6
:101AF0003F0084F8400084F8410084F8420084F8F4
:101B0000430084F8440084F8450084F83D00002038
:101B100010BD000080B582B0006842F20001C4F23E
:101B2000000188421CBF02B080BD0020019043F636
:101B30004000C4F202000168002241F4807101609B
:101B40000068002100F48070019001982D20FFF7BB
:101B50001DFC2D2002B0BDE88040FFF707BC00004F
:101B60007047000010B5016804460869800744BF4B
:101B7000C8685FEA807039D40869400744BFC86804
:101B80005FEA40703ED40869000744BFC8685FEA56
:101B9000007045D40869C00644BFC8685FEAC060E9
:101BA0004AD40869C0071CBFC8685FEAC07051D139
:101BB0000869000644BFC8685FEA006052D408693B
:101BC000400644BFC8685FEA406053D40869800695
:101BD00046BFC8685FEA806010BD6FF020022046F3
:101BE0000A61BDE81040FFF765BF00BF6FF002005B
:101BF0000861012020778869800743D02046FFF7DD
:101C0000AFFF45E06FF0040008610220207788698B
:101C100010F4407F40D02046FFF7A2FF42E000BF13
:101C20006FF00800086104202077C86980073DD064
:101C30002046FFF795FF3FE06FF010000861082095
:101C40002077C86910F4407F3AD02046FFF788FF1C
:101C50003CE000BF6FF001000861204600F03EF854
:101C60002168A5E76FF0800008612046FFF720FF9C
:101C70002168A4E76FF040000861204600F030F8CA
:101C80002168A3E7204600F025F8204600F024F85C
:101C90002168002020776FE7204600F01BF82046DF
:101CA00000F01AF82168002020776CE7204600F049
:101CB00011F8204600F010F821680020207769E72D
:101CC000204600F007F8204600F006F821680020C2
:101CD000207766E7704700007047000070470000FB
:101CE000704700007047000070470000B0B582B038
:101CF000044600680168C368426901F02F05202D81
:101D000003F0200506D12DB1204602B0BDE8B04059
:101D100000F0E2BC5FEA017C1EBF02F0010E03F49A
:101D2000907212EB0E0255D1226B012A05D111F0EF
:101D3000100218BF13F0100236D10A0622D513F094
:101D400080021FD094F83D10212941D1A168B1F53E
:101D5000805F03D12169002900F06C82216A4A1C4E
:101D6000226209784160E18C01390A04E1842FD1B3
:101D7000C16821F08001C160C16841F04001C160CB
:101D800002B0B0BD490623D513F0400120D0C16890
:101D900021F04001C1602021204684F83D1002B0AE
:101DA000BDE8B04000F068BB0021019101680191DD
:101DB0004168019101994169490600F18B80A18D2B
:101DC000E28DE38D002B1CBF891A5FEA01420CD122
:101DD00002B0B0BDCA0718BF13F4807240F0328160
:101DE0004A0700F135813AE1206850E8030F226884
:101DF00020F4907042E80303DBB1206850E8030F41
:101E0000226820F4907042E8030393B1206850E800
:101E1000030F226820F4907042E803034BB120685E
:101E200050E8030F226820F4907042E80303002B6F
:101E3000DAD1206850E8050F226820F0010042E85E
:101E40000503DBB1206850E8050F226820F001008F
:101E500042E8050393B1206850E8050F226820F09E
:101E6000010042E805034BB1206850E8050F2268E5
:101E700020F0010042E80503002BDAD1202084F88D
:101E80003E0000202063206850E8030F226820F005
:101E9000100042E80303DBB1206850E8030F22681A
:101EA00020F0100042E8030393B1206850E8030FCC
:101EB000226820F0100042E803034BB1206850E88C
:101EC000030F226820F0100042E80303002BDAD150
:101ED00089B2B0E0A26B11684B689DB2002D3FF44F
:101EE00077AFA18D8D42BFF473AFE385D269B2F5B0
:101EF000807F00F09D8050E8030F216820F48070FF
:101F000041E80302E2B1206850E8030F216820F4A1
:101F1000807041E803029AB1206850E8030F2168FD
:101F200020F4807041E8030252B1206850E8030FAA
:101F3000216820F4807041E803020AB12068DAE7E2
:101F4000206850E8050F216820F0010041E80502F3
:101F5000DAB1206850E8050F216820F0010041E85F
:101F6000050292B1206850E8050F216820F00100B9
:101F700041E805024AB1206850E8050F216820F0C9
:101F8000010041E80502002ADAD1206850E8050F77
:101F9000216820F0400041E80502DAB1206850E8ED
:101FA000050F216820F0400041E8050292B1206849
:101FB00050E8050F216820F0400041E805024AB1D1
:101FC000206850E8050F216820F0400041E8050234
:101FD000002ADAD1202084F83E0000202063206807
:101FE00050E8030F216820F0100041E80302DAB145
:101FF000206850E8030F216820F0100041E8030238
:1020000092B1206850E8030F216820F0100041E8E9
:1020100003024AB1206850E8030F216820F0100045
:1020200041E80302002ADAD1A06BFEF7D5FFA18DAB
:10203000E08D081A81B2204602B0BDE8B040FFF73B
:1020400051BE00BF226C42F0010222644A0706D54D
:10205000BEF1000F03D0226C42F0020222648A0714
:1020600006D5BEF1000F03D0226C42F004022264B8
:10207000BCF1000F06D555EA0E0203D0226C42F0E7
:1020800008022264226C002A3FF4A2AE11F0200163
:1020900018BF002D03D0204600F01EFB20684169C8
:1020A000226C01F0400102F00802891800F0A280C1
:1020B00050E8030F216820F4907041E80302C2B396
:1020C000206850E8030F216820F4907041E8030273
:1020D0007AB3206850E8030F216820F4907041E83B
:1020E000030232B3206850E8030F216820F4907097
:1020F00041E80302EAB12068DAE700BF206850E84F
:10210000050F216820F0010041E80502DAB12068DE
:1021100050E8050F216820F0010041E8050292B166
:10212000206850E8050F216820F0010041E8050211
:102130004AB1206850E8050F216820F0010041E80D
:102140000502002ADAD1206B012824D1206850E84A
:10215000030F216820F0100041E80302DAB1206883
:1021600050E8030F216820F0100041E8030292B10B
:10217000206850E8030F216820F0100041E80302B6
:102180004AB1206850E8030F216820F0100041E8B0
:102190000302002ADAD1202084F83E0000202063C8
:1021A0002068416949063FD550E8050F216820F0B5
:1021B000400041E805022AB3206850E8050F216875
:1021C00020F0400041E80502E2B1206850E8050F28
:1021D000216820F0400041E805029AB1206850E8EB
:1021E000050F216820F0400041E8050252B1206847
:1021F000DAE700BF2046FFF777FD0020206402B039
:10220000B0BD00BFA06B78B142F2CD61C0F6000155
:102210000165FEF72BFF00283FF4DAADA06B016DDE
:1022200002B0BDE8B0400847204602B0BDE8B0406B
:10223000FFF75ABD216A31F8022B6FF35F2242602B
:10224000216290E5002804BF0120704710B50446C4
:1022500090F83D0028B9002084F83C00204600F0AA
:1022600021F8242084F83D002068C16821F4005141
:10227000C160204600F0B0FA2068016921F4904165
:102280000161416921F02A014161C16841F40051B5
:10229000C16000202021206484F83D1084F83E10A5
:1022A00010BD0000F0B587B0006845F20001C4F22F
:1022B000000100248842CDE90544CDE9034402949D
:1022C0002AD044F60041C4F2000188426DD10020BA
:1022D00043F630010190C4F202010A69342442F449
:1022E00000220A610A6902F400220192019A019017
:1022F0000A6842F001020A600968022201F0010145
:10230000019101990321CDE903200020029105915B
:10231000C4F202003CE000BF43F630000194C4F276
:1023200002000169002741F4801101610169C4F2D2
:10233000020701F4801101910199019401680225BD
:1023400041F0040101600168032601F004010191DC
:1023500001990194016841F008010160006802A937
:1023600000F00800019001984FF48050029008207E
:10237000069007F50060CDE903540596FEF79CFE34
:102380000420CDE90205CDE9044607F54060352477
:102390000821069102A9FEF78FFE204600210022A7
:1023A000FEF7F4FF2046FEF7E1FF07B0F0BD0000A6
:1023B00090F83E30202B0BD100294FF0010318BFBD
:1023C000002A01D11846704790F83C30012B01D10A
:1023D0000220704700230363816222218285C28527
:1023E000036480F83E100269016880F83C301AB13D
:1023F000C86840F48070C8604869002340F001005C
:102400004861C86840F02000C86018467047000066
:1024100080B5006844F60041C4F20001884215D03E
:1024200045F20001C4F20001884218BF80BD40F2AD
:10243000F000C2F2000000F1440140F22C30C2F280
:1024400000000822BDE88040FFF7B2BF40F2F00074
:10245000C2F2000000F14C0140F2E820C2F200009C
:102460000822FFF7A5FF40F27000C2F20000817A57
:102470000131817280BD000070470000FEE700005E
:10248000FEE70000FEE70000704700007047000014
:10249000FEF702BF80B594B0002043F64001CDE9BD
:1024A0000B00CDE909000690CDE90400CDE902005A
:1024B0000190C4F202010A6842F080520A60096881
:1024C00001F0805101910199019047F20000C4F29E
:1024D0000000016841F44041016000684FF4800150
:1024E00000F4404001900198012007904FF48030A3
:1024F0000E910421089002200F91B4210D90CDE996
:102500001010CDE9120007A8FFF7E6F820B1EFF3AD
:10251000108072B6FEE700BFFEF774FF20B1EFF344
:10252000108072B6FEE700BF0F20029003200390D8
:10253000002004904FF4A05005904FF48050069076
:1025400002A80521FEF79CFF20B1EFF3108072B6C0
:10255000FEE700BF14B080BD4EF68850CEF20000FA
:10256000016841F4700101607047000040F2A02052
:10257000C2F20000FFF7F6BA10B540F6FF3E03685E
:10258000C4F2000E40F2004C7045C4F2010C27DC8E
:10259000B0F1804F31D040F20042C4F200029042CC
:1025A0002BD040F60002C4F20002904225D041F642
:1025B000FF72C4F20002904229DC70453CDCB0F1AD
:1025C000804F5FD040F20042C4F20002904259D0E6
:1025D00040F60002C4F20002904253D056E000BF21
:1025E00040F60042C4F20002904206D0604504D09A
:1025F0000022C4F201029042D9D14A6823F070034C
:10260000134341F6FF72C4F200029042D5DD43F657
:10261000FF72C4F20102904222DC42F20002C4F2D4
:10262000000290422ED00022C4F20102904229D032
:10263000604527D02AE000BF40F60042C4F2000205
:1026400090421FD041F60002C4F20002904219D01D
:1026500041F60042C4F20002904213D016E000BFDF
:1026600044F20002C4F2010290420BD044F6000290
:10267000C4F20102904205D044F20042C4F20102C9
:10268000904203D1CA6823F44073134323F08002BD
:102690004B69D1F800E08C681A430260C46240F4D0
:1026A0008062C0F828E0624504BF09690163012126
:1026B000416110BD40F2E820C2F20000FFF716BBF6
:1026C00040F22C30C2F20000FFF710BB806B0021FB
:1026D000C185C184FFF708BB81B090F83E10222964
:1026E00020D18368B3F5805F08D10169002965D0E6
:1026F00000F128010A6803685B680AE0014651F8A6
:10270000282F13B90369002BF5D003685B6803F029
:102710007F0313700A6801320A60C18D01390A040F
:10272000C18501D001B070470168CA6822F020025B
:10273000CA60CA6822F48072CA604A6922F0010243
:102740004A61202280F83E20026B012A40D10022FB
:10275000026300BF51E8031F026821F0100142E844
:1027600003130168DBB151E8031F026821F0100177
:1027700042E80313016893B151E8031F026821F096
:10278000100142E8031301684BB151E8031F0268CE
:1027900021F0100142E803130168002BDAD10A6826
:1027A000D20606D5002200920A680092496800917C
:1027B0000099818D01B0FFF795BA00BF0168826A68
:1027C00049686FF35F2122F8021B8262A5E700BF10
:1027D00001B0FFF71DBE000010B504460068D4E943
:1027E00002C22369016921F4405111430161626908
:1027F00043EA0C01E3691143C268194349F20C63CF
:102800009A431143C1604169A26921F4407141F2C8
:102810000043114340F48062C4F201039A424161D3
:1028200002D1FEF7F1FE01E0FEF7DAFEE16963682E
:102830001922B1F5004FA0FB02011FD15A00DB0F96
:10284000FDF730FD48F21F51C5F2EB11A0FB01234B
:102850005A096FF0630302FB0300322303EBC0004D
:10286000A0FB01014FF4F87000EA111000EB021018
:10287000C1F3421108442168886010BD9A009B0F83
:10288000FDF710FD48F21F51C5F2EB11A0FB01232B
:102890005A096FF0630302FB0300322303EB0010BD
:1028A000A0FB0101F02000EA511000EB0210C1F37F
:1028B000431108442168886010BD0000FEE7000055
:1028C0008CB040F60004C4F20204FEF7F3FCFFF7FC
:1028D000E1FD002643F6300006960196C4F20200A0
:1028E0000168002241F004010160016801F0040167
:1028F000019101990196016841F080010160016830
:1029000001F08001019101990196016841F00101F6
:102910000160016801F001010191019901960168CE
:1029200041F002010160016801F002010191019989
:102930000196016841F0080101600068C42100F0BF
:102940000800019001982046FEF79AFC02AD4FF076
:102950000408012720462946CDF80880CDE90376F2
:102960000597FEF7A9FBA4F500602946CDE902868C
:102970000496FEF7A1FBC020CDE9020720462946B8
:10298000CDE90466FEF798FB4FF40060CDE902063E
:10299000204629460496FEF78FFB40F2D415C2F27A
:1029A0000005A4F5D231284640F8501F0C274FF4FB
:1029B00030214FF48012C0E90176C0E90361C0E91B
:1029C00005268683FEF736F920B1EFF3108072B644
:1029D000FEE700BFA4F5D0304FF42021C5E9000781
:1029E00005F110004FF4001246C02846C5E9026602
:1029F000AE83FEF71FF928B1EFF3108072B600BF67
:102A0000FEE700BF012000260A900E21CDE90860F4
:102A100040F2D41007910B91C2F2000002A9CDE957
:102A20000266CDE904660696FDF7D2FE40F2A020CC
:102A3000A4F5F431C2F2000040F2E73342F227324B
:102A400080E84600C0E903368661FFF735F828B113
:102A5000EFF3108072B600BFFEE700BF20464021B2
:102A60000022FEF70DFC204680210022FEF708FC24
:102A700040F2D415C2F200052846FEF771FA284646
:102A80000221FDF72FFE40F6B830FEF701FB40F2C1
:102A9000E820A4F5DE31C2F200004FF4E1370C2546
:102AA000C0E90017C0E90266C0E90465C0E906662E
:102AB000FFF7C8FB20B1EFF3108072B6FEE700BF4E
:102AC00040F22C30A4F5DC31C2F200004FF0000AD5
:102AD00080E88204C0E903AAC0E9055AC0F81CA036
:102AE000FFF7B0FB20B1EFF3108072B6FEE700BF36
:102AF00040F2F006C2F2000640F22C3006F144012A
:102B0000C2F200000822FFF753FC40F2D418C2F2D0
:102B100000084FF0000B00BF3546082040F2641754
:102B200045F8580F0BF28710C2F2000747F83C0F28
:102B30000420A5F128093861404639462A464B460B
:102B4000C7E902AAFDF7E6FD1420FEF7A1FA404608
:102B500039462A464B46FDF7DDFD1420FEF798FA6C
:102B6000404639462A464B46FDF7D4FD1420FEF771
:102B70008FFA404639462A464B46FDF7CBFD1420D6
:102B8000FEF786FA404639462A464B46FDF7C2FD17
:102B90001420FEF77DFA6420FEF77AFA0BF1200B81
:102BA000BBF1E00FB8D1FDF74DFC4FF4FA60FEF732
:102BB0006FFAFDF747FC4FF4FA60FEF769FAFDF78C
:102BC00041FC4FF4FA60FEF763FAFDF73BFC4FF46B
:102BD000FA60FEF75DFA204640210122FEF750FB25
:102BE000204680210122FEF74BFB40F27005C2F225
:102BF000000500BF20464FF40061FEF73BFB96F84E
:102C000044102870AA29F5D196F84B00FF28F1D17D
:102C100096F8450096F846106870A87896F8472010
:102C200096F84830002918BF0846A87096F8490061
:102C300096F84A106A71AB712871E970DAE7F1EE23
:102C4000100A4FF6FF71C0F2C03120EA010040F0D7
:102C50004070E1EE100A7047000000000000000024
:102C60000102030406070809000000000102030432
:102C7000902C000800000020100000000002000856
:102C8000A02C000810000020680900001C020008A9
:102C900001000000100000000024F400000000000B
:04000005080001C529
:00000001FF
