:020000040800F2
:10000000F009002065020008B52D0008AD2D00089C
:10001000B12D000811040008C53B000800000000D5
:10002000000000000000000000000000BD2D0008DE
:100030004505000800000000B92D00084D370008F4
:100040007F0200087F0200087F0200087F0200088C
:100050007F0200087F0200087F0200087F0200087C
:100060007F0200087F0200087F0200087F0200086C
:100070007F0200087F0200087F0200087F0200085C
:100080007F0200087F0200087F0200087F0200084C
:1000900015040008210400087F0200087F02000800
:1000A0007F0200087F0200087F0200087F0200082C
:1000B0007F0200087F0200087F0200087F0200081C
:1000C0007F0200087F0200087F0200087F0200080C
:1000D0007F0200087F0200087F0200087F020008FC
:1000E0007F0200087F0200087F0200087F020008EC
:1000F0007F020008293800087F0200087F020008FC
:100100007F0200087F0200087F0200087F020008CB
:10011000B9390008C53900087F0200087F020008CD
:100120007F0200087F0200087F0200087F020008AB
:100130007F02000800000000000000007F020008AD
:100140002D040008390400087F0200087F0200081F
:100150007F0200087F0200087F0200087F0200087B
:100160007F0200087F0200087F0200087F0200086B
:100170007F0200087F0200087F02000800000000E4
:10018000000000007F0200080000000000000000E6
:100190007F02000800000000000000007F0200084D
:1001A0000000000000000000000000007F020008C6
:1001B0007F0200087F0200087F0200087F0200081B
:1001C0007F02000800F002F800F03CF80AA090E876
:1001D000000C82448344AAF10107DA4501D100F002
:1001E00031F8AFF2090EBAE80F0013F0010F18BF93
:1001F000FB1A43F0010318472C4600004C46000050
:10020000103A24BF78C878C1FAD8520724BF30C842
:1002100030C144BF04680C60704700000023002414
:1002200000250026103A28BF78C1FBD8520728BF06
:1002300030C148BF0B6070471FB504F0D4FA1FBD32
:1002400010B510BD00F0A9F81146FFF7F5FF03F057
:10025000BBFC00F0C7F803B4FFF7F2FF03BC00F0EB
:10026000CFF800000948804709480047FEE7FEE74D
:10027000FEE7FEE7FEE7FEE7FEE7FEE7FEE7FEE756
:1002800004480549054A064B704700001538000828
:10029000C5010008F0030020F0090020F00500204F
:1002A000F005002053EA020C00F069802DE9F04BC4
:1002B0004FF00006002B1FBFB3FA83F503FA05F4D5
:1002C00024FA05F65E4012BF1643B2FA82F502FA2E
:1002D00005F4C5F120051EBF22FA05FC44EA0C0412
:1002E000203556EA044C4FEA144418BF641C4FF002
:1002F00000084FF00009904271EB030C39D300293C
:1003000019BFB1FA81F701FA07F6B0FA80F700FADF
:1003100007F6C7F120071EBF20FA07FC46EA0C06C5
:100320002037B6FBF4FCA7EB0507103F07F01F0BC7
:10033000CBF120062CFA06F60CFA0BFB44BFB346B1
:100340000026202FA4BF5E464FF0000B5BEA060C90
:1003500008BF4FF0010B19EB0B0948EB0608ABFB8C
:10036000027C06FB02CC0BFB03CCC01B71EB0C0127
:10037000C1E70B46024641464846BDE8F08B13B53F
:10038000084318BF4FF0FF300146AFF30080BDE8CF
:100390001C407047704770477047754600F02CF856
:1003A000AE4605006946534620F00700854618B062
:1003B00020B5FFF765FFBDE820404FF000064FF085
:1003C00000074FF000084FF0000BAC46ACE8C00946
:1003D000ACE8C009ACE8C009ACE8C00921F00701ED
:1003E0008D46704710B50446AFF300802046BDE847
:1003F0001040FFF730BF0000004870475000002059
:1004000001491820ABBEFEE726000200704700003D
:10041000FEE7000040F27C20C2F2000000F072BD56
:1004200040F27C20C2F2000000F06CBD40F22C20B3
:10043000C2F2000000F066BD40F22C20C2F20000C3
:1004400000F060BD70B540F2A814C2F200046078FC
:1004500040F2102640F230150828C2F20006C2F21F
:1004600000050FD1A078082823D1E078082837D1DB
:10047000207908284BD14FF4FA60BDE8704001F0B4
:10048000C1B800BF3620214641F8500F0420002299
:10049000C1E90222086106F11C0005F1700205F1B4
:1004A0004C0300F0CFFB012001F0ACF8A078082845
:1004B000DBD05620214641F8500F04200022C1E92C
:1004C0000222086106F11C0005F1700205F14C03DF
:1004D00000F0B8FB012001F095F8E0780828C7D0BB
:1004E0007620214641F8500F04200022C1E9022263
:1004F000086106F11C0005F1700205F14C0300F0E3
:10050000A1FB012001F07EF820790828B3D09620C5
:1005100044F8500F04200021C4E90211206106F1C3
:100520001C0005F1700205F14C03214600F08AFB26
:10053000012001F067F84FF4FA60BDE8704001F067
:1005400061B80000704700002DE9F04F81B02DED3B
:10055000048B40F2B004C2F20004A07840F200071D
:100560000028C2F2000750D0217800294DD06178D0
:1005700002294AD02179E2798A4246D004290DD84D
:10058000DFE801F012041804040000BF0020C4F2E8
:10059000A000B1EE040A206212E000BF94ED080A48
:1005A0000EE000BF0000000000201FED020A2062E4
:1005B00014E000BF0020CCF2A0002062B9EE040AD3
:1005C000B5EE400AF1EE10FA08D094ED091AB5EE36
:1005D000401AF1EE10FA01D13878A0B1012002F0F2
:1005E000EFFB94ED080A022002F0EAFB94ED080A02
:1005F000032002F0E5FB94ED080A042002F0E0FB82
:10060000206A21796062A078E17140F2EC21C2F2A7
:10061000000191ED010AB0EE008AB4EE480AB8EE8E
:10062000009A91ED021AF1EE10FA4FF00002B4EECA
:10063000490A4FF0000391ED032A91ED043AB8BF47
:100640000122F1EE10FAC8BF01231A40B4EE481A95
:100650000023F1EE10FAB8BF01231A40B4EE491A94
:100660000023F1EE10FAC8BF01231A40B4EE482A65
:100670000023F1EE10FAB8BF01231A40B4EE492A64
:100680000023F1EE10FAC8BF0123B4EE483A00216E
:100690001A40F1EE10FA4FF00003B4EE493AB8BF39
:1006A00001231A40F1EE10FAC8BF01211140397040
:1006B00000EB80004FF0140101EB800000EE100A07
:1006C00097ED082AB8EEC00AB2EE041A18BFB0EED1
:1006D000410AB4EE402AF1EE10FA87ED070A00F065
:1006E000DC8197ED091AB4EE401AF1EE10FA40F3EE
:1006F000D98031EE098AB4EE408AF1EE10FAC0F2E8
:10070000A88140F2301840F21020C2F20008C2F274
:10071000000040F200094FF0000B08F170044FF0A8
:10072000080A00F11C0508F14C06C4F2482900BF74
:1007300040F2A817C2F200072F2047F8500F44F2EA
:100740004820A8F87600284639462246334687F8DE
:1007500014B088ED1C8AC7E901BBC7E903BA00F0F1
:1007600071FA012000F04EFF2846394622463346F2
:1007700000F068FA012000F045FF2846394622467D
:10078000334600F05FFA012000F03CFF4F20C7E93C
:10079000000B2846394622463346C8F8749087F83D
:1007A00014B088ED1C8AC7E902BBC7F810A000F09E
:1007B00049FA012000F026FF2846394622463346F2
:1007C00000F040FA012000F01DFF2846394622467D
:1007D000334600F037FA012000F014FF6F20C7E91C
:1007E000000B2846394622463346C8F8749087F8ED
:1007F00014B088ED1C8AC7E902BBC7F810A000F04E
:1008000021FA012000F0FEFE2846394622463346F2
:1008100000F018FA012000F0F5FE2846394622467D
:10082000334600F00FFA012000F0ECFE8F20C7E9FC
:10083000000B2846394622463346C8F8749087F89C
:1008400014B088ED1C8AC7E902BBC7F810A000F0FD
:10085000F9F9012000F0D6FE2846394622463346F3
:1008600000F0F0F9012000F0CDFE2846394640F2B4
:10087000000722463346C2F2000700F0E3F90120E8
:1008800000F0C0FE0A20C8E91CBB00F0BBFE97EDDB
:10089000070A38EE098AB4EE408AF1EE10FABFF684
:1008A00047AFD6E031EE089AB4EE409AF1EE10FA76
:1008B00000F3CF8040F2301B40F21020C2F2000B58
:1008C000C2F2000040F200094FF000080BF1700482
:1008D0004FF0080A00F11C050BF14C06C4F2482940
:1008E00040F2A817C2F200072F2047F8500F44F239
:1008F0004820ABF87600284639462246334687F82A
:1009000014808BED1C9AC7E90188C7E9038A00F0BF
:1009100099F9012000F076FE2846394622463346F2
:1009200000F090F9012000F06DFE2846394622467D
:10093000334600F087F9012000F064FE4F20C7E93C
:1009400000082846394622463346CBF8749087F88B
:1009500014808BED1C9AC7E90288C7F810A000F03C
:1009600071F9012000F04EFE2846394622463346F2
:1009700000F068F9012000F045FE2846394622467D
:10098000334600F05FF9012000F03CFE6F20C7E91C
:1009900000082846394622463346CBF8749087F83B
:1009A00014808BED1C9AC7E90288C7F810A000F0EC
:1009B00049F9012000F026FE2846394622463346F2
:1009C00000F040F9012000F01DFE2846394622467D
:1009D000334600F037F9012000F014FE8F20C7E9FC
:1009E00000082846394622463346CBF8749087F8EB
:1009F00014808BED1C9AC7E90288C7F810A000F09C
:100A000021F9012000F0FEFD2846394622463346F2
:100A100000F018F9012000F0F5FD2846394640F2B3
:100A2000000722463346C2F2000700F00BF901200E
:100A300000F0E8FD0A20CBE91C8800F0E3FD97ED0B
:100A4000070A39EE089AB4EE409AF1EE10FA7FF7F1
:100A500047AF40F2B004C2F20004207887ED080AE4
:100A600087ED090AC8B92079B8B19FED0E8A012037
:100A7000B0EE480A02F0A4F90220B0EE480A02F0F3
:100A80009FF90320B0EE480A02F09AF90420B0EE74
:100A9000480A02F095F900202071BDEC048B01B0EA
:100AA000BDE8F08F00000000F0B581B040F2CC3717
:100AB000044643F60C46C2F200070020C4F20206C8
:100AC000F86101F015F83168C9031DD43068C0071A
:100AD0001CBF01203060306810F4F97F30D03068DE
:100AE000C00635D4306880063BD43068400641D417
:100AF0003068000647D43068C0054DD430688007A0
:100B000054D4012001B0F0BDF4B10546601C0DD1F4
:100B10003068C003DAD53068C00344BF30685FEA8C
:100B2000C030D3D53068C003F2D4CFE700F0E0FF87
:100B3000401BA04208D83068C003F7D4C6E700BF06
:100B4000002001B0F0BD00BF032001B0F0BD00BF28
:100B5000F86940F01000F8611020306030688006BD
:100B6000C3D5F86940F00800F86120203060306893
:100B70004006BDD5F86940F00400F86140203060BF
:100B800030680006B7D5F86940F00200F8618020AF
:100B900030603068C005B1D5F86940F00100F861F7
:100BA0004FF48070306030688007AAD5F86940F053
:100BB0002000F86102203060012001B0F0BD00008B
:100BC000B0B586B00C46054600F090FE00200190BE
:100BD0000220059048F20000C0F600000321854283
:100BE00008BF022101200391049001A8694600F08A
:100BF0001DFD28B1EFF3108072B600BFFEE700BF05
:100C0000E31701202946224600F0E0FD00F0D4FD64
:100C100006B0B0BD90F82020013A012A08D800683B
:100C200000F114020020136819431160704700BFDF
:100C300000F1240201204FF4802113681943116050
:100C40007047000010B590F820E0D0F800C0AEF179
:100C5000010EBEF1010FDCF808E011D81EF0E05FD4
:100C600018D0CEF3016EBEF1030F1DD100F12401A7
:100C700001204FF400020B681A430A6010BD00BF48
:100C800000F1240101204FF480220B681A430A600E
:100C900010BD00BF00F1240101204FF400120B68C9
:100CA0001A430A6010BD00BF012000FA0EF0186060
:100CB000886818B14B6840EAC30001E00868400545
:100CC000D1E9033403430CEB0E10C0F88031C0F8B7
:100CD0008441097D012905D100F5C2710B6843F4F7
:100CE00080730B605168C0F88C11126800F5C071F8
:100CF000C0F88821002001220B681A430A6010BD49
:100D0000B0B590F82020013A012A2FD846F20060B1
:100D1000C4F20000026842F001020260026822F49C
:100D20007C520260D1F814E0CC694A6A0368012C55
:100D300043EA022202600EF01F024FF0010303FAA1
:100D400002F2C3696FEA020C23EA0203C36113D003
:100D50002CBBC36803EA0C03C360CB688C8844EAED
:100D6000034300EBCE0423640B4611E0416A41F4D7
:100D7000802141620120B0BDC3681343C3600B688A
:100D80008C8844EA034300EBCE04236401F10C0396
:100D90008C681B8843EA044300EBCE046364436819
:100DA0008D6943EA0204D1F810E0096A002D08BFFA
:100DB00003EA0C0444604369BEF1000F43EA0204F5
:100DC00008BF03EA0C040129446102D1C16911433F
:100DD000C161016821F0010101600020B0BD000087
:100DE0007047000010B590F82040013C012C71D8EC
:100DF000D0F800C0002977D0DCF81040A40777D0E5
:100E00000CEB011CDCF8B0410CF5D87E14F00404A6
:100E10009460DCF8B04119BFE4085460640D1460BC
:100E2000DEF80040002904F00204D460DCF8B4418C
:100E300004F00F041461DCF8B441C4F30724946196
:100E4000DCF8B4414FEA14445461DCF8B8211A705C
:100E5000026802EB0112D2F8B8214FEA12225A704E
:100E6000026802EB0112D2F8B8214FEA12429A70DE
:100E7000026802EB0112D2F8B8214FEA1262DA706E
:100E8000026802EB0112D2F8BC211A71026802EB6F
:100E90000112D2F8BC214FEA12225A71026802EB09
:100EA0000112D2F8BC214FEA12429A71026802EB99
:100EB0000112D2F8BC214FEA1262DA71006814BF45
:100EC00000F1100100F10C01002020220B681A43F0
:100ED0000A6010BD00F1240101204FF480220B684C
:100EE0001A430A6010BD00BFDCF80C40A40787D18C
:100EF00000F1240101204FF400120B681A430A602C
:100F000010BD00002DE9F04F81B00446006846692D
:100F1000D0F804908768D0F80CB0D0F810A0D0F8C2
:100F20001880F10704D1002530071DD424E000BF4C
:100F3000F90710D00121BA07816009D4780700F1C0
:100F4000AF80380700F1B680204600F0F1FA02E0E9
:100F5000204600F0EFFA0025F80500F18780F8033D
:100F600000F1B180300707D51BF0100004D02068D5
:100F700045F400751021C160700708D51BF008000A
:100F800005D020680821C160204600F0FBF9B007B9
:100F900006D52068C068800702D0204600F0F4F92A
:100FA000700607D51AF0100004D0206845F480655B
:100FB00010210161B00608D51AF0080005D020689C
:100FC00008210161204600F07FFAF00606D520686E
:100FD0000069800702D0204600F078FAB00308D5F7
:100FE00019F0100005D0206810214160204600F063
:100FF0006FFAF00308D519F0080005D02068082121
:101000004160204600F0A0FA300440F19B805FEA86
:10101000497040F1948006F4807008EA102028435B
:101020005FEA8871014648BF41F00201B20558BF2E
:1010300001465FEA48700D4648BF45F0040570055B
:1010400058BF0D46300540F17A8018F0700000F06E
:1010500076801038000905286CD8DFE800F00359C5
:101060005D61656945F0080564E000BF20684FF4E4
:101070008071BA0581600BD4780515D438051DD46C
:10108000204600F059FAF8037FF56CAF1BE000BF73
:10109000204600F053FAF8037FF564AF13E000BF79
:1010A0004FF4006558E700BF05F50055F8037FF5DC
:1010B00059AF08E04FF480554EE700BF05F5804575
:1010C000F8037FF54FAF20684FF48031BA03816099
:1010D0000AD4780310D4380314D4204600F030FA30
:1010E00030073FF541AF47E7204600F02BFA3007C5
:1010F0003FF53AAF40E700BF05F5004530073FF543
:1011000033AF39E705F5803530073FF52DAF33E7CD
:1011100045F010050EE000BF45F020050AE000BFD5
:1011200045F0400506E000BF45F0800502E000BF45
:1011300045F480752068816921F070018161206823
:101140000421416055B1606A40EA050120466162B0
:1011500001B0BDE8F04FFFF743BE00BF01B0BDE8EE
:10116000F08F0000B0B5C8B1044690F8200010B967
:10117000204600F071F82068016841F0010101602B
:1011800000F0B6FC054600BF20684168C90707D1DA
:1011900000F0AEFC401B0B28F6D312E00120B0BDDE
:1011A000016821F00201016000F0A2FC054600BFC9
:1011B0002068416889070DD500F09AFC401B0B2878
:1011C000F6D3606A052140F400306062012084F8A3
:1011D0002010B0BD217E0268012922F0800208BFE4
:1011E00080320260617E0268012922F0400208BF5D
:1011F00040320260A17E0268012922F0200208BF6D
:1012000020320260E17E0268012922F0100218BF3C
:1012100010320260217F0268012922F0080208BF13
:1012200008320260617F0268012922F0040208BFCF
:1012300004320260D4E901C2D4E9033561691A437A
:101240002A431143ACF101021143C1610020012185
:10125000606284F82010B0BDB0B586B0006846F674
:101260000002C4F2000200219042CDE90411CDE950
:101270000211019130D046F20041C4F200018842CF
:101280007DD140F2E821C2F200010A6843F6400035
:10129000C4F20200531C0B6052B900210091016896
:1012A00041F000710160016801F000710091009946
:1012B0000021009150F8101C152441F0020140F863
:1012C000101C50F8100C142500F00200009000983B
:1012D0004FF4407033E000BF43F64000C4F2020018
:1012E0000091016841F080610160016801F0806156
:1012F0000091009940F2E821C2F200010A68531CF3
:101300000B6052B900210091016841F00071016049
:10131000016801F00071009100990021009150F8DE
:10132000101C412441F0020140F8101C50F8100C30
:10133000402500F00200009000984FF440500190CA
:1013400002200290002003900320049009200590C1
:1013500040F20040C4F2020001A900F0DFFA284682
:101360000021002200F044FC284600F031FC204619
:101370000021002200F03CFC204600F029FC06B0D1
:10138000B0BD000070470000B0B540F2102440F23C
:101390003015C2F20004C2F2000504F11C0005F190
:1013A000500300212246FFF71DFD40F2B001C2F2BA
:1013B0000001487A236801304872580903F01F027F
:1013C000512BC8810A8201D1B0BD00BF013A162A53
:1013D000FAD8DFE802F00F0D1F2F310D0D0D430D70
:1013E0000D0D0D0D0D0D0D0D0D596B0D750000BF83
:1013F000EAE700BF80B204EB4001B1F844200132BB
:10140000A1F8442095F8541040F2A812C2F200024C
:101410001154B0BD696D40F2A81200EE101ABDEE75
:10142000C00AC2F20002A96510EE101A12FA80F08A
:101430000175B0BD696D00E0296D00EE101A40F233
:10144000A812BDEEC00AC2F20002A96510EE101A81
:1014500012FA80F080F82810B0BD00BF696D82B22A
:1014600040F2EC23C0B2C2F200030828A96543F899
:10147000221018BFB0BD286D00EE100ABDEEC00AE4
:10148000286185ED050AB0BD696D40F2A81200EE35
:10149000101ABDEEC00AC2F20002A96510EE101AC1
:1014A00012FA80F080F83C10B0BD00BF696D40F2C8
:1014B000EC2280B2C2F20002A96542F82010B0BD51
:1014C000286DC866B0BD000070470000704700007E
:1014D00070470000B0B5044690F8200001281DD1E7
:1014E000022084F820002068016821F001010160D9
:1014F00000F0FEFA054600BF20684068C00713D020
:1015000000F0F6FA401B0B28F6D3606A40F4003076
:101510006062052084F820000120B0BD606A40F4BC
:10152000002060620120B0BD00206062B0BD0000FC
:1015300070470000704700007047000070470000CF
:1015400070470000704700007047000070B5866D5E
:10155000044600F0CDFA94F8351002292ED1054644
:101560002068216C026822F016020260426922F0B3
:101570008002426109B9A16C19B1016821F008012A
:101580000160016821F0010101600068C00708D016
:1015900000F0AEFA401B052818D820680068C00784
:1015A000F6D1E06D3F2101FA00F0B060012084F82F
:1015B00035000020002184F8341070BD8020606563
:1015C0000120002184F8341070BD00BF2020606528
:1015D000032084F83500002184F8341070BD000029
:1015E00090F83510022909D1052180F835100068DE
:1015F000016821F0010101600020704780214165F0
:1016000001207047B0B5044600F072FA054640F27A
:101610004400C2F200000078611C18BF044400BFFF
:1016200000F066FA401BA042FAD3B0BD2DE9F043AA
:1016300081B040F2CC38C2F2000898F81820012A94
:1016400004D1022001B0BDE8F08300BF05460120AF
:1016500088F818004CF250308946FFF725FA28B177
:10166000002188F8181001B0BDE8F0834FF0FF307A
:10167000C9F80000286843F610470128C4F20207A1
:101680001CD128693968000221F440713960396839
:1016900080B241F0040139603968084340F4803079
:1016A00038604CF25030FFF7FFF9396821F004013F
:1016B000396057F8101C89053BD452E0D5E9026027
:1016C0003044864230D2F40028694FF44072C1B2EF
:1016D000032939684FEA002021F4407139603968E4
:1016E00038BF82B241EA02003860386820F0F80062
:1016F00038603868204340F002003860386840F4B1
:10170000803038604CF25030FFF7CEF9396800284D
:1017100021F0FA01396047D1D5E9020101360844C8
:10172000864204F10804CFD3002057F8101C890525
:1017300017D557F8101C21F4007147F8101C57F802
:10174000101C41F4006147F8101C57F8101C21F4DC
:10175000006147F8101C57F8101C41F4007147F85D
:10176000101C57F8101C49057FF57AAF57F8101C6C
:1017700021F4806147F8101C57F8101C41F4805187
:1017800047F8101C57F8101C21F4805147F8101C22
:1017900057F8101C41F4806147F8101C002188F8AC
:1017A000181001B0BDE8F083C9F8006057F8101CAC
:1017B0008905BED4D5E7000043F61041C4F202010A
:1017C000086840F0004200200A6070472DE9F043AD
:1017D00081B040F2CC34C2F200049046227E012A4D
:1017E00004D1022001B0BDE8F08300BF074601200C
:1017F00020764CF250301E460D46FFF755F928B1C1
:101800000021217601B0BDE8F08300BF43F6104906
:10181000022FC4F2020917D0012F2BD0002F3FD185
:10182000D9F8000020F44070C9F80000D9F8000091
:10183000C9F80000D9F8000040F00100C9F8000024
:1018400085F8008043E000BFD9F8000020F4407024
:10185000C9F80000D9F8000040F40070C9F8000091
:10186000D9F8000040F00100C9F80000C5F8008078
:101870002DE000BFD9F8000020F44070C9F8000046
:10188000D9F8000040F48070C9F80000D9F80000D1
:1018900040F00100C9F80000A5F8008017E000BF83
:1018A000D9F8000020F44070C9F80000D9F8000011
:1018B00040F44070C9F80000D9F8000040F0010081
:1018C000C9F80000C5F80080BFF36F8F6E604CF25E
:1018D0005030FFF7E9F8D9F8001021F00101C9F8FC
:1018E00000100021217601B0BDE8F08343F60440EA
:1018F000C4F20200C168B1F1FF3FC4BF00207047CD
:1019000040F22311C4F26751016048F6AB11CCF6E6
:10191000EF510160C068C00F704700002DE9F04F23
:1019200082B000F13E4241F6000502F1FF77C4F2B9
:10193000020507224FEAB726A84208BF0622062E54
:1019400038BF4FEAB7224FF0010A002400274FF0BA
:101950000008009208E000BF023708F10108202FBC
:1019600004F1040400F0B4800E680AFA08F916EADB
:10197000090FF1D0D1F804A00AF0030BABF1010676
:10198000012E17D80322866802FA07FECA6826EAE3
:101990000E06BA40324382604268CAF3001522EA5A
:1019A000090205FA08F54FEA480C6FEA0E062A43C9
:1019B00042600BE00322BA40D643BBF1030FBC46A2
:1019C00004D1BC464FF0030B22E000BFC2688D6813
:1019D000324005FA0CF52A43BBF1020FC26017D161
:1019E0006FF0030202EA5802024404F01C030F25C0
:1019F000D2F820E005FA03FA0D692EEA0A0E05FA7C
:101A000003F343EA0E031362D1F804A00AF0030BB8
:101A100002680BFA0CF332401A431AF4403F4FF0BD
:101A2000010A026098D0002243F644030192C4F2F6
:101A300002031A6843F6004E42F480421A601A68A4
:101A4000C4F2010E02F480420192019A28F00302CE
:101A50004FF6084C7244CFF6FF7C52F80C3004F07D
:101A60000C060F25B540AB43009D05FA06F633433F
:101A700042F80C30DEF808204B6842EA090643F6CB
:101A80000C4CDD0258BF22EA0906CEF80860C4F209
:101A9000010CDCF800209D0242EA090658BF22EA48
:101AA0000906CCF80060DEF804209D0342EA09062E
:101AB00058BF22EA0906CEF80460DEF80020DB03F6
:101AC00042EA090658BF22EA0906CEF8006043E759
:101AD00002B0BDE8F08F00000069084018BF012087
:101AE00070470000002A08BF0904816170470000A8
:101AF00040F2EC30C2F200000068704740F244004F
:101B000040F2EC31C2F20000C2F2000100780A6833
:101B1000104408607047000080B543F60040C4F2EE
:101B20000200016841F400710160016841F48061C4
:101B30000160016841F480710160032000F084F8C5
:101B40000F2000F005F800F027F8002080BD00000D
:101B500070B540F24406C2F2000640F24C01327801
:101B6000C2F200014FF47A730968B3FBF2F2044643
:101B7000B1FBF2F1084600F0B7FB0F2C4FF0010566
:101B800008D838B94FF0FF3021460022002500F078
:101B90002FF87460284670BD82B0002043F64001E3
:101BA0000190C4F202014A6842F480424A604A68E5
:101BB00002F480420192019A0090086840F080503F
:101BC0000860086800F080500090009802B07047EC
:101BD000002848BF704700F01F01012202FA01F1FE
:101BE0004EF200124009CEF2000242F82010704777
:101BF00010B54EF60C5CCEF2000CDCF80030C3F3EE
:101C0000022E8EF00704042C28BF0424BEF1030327
:101C10004FF0FF3E0EFA04F438BF0023A143994071
:101C20000EFA03F39A4300F00F03043B114363449D
:101C300009010C3300F16042B0F1FF3FC8BF02F56B
:101C40006443197010BD00004EF60C51CEF2000135
:101C50000A684FF6FF031A4060F30A2242F08060E0
:101C600040F0FD700860704770B582B000200190B0
:101C700043F64000C4F202000168402641F0805162
:101C800001600068C4F20E2600F0805001900198B7
:101C900047F204050120C4F200053060FFF728FF79
:101CA000044600BF2868C00306D4FFF721FF001BCD
:101CB000B0F57A7FF6D90EE001207060FFF718FFCB
:101CC000044600BF2868800308D4FFF711FF001BFB
:101CD000B0F57A7FF6D9032002B070BD002002B0C3
:101CE00070BD00002DE9F041002800F08B8043F624
:101CF0000808C4F202080446D8F8F8030D4600F0BC
:101D00000F00884207D288F8F853D8F8F80300F09B
:101D10000F00A84276D12068810717D5410705D565
:101D2000D8F8001041F4E051C8F80010010705D5BB
:101D3000D8F8001041F46041C8F80010D8F800103D
:101D4000A26821F0F0011143C8F80010C0073FD18C
:101D5000D8F8F80300F00F00A84207D988F8F85324
:101D6000D8F8F80300F00F00A8424BD120684107D3
:101D700007D5D8F80010E26821F4E0511143C8F803
:101D80000010000708D5D8F80000216920F4604051
:101D900040EAC100C8F8000000F07CF8D8F8001054
:101DA00044F60A02C1F30311C0F60002515C40F28E
:101DB0004C0220FA01F140F24800C2F20000006833
:101DC000C2F200021160FFF7C3FE0020BDE8F081FF
:101DD0006068811E022907D258F8081C89015CBF7F
:101DE0000120BDE8F08111E0012807D158F8081C56
:101DF00089035CBF0120BDE8F08107E058F8081CAA
:101E0000890703D40120BDE8F08100BFD8F8001095
:101E100021F003010843C8F80000FFF769FE0646F9
:101E200041F28837D8F80000616800F00C00B0EB90
:101E3000810F8DD0FFF75CFE801BB842F2D90320E2
:101E4000BDE8F08140F24C0043F60801C2F2000008
:101E5000C4F202010068096844F61A02C1F3822143
:101E6000C0F60002515CC8407047000040F24C00D0
:101E700043F60801C2F20000C4F2020100680968DA
:101E800044F61A02C1F34231C0F60002515CC84068
:101E90007047000010B543F60404C4F20204606801
:101EA000C0F3810142F20040C0F2F400DFE801F02B
:101EB0004402081841F20020C0F27A0010BD00BFB1
:101EC000216801F03F02216823684902C3F38811A9
:101ED00016D4A1FB00010023FEF7E4F917E000BFD0
:101EE000216801F03F02216823684902C3F3881189
:101EF00016D4A1FB00010023FEF7D4F917E000BFC0
:101F000041F20020C0F27A004843B0FBF2F02168B1
:101F10000222C1F3014102EB4101B0FBF1F010BD1F
:101F200041F20020C0F27A004843B0FBF2F0216891
:101F3000C1F30271B0FBF1F010BD00002DE9F041DA
:101F400082B0002800F096800446007843F6000630
:101F5000C007C4F202062BD0B06800F00C000428C1
:101F600020D0B06800F00C00082802D17068400250
:101F700018D4B06800F00C000C2802D17068400240
:101F800010D46068B0F5803F07D0B0F5A02F40F0C6
:101F90003B81306840F480203060306840F480300D
:101FA00030603BE13068800302D56068002861D072
:101FB0002078800722D5B06810F00C0F11D0B068DF
:101FC00000F00C00082802D17068400209D5B06802
:101FD00000F00C000C2840F09F807068400200F177
:101FE0009B803068800702D5E068012842D13068C4
:101FF000216920F0F80040EAC10030602078000735
:102000003CD42078400751D4A5698DB3B06800F066
:102010000C00082840F0A880012D2BD07068E169E1
:1020200000F480028A4225D1216A00F03F028A42F0
:1020300020D147F6C071626A0140B1EB821F19D10D
:10204000A26A0023CFF6FF7303EBC23200F44031E3
:102050006FF30F0291420DD1E16A00F07062B2EBB2
:10206000016F07D1216B00F0E040B0EB017F01D19F
:10207000002035E1012002B0BDE8F0816069002850
:1020800040F20000C4F247205ED00121C0F8801E5B
:10209000FFF72EFD054600BF706F8007B1D4FFF734
:1020A00027FD401B0228F7D9C5E000BF306C10F0B7
:1020B00080580AD100200190306C40F0805030648C
:1020C000306C00F080500190019847F20007C4F294
:1020D00000073868C00511D4386840F48070386053
:1020E000FFF706FD054600BF3868C00506D4FFF7B8
:1020F000FFFC401B0228F7D99DE000BFA068012823
:1021000005D0052852D1306F40F004003067306FA1
:1021100040F00100306753E0E068002860D0002004
:10212000C4F2472001210160FFF7E2FC054600BF31
:10213000306880073FF55BAFFFF7DAFC401B0228F1
:102140004FF00300F4D9CBE00021C0F8801EFFF768
:10215000CFFC0546706F80077FF553AFFFF7C8FCD3
:10216000401B0228F6D966E00027C4F2472700206A
:102170003866FFF7BDFC022D05460BD130688001A3
:102180005ED5FFF7B5FC401B02284FF00300F5D9E0
:10219000A6E000BF306880017FF56AAFFFF7A8FCBA
:1021A000401B02284FF00300F4D999E0316F00285A
:1021B00021F001013167316F21F00401316765D0F1
:1021C000FFF796FC054641F2883700BF306F800765
:1021D0006ED4FFF78DFC401BB842F7D92BE000BF4F
:1021E0000020C4F2472000210160FFF781FC054672
:1021F000306880077FF502AFFFF77AFC401B0228AA
:102200004FF00300F4D96BE03168002821F48031ED
:102210003160316821F48021316053D0FFF768FCD0
:10222000054600BF306880033FF5C2AEFFF760FC93
:10223000401B6428F6D9032002B0BDE8F08100BF3E
:1022400004F11C052FCD246B08430021CFF6FF714C
:1022500040EA821001EBC3316FF30F0140EA0560E1
:10226000084340EA0470706001203866FFF740FCC4
:10227000044600BF306880013FF5FAAEFFF738FC36
:10228000001B02284FF00300F4D929E0FFF730FCCF
:10229000054641F2883700BF306F800708D5FFF749
:1022A00027FC401BB8424FF00300F5D918E000BFEF
:1022B000B8F1000F7FF4A8AE306C20F0805030648D
:1022C000A2E600BFFFF714FC0546306880037FF5E7
:1022D0006FAEFFF70DFC401B64284FF00300F4D9EC
:1022E00002B0BDE8F0810000411E0020B0EB116F8C
:1022F0001CBF012070474EF21002CEF20002516066
:102300004EF62351CEF20001F0230B7007219060AE
:10231000116070477047000070470000002804BF3C
:102320000120704710B5044690F83D0028B9002000
:1023300084F83C00204600F01FF8022084F83D009D
:102340002068211D01F09AFA012084F8460084F8E3
:102350003E0084F83F0084F8400084F8410084F88F
:10236000420084F8430084F8440084F8450084F86F
:102370003D00002010BD000080B582B0006842F230
:102380000001C4F2000188421CBF02B080BD0020E1
:10239000019043F64000C4F202000168002241F4BB
:1023A000807101600068002100F480700190019844
:1023B0002D20FFF71DFC2D2002B0BDE88040FFF767
:1023C00007BC000090F83D1001291CBF0120704798
:1023D000022180F83D10006841F2FF72C168C4F22A
:1023E0000002904241F00101C1600DDC40F2FF713A
:1023F000C4F20001884215DCB0F1804F2AD040F2CF
:102400000041C4F2000123E040F2FF31C4F20101B7
:10241000884213DC41F60001C4F20001884219D061
:10242000002113E040F60001C4F20001884211D0FF
:1024300040F60041C4F200010AE000BF44F200018E
:10244000C4F20101884205D040F20041C4F201010A
:10245000884206D1816801F00701062904BF0020E7
:102460007047016841F001010160002070470000E1
:102470007047000010B5016804460869800744BF32
:10248000C8685FEA807039D40869400744BFC868EB
:102490005FEA40703ED40869000744BFC8685FEA3D
:1024A000007045D40869C00644BFC8685FEAC060D0
:1024B0004AD40869C0071CBFC8685FEAC07051D120
:1024C0000869000644BFC8685FEA006052D4086922
:1024D000400644BFC8685FEA406053D4086980067C
:1024E00046BFC8685FEA806010BD6FF020022046DA
:1024F0000A61BDE81040FFF70FBF00BF6FF0020098
:102500000861012020778869800743D02046FFF7C3
:10251000AFFF45E06FF00400086102202077886972
:1025200010F4407F40D02046FFF7A2FF42E000BFFA
:102530006FF00800086104202077C86980073DD04B
:102540002046FFF795FF3FE06FF01000086108207C
:102550002077C86910F4407F3AD02046FFF788FF03
:102560003CE000BF6FF001000861204600F03EF83B
:102570002168A5E76FF0800008612046FFF7CAFEDA
:102580002168A4E76FF040000861204600F030F8B1
:102590002168A3E7204600F025F8204600F024F843
:1025A0002168002020776FE7204600F01BF82046C6
:1025B00000F01AF82168002020776CE7204600F030
:1025C00011F8204600F010F821680020207769E714
:1025D000204600F007F8204600F006F821680020A9
:1025E000207766E7704700007047000070470000E2
:1025F000704700007047000070470000B0B582B01F
:10260000056804462968EA68686901F02F03202BF1
:1026100002F0200306D12BB1204602B0BDE8B04045
:1026200001F0DCB95FEA017C1EBF00F0010E02F48C
:10263000907010EB0E002FD1236B02EA0100C1064F
:1026400018D5012B16D100200190286801906868E8
:10265000019001986869400628D4A08DE18DE28D33
:10266000002A1CBF411A5FEA014040F0D58102B048
:10267000B0BD00BF010600F1D1804006F7D5E86883
:10268000202120F04000E860204684F83D1002B090
:10269000BDE8B04000F088BBC80718BF12F48070D6
:1026A00040F0D080480700F1D380D8E0A06B0168EB
:1026B0004A6893B2002BDAD0A18D8B42D7D2E28543
:1026C000C069B0F5807F00F0A08055E8030F216855
:1026D00020F4807041E80302F2B1206850E8030F53
:1026E000216820F4807041E80302AAB1206850E814
:1026F000030F216820F4807041E8030262B1206872
:1027000050E8030F216820F4807041E803021AB1F9
:10271000206850E8030FDAE7206850E8050F2168C9
:1027200020F0010041E80502BAB3206850E8050F27
:10273000216820F0010041E8050272B3206850E8EA
:10274000050F216820F0010041E805022AB3206846
:1027500050E8050F216820F0010041E80502002A39
:10276000DAD11AE0206850E8050F216820F0400017
:1027700041E80502DAB1206850E8050F216820F031
:10278000400041E8050292B1206850E8050F216839
:1027900020F0400041E805024AB1206850E8050FEA
:1027A000216820F0400041E80502002ADAD120200B
:1027B00084F83E0000202063206850E8030F216861
:1027C00020F0100041E80302DAB1206850E8030F5E
:1027D000216820F0100041E8030292B1206850E81F
:1027E000030F216820F0100041E803024AB120687D
:1027F00050E8030F216820F0100041E80302002A8E
:10280000DAD1A06BFEF7A2FEA18DE08D081A81B28D
:10281000204602B0BDE8B040FFF7ECBE94F83D00A2
:1028200021287FF424AFA068B0F5805F03D1206930
:10283000002800F08781206A411C216200786860CE
:1028400087E100BF206C40F001002064480706D5F6
:10285000BEF1000F03D0206C40F002002064880716
:1028600006D5BEF1000F03D0206C40F004002064B8
:10287000BCF1000F06D55EEA030003D0206C40F0E7
:1028800008002064206C00283FF4F1AE02EA010049
:10289000800603D5204601F0A1F825686869216CFF
:1028A00000F0400001F00801401800F0AD8055E84C
:1028B000030F00BF216820F4907041E80302D2B3F7
:1028C000206850E8030F216820F4907041E803026B
:1028D0008AB3206850E8030F216820F4907041E823
:1028E000030242B3206850E8030F216820F490707F
:1028F00041E80302FAB1206850E8030FDAE700BFAD
:10290000206850E8050F216820F0010041E8050229
:10291000DAB1206850E8050F216820F0010041E895
:10292000050292B1206850E8050F216820F00100EF
:1029300041E805024AB1206850E8050F216820F0FF
:10294000010041E80502002ADAD1206B012824D1D8
:10295000206850E8030F216820F0100041E80302CE
:10296000DAB1206850E8030F216820F0100041E838
:10297000030292B1206850E8030F216820F0100094
:1029800041E803024AB1206850E8030F216820F0B3
:10299000100041E80302002ADAD1202084F83E002A
:1029A0000020206320684169490640F1C58050E855
:1029B000050F216820F0400041E80502002A00F0E0
:1029C000A980206850E8050F216820F0400041E808
:1029D0000502002A00F09E80206850E8050F21685B
:1029E00020F0400041E80502002A00F093802068B2
:1029F00050E8050F216820F0400041E80502002A58
:102A000000F088802068D2E72046FFF7F5FD00201F
:102A1000206402B0B0BD00BF55E8030F226820F467
:102A2000907042E80303D3B3206850E8030F226894
:102A300020F4907042E803038BB3206850E8030F42
:102A4000226820F4907042E8030343B3206850E802
:102A5000030F226820F4907042E80303FBB1206862
:102A600050E8030FDAE700BF206850E8050F22683E
:102A700020F0010042E80503DBB1206850E8050FB3
:102A8000226820F0010042E8050393B1206850E875
:102A9000050F226820F0010042E805034BB12068D1
:102AA00050E8050F226820F0010042E80503002BE2
:102AB000DAD1202084F83E0000202063206850E80E
:102AC000030F226820F0100042E80303DBB1206806
:102AD00050E8030F226820F0100042E8030393B18E
:102AE000206850E8030F226820F0100042E803033A
:102AF0004BB1206850E8030F226820F0100042E834
:102B00000303002BDAD189B2204602B0BDE8B04001
:102B1000FFF770BDA06B78B143F6D111C0F600018C
:102B20000165FEF75DFD00283FF4A1ADA06B016DCE
:102B300002B0BDE8B0400847204602B0BDE8B04052
:102B4000FFF75ABD206A30F8021B6FF35F216960FE
:102B50002062E08C01380104E0847FF488ADE868ED
:102B600020F08000E860E86840F04000E86002B0D3
:102B7000B0BD0000002804BF0120704710B5044616
:102B800090F83D0028B9002084F83C00204600F071
:102B900021F8242084F83D002068C16821F4005108
:102BA000C160204600F09CFF2068016921F490413B
:102BB0000161416921F02A014161C16841F400517C
:102BC000C16000202021206484F83D1084F83E106C
:102BD00010BD0000F0B587B0006845F20001C4F2F6
:102BE000000100248842CDE90544CDE90344029464
:102BF0002AD044F60041C4F2000188426DD1002081
:102C000043F630010190C4F202010A69342442F40F
:102C100000220A610A6902F400220192019A0190DD
:102C20000A6842F001020A600968022201F001010B
:102C3000019101990321CDE9032000200291059122
:102C4000C4F202003CE000BF43F630000194C4F23D
:102C500002000169002741F4801101610169C4F299
:102C6000020701F480110191019901940168022584
:102C700041F0040101600168032601F004010191A3
:102C800001990194016841F008010160006802A9FE
:102C900000F00800019001984FF480500290082045
:102CA000069007F50060CDE903540596FEF736FE61
:102CB0000420CDE90205CDE9044607F5406035243E
:102CC0000821069102A9FEF729FE204600210022D4
:102CD000FEF78EFF2046FEF77BFF07B0F0BD000039
:102CE00090F83E30202B0BD100294FF0010318BF84
:102CF000002A01D11846704790F83C30012B01D1D1
:102D00000220704700230363816222218285C285ED
:102D1000036480F83E100269016880F83C301AB103
:102D2000C86840F48070C8604869002340F0010022
:102D30004861C86840F02000C8601846704700002D
:102D400080B5006844F60041C4F20001884215D005
:102D500045F20001C4F20001884218BF80BD40F274
:102D60007C2040F23011C2F20000C2F20001283093
:102D700060310822BDE88040FFF7B2BF40F230105A
:102D8000C2F2000000F1680140F28830C2F2000097
:102D90000822FFF7A5FF40F2B000C2F20000817ADE
:102DA0000131817280BD000070470000FEE7000025
:102DB000FEE70000FEE700007047000070470000DB
:102DC0002DE9F04381B0411E032940F2B001C2F267
:102DD00000014A78B1EE401A38BFB0EE410A022A2B
:102DE00015D00979032909D0042910D1C11EB1EEEB
:102DF000401A022938BFB0EE410A08E0C11EB1EE08
:102E0000401A022938BFB0EE401AB0EE410A40F233
:102E1000A8144001C2F200040E3044F8500F4FF0E5
:102E200000080420C4E9038040F2301940F2102069
:102E3000C2F20009C2F2000009F1700500F11C069F
:102E400009F14C07304621462A463B4684F8148057
:102E5000C4E9018889ED1C0AFDF7F4FE0120FEF7A4
:102E6000D1FB304621462A463B46FDF7EBFE0120CA
:102E7000FEF7C8FB304621462A463B46FDF7E2FEF8
:102E80000120FEF7BFFBC9E91C8801B0BDE8F08353
:102E90002DE9F04F81B02DED048B40F2B008C2F265
:102EA000000898F80100022800F0EC8298F806600B
:102EB000A6F15A0000EE100AB8EEC08A18EE100A09
:102EC00020F0004088ED0B8A01F01CFC9FEDBC0B4C
:102ED00053EC102B01F0BEF940F20009C2F20009D8
:102EE00099ED079A044619EE100A0D4601F00AFC06
:102EF00002460B462046294601F006FB01F078F910
:102F000098ED0D1A00EE100AB4EE481AF1EE10FA20
:102F1000C8F8300014D198ED0E2AB4EE402AF1EE34
:102F200010FA0DD198F8040098ED0A2A03EE100A61
:102F3000B8EE433AB4EE432AF1EE10FA00F0A28262
:102F4000B3EE042AB4EE420AF1EE10FA40F38C829A
:102F5000562E00F2998040F2EC20C2F2000090ED73
:102F6000042AB4EE481AF1EE10FAB0EEC21A80F25A
:102F70002B81B0EE008A31EE089AB4EE409AF1EE61
:102F800010FA00F3718240F2301B40F21020C2F2BE
:102F9000000BC2F200004FF000090BF170044FF07B
:102FA000080A00F11C050BF14C0600BF40F2A817FF
:102FB000C2F200076F2047F8500F44F24820ABF8E8
:102FC0007600284639462246334687F814908BED22
:102FD0001C9AC7E90199C7E9039AFDF733FE01205E
:102FE000FEF710FB2846394622463346FDF72AFEF7
:102FF0000120FEF707FB2846394622463346FDF7F7
:1030000021FE0120FEF7FEFA0020C4F24820CBF892
:1030100074008F20C7E90009284639462246334606
:1030200087F814908BED1C9AC7E90299C7F810A095
:10303000FDF708FE0120FEF7E5FA2846394622464C
:103040003346FDF7FFFD0120FEF7DCFA284639463E
:1030500022463346FDF7F6FD0120FEF7D3FA0A209B
:10306000CBE91C99FEF7CEFA40F20000C2F2000054
:1030700098ED0C0A80ED069A39EE089AB4EE409A63
:10308000F1EE10FA92DDEFE15D2E40F2278140F281
:10309000EC20C2F2000090ED012AB4EE481AF1EEE5
:1030A00010FAB0EEC21A40F3F381B0EE008A31EEAE
:1030B000089AB4EE409AF1EE10FA00F3D58140F28E
:1030C000301940F21020C2F20009C2F200004FF0A5
:1030D000000B09F170044FF0080A00F11C0509F11A
:1030E0004C0600BF40F2A817C2F200072F2047F895
:1030F000500F44F24820A9F8760028463946224667
:10310000334687F814B089ED1C9AC7E901BBC7E9BB
:1031100003BAFDF797FD0120FEF774FA28463946F9
:1031200022463346FDF78EFD0120FEF76BFA284656
:10313000394622463346FDF785FD0120FEF762FA47
:103140000020C4F24820C9F874004F20C7E9000BE2
:10315000284639462246334687F814B089ED1C9A32
:10316000C7E902BBC7F810A0FDF76CFD0120FEF710
:1031700049FA2846394622463346FDF763FD0120C9
:10318000FEF740FA2846394622463346FDF75AFDF7
:103190000120FEF737FA0A20C9E91CBBFEF732FA14
:1031A00040F20000C2F2000098ED0C0A80ED069A91
:1031B00039EE089AB4EE409AF1EE10FA92DD53E13E
:1031C0000000000000005940BFEE008A31EE089A6E
:1031D000B4EE409AF1EE10FAC0F2468140F2301B94
:1031E00040F21020C2F2000BC2F200004FF00009C2
:1031F0000BF170044FF0080A00F11C050BF14C06AE
:1032000040F2A817C2F200076F2047F8500F44F2AF
:103210004820ABF87600284639462246334687F8E0
:1032200014908BED1C9AC7E90199C7E9039AFDF741
:1032300009FD0120FEF7E6F92846394622463346C5
:10324000FDF700FD0120FEF7DDF92846394622464C
:103250003346FDF7F7FC0120FEF7D4F90020C4F255
:103260004820CBF874008F20C7E90009284639466A
:103270002246334687F814908BED1C9AC7E90299D1
:10328000C7F810A0FDF7DEFC0120FEF7BBF92846C9
:10329000394622463346FDF7D5FC0120FEF7B2F948
:1032A0002846394622463346FDF7CCFC0120FEF77E
:1032B000A9F90A20CBE91C99FEF7A4F940F2000015
:1032C000C2F2000098ED0C0A80ED069A39EE089AD9
:1032D000B4EE409AF1EE10FA92DAC5E040F2A8148A
:1032E000C2F200042F2040F2301B44F8500FC2F20B
:1032F000000B44F248204FF0000AABF8760008209B
:10330000C4E903A040F21020C2F200000BF17005E6
:1033100000F11C070BF14C06384621462A4633467D
:1033200084F814A08BED1C9AC4E901AAFDF78AFC6D
:103330000120FEF767F9384621462A463346FDF755
:1033400081FC0120FEF75EF9384621462A463346C5
:10335000FDF778FC0120FEF755F90021D9F81C0093
:10336000C4F24821CBE91C014F20C4E9000A08201F
:103370002061384621462A46334684F814A0C4E921
:1033800002AAFDF75FFC0120FEF73CF93846214612
:103390002A463346FDF756FC0120FEF733F938463E
:1033A00021462A463346FDF74DFC0120FEF72AF957
:1033B000D9F81C000021C4F24821CBE91C016F2080
:1033C000C4E9000A08202061384621462A463346CF
:1033D00084F814A0C4E902AAFDF734FC0120FEF72A
:1033E00011F9384621462A463346FDF72BFC0120C9
:1033F000FEF708F9384621462A463346FDF722FCF7
:103400000120FEF7FFF8D9F81C000021C4F2482182
:10341000CBE91C018F20C4E9000A0820206138464E
:1034200021462A46334684F814A0C4E902AAFDF7CF
:1034300009FC0120FEF7E6F8384621462A463346C5
:10344000FDF700FC0120FEF7DDF8384621462A464C
:103450003346FDF7F7FB0120FEF7D4F898ED0C0A90
:10346000CBF870A0CBF874A0D8F82C0088ED0E0A29
:10347000C8F8340098F8040000EE100AB8EE400ACC
:1034800088ED0A0ABDEC048B01B0BDE8F08F00BFE7
:10349000BFEE008A31EE089AB4EE409AF1EE10FACF
:1034A000E2DB40F2301940F21020C2F20009C2F211
:1034B00000004FF0000B09F170044FF0080A00F112
:1034C0001C0509F14C0600BF40F2A817C2F2000724
:1034D0002F2047F8500F44F24820A9F876002846DC
:1034E00039462246334687F814B089ED1C9AC7E95D
:1034F00001BBC7E903BAFDF7A5FB0120FEF782F87F
:103500002846394622463346FDF79CFB0120FEF74C
:1035100079F82846394622463346FDF793FB0120C9
:10352000FEF770F80020C4F24820C9F874004F205C
:10353000C7E9000B284639462246334687F814B0BF
:1035400089ED1C9AC7E902BBC7F810A0FDF77AFB0A
:103550000120FEF757F82846394622463346FDF744
:1035600071FB0120FEF74EF82846394622463346C5
:10357000FDF768FB0120FEF745F83220C9E91CBBC6
:10358000FEF740F840F20000C2F2000098ED0C0A8D
:1035900080ED069A39EE089AB4EE409AF1EE10FAF0
:1035A00092DA61E72DE9F04381B02DED028B9FEDBA
:1035B000668A0120B0EE480AFFF702FC0220B0EE56
:1035C000480AFFF7FDFB0320B0EE480AFFF7F8FBBF
:1035D0000420B0EE480A4FF00409FFF7F1FB40F277
:1035E000A814C2F2000440F20D1040F2301544F865
:1035F000500F4FF00008C2F2000540F2102045F8CD
:10360000708FC2F20000A5F1240600F11C073846B5
:1036100021462A46334684F81480C4E90188C4E967
:103620000389FDF70FFB0120FDF7ECFF384621462B
:103630002A463346FDF706FB0120FDF7E3FF384637
:1036400021462A463346FDF7FDFA0120FDF7DAFF51
:1036500040F22D10C4E90008384621462A46334678
:10366000C5E9008884F81480C4E90288C4F8109081
:10367000FDF7E8FA0120FDF7C5FF384621462A4646
:103680003346FDF7DFFA0120FDF7BCFF384621463F
:103690002A463346FDF7D6FA0120FDF7B3FF40F284
:1036A0004D10C4E90008384621462A463346C5E98C
:1036B000008884F81480C4E90288C4F81090FDF7EB
:1036C000C1FA0120FDF79EFF384621462A463346BF
:1036D000FDF7B8FA0120FDF795FF384621462A4646
:1036E0003346FDF7AFFA0120FDF78CFF40F26D1075
:1036F000C4E90008384621462A463346C5E9008811
:1037000084F81480C4E90288C4F81090FDF79AFA8E
:103710000120FDF777FF384621462A463346FDF75C
:1037200091FA0120FDF76EFF384621462A463346BE
:10373000FDF788FA0120FDF765FFC5E90088BDECBB
:10374000028B01B0BDE8F08300000000FEF7D6B99F
:1037500080B594B0002043F64001CDE90B00CDE9DF
:1037600009000690CDE90400CDE902000190C4F201
:1037700002010A6842F080520A60096801F0805133
:1037800001910199019047F20000C4F20000016824
:1037900041F44041016000684FF4800100F4404072
:1037A00001900198012007904FF480300E91042180
:1037B000089002200F91B4210D90CDE91010CDE9B1
:1037C000120007A8FEF7BAFB20B1EFF3108072B623
:1037D000FEE700BFFEF748FA20B1EFF3108072B6A3
:1037E000FEE700BF0F20029003200390002004900A
:1037F0004FF4A05005904FF48050069002A8052188
:10380000FEF770FA20B1EFF3108072B6FEE700BF4A
:1038100014B080BD4EF68850CEF20000016841F42D
:10382000700101607047000070B540F23C34C2F294
:1038300000042088013081B20229208016D340F292
:10384000481540F24416C2F20005C2F2000628688C
:103850003168884208D040F24000C2F2000000689F
:10386000FDF7AEF9306828600020208040F240303B
:10387000C2F20000BDE87040FEF7FCBD10B540F696
:10388000FF3E0368C4F2000E40F2004C7045C4F2E3
:10389000010C27DCB0F1804F31D040F20042C4F27D
:1038A000000290422BD040F60002C4F20002904287
:1038B00025D041F6FF72C4F20002904229DC704527
:1038C0003CDCB0F1804F5FD040F20042C4F2000215
:1038D000904259D040F60002C4F20002904253D008
:1038E00056E000BF40F60042C4F20002904206D00B
:1038F000604504D00022C4F201029042D9D14A6846
:1039000023F07003134341F6FF72C4F200029042A9
:10391000D5DD43F6FF72C4F20102904222DC42F28E
:103920000002C4F2000290422ED00022C4F2010232
:10393000904229D0604527D02AE000BF40F60042DF
:10394000C4F2000290421FD041F60002C4F200020D
:10395000904219D041F60042C4F20002904213D0C6
:1039600016E000BF44F20002C4F2010290420BD004
:1039700044F60002C4F20102904205D044F2004233
:10398000C4F20102904203D1CA6823F44073134386
:1039900023F080024B69D1F800E08C681A43026082
:1039A000C46240F48062C0F828E0624504BF09693F
:1039B00001630121416110BD40F28830C2F2000074
:1039C000FEF71CBE40F2A420C2F20000FEF716BEB5
:1039D000806B0021C185C184FEF70EBE81B090F8D6
:1039E0003E10222920D18368B3F5805F08D1016998
:1039F000002957D000F128010A6803685B680AE0D3
:103A0000014651F8282F13B90369002BF5D003683C
:103A10005B6803F07F0313700A6801320A60C18D8E
:103A200001390A04C18501D001B070470168CA6834
:103A300022F02002CA60CA6822F48072CA604A6911
:103A400022F001024A61202280F83E20026B012A06
:103A500032D10022026300BF51E8031F026821F047
:103A6000100142E803135BB3016851E8031F0268C9
:103A700021F0100142E8031313B3016851E8031F5A
:103A8000026821F0100142E80313CBB1016851E84C
:103A9000031F026821F0100142E8031383B101689B
:103AA000DAE700BF0168826A49686FF35F2122F894
:103AB000021B8262B3E700BF01B0FFF741B900BF4C
:103AC00001680A68D20606D5002200920A680092B0
:103AD000496800910099818D01B0FEF78BBD00000F
:103AE00010B504460068D4E902C22369016921F4D3
:103AF000405111430161626943EA0C01E3691143DA
:103B0000C268194349F20C639A431143C160416989
:103B1000A26921F4407141F20043114340F48062F4
:103B2000C4F201039A42416102D1FEF79FF901E01C
:103B3000FEF788F9E16963681922B1F5004FA0FB2F
:103B400002011FD15A00DB0FFCF7ACFB48F21F51FA
:103B5000C5F2EB11A0FB01235A096FF0630302FBCE
:103B60000300322303EBC000A0FB01014FF4F87007
:103B700000EA111000EB0210C1F342112268084361
:103B8000906010BD9A009B0FFCF78CFB48F21F5110
:103B9000C5F2EB11A0FB01235A096FF0630302FB8E
:103BA0000300322303EB0010A0FB0101F02000EA28
:103BB000511000EB0210C1F34311226808439060DA
:103BC00010BD0000FEE700008CB040F6000AC4F211
:103BD000020AFDF7A1FFFFF7BBFD002743F6300007
:103BE00006970197C4F202000168002241F0040127
:103BF0000160016801F004010191019901970168D8
:103C000041F080010160016801F08001019101999A
:103C10000197016841F001010160016801F00101B3
:103C2000019101990197016841F002010160016869
:103C300001F00201019101990197016841F0080129
:103C400001600068C42100F008000190019850460E
:103C5000FDF748FF02AD0424012650462946029490
:103C6000CDE903670596FDF759FEAAF500602946E0
:103C7000CDE902470497FDF751FEC02002A9C1C15A
:103C8000504629460597FDF749FE4FF40060CDE9FF
:103C90000207504629460497FDF740FE40F27C2675
:103CA000AAF5D230C2F200060C244FF430214FF4B2
:103CB000801286E891003046C6E90371C6E90527FF
:103CC000B783FDF74FFA28B1EFF3108072B600BF4B
:103CD000FEE700BF40F21025C2F20005AAF5D03180
:103CE000284640F81C1F4FF420214FF40012C0E971
:103CF0000147C0E90371C0E905278783FDF732FA60
:103D000020B1EFF3108072B6FEE700BF01200E2154
:103D1000002405F11C0B0A900791CDE908400B9196
:103D200002A95846CDE90244CDE904440694FCF7C3
:103D3000E7FF40F24030AAF5F431C2F2000040F251
:103D4000E73342F2273280E81600C0E90334846189
:103D5000FEF7E4FA20B1EFF3108072B6FEE700BF81
:103D6000504640210022FDF7BDFE50468021002232
:103D7000FDF7B8FE5846FDF7ADFB58460221FCF7AB
:103D800049FF40F6B830FDF73DFC40F28830AAF517
:103D9000DE31C2F200004FF4E1370C25C0E9001714
:103DA000C0E90244C0E90445C0E90644FEF7E2FE6A
:103DB00020B1EFF3108072B6FEE700BFAAF5DC3148
:103DC000304640F8281F4FF00008C0E90178C0E9EC
:103DD0000388C0E90558C0F81C80FEF7CBFE28B167
:103DE000EFF3108072B600BFFEE700BF06F12800B7
:103DF00040F23016C2F2000606F1600108220824E3
:103E0000FEF76EFF40F2A815B146C2F2000549F870
:103E1000704FA7202C4644F8500F0420A9F1240726
:103E20002061584621464A463B46C4E90288FCF7D1
:103E300009FF1420FDF7E6FB584621464A463B465B
:103E4000FCF700FF1420FDF7DDFB584621464A46EB
:103E50003B46FCF7F7FE1420FDF7D4FB58462146FD
:103E60004A463B46FCF7EEFE1420FDF7CBFB5846D6
:103E700021464A463B46FCF7E5FE1420FDF7C2FB0F
:103E80000A20FDF7BFFB0820C9F8000004202061CC
:103E9000C7202060584621464A463B46C4E902886E
:103EA000FCF7D0FE1420FDF7ADFB584621464A46EC
:103EB0003B46FCF7C7FE1420FDF7A4FB58462146FD
:103EC0004A463B46FCF7BEFE1420FDF79BFB5846D6
:103ED00021464A463B46FCF7B5FE1420FDF792FB0F
:103EE000584621464A463B46FCF7ACFE1420FDF7F7
:103EF00089FB0A20FDF786FB0820C9F80000042092
:103F00002061E7202060584621464A463B46C4E9E6
:103F10000288FCF797FE1420FDF774FB58462146F3
:103F20004A463B46FCF78EFE1420FDF76BFB5846D5
:103F300021464A463B46FCF785FE1420FDF762FB0E
:103F4000584621464A463B46FCF77CFE1420FDF7C6
:103F500059FB584621464A463B46FCF773FE14205F
:103F6000FDF750FB0A20FDF74DFB0820C9F80000C3
:103F70000420206140F207102060584621464A463E
:103F80003B46C4E90288FCF75DFE1420FDF73AFBCE
:103F9000584621464A463B46FCF754FE1420FDF79E
:103FA00031FB584621464A463B46FCF74BFE14205F
:103FB000FDF728FB584621464A463B46FCF742FEA1
:103FC0001420FDF71FFB584621464A463B46FCF7A6
:103FD00039FE1420FDF716FB0A20FDF713FB08201D
:103FE000C9F800000420206140F2271020605846E4
:103FF00021464A463B46C4E90288FCF723FE1420CA
:10400000FDF700FB584621464A463B46FCF71AFEA0
:104010001420FDF7F7FA584621464A463B46FCF77E
:1040200011FE1420FDF7EEFA584621464A463B465B
:10403000FCF708FE1420FDF7E5FA584621464A46EB
:104040003B46FCF7FFFD1420FDF7DCFA0A20FDF7E4
:10405000D9FA0820C9F800000420206140F2471076
:104060002060584621464A463B46C4E90288FCF790
:10407000E9FD1420FDF7C6FA584621464A463B465C
:10408000FCF7E0FD1420FDF7BDFA584621464A46EC
:104090003B46FCF7D7FD1420FDF7B4FA58462146FD
:1040A0004A463B46FCF7CEFD1420FDF7ABFA5846D6
:1040B00021464A463B46FCF7C5FD1420FDF7A2FA0F
:1040C0000A20FDF79FFA40F20007C2F20007F86BE2
:1040D000396C0068002402B249F8542C09680004C5
:1040E000CFF6FF74001B8BB218BF10464FF6FF725D
:1040F0009A1A18BF0AB21146002A08BF01460028C2
:1041000008BF114649E9162040F24030C2F20000D3
:1041100049E91421FEF756F95046402101224FF09B
:104120000109FDF7DFFC504680210122FDF7DAFC92
:1041300040F2B004C2F2000406E000BF387AD8B3FF
:10414000FCF702FAFEF7A4FE50464FF40061FDF7BB
:10415000C3FC96F860102070AA2919D196F8670060
:10416000FF2815D196F8610096F862106070A0786B
:1041700096F8632096F86430002918BF0846A070AE
:1041800096F8650096F866106271A3712071E1706F
:104190006878082818BF87F80880A878082818BF0A
:1041A00087F80880E878082818BF87F808802879F9
:1041B0000828C3D087F80880504640210022FDF728
:1041C00091FC504680210022FDF78CFCFFF7EAF9B4
:1041D000FCF738F950464021012287F80890FDF796
:1041E00081FC504680210122FDF77CFCACE70000F9
:1041F00021F0004201F00043A2F16052B2F5801FAD
:1042000028BFD2F17F6C0BD95FEA001C43EAC202DF
:1042100042EB507018BF704728BF20F00100704774
:10422000B2F5801FBCBF184670474FEA410C1CF521
:10423000001F02D2084600F0E3BA70B500F00EFA93
:1042400000000089FFF7F6BF4FF00040A0F58000A6
:10425000704700002DE9C04130B4DFF8A4C23CEA49
:10426000111418BF3CEA131400F0ED801CEA11147D
:1042700081EA030544EAD57418BF1CEA131500F05F
:10428000C880A4EB050404F17F7404F500344FF0FA
:10429000004545EAC12145EAC32341EA505143EABA
:1042A00052534FEAC0204FEAC222994208BF9042BF
:1042B00000F09D804FEA13650FF24416765D4FEAD9
:1042C000134506FB05F7C7F1807706FB07F74FEAB2
:1042D000D737A7FB03687642A7FB06CEC8F5803820
:1042E00038BFA8F1010807FB08E6A6FB028C4FF0D7
:1042F000000EE6FB03CEDCF1000CCEF1004E38BF21
:10430000AEF1010EA6FB0C584FF00007E6FB0E873E
:10431000A1FB08C6A0FB07CE16EB0E064FF000056A
:1043200045F10005E1FB076515F1E04E7EBFA4F500
:1043300080345FEA46066D4116F1800745F10005BD
:104340004FEA172747EA05674FEA15254FEA066641
:10435000A6F1DE46B6F1805F20D9384605EBC47180
:1043600024F0010C01EB0C11BCF1FE6F02D8F0BC83
:10437000BDE8008124425CBF01F5801E9EEAC47F37
:1043800002D4F0BCBDE80081244200F13980A1F1E3
:10439000C041F0BCBDE8004100F0AEB94FEAD0200A
:1043A00040EA41504FEAD1214FEAD22242EA435239
:1043B0004FEAD323A7FB028607FB036605FB0266D1
:1043C0001EEA0E0F58BFA6EB0056B6EB00564FEA9A
:1043D000520E4EEAC37E18EB0E0E56EB530EBCD5B2
:1043E00018EB02085E417F1C55F10005B5E74FF45C
:1043F00080154FF000074FF000064FF00008ACE7C3
:1044000001F1C04101F000414FF00000F0BCBDE8F7
:1044100000810CEA131511EA0C1F00D00CE013EA1E
:104420000C1F00F026804FF0000081EA030101F02C
:104430000041F0BCBDE80081F0BCBDE8004181EA6C
:10444000030100F059B9F0BCBDE8004170B500F0BF
:1044500005F900BF097EFC3E00F007B84FF00000F0
:1044600081EA030101F00041704781EA030100F095
:1044700043B9F0BCBDE8004122494FF0000070474D
:10448000FFFDFBF9F7F5F4F2F0EEEDEBE9E8E6E419
:10449000E3E1E0DEDDDBDAD8D7D5D4D3D1D0CFCDA0
:1044A000CCCBCAC8C7C6C5C4C2C1C0BFBEBDBCBBD9
:1044B000BAB9B8B7B6B5B4B3B2B1B0AFAEADACABD4
:1044C000AAA9A8A8A7A6A5A4A3A3A2A1A09F9F9EAE
:1044D0009D9C9C9B9A999998979796959594939360
:1044E000929191908F8F8E8E8D8C8C8B8B8A8989F7
:1044F000888887878685858484838382828181807A
:104500000000FF070000F87F70B5DFF848C11CEA23
:10451000111E1EBF1CEA13159EEA0C0F95EA0C0F24
:1045200000F06F8081EA03044EEAD47EAE4421EAB3
:104530004C1123EA4C1341F4801143F48013AEF183
:104540007F7EA1FB024CA0FB0365361955EB0C05E1
:10455000A1FB034C4CF10003A0FB021C16EB0C0664
:10456000654153F10003094218BF46F0010613F4F8
:10457000007F0BD14FEA03314FEA053041EA155174
:1045800040EA165034036FF003020AE04FEAC321F9
:104590004FEAC52041EA555140EA5650F4026FF007
:1045A000020202EB2E4201EB025585EACE710AD0DF
:1045B0005FEA440C18BF24F0004450F1000041F1C0
:1045C000000120EAD47040F2FE7C624500D270BD4A
:1045D000A84214BF4FF080444FF04044002E08BF63
:1045E0000024BEF1806FA8BFA1F1C041BDE87040BA
:1045F00080F2828001F1C04101F000414FF00000E3
:1046000070470CEA13159EEA0C0F18BF95EA0C0FC1
:1046100006D081EA030E4FF000000EF0004170BD9D
:1046200000F01CF88900013E00F007B800F009B85E
:104630004FEA430C5FEA5C5C08D081EA030100F0BA
:104640005BB84FEA410C5FEA5C5CF6D102494FF07F
:10465000000070470000FF070000F87F0EF1020E17
:104660002EF0030E5EF8046B364205D4012A43EBAC
:10467000030515F5001F12D8012841EB010C1CF5AC
:10468000001F0CD80ED14FEAD17C0CEB4C0C0CF176
:10469000020C15F5001F08BF4CEBD37C04E04FF073
:1046A000080C01E04FEAD37C0CEB4C0526FA05F62A
:1046B00006F00706B6F1040C06D20EEB860CBDE838
:1046C00070404CF0010C6047DFE80CF0090B02026F
:1046D0004FF00041A1F500214FF0000070BD1946D8
:1046E0001046012851EB010418BFD4F5001484BF13
:1046F000002001F0004170BD0808A0F500114FEA4C
:104700003101704743004FEAD30C4FEA3C0C434061
:104710001FBF40070CF1605113F0FE4F70471CF0B3
:10472000006F03D10CF00041002070470CF00043F3
:1047300043EA507040EACC0010B500F00EF800BF1C
:10474000000000924FEA0001FFF7D6BF4FF0004192
:10475000A1F500214FF0000070470EF1020E2EF07F
:10476000030E5EF8044B244204D44FEA4102B2F136
:104770007F4F11D84FEA4003B3F17F4F0CD80ED1D1
:104780004FEAD07C0CEB4C0C0CF1020CB2F17F4FD9
:1047900008BF4CEBD17C04E04FF0080C01E04FEA7D
:1047A000D17C0CEB4C0324FA03F404F00704B4F1BD
:1047B000040C06D20EEB840CBDE810404CF0010C4A
:1047C0006047DFE80CF0070802024FF00040A0F558
:1047D000800010BD0846420018BFD2F1807288BF29
:1047E00000F0004010BDF1EE100A4FF6FF71C0F26C
:1047F000C03120EA010040F04070E1EE100A70473D
:10480000FF2141EAD050C0057047000000000000C1
:10481000000001020304060708090000000001026D
:104820000304000048480008000000205000000079
:10483000000200089848000850000020A00900006D
:104840001C02000800000000010C0D0E0101020115
:104850000100270072018E012101BD01BF027D0010
:10486000000020420000803F0000803FCDCC4CBEC5
:104870000000803F0000803F110000000F0000009A
:104880000F0000000080000800C0000801000000C8
:08489000100000000024F400F8
:04000005080001C529
:00000001FF
