:020000040800F2
:10000000200A002065020008DD290008D529000823
:10001000D929000811040008ED3D00080000000087
:10002000000000000000000000000000AD2D0008EE
:100030004505000800000000A92D00085133000804
:100040007F0200087F0200087F0200087F0200088C
:100050007F0200087F0200087F0200087F0200087C
:100060007F0200087F0200087F0200087F0200086C
:100070007F0200087F0200087F0200087F0200085C
:100080007F0200087F0200087F0200087F0200084C
:1000900015040008210400087F0200087F02000800
:1000A0007F0200087F0200087F0200087F0200082C
:1000B0007F0200087F0200087F0200087F0200081C
:1000C0007F0200087F0200087F0200087F0200080C
:1000D0007F0200087F0200087F0200087F020008FC
:1000E0007F0200087F0200087F0200087F020008EC
:1000F0007F0200082D3400087F0200087F020008FC
:100100007F0200087F0200087F0200087F020008CB
:10011000E13B0008ED3B00087F0200087F02000879
:100120007F0200087F0200087F0200087F020008AB
:100130007F02000800000000000000007F020008AD
:100140002D040008390400087F0200087F0200081F
:100150007F0200087F0200087F0200087F0200087B
:100160007F0200087F0200087F0200087F0200086B
:100170007F0200087F0200087F02000800000000E4
:10018000000000007F0200080000000000000000E6
:100190007F02000800000000000000007F0200084D
:1001A0000000000000000000000000007F020008C6
:1001B0007F0200087F0200087F0200087F0200081B
:1001C0007F02000800F002F800F03CF80AA090E876
:1001D000000C82448344AAF10107DA4501D100F002
:1001E00031F8AFF2090EBAE80F0013F0010F18BF93
:1001F000FB1A43F0010318470443000024430000A6
:10020000103A24BF78C878C1FAD8520724BF30C842
:1002100030C144BF04680C60704700000023002414
:1002200000250026103A28BF78C1FBD8520728BF06
:1002300030C148BF0B6070471FB504F045F91FBDC2
:1002400010B510BD00F0A9F81146FFF7F5FF03F057
:10025000CFFD00F0C7F803B4FFF7F2FF03BC00F0D6
:10026000CFF800000948804709480047FEE7FEE74D
:10027000FEE7FEE7FEE7FEE7FEE7FEE7FEE7FEE756
:1002800004480549054A064B704700001934000828
:10029000C501000820040020200A002020060020BC
:1002A0002006002053EA020C00F069802DE9F04B93
:1002B0004FF00006002B1FBFB3FA83F503FA05F4D5
:1002C00024FA05F65E4012BF1643B2FA82F502FA2E
:1002D00005F4C5F120051EBF22FA05FC44EA0C0412
:1002E000203556EA044C4FEA144418BF641C4FF002
:1002F00000084FF00009904271EB030C39D300293C
:1003000019BFB1FA81F701FA07F6B0FA80F700FADF
:1003100007F6C7F120071EBF20FA07FC46EA0C06C5
:100320002037B6FBF4FCA7EB0507103F07F01F0BC7
:10033000CBF120062CFA06F60CFA0BFB44BFB346B1
:100340000026202FA4BF5E464FF0000B5BEA060C90
:1003500008BF4FF0010B19EB0B0948EB0608ABFB8C
:10036000027C06FB02CC0BFB03CCC01B71EB0C0127
:10037000C1E70B46024641464846BDE8F08B13B53F
:10038000084318BF4FF0FF300146AFF30080BDE8CF
:100390001C407047704770477047754600F02CF856
:1003A000AE4605006946534620F00700854618B062
:1003B00020B5FFF765FFBDE820404FF000064FF085
:1003C00000074FF000084FF0000BAC46ACE8C00946
:1003D000ACE8C009ACE8C009ACE8C00921F00701ED
:1003E0008D46704710B50446AFF300802046BDE847
:1003F0001040FFF730BF0000004870476000002049
:1004000001491820ABBEFEE726000200704700003D
:10041000FEE7000040F27C20C2F2000000F0C2BA09
:1004200040F27C20C2F2000000F0BCBA40F254203E
:10043000C2F2000000F0B6BA40F25420C2F200004E
:1004400000F0B0BA70B540F2B815C2F20005687E8F
:1004500040F2202440F23C160828C2F20004C2F206
:10046000000639D1A87E082850D1E87E082816D089
:100470000420002120617620C4E90211206004F1EB
:10048000340005F1100206F16403214600F02AF958
:10049000012000F023FF4FF4FA6000F01FFF287FD7
:1004A000082808BF70BD0420002120619620C4E9FF
:1004B0000211206004F1340005F1100206F164031A
:1004C000214600F00FF9012000F008FF4FF4FA6018
:1004D000BDE8704000F002BF0420002120613620FA
:1004E000C4E90211206004F1340005F1100206F1A4
:1004F0006403214600F0F6F8012000F0EFFE4FF40F
:10050000FA6000F0EBFEA87E0828AED0042000219F
:1005100020615620C4E90211206004F1340005F185
:10052000100206F16403214600F0DCF8012000F01F
:10053000D5FE4FF4FA6000F0D1FEE87E0828AED078
:1005400096E7000070470000F0B581B040F2FC373C
:10055000044643F60C46C2F200070020C4F202062D
:10056000F86101F031F93168C9031DD43068C00762
:100570001CBF01203060306810F4F97F30D0306843
:10058000C00635D4306880063BD43068400641D47C
:100590003068000647D43068C0054DD43068800705
:1005A00054D4012001B0F0BDF4B10546601C0DD15A
:1005B0003068C003DAD53068C00344BF30685FEAF2
:1005C000C030D3D53068C003F2D4CFE701F0FCF8D7
:1005D000401BA04208D83068C003F7D4C6E700BF6C
:1005E000002001B0F0BD00BF032001B0F0BD00BF8E
:1005F000F86940F01000F861102030603068800623
:10060000C3D5F86940F00800F861202030603068F8
:100610004006BDD5F86940F00400F8614020306024
:1006200030680006B7D5F86940F00200F861802014
:1006300030603068C005B1D5F86940F00100F8615C
:100640004FF48070306030688007AAD5F86940F0B8
:100650002000F86102203060012001B0F0BD0000F0
:10066000B0B586B00C46054600F0ACFF0020019006
:100670000220059048F20000C0F6000003218542E8
:1006800008BF022101200391049001A8694600F0EF
:1006900039FE28B1EFF3108072B600BFFEE700BF4D
:1006A000E31701202946224600F0FCFE00F0F0FE90
:1006B00006B0B0BD90F82020013A012A08D80068A1
:1006C00000F114020020136819431160704700BF45
:1006D00000F1240201204FF48021136819431160B6
:1006E0007047000010B590F820E0D0F800C0AEF1DF
:1006F000010EBEF1010FDCF808E011D81EF0E05F3A
:1007000018D0CEF3016EBEF1030F1DD100F124010C
:1007100001204FF400020B681A430A6010BD00BFAD
:1007200000F1240101204FF480220B681A430A6073
:1007300010BD00BF00F1240101204FF400120B682E
:100740001A430A6010BD00BF012000FA0EF01860C5
:10075000886818B14B6840EAC30001E008684005AA
:10076000D1E9033403430CEB0E10C0F88031C0F81C
:100770008441097D012905D100F5C2710B6843F45C
:1007800080730B605168C0F88C11126800F5C0715D
:10079000C0F88821002001220B681A430A6010BDAE
:1007A000B0B590F82020013A012A2FD846F2006017
:1007B000C4F20000026842F001020260026822F402
:1007C0007C520260D1F814E0CC694A6A0368012CBB
:1007D00043EA022202600EF01F024FF0010303FA07
:1007E00002F2C3696FEA020C23EA0203C36113D069
:1007F0002CBBC36803EA0C03C360CB688C8844EA53
:10080000034300EBCE0423640B4611E0416A41F43C
:10081000802141620120B0BDC3681343C3600B68EF
:100820008C8844EA034300EBCE04236401F10C03FB
:100830008C681B8843EA044300EBCE04636443687E
:100840008D6943EA0204D1F810E0096A002D08BF5F
:1008500003EA0C0444604369BEF1000F43EA02045A
:1008600008BF03EA0C040129446102D1C1691143A4
:10087000C161016821F0010101600020B0BD0000EC
:100880007047000010B590F82040013C012C71D851
:10089000D0F800C0002977D0DCF81040A40777D04A
:1008A0000CEB011CDCF8B0410CF5D87E14F004040C
:1008B0009460DCF8B04119BFE4085460640D146022
:1008C000DEF80040002904F00204D460DCF8B441F2
:1008D00004F00F041461DCF8B441C4F307249461FC
:1008E000DCF8B4414FEA14445461DCF8B8211A70C2
:1008F000026802EB0112D2F8B8214FEA12225A70B4
:10090000026802EB0112D2F8B8214FEA12429A7043
:10091000026802EB0112D2F8B8214FEA1262DA70D3
:10092000026802EB0112D2F8BC211A71026802EBD4
:100930000112D2F8BC214FEA12225A71026802EB6E
:100940000112D2F8BC214FEA12429A71026802EBFE
:100950000112D2F8BC214FEA1262DA71006814BFAA
:1009600000F1100100F10C01002020220B681A4355
:100970000A6010BD00F1240101204FF480220B68B1
:100980001A430A6010BD00BFDCF80C40A40787D1F1
:1009900000F1240101204FF400120B681A430A6091
:1009A00010BD00002DE9F04F81B004460068466993
:1009B000D0F804908768D0F80CB0D0F810A0D0F828
:1009C0001880F10704D1002530071DD424E000BFB2
:1009D000F90710D00121BA07816009D4780700F126
:1009E000AF80380700F1B680204600F00DFC02E031
:1009F000204600F00BFC0025F80500F18780F80385
:100A000000F1B180300707D51BF0100004D020683A
:100A100045F400751021C160700708D51BF008006F
:100A200005D020680821C160204600F0FBF9B0071E
:100A300006D52068C068800702D0204600F0F4F98F
:100A4000700607D51AF0100004D0206845F48065C0
:100A500010210161B00608D51AF0080005D0206801
:100A600008210161204600F09BFBF00606D52068B6
:100A70000069800702D0204600F094FBB00308D53F
:100A800019F0100005D0206810214160204600F0C8
:100A90008BFBF00308D519F0080005D02068082169
:100AA0004160204600F0BCFB300440F19B805FEACF
:100AB000497040F1948006F4807008EA10202843C1
:100AC0005FEA8871014648BF41F00201B20558BF94
:100AD00001465FEA48700D4648BF45F004057005C1
:100AE00058BF0D46300540F17A8018F0700000F0D4
:100AF00076801038000905286CD8DFE800F003592B
:100B00005D61656945F0080564E000BF20684FF449
:100B10008071BA0581600BD4780515D438051DD4D1
:100B2000204600F075FBF8037FF56CAF1BE000BFBB
:100B3000204600F06FFBF8037FF564AF13E000BFC1
:100B40004FF4006558E700BF05F50055F8037FF541
:100B500059AF08E04FF480554EE700BF05F58045DA
:100B6000F8037FF54FAF20684FF48031BA038160FE
:100B70000AD4780310D4380314D4204600F04CFB78
:100B800030073FF541AF47E7204600F047FB30070D
:100B90003FF53AAF40E700BF05F5004530073FF5A8
:100BA00033AF39E705F5803530073FF52DAF33E733
:100BB00045F010050EE000BF45F020050AE000BF3B
:100BC00045F0400506E000BF45F0800502E000BFAB
:100BD00045F480752068816921F070018161206889
:100BE0000421416055B1606A40EA05012046616216
:100BF00001B0BDE8F04FFFF743BE00BF01B0BDE854
:100C0000F08F0000B0B5C8B1044690F8200010B9CC
:100C1000204600F071F82068016841F00101016090
:100C200000F0D2FD054600BF20684168C90707D122
:100C300000F0CAFD401B0B28F6D312E00120B0BD26
:100C4000016821F00201016000F0BEFD054600BF11
:100C50002068416889070DD500F0B6FD401B0B28C0
:100C6000F6D3606A052140F400306062012084F808
:100C70002010B0BD217E0268012922F0800208BF49
:100C800080320260617E0268012922F0400208BFC2
:100C900040320260A17E0268012922F0200208BFD2
:100CA00020320260E17E0268012922F0100218BFA2
:100CB00010320260217F0268012922F0080208BF79
:100CC00008320260617F0268012922F0040208BF35
:100CD00004320260D4E901C2D4E9033561691A43E0
:100CE0002A431143ACF101021143C16100200121EB
:100CF000606284F82010B0BDB0B586B0006846F6DA
:100D00000002C4F2000200219042CDE90411CDE9B5
:100D10000211019130D046F20041C4F20001884234
:100D20007DD140F2D021C2F200010A6843F64000B2
:100D3000C4F20200531C0B6052B9002100910168FB
:100D400041F000710160016801F0007100910099AB
:100D50000021009150F8101C152441F0020140F8C8
:100D6000101C50F8100C142500F0020000900098A0
:100D70004FF4407033E000BF43F64000C4F202007D
:100D80000091016841F080610160016801F08061BB
:100D90000091009940F2D021C2F200010A68531C70
:100DA0000B6052B900210091016841F000710160AF
:100DB000016801F00071009100990021009150F844
:100DC000101C412441F0020140F8101C50F8100C96
:100DD000402500F00200009000984FF44050019030
:100DE0000220029000200390032004900920059027
:100DF00040F20040C4F2020001A900F0FBFB2846CB
:100E00000021002200F060FD284600F04DFD204644
:100E10000021002200F058FD204600F045FD06B0FC
:100E2000B0BD000070470000B0B540F2202540F290
:100E30003C14C2F20005C2F2000405F1340005F1D1
:100E4000180204F168030021FFF71CFD40F2C00006
:100E5000C2F20000417AAB6901314172590903F0D5
:100E60001F02053B122B8182C28200F2DF80DFE885
:100E700013F0130061009F00DD00DD00DD00DD00E8
:100E8000DD00DD00DD00DD00DD00DD00DD00DD007A
:100E9000DD00DD00DD00050140F27C22C2F200022F
:100EA000B2F84030B4F868500133A2F840302ABAA2
:100EB000120C028300EE102A40F20002C2F200027D
:100EC0001289B8EE400A01EE102AB8EE411A30EE4F
:100ED000410A9FEDAF1A9FEDAF2A30EE011AB4EE32
:100EE000420AF1EE10FAC8BFB0EE410A9FEDAA1A0D
:100EF0009FEDAA2A30EE011AB4EE420AF1EE10FA82
:100F0000B8BFB0EE410AB6EE001A20EE010A80ED3D
:100F10001B0A9DE000EE100A40F2B812BDEEC00AB6
:100F2000C2F20002206710EE100A12FA81F181F875
:100F30004000B0BD40F27C21C2F20001B1F8422075
:100F4000B4F868300132A1F8422019BA090C418383
:100F500000EE101A40F20001C2F200014989B8EE19
:100F6000400A01EE101AB8EE411A30EE410A9FED28
:100F7000881A9FED882A30EE011AB4EE420AF1EE8B
:100F800010FAC8BFB0EE410A9FED831A9FED832A85
:100F900030EE011AB4EE420AF1EE10FAB8BFB0EE2C
:100FA000410AB6EE001A20EE010A80ED1C0AB0BD1F
:100FB00040F27C21C2F20001B1F84420B4F868305C
:100FC0000132A1F8442019BA090C818300EE101AED
:100FD00040F20001C2F200018989B8EE400A01EE38
:100FE000101AB8EE411A30EE410A9FED691A9FEDD2
:100FF000692A30EE011AB4EE420AF1EE10FAC8BFC7
:10100000B0EE410A9FED641A9FED642A30EE011A9A
:10101000B4EE420AF1EE10FAB8BFB0EE410AB6EEF5
:10102000001A20EE010A80ED1D0AB0BD013A162A11
:1010300000F2AC80DFE802F00EAA62740CAAAAAA41
:1010400076AAAAAAAAAAAAAAAAAAAA8C9EAAA8000A
:10105000A06E5FE740F27C2288B2C2F2000202EB8F
:101060004000028D0132028540F2B81294F86C0003
:10107000C2F2000212FA81F10876B0BD40F27C2083
:10108000C2F20000B0F84610B4F868200131A0F8B0
:10109000461010BA000C00EE100A40F20000C2F236
:1010A0000000C08AB8EE400A01EE100AB8EE411AFC
:1010B00084ED100A30EE410A9FED351A9FED352A76
:1010C00030EE011AB4EE420AF1EE10FAC8BFB0EEEB
:1010D000410A9FED311A9FED312A30EE011AB4EE2C
:1010E000420AF1EE10FAB8BFB0EE410AB6EE001AAD
:1010F00020EE010A84ED0B0AB0BD00BFE06E40F2A5
:10110000B81200EE100ABDEEC00AC2F2000220675B
:1011100010EE100A12FA81F181F82C00B0BD00BF68
:10112000E06EF7E6E06E8AB240F2D423C9B2C2F2B2
:1011300000030829206743F8220018BFB0BDA06E45
:1011400000EE100ABDEEC00AE06184ED080AB0BDF1
:10115000E06E40F2B81200EE100ABDEEC00AC2F214
:101160000002206710EE100A12FA81F181F8540093
:10117000B0BD00BFE06E40F2D42289B2C2F20002DC
:10118000206742F82100B0BDA16E8167B0BD00BFED
:10119000000034C40000B443000034440080B3C3F2
:1011A000704700007047000070470000B0B504466B
:1011B00090F8200001281DD1022084F8200020682A
:1011C000016821F00101016000F0FEFA054600BF50
:1011D00020684068C00713D000F0F6FA401B0B28C7
:1011E000F6D3606A40F400306062052084F8200085
:1011F0000120B0BD606A40F4002060620120B0BDF3
:1012000000206062B0BD0000704700007047000021
:1012100070470000704700007047000070470000F2
:101220007047000070B5866D044600F0CDFA94F862
:10123000351002292ED105462068216C026822F063
:1012400016020260426922F08002426109B9A16C73
:1012500019B1016821F008010160016821F0010164
:1012600001600068C00708D000F0AEFA401B0528F6
:1012700018D820680068C007F6D1E06D3F2101FA58
:1012800000F0B060012084F835000020002184F8CF
:10129000341070BD802060650120002184F8341076
:1012A00070BD00BF20206065032084F83500002158
:1012B00084F8341070BD000090F83510022909D16F
:1012C000052180F835100068016821F001010160F6
:1012D000002070478021416501207047B0B5044669
:1012E00000F072FA054640F24800C2F200000078B1
:1012F000611C18BF044400BF00F066FA401BA04206
:10130000FAD3B0BD2DE9F04381B040F2FC38C2F20F
:10131000000898F81820012A04D1022001B0BDE885
:10132000F08300BF0546012088F818004CF25030C9
:101330008946FFF709F928B1002188F8181001B093
:10134000BDE8F0834FF0FF30C9F80000286843F68D
:1013500010470128C4F202071CD12869396800022D
:1013600021F440713960396880B241F0040139607C
:101370003968084340F4803038604CF25030FFF751
:10138000E3F8396821F00401396057F8101C890529
:101390003BD452E0D5E902603044864230D2F400BA
:1013A00028694FF44072C1B2032939684FEA00201E
:1013B00021F440713960396838BF82B241EA0200D5
:1013C0003860386820F0F80038603868204340F012
:1013D00002003860386840F4803038604CF2503099
:1013E000FFF7B2F83968002821F0FA01396047D1D7
:1013F000D5E9020101360844864204F10804CFD33E
:10140000002057F8101C890517D557F8101C21F437
:10141000007147F8101C57F8101C41F4006147F8A0
:10142000101C57F8101C21F4006147F8101C57F8E5
:10143000101C41F4007147F8101C57F8101C4905A6
:101440007FF57AAF57F8101C21F4806147F8101C23
:1014500057F8101C41F4805147F8101C57F8101C25
:1014600021F4805147F8101C57F8101C41F480619A
:1014700047F8101C002188F8181001B0BDE8F0836F
:10148000C9F8006057F8101C8905BED4D5E70000E4
:1014900043F61041C4F20201086840F00042002007
:1014A0000A6070472DE9F04381B040F2FC34C2F28B
:1014B00000049046227E012A04D1022001B0BDE83A
:1014C000F08300BF0746012020764CF250301E46C4
:1014D0000D46FFF739F828B10021217601B0BDE8AB
:1014E000F08300BF43F61049022FC4F2020917D05F
:1014F000012F2BD0002F3FD1D9F8000020F44070ED
:10150000C9F80000D9F80000C9F80000D9F80000B7
:1015100040F00100C9F8000085F8008043E000BFFA
:10152000D9F8000020F44070C9F80000D9F8000094
:1015300040F40070C9F80000D9F8000040F0010044
:10154000C9F80000C5F800802DE000BFD9F8000000
:1015500020F44070C9F80000D9F8000040F4807011
:10156000C9F80000D9F8000040F00100C9F80000F7
:10157000A5F8008017E000BFD9F8000020F4407003
:10158000C9F80000D9F8000040F44070C9F8000024
:10159000D9F8000040F00100C9F80000C5F800804B
:1015A000BFF36F8F6E604CF25030FEF7CDFFD9F86D
:1015B000001021F00101C9F800100021217601B0CE
:1015C000BDE8F08343F60440C4F20200C168B1F103
:1015D000FF3FC4BF0020704740F22311C4F267519F
:1015E000016048F6AB11CCF6EF510160C068C00F46
:1015F000704700002DE9F04F82B000F13E4241F605
:10160000000502F1FF77C4F2020507224FEAB72670
:10161000A84208BF0622062E38BF4FEAB7224FF075
:10162000010A002400274FF00008009208E000BFE4
:10163000023708F10108202F04F1040400F0B480FF
:101640000E680AFA08F916EA090FF1D0D1F804A0D9
:101650000AF0030BABF10106012E17D803228668AE
:1016600002FA07FECA6826EA0E06BA4032438260D2
:101670004268CAF3001522EA090205FA08F54FEAA2
:10168000480C6FEA0E062A4342600BE00322BA4080
:10169000D643BBF1030FBC4604D1BC464FF0030B4D
:1016A00022E000BFC2688D68324005FA0CF52A437B
:1016B000BBF1020FC26017D16FF0030202EA5802B9
:1016C000024404F01C030F25D2F820E005FA03FAC7
:1016D0000D692EEA0A0E05FA03F343EA0E031362BC
:1016E000D1F804A00AF0030B02680BFA0CF33240A5
:1016F0001A431AF4403F4FF0010A026098D00022CA
:1017000043F644030192C4F202031A6843F6004E02
:1017100042F480421A601A68C4F2010E02F4804258
:101720000192019A28F003024FF6084C7244CFF65A
:10173000FF7C52F80C3004F00C060F25B540AB438B
:10174000009D05FA06F6334342F80C30DEF8082017
:101750004B6842EA090643F60C4CDD0258BF22EA08
:101760000906CEF80860C4F2010CDCF800209D02E6
:1017700042EA090658BF22EA0906CCF80060DEF802
:1017800004209D0342EA090658BF22EA0906CEF862
:101790000460DEF80020DB0342EA090658BF22EAB3
:1017A0000906CEF8006043E702B0BDE8F08F000004
:1017B0000069084018BF012070470000002A08BFD8
:1017C000090481617047000040F21C40C2F2000031
:1017D0000068704740F2480040F21C41C2F200002D
:1017E000C2F2000100780A681044086070470000E7
:1017F00080B543F60040C4F20200016841F4007174
:101800000160016841F480610160016841F4807108
:101810000160032000F084F80F2000F005F800F0CC
:1018200027F8002080BD000070B540F24806C2F2E3
:10183000000640F254013278C2F200014FF47A738C
:101840000968B3FBF2F20446B1FBF2F1084600F07E
:10185000B7FB0F2C4FF0010508D838B94FF0FF3017
:1018600021460022002500F02FF87460284670BD44
:1018700082B0002043F640010190C4F202014A68A0
:1018800042F480424A604A6802F480420192019A1E
:101890000090086840F080500860086800F08050B0
:1018A0000090009802B07047002848BF704700F0D1
:1018B0001F01012202FA01F14EF200124009CEF29C
:1018C000000242F82010704710B54EF60C5CCEF2C4
:1018D000000CDCF80030C3F3022E8EF00704042C59
:1018E00028BF0424BEF103034FF0FF3E0EFA04F4B8
:1018F00038BF0023A14399400EFA03F39A4300F046
:101900000F03043B1143634409010C3300F16042AF
:10191000B0F1FF3FC8BF02F56443197010BD00006D
:101920004EF60C51CEF200010A684FF6FF031A4042
:1019300060F30A2242F0806040F0FD70086070475A
:1019400070B582B00020019043F64000C4F202005E
:101950000168402641F0805101600068C4F20E2603
:1019600000F080500190019847F204050120C4F274
:1019700000053060FFF728FF044600BF2868C00359
:1019800006D4FFF721FF001BB0F57A7FF6D90EE0F1
:1019900001207060FFF718FF044600BF286880032D
:1019A00008D4FFF711FF001BB0F57A7FF6D90320AA
:1019B00002B070BD002002B070BD00002DE9F04102
:1019C000002800F08B8043F60808C4F202080446A1
:1019D000D8F8F8030D4600F00F00884207D288F8C7
:1019E000F853D8F8F80300F00F00A84276D1206829
:1019F000810717D5410705D5D8F8001041F4E0510B
:101A0000C8F80010010705D5D8F8001041F460416E
:101A1000C8F80010D8F80010A26821F0F0011143B6
:101A2000C8F80010C0073FD1D8F8F80300F00F0045
:101A3000A84207D988F8F853D8F8F80300F00F0047
:101A4000A8424BD12068410707D5D8F80010E268BA
:101A500021F4E0511143C8F80010000708D5D8F868
:101A60000000216920F4604040EAC100C8F800008D
:101A700000F07CF8D8F8001044F2E242C1F3031100
:101A8000C0F60002515C40F2540220FA01F140F22B
:101A90004C00C2F200000068C2F200021160FFF7C1
:101AA000C3FE0020BDE8F0816068811E022907D2D4
:101AB00058F8081C89015CBF0120BDE8F08111E0E5
:101AC000012807D158F8081C89035CBF0120BDE834
:101AD000F08107E058F8081C890703D40120BDE80D
:101AE000F08100BFD8F8001021F003010843C8F8C6
:101AF0000000FFF769FE064641F28837D8F800007B
:101B0000616800F00C00B0EB810F8DD0FFF75CFE38
:101B1000801BB842F2D90320BDE8F08140F25400A6
:101B200043F60801C2F20000C4F20201006809682D
:101B300044F2F242C1F38221C0F60002515CC84077
:101B40007047000040F2540043F60801C2F2000062
:101B5000C4F202010068096844F2F242C1F3423162
:101B6000C0F60002515CC8407047000010B543F653
:101B70000404C4F202046068C0F3810142F2004030
:101B8000C0F2F400DFE801F04402081841F200203E
:101B9000C0F27A0010BD00BF216801F03F02216849
:101BA00023684902C3F3881116D4A1FB0001002366
:101BB000FEF778FB17E000BF216801F03F022168C3
:101BC00023684902C3F3881116D4A1FB0001002346
:101BD000FEF768FB17E000BF41F20020C0F27A0078
:101BE0004843B0FBF2F021680222C1F3014102EB4D
:101BF0004101B0FBF1F010BD41F20020C0F27A00CB
:101C00004843B0FBF2F02168C1F30271B0FBF1F080
:101C100010BD00002DE9F04182B0002800F0968050
:101C20000446007843F60006C007C4F202062BD033
:101C3000B06800F00C00042820D0B06800F00C0060
:101C4000082802D17068400218D4B06800F00C0077
:101C50000C2802D17068400210D46068B0F5803F53
:101C600007D0B0F5A02F40F03B81306840F48020D1
:101C70003060306840F4803030603BE13068800391
:101C800002D56068002861D02078800722D5B0682E
:101C900010F00C0F11D0B06800F00C00082802D131
:101CA0007068400209D5B06800F00C000C2840F0C4
:101CB0009F807068400200F19B803068800702D5E9
:101CC000E068012842D13068216920F0F80040EA3C
:101CD000C1003060207800073CD42078400751D400
:101CE000A5698DB3B06800F00C00082840F0A8800A
:101CF000012D2BD07068E16900F480028A4225D161
:101D0000216A00F03F028A4220D147F6C071626A20
:101D10000140B1EB821F19D1A26A0023CFF6FF73F5
:101D200003EBC23200F440316FF30F0291420DD148
:101D3000E16A00F07062B2EB016F07D1216B00F035
:101D4000E040B0EB017F01D1002035E1012002B07D
:101D5000BDE8F0816069002840F20000C4F247202D
:101D60005ED00121C0F8801EFFF72EFD054600BFA2
:101D7000706F8007B1D4FFF727FD401B0228F7D909
:101D8000C5E000BF306C10F080580AD100200190EF
:101D9000306C40F080503064306C00F08050019026
:101DA000019847F20007C4F200073868C00511D453
:101DB000386840F480703860FFF706FD054600BFC4
:101DC0003868C00506D4FFF7FFFC401B0228F7D98E
:101DD0009DE000BFA068012805D0052852D1306FD2
:101DE00040F004003067306F40F00100306753E08E
:101DF000E068002860D00020C4F247200121016083
:101E0000FFF7E2FC054600BF306880073FF55BAF97
:101E1000FFF7DAFC401B02284FF00300F4D9CBE0B7
:101E20000021C0F8801EFFF7CFFC0546706F8007C9
:101E30007FF553AFFFF7C8FC401B0228F6D966E0D8
:101E40000027C4F2472700203866FFF7BDFC022DAB
:101E500005460BD1306880015ED5FFF7B5FC401B0D
:101E600002284FF00300F5D9A6E000BF30688001DA
:101E70007FF56AAFFFF7A8FC401B02284FF0030074
:101E8000F4D999E0316F002821F001013167316FF9
:101E900021F00401316765D0FFF796FC054641F259
:101EA000883700BF306F80076ED4FFF78DFC401B72
:101EB000B842F7D92BE000BF0020C4F24720002130
:101EC0000160FFF781FC0546306880077FF502AFAF
:101ED000FFF77AFC401B02284FF00300F4D96BE0B7
:101EE0003168002821F480313160316821F480218B
:101EF000316053D0FFF768FC054600BF30688003AF
:101F00003FF5C2AEFFF760FC401B6428F6D9032002
:101F100002B0BDE8F08100BF04F11C052FCD246B99
:101F200008430021CFF6FF7140EA821001EBC33174
:101F30006FF30F0140EA0560084340EA04707060E7
:101F400001203866FFF740FC044600BF306880017E
:101F50003FF5FAAEFFF738FC001B02284FF00300F4
:101F6000F4D929E0FFF730FC054641F2883700BF7D
:101F7000306F800708D5FFF727FC401BB8424FF0B1
:101F80000300F5D918E000BFB8F1000F7FF4A8AE48
:101F9000306C20F080503064A2E600BFFFF714FCE4
:101FA0000546306880037FF56FAEFFF70DFC401BE0
:101FB00064284FF00300F4D902B0BDE8F0810000BE
:101FC000411E0020B0EB116F1CBF012070474EF284
:101FD0001002CEF2000251604EF62351CEF2000103
:101FE000F0230B700721906011607047704700006C
:101FF00070470000002804BF0120704710B5044658
:1020000090F83D0028B9002084F83C00204600F0FC
:102010001FF8022084F83D002068211D01F030FAED
:10202000012084F8460084F83E0084F83F0084F8DC
:10203000400084F8410084F8420084F8430084F8AA
:10204000440084F8450084F83D00002010BD0000E5
:1020500080B582B0006842F20001C4F200018842FB
:102060001CBF02B080BD0020019043F64000C4F2C6
:1020700002000168002241F48071016000680021C3
:1020800000F48070019001982D20FFF71DFC2D2099
:1020900002B0BDE88040FFF707BC000070470000B9
:1020A00010B5016804460869800744BFC8685FEA44
:1020B000807039D40869400744BFC8685FEA40703F
:1020C0003ED40869000744BFC8685FEA007045D481
:1020D0000869C00644BFC8685FEAC0604AD408699E
:1020E000C0071CBFC8685FEAC07051D1086900060C
:1020F00044BFC8685FEA006052D40869400644BF24
:10210000C8685FEA406053D40869800646BFC86863
:102110005FEA806010BD6FF0200220460A61BDE8D2
:102120001040FFF765BF00BF6FF00200086101209B
:1021300020778869800743D02046FFF7AFFF45E04E
:102140006FF00400086102202077886910F4407F56
:1021500040D02046FFF7A2FF42E000BF6FF008002A
:10216000086104202077C86980073DD02046FFF72A
:1021700095FF3FE06FF01000086108202077C869E4
:1021800010F4407F3AD02046FFF788FF3CE000BFC4
:102190006FF001000861204600F03EF82168A5E7D5
:1021A0006FF0800008612046FFF720FF2168A4E758
:1021B0006FF040000861204600F030F82168A3E786
:1021C000204600F025F8204600F024F82168002081
:1021D00020776FE7204600F01BF8204600F01AF841
:1021E0002168002020776CE7204600F011F8204697
:1021F00000F010F821680020207769E7204600F001
:1022000007F8204600F006F821680020207766E7EE
:1022100070470000704700007047000070470000E2
:102220007047000070470000B0B582B005680446F2
:102230002968EA68686901F02F03202B02F0200367
:1022400006D12BB1204602B0BDE8B04001F0DABCA7
:102250005FEA017C1EBF00F0010E02F4907010EBEB
:102260000E002FD1236B02EA0100C10618D5012B05
:1022700016D10020019028680190686801900198AB
:102280006869400628D4A08DE18DE28D002A1CBF2C
:10229000411A5FEA014040F0D58102B0B0BD00BFF5
:1022A000010600F1D1804006F7D5E868202120F032
:1022B0004000E860204684F83D1002B0BDE8B04020
:1022C00000F086BBC80718BF12F4807040F0D080C1
:1022D000480700F1D380D8E0A06B01684A6893B248
:1022E000002BDAD0A18D8B42D7D2E285C069B0F540
:1022F000807F00F0A08055E8030F216820F48070F3
:1023000041E80302F2B1206850E8030F216820F48D
:10231000807041E80302AAB1206850E8030F2168E9
:1023200020F4807041E8030262B1206850E8030F96
:10233000216820F4807041E803021AB1206850E857
:10234000030FDAE7206850E8050F216820F001004C
:1023500041E80502BAB3206850E8050F216820F073
:10236000010041E8050272B3206850E8050F2168BA
:1023700020F0010041E805022AB3206850E8050F6B
:10238000216820F0010041E80502002ADAD11AE0B4
:10239000206850E8050F216820F0400041E8050260
:1023A000DAB1206850E8050F216820F0400041E8CC
:1023B000050292B1206850E8050F216820F0400026
:1023C00041E805024AB1206850E8050F216820F075
:1023D000400041E80502002ADAD1202084F83E00BE
:1023E00000202063206850E8030F216820F01000CF
:1023F00041E80302DAB1206850E8030F216820F0B9
:10240000100041E8030292B1206850E8030F2168F0
:1024100020F0100041E803024AB1206850E8030FA1
:10242000216820F0100041E80302002ADAD1A06BF5
:10243000FEF7F8FEA18DE08D081A81B2204602B0A9
:10244000BDE8B040FFF7ECBE94F83D0021287FF4D2
:1024500024AFA068B0F5805F03D12069002800F0A8
:102460008781206A411C21620078686087E100BF93
:10247000206C40F001002064480706D5BEF1000F33
:1024800003D0206C40F002002064880706D5BEF11E
:10249000000F03D0206C40F004002064BCF1000F5A
:1024A00006D55EEA030003D0206C40F008002064EB
:1024B000206C00283FF4F1AE02EA0100800603D54B
:1024C000204601F09FFB25686869216C00F0400000
:1024D00001F00801401800F0AD8055E8030F00BF7F
:1024E000216820F4907041E80302D2B3206850E8DC
:1024F000030F216820F4907041E803028AB320683A
:1025000050E8030F216820F4907041E8030242B3C1
:10251000206850E8030F216820F4907041E803021E
:10252000FAB1206850E8030FDAE700BF206850E8EE
:10253000050F216820F0010041E80502DAB12068AA
:1025400050E8050F216820F0010041E8050292B132
:10255000206850E8050F216820F0010041E80502DD
:102560004AB1206850E8050F216820F0010041E8D9
:102570000502002ADAD1206B012824D1206850E816
:10258000030F216820F0100041E80302DAB120684F
:1025900050E8030F216820F0100041E8030292B1D7
:1025A000206850E8030F216820F0100041E8030282
:1025B0004AB1206850E8030F216820F0100041E87C
:1025C0000302002ADAD1202084F83E000020206394
:1025D00020684169490640F1C58050E8050F21682F
:1025E00020F0400041E80502002A00F0A9802068A0
:1025F00050E8050F216820F0400041E80502002A5C
:1026000000F09E80206850E8050F216820F040000F
:1026100041E80502002A00F09380206850E8050F89
:10262000216820F0400041E80502002A00F088807F
:102630002068D2E72046FFF7F5FD0020206402B0B5
:10264000B0BD00BF55E8030F226820F4907042E847
:102650000303D3B3206850E8030F226820F490707E
:1026600042E803038BB3206850E8030F226820F48C
:10267000907042E8030343B3206850E8030F2268D8
:1026800020F4907042E80303FBB1206850E8030F88
:10269000DAE700BF206850E8050F226820F001004B
:1026A00042E80503DBB1206850E8050F226820F0FE
:1026B000010042E8050393B1206850E8050F226845
:1026C00020F0010042E805034BB1206850E8050FF7
:1026D000226820F0010042E80503002BDAD1202017
:1026E00084F83E0000202063206850E8030F226831
:1026F00020F0100042E80303DBB1206850E8030F2C
:10270000226820F0100042E8030393B1206850E8EB
:10271000030F226820F0100042E803034BB1206849
:1027200050E8030F226820F0100042E80303002B5A
:10273000DAD189B2204602B0BDE8B040FFF770BDE3
:10274000A06B78B143F6F931C0F600010165FEF7E0
:10275000B3FD00283FF4A1ADA06B016D02B0BDE850
:10276000B0400847204602B0BDE8B040FFF75ABD70
:10277000206A30F8021B6FF35F2169602062E08CF1
:1027800001380104E0847FF488ADE86820F080001F
:10279000E860E86840F04000E86002B0B0BD0000CA
:1027A000002804BF0120704710B5044690F83D0092
:1027B00028B9002084F83C00204600F021F82420AD
:1027C00084F83D002068C16821F40051C1602046B2
:1027D00001F09AFA2068016921F490410161416990
:1027E00021F02A014161C16841F40051C16000201B
:1027F0002021206484F83D1084F83E1010BD0000B4
:10280000F0B587B0006845F20001C4F20001002471
:102810008842CDE90544CDE9034402942AD044F628
:102820000041C4F2000188426DD1002043F630011E
:102830000190C4F202010A69342442F400220A61C0
:102840000A6902F400220192019A01900A6842F09A
:1028500001020A600968022201F001010191019957
:102860000321CDE90320002002910591C4F202006A
:102870003CE000BF43F630000194C4F2020001695D
:10288000002741F4801101610169C4F2020701F4DB
:1028900080110191019901940168022541F0040120
:1028A00001600168032601F004010191019901947E
:1028B000016841F008010160006802A900F0080009
:1028C000019001984FF4805002900820069007F57F
:1028D0000060CDE903540596FEF78CFE0420CDE997
:1028E0000205CDE9044607F540603524082106912C
:1028F00002A9FEF77FFE204600210022FEF7E4FF3A
:102900002046FEF7D1FF07B0F0BD000090F83E3042
:10291000202B0BD100294FF0010318BF002A01D151
:102920001846704790F83C30012B01D102207047C7
:1029300000230363816222218285C285036480F8BB
:102940003E100269016880F83C301AB1C86840F452
:102950008070C8604869002340F001004861C86881
:1029600040F02000C86018467047000080B500683D
:1029700044F60041C4F20001884213D045F2000140
:10298000C4F20001884218BF80BD40F2B83040F266
:10299000B811C2F20000C2F200010822BDE8804076
:1029A000FFF7B4BF40F2B810C2F2000000F1080116
:1029B00040F27430C2F200000822FFF7A7FF40F295
:1029C000C000C2F20000817A0131817280BD000036
:1029D00070470000FEE70000FEE70000FEE7000091
:1029E0002DE9F04F81B040F2C008C2F2000898F81B
:1029F000021098F80100002945D098F80020002A1C
:102A000041D002283FD098F8042098F8073093422C
:102A100039D0042A0CD8DFE802F00F0315030300B5
:102A20000020C4F2A000B1EE040AC8F8280010E0AB
:102A300098ED0A0A0DE000BF00209FEDD90AC8F802
:102A4000280006E00020CCF2A000C8F82800B9EE6B
:102A5000040A012000F0ACF998ED0A0A022000F007
:102A6000A7F998ED0A0A032000F0A2F998ED0A0AE6
:102A7000042000F09DF998F8010098F8042098F8D7
:102A8000021088F8072040F2D422C2F2000292ED30
:102A9000010AB0EE004AB4EE440AB8EE005A92EDD4
:102AA000021AF1EE10FA4FF00003B4EE450A4FF0AF
:102AB000000792ED032A92ED043AB8BF0123F1EE2C
:102AC00010FAC8BF01273B40B4EE441A0027F1EECC
:102AD00010FAB8BF01273B40B4EE451A0027F1EECB
:102AE00010FAC8BF01273B40B4EE442A0027F1EE9C
:102AF00010FAB8BF01273B40B4EE452A0027F1EE9B
:102B000010FAC8BF0127B4EE443A00223B40F1EE70
:102B100010FA4FF00007B4EE453AB8BF01273B402A
:102B2000F1EE10FAC8BF012240F200091A40C2F2C9
:102B3000000989F8002001EB81010A2202EB8101E2
:102B400000EE101AB8EEC00A022889ED070A00F05C
:102B5000238198F806009FED932A5A3801EE100A57
:102B6000B8EEC13A83EE021AB9EE042A88ED0D3AA6
:102B700021EE001AB4EE421AF1EE10FA88ED0E1AA8
:102B800008DA31EE002A89ED0A2A09F12C00B0EEAC
:102B9000401A15E0B1EE042AB4EE421AF1EE10FA32
:102BA00006DD30EE411A89ED0B1A09F1280005E027
:102BB00009F12C00B0EE401A89ED0A0AB0EE402A65
:102BC00098ED113A40F22024B4EE423A40F2B81A9D
:102BD00040F23C11F1EE10FAC2F20004C2F2000A17
:102BE000C2F2000180ED000A68D044F248204FF0A4
:102BF000000BAAF816000AF1100508222F2004F194
:102C0000340701F16406C4E9000B2261384621460D
:102C10002A46334684F814B08AED042AC4E902BB7C
:102C2000FDF760FD0120FEF759FB384621462A4694
:102C30003346FDF757FD0120FEF750FB384621468D
:102C40002A463346FDF74EFD0120FEF747FBD9F833
:102C500028000021C4F24821CAE904014F20C4E938
:102C6000000B08202061384621462A46334684F866
:102C700014B0C4E902BBFDF735FD0120FEF72EFBC1
:102C8000384621462A463346FDF72CFD0120FEF743
:102C900025FB384621462A463346FDF723FD012011
:102CA000FEF71CFB40F23C11D9F8280099ED0B1AF5
:102CB000C2F20001CAE904BBC8F8440099ED0C0A4D
:102CC000B4EE410AF1EE10FA66D044F248204FF01B
:102CD0000008AAF816000AF110056F2004F1340765
:102CE00001F164064FF0080BC4E90008384621469C
:102CF0002A46334684F814808AED041AC4E902880F
:102D0000C4F810B0FDF7EEFC0120FEF7E7FA3846F4
:102D100021462A463346FDF7E5FC0120FEF7DEFAA0
:102D2000384621462A463346FDF7DCFC0120FEF7F3
:102D3000D5FAD9F82C000021C4F24821CAE90401CF
:102D40008F20C4E90008384621462A46334684F8D5
:102D50001480C4E90288C4F810B0FDF7C3FC012058
:102D6000FEF7BCFA384621462A463346FDF7BAFC40
:102D70000120FEF7B3FA384621462A463346FDF7CE
:102D8000B1FC0120FEF7AAFAD9F82C00CAF810808D
:102D9000CAF81480C9F8300001B0BDE8F08F00BF58
:102DA000000000000000C8427047000070470000AB
:102DB0002DE9F04381B0411E032940F2C001C2F267
:102DC00000014A78B1EE401A38BFB0EE410A022A3B
:102DD00015D00979032909D0042910D1C11EB1EEFB
:102DE000401A022938BFB0EE410A08E0C11EB1EE18
:102DF000401A022938BFB0EE401AB0EE410A40F244
:102E000020244001C2F200044FF000080E3040F2CE
:102E1000B819C4E9000840F23C10C2F20009C2F23D
:102E20000000042109F1100504F1340600F16407E3
:102E30002161304621462A463B4684F8148089EDBC
:102E4000040AC4E90288FDF74DFC0120FEF746FAAA
:102E5000304621462A463B46FDF744FC0120FEF75A
:102E60003DFA304621462A463B46FDF73BFC012011
:102E7000FEF734FAC9E9048801B0BDE8F083000028
:102E80002DE9F04F81B040F2C001C2F20001C878D4
:102E9000097A814200F08481022840F0C78040F224
:102EA000202440F23C10C2F20004C2F2000040F2C2
:102EB00000084FF005094FF0000A04F1340500F155
:102EC0006406C4F2F01800BF40F2B81740F2000BDD
:102ED000C2F20007C4F2A01B47F810BF40F24D2019
:102EE000C4E9000A4FF0040B284621463A4633460F
:102EF00084F814A0C4E902AAC4F810B0FDF7F2FBEC
:102F00000120FEF7EBF9284621463A463346FDF705
:102F1000E9FB0120FEF7E2F9284621463A4633460E
:102F2000FDF7E0FB0120FEF7D9F940F22D20C4E9BE
:102F3000000A284621463A46334684F814A0C7E9D9
:102F4000008AC4E902AAC4F810B0FDF7CBFB012047
:102F5000FEF7C4F9284621463A463346FDF7C2FB40
:102F60000120FEF7BBF9284621463A463346FDF7D5
:102F7000B9FB0120FEF7B2F940F26D20C4E9000A66
:102F8000284621463A46334684F814A0C7E9008A09
:102F9000C4E902AAC4F810B0FDF7A4FB0120FEF7B3
:102FA0009DF9284621463A463346FDF79BFB012012
:102FB000FEF794F9284621463A463346FDF792FB40
:102FC0000120FEF78BF90020C4F2A010C7E9000A27
:102FD00040F28D20C4E9000A284621463A4633468D
:102FE00084F814A0C4E902AAC4F810B0FDF77AFB73
:102FF0000120FEF773F9284621463A463346FDF78D
:1030000071FB0120FEF76AF9284621463A4633460D
:10301000FDF768FB0120FEF761F9B9F10109C7F876
:1030200000A0C7F804A07FF44FAFB3E040F2202423
:1030300040F23C10C2F20004C2F200004FF004095A
:10304000002504F1340A00F1640640F28D284FF0A7
:10305000040B00BF40F2B817C2F2000747F8105F38
:1030600040F22D20C4E90005504621463A46334639
:103070002575C4E90255C4F81090FDF733FB012013
:10308000FEF72CF9504621463A463346FDF72AFB17
:103090000120FEF723F9504621463A463346FDF714
:1030A00021FB0120FEF71AF940F24D20C4E900058A
:1030B000504621463A463346C7E900552575C4E9CE
:1030C0000255C4F81090FDF70DFB0120FEF706F93C
:1030D000504621463A463346FDF704FB0120FEF7F1
:1030E000FDF8504621463A463346FDF7FBFA0120EB
:1030F000FEF7F4F840F26D20C4E900055046214681
:103100003A463346C7E900552575C4E90255C4F867
:103110001090FDF7E7FA0120FEF7E0F8504621464F
:103120003A463346FDF7DEFA0120FEF7D7F850465F
:1031300021463A463346FDF7D5FA0120FEF7CEF890
:10314000504621463A463346C7E900552575C4E93D
:103150000085C4E90255C4F81090FDF7C3FA0120B8
:10316000FEF7BCF8504621463A463346FDF7BAFA18
:103170000120FEF7B3F8504621463A463346FDF7A4
:10318000B1FA0120FEF7AAF8BBF1010B3D607D60AA
:103190007FF460AF40F2C001C2F20001C87808724B
:1031A00001B0BDE8F08F00002DE9F04381B02DEDB6
:1031B000028B9FED668A0120B0EE480AFFF7F8FD0A
:1031C0000220B0EE480AFFF7F3FD0320B0EE480AF4
:1031D000FFF7EEFD0420B0EE480A4FF00409FFF7B8
:1031E000E7FD40F22025C2F200054FF0000840F252
:1031F0000D1040F2B814C5E9000840F23C10C2F2CC
:103200000004C2F2000044F8108F05F1340700F109
:103210006406384629462246334685F81480C5E9B7
:103220000288C5F81090FDF75DFA0120FEF756F808
:103230003846294622463346FDF754FA0120FEF768
:103240004DF83846294622463346FDF74BFA012011
:10325000FEF744F840F22D10C5E90008384629462B
:1032600022463346C4E9008885F81480C5E90288FF
:10327000C5F81090FDF736FA0120FEF72FF8384612
:10328000294622463346FDF72DFA0120FEF726F89F
:103290003846294622463346FDF724FA0120FEF738
:1032A0001DF840F24D10C5E900083846294622466F
:1032B0003346C4E9008885F81480C5E90288C5F85A
:1032C0001090FDF70FFA0120FEF708F8384629465E
:1032D00022463346FDF706FA0120FDF7FFFF384688
:1032E000294622463346FDF7FDF90120FDF7F6FF9A
:1032F00040F26D10C5E9000838462946224633469B
:10330000C4E9008885F81480C5E90288C5F81090E2
:10331000FDF7E8F90120FDF7E1FF3846294622468E
:103320003346FDF7DFF90120FDF7D8FF384629467F
:1033300022463346FDF7D6F90120FDF7CFFFC4E959
:103340000088BDEC028B01B0BDE8F08300000000F6
:10335000FEF740BA80B594B0002043F64001CDE9B5
:103360000B00CDE909000690CDE90400CDE902008B
:103370000190C4F202010A6842F080520A600968B2
:1033800001F0805101910199019047F20000C4F2CF
:103390000000016841F44041016000684FF4800181
:1033A00000F4404001900198012007904FF48030D4
:1033B0000E910421089002200F91B4210D90CDE9C7
:1033C0001010CDE9120007A8FEF724FC20B1EFF39E
:1033D000108072B6FEE700BFFEF7B2FA20B1EFF33D
:1033E000108072B6FEE700BF0F200290032003900A
:1033F000002004904FF4A05005904FF480500690A8
:1034000002A80521FEF7DAFA20B1EFF3108072B6B8
:10341000FEE700BF14B080BD4EF68850CEF200002B
:10342000016841F4700101607047000070B540F21E
:103430002434C2F200042088013081B202292080A5
:1034400016D340F2283540F25C16C2F20005C2F2F3
:10345000000628683168884208D040F25800C2F25D
:1034600000000068FDF7FCF830682860002020802C
:1034700040F22C30C2F20000BDE87040FEF710BEF2
:1034800010B540F6FF3E0368C4F2000E40F2004C57
:103490007045C4F2010C27DCB0F1804F31D040F20E
:1034A0000042C4F2000290422BD040F60002C4F267
:1034B0000002904225D041F6FF72C4F20002904211
:1034C00029DC70453CDCB0F1804F5FD040F2004217
:1034D000C4F20002904259D040F60002C4F2000249
:1034E000904253D056E000BF40F60042C4F20002C2
:1034F000904206D0604504D00022C4F201029042FE
:10350000D9D14A6823F07003134341F6FF72C4F225
:1035100000029042D5DD43F6FF72C4F201029042F0
:1035200022DC42F20002C4F2000290422ED00022BD
:10353000C4F20102904229D0604527D02AE000BFA2
:1035400040F60042C4F2000290421FD041F6000251
:10355000C4F20002904219D041F60042C4F20002C7
:10356000904213D016E000BF44F20002C4F2010200
:1035700090420BD044F60002C4F20102904205D002
:1035800044F20042C4F20102904203D1CA6823F41B
:103590004073134323F080024B69D1F800E08C683C
:1035A0001A430260C46240F48062C0F828E06245B9
:1035B00004BF096901630121416110BD2DE9F04F8C
:1035C00081B040F23C1CC2F2000C9CED0B1A9CED49
:1035D0000C0AB2EE042A9CED0D3AB4EE421A40F207
:1035E000C005B3EE045A9CED0E4AF1EE10FA4FF00E
:1035F00000004FF00002C2F20005B4EE450A4FF0A1
:103600000003D8BF0120C8BF0122AA73F1EE10FA4F
:10361000C8BF0123B4EE453A0021EB73F1EE10FA76
:103620004FF00003B4EE454AC8BF0123F1EE10FA93
:10363000C8BF01211940A974697840F20009032923
:10364000C2F200092A7433D1B4EE421AF1EE10FA34
:1036500058DD99ED100ADCF83C1099ED113AB8EEFE
:10366000C00A012030EE410A6874481C23EE003A7B
:10367000B1EE040ACCF83C0000209FED7B4AB4EE8A
:10368000403AB0EE430AE873F1EE10FAB8BFB0EE7C
:10369000440AB9EE044AB4EE443AB0EE434AF1EEBD
:1036A00010FAC8BFB0EE404A85ED124A6DE000BF87
:1036B00099F8060095ED1B1A00EE100AB8EE403A94
:1036C000B4EE431AF1EE10FA09DC414200EE101A92
:1036D000B8EEC00AB4EE401AF1EE10FA20DABAEEF3
:1036E0000E0AB4EE431AB2EE0E2AF1EE10FAC8BF7B
:1036F000B0EE420A95ED1C2AB4EE432AF1EE10FA20
:1037000017DD21E0697CB1FA81F2520902422FD023
:10371000B2EE0E2AB0EE421AB0EE420ACCE000BF82
:103720009FED510A95ED1C2AB4EE432AF1EE10FAF2
:103730000ADC414201EE101AB8EEC11AB4EE412A79
:10374000F1EE10FA80F29280B2EE0E1AB4EE432A35
:10375000BAEE0E4AF1EE10FAC8BFB0EE441A95ED7B
:103760001D4AB4EE434AF1EE10FA40F3888090E02F
:1037700051B3DCF83C009FED3C4A0130CCF83C00F2
:103780000020E873A864B0EE443AB1EE045AB4EEF7
:10379000453AB9EE046AF1EE10FAB0EE435AB4EECF
:1037A000463A9FED310AB8BFB0EE405AF1EE10FA3A
:1037B000B4EE421AC8BFB0EE453AF1EE10FA85ED0C
:1037C000133A85ED164A07DD95ED120A95ED131AA9
:1037D00095ED162A70E000BF99F8060095ED1B1ACA
:1037E00002EE100AB8EE423AB4EE431AF1EE10FAC5
:1037F00009DC414202EE101AB8EEC22AB4EE421AB7
:10380000F1EE10FA0ADABAEE0E0AB4EE431AB2EE8C
:103810000E2AF1EE10FAC8BFB0EE420A95ED1C2A4E
:10382000B4EE432AF1EE10FA0ADC414201EE101A1E
:10383000B8EEC11AB4EE412AF1EE10FA80F2A68178
:10384000B2EE0E1AB4EE432ABAEE0E4AF1EE10FAB8
:10385000C8BFB0EE441A95ED1D4AB4EE434AF1EEEE
:1038600010FA40F39C81A4E1000000009FEDD91AFA
:1038700095ED1D4AB4EE434AF1EE10FA09DC4042E0
:1038800002EE100AB8EEC22AB4EE424AF1EE10FA85
:103890000CDABAEE0E2AB4EE434AB2EE0E5AF1EE4C
:1038A00010FAC8BFB0EE452A02E000BF9FEDC92A5A
:1038B00000206874CCF83C009FEDC74A9FEDC75AC2
:1038C000B4EE440AF1EE10FAB8BFB0EE440AB4EE1A
:1038D000450AF1EE10FAB0EE453AB4EE441AB8BF1C
:1038E000B0EE403AF1EE10FAB8BFB0EE441AB4EEC2
:1038F000451AF1EE10FAB0EE450AB4EE442AB8BF0C
:10390000B0EE410A85ED123A85ED130AF1EE10FA98
:10391000B8BFB0EE442AB4EE452AF1EE10FAB8BFB3
:10392000B0EE425A95ED1B1AB5EE403AF1EE10FAA0
:1039300085ED165A06DDBBEE092AB4EE421AF1EE09
:1039400010FA0BDBB7EE002AB4EE421AF1EE10FAD1
:1039500008DDB5EE403AF1EE10FA03DA9FED9D3A3C
:103960000020A86495ED141A40F22028B4EE431A02
:1039700040F2B814F1EE10FAC2F20008C2F20004EC
:103980003DD099F801004FF0000A4001042104F1F4
:10399000100B0D3008F134060CF16407C8E9000A79
:1039A000C8F81010304641465A463B4688F814A0E5
:1039B00084ED043AC8E902AAE146FCF793FE01202F
:1039C000FDF78CFC304641465A463B46FCF78AFEE2
:1039D0000120FDF783FC304641465A463B46FCF742
:1039E00081FE0120FDF77AFCCC4640F20009A86C6C
:1039F00095ED130AC2F20009C4E904AA286595ED01
:103A00001C1AB5EE400AF1EE10FA06DDB3EE092AF3
:103A1000B4EE421AF1EE10FA0BDCB7EE002AB4EE67
:103A2000421AF1EE10FA08DAB5EE400AF1EE10FA99
:103A300003DA9FED680A0020E86495ED151AB4EEEC
:103A4000401AF1EE10FA3FD099F802004FF0000A48
:103A50004001042104F1100B0D3008F134060CF183
:103A60006407C8E9000AC8F81010304641465A46B3
:103A70003B4688F814A084ED040AC8E902AA2C4643
:103A80006546FCF72FFE0120FDF728FC3046414635
:103A90005A463B46FCF726FE0120FDF71FFC304648
:103AA00041465A463B46FCF71DFE0120FDF716FC39
:103AB000AC46254640F2B814E86CC2F20004C4F8E3
:103AC00010A0C4F814A0686595ED160A95ED1D1AAE
:103AD000B5EE400AF1EE10FA06DDBBEE092AB4EEAF
:103AE000421AF1EE10FA0BDBB7EE002AB4EE421ADE
:103AF000F1EE10FA08DDB5EE400AF1EE10FA03DA45
:103B00009FED340A0020A86595ED171AB4EE401A0F
:103B1000F1EE10FA37D099F803004FF0000A400197
:103B2000042104F110090D3008F134060CF164078A
:103B3000C8E9000AC8F81010304641464A463B46DC
:103B400088F814A084ED040AC8E902AAFCF7CAFDAB
:103B50000120FDF7C3FB304641464A463B46FCF791
:103B6000C1FD0120FDF7BAFB304641464A463B46BF
:103B7000FCF7B8FD0120FDF7B1FBA86DC4F810A05B
:103B8000C4F814A0E86501B0BDE8F08F9FED111AEC
:103B900095ED1D4AB4EE434AF1EE10FA09DC4042BD
:103BA00002EE100AB8EEC22AB4EE424AF1EE10FA62
:103BB0000CDABAEE0E2AB4EE434AB2EE0E5AF1EE29
:103BC00010FAC8BFB0EE452A76E600BF9FED012A85
:103BD00072E600BF00000000000048C2000048423A
:103BE00040F27430C2F20000FEF71EBB40F2B83063
:103BF000C2F20000FEF718BB806B0021C185C184B2
:103C0000FEF710BB81B090F83E10222920D18368C6
:103C1000B3F5805F08D10169002957D000F1280170
:103C20000A6803685B680AE0014651F8282F13B957
:103C30000369002BF5D003685B6803F07F03137002
:103C40000A6801320A60C18D01390A04C18501D0B8
:103C500001B070470168CA6822F02002CA60CA68D1
:103C600022F48072CA604A6922F001024A6120226D
:103C700080F83E20026B012A32D10022026300BF8D
:103C800051E8031F026821F0100142E803135BB3FF
:103C9000016851E8031F026821F0100142E8031394
:103CA00013B3016851E8031F026821F0100142E8D4
:103CB0000313CBB1016851E8031F026821F0100122
:103CC00042E8031383B10168DAE700BF0168826A42
:103CD00049686FF35F2122F8021B8262B3E700BFDD
:103CE00001B0FEF743BE00BF01680A68D20606D5E0
:103CF000002200920A680092496800910099818D23
:103D000001B0FEF78DBA000010B504460068D4E992
:103D100002C22369016921F44051114301616269C2
:103D200043EA0C01E3691143C268194349F20C6389
:103D30009A431143C1604169A26921F4407141F283
:103D40000043114340F48062C4F201039A4241618E
:103D500002D1FDF7F7FE01E0FDF7E0FEE1696368DF
:103D60001922B1F5004FA0FB02011FD15A00DB0F51
:103D7000FCF798FA48F21F51C5F2EB11A0FB0123A2
:103D80005A096FF0630302FB0300322303EBC00008
:103D9000A0FB01014FF4F87000EA111000EB0210D3
:103DA000C1F3421122680843906010BD9A009B0F36
:103DB000FCF778FA48F21F51C5F2EB11A0FB012382
:103DC0005A096FF0630302FB0300322303EB001078
:103DD000A0FB0101F02000EA511000EB0210C1F33A
:103DE000431122680843906010BD0000FEE7000008
:103DF0008CB040F60009C4F20209FDF7F9FCFFF7A8
:103E0000A9FA002643F6300006960196C4F2020095
:103E10000168002241F004010160016801F0040121
:103E2000019101990196016841F0800101600168EA
:103E300001F08001019101990196016841F00101B1
:103E40000160016801F00101019101990196016889
:103E500041F002010160016801F002010191019944
:103E60000196016841F0080101600068C42100F07A
:103E70000800019001984846FDF7A0FC02AD04241B
:103E80000127484629460294CDE903760597FDF7B8
:103E9000B1FBA9F500602946CDE902460496FDF77D
:103EA000A9FBC020CDE9020748462946CDE90466B2
:103EB000FDF7A0FB4FF40060CDE902064846294615
:103EC0000496FDF797FB40F27C20A9F5D231C2F2AF
:103ED00000004FF430224FF480130C2480E852008D
:103EE000C0E90362C0E905368683FCF78BFE28B182
:103EF000EFF3108072B600BFFEE700BF40F220284B
:103F0000C2F20008A9F5D031404640F8341F4FF402
:103F100020214FF40012C0E90146C0E90361C0E965
:103F200005268683FCF76EFE20B1EFF3108072B693
:103F3000FEE700BF01200E21002408F134060A909C
:103F40000791CDE908400B9102A93046CDE9024422
:103F5000CDE904440694FCF723FC40F22C30A9F58B
:103F6000F431C2F2000040F2E73342F2273280E837
:103F70001600C0E903348461FEF73CF820B1EFF38A
:103F8000108072B6FEE700BF484640210022FDF7D0
:103F900015FC484680210022FDF710FC3046FDF755
:103FA00005F930460221FCF785FB40F6B830FDF7F5
:103FB00095F940F27430A9F5DE31C2F200004FF4F9
:103FC000E1370C25C0E90017C0E90244C0E9044507
:103FD000C0E90644FEF7E4FB20B1EFF3108072B6AF
:103FE000FEE700BF40F2B830A9F5DC31C2F20000B4
:103FF0000022C0E90017C0E90222C0E90425C0E997
:104000000622FEF7CDFB28B1EFF3108072B600BF99
:10401000FEE700BF40F2B81A40F2B830C2F2000A20
:10402000C2F20000514608220827FEF76FFC4FF449
:10403000FA60FDF753F90420C8F81000A720C8F86B
:10404000000040F23C105446C2F2000044F8107FD9
:1040500000F1640B00253046414622465B460827A6
:10406000C8E90255FCF73EFB1420FDF737F930464E
:10407000414622465B46FCF735FB1420FDF72EF93E
:104080003046414622465B46FCF72CFB1420FDF7E8
:1040900025F93046414622465B46FCF723FB1420B7
:1040A000FDF71CF93046414622465B46FCF71AFBF9
:1040B0001420FDF713F90A20FDF710F90420C8F8C1
:1040C0001000C720C8F800003046414622465B4633
:1040D00027600827C8E90255FCF704FB1420FDF708
:1040E000FDF83046414622465B46FCF7FBFA1420B9
:1040F000FDF7F4F83046414622465B46FCF7F2FAFB
:104100001420FDF7EBF83046414622465B46FCF7AB
:10411000E9FA1420FDF7E2F83046414622465B46B4
:10412000FCF7E0FA1420FDF7D9F80A20FDF7D6F8DD
:104130000420C8F81000E720C8F8000030464146C7
:1041400022465B462760C8E902550427FCF7CAFAF5
:104150001420FDF7C3F83046414622465B46FCF783
:10416000C1FA1420FDF7BAF83046414622465B46B4
:10417000FCF7B8FA1420FDF7B1F830464146224664
:104180005B46FCF7AFFA1420FDF7A8F8304641462D
:1041900022465B46FCF7A6FA1420FDF79FF80A209A
:1041A000FDF79CF80820206040F20710C8F80000D6
:1041B0003046414622465B46C8E90255C8F81070B1
:1041C000FCF790FA1420FDF789F830464146224664
:1041D0005B46FCF787FA1420FDF780F8304641462D
:1041E00022465B46FCF77EFA1420FDF777F830464E
:1041F000414622465B46FCF775FA1420FDF76EF83F
:104200003046414622465B46FCF76CFA1420FDF727
:1042100065F80A20FDF762F8082020600420C8F83D
:10422000100040F22710C8F80000304641462246F0
:104230005B460827C8E90255FCF754FA1420FDF73D
:104240004DF83046414622465B46FCF74BFA1420B7
:10425000FDF744F83046414622465B46FCF742FAF9
:104260001420FDF73BF83046414622465B46FCF7FA
:1042700039FA1420FDF732F83046414622465B46B3
:10428000FCF730FA1420FDF729F80A20FDF726F88C
:104290000420C8F8100040F24710C8F8000030466B
:1042A000414622465B462760C8E90255FCF71AFAE8
:1042B0001420FDF713F83046414622465B46FCF7D2
:1042C00011FA1420FDF70AF83046414622465B46B3
:1042D000FCF708FA1420FDF701F830464146224663
:1042E0005B46FCF7FFF91420FCF7F8FF3046414627
:1042F00022465B460024FCF7F5F91420FCF7EEFF9C
:104300000A20FCF7EBFF00255746082047F8100F5E
:104310000420C8F8100005F22720C8F80000304635
:1043200041463A465B46C8E90244FCF7DBF91420F3
:10433000FCF7D4FF304641463A465B46FCF7D2F9DB
:104340001420FCF7CBFF304641463A465B46FCF76B
:10435000C9F91420FCF7C2FF304641463A465B4695
:10436000FCF7C0F91420FCF7B9FF304641463A4645
:104370005B46FCF7B7F91420FCF7B0FF3046414626
:104380003A465B46FCF7AEF91420FCF7A7FF30462F
:1043900041463A465B46FCF7A5F91420FCF79EFF20
:1043A000304641463A465B46FCF79CF91420FCF740
:1043B00095FF304641463A465B46FCF793F9142098
:1043C000FCF78CFF304641463A465B46FCF78AF9DB
:1043D0001420FCF783FF4FF4FA70FCF77FFF2035C1
:1043E000802D91D14846402101224FF00108FDF770
:1043F000E5F9484680210122FDF7E0F940F2C007C7
:1044000040F25005C2F20007C2F20005002403E0AA
:10441000FFF7D4F8FEF7E4FA48464FF40061FDF7E1
:10442000C7F99AF800103870AA2919D19AF807002C
:10443000FF2815D19AF806009AF802207870B8780B
:104440009AF801109AF803309AF80460002A18BF0D
:104450001046B8709AF805007B71BE713871F9701A
:104460009AF81900082818BF2C709AF81A00082822
:1044700018BF2C709AF81B00082818BF2C709AF8E7
:104480001C00082818BF2C70FEF7FAFC28780028BA
:10449000BED1484640210022FDF790F948468021D0
:1044A0000022FDF78BF9FEF77FFEFBF7CBFF4846B6
:1044B0004021012285F80080FDF780F948468021DF
:1044C0000122FDF77BF9A7E7F1EE100A4FF6FF7125
:1044D000C0F2C03120EA010040F04070E1EE100A65
:1044E00070470000000000000000010203040607FE
:1044F0000809000000000102030400002045000834
:104500000000002060000000000200088045000854
:1045100060000020C00900001C020008000000002C
:1045200001050607010102015C01EB01990121016E
:10453000BD01BF027D00D401000020420000803F89
:104540000000803FCDCC4CBE0000803F0000803F8B
:104550000000803F110000000F0000000F0000006D
:1045600014000000000040400100000010000000A6
:10457000010000000024F40000C00008000000005A
:04000005080001C529
:00000001FF
