:020000040800F2
:10000000200A002065020008852B0008D529000879
:10001000812B000811040008A93C00080000000022
:100020000000000000000000000000008D32000809
:100030004505000800000000512F00083138000875
:100040007F0200087F0200087F0200087F0200088C
:100050007F0200087F0200087F0200087F0200087C
:100060007F0200087F0200087F0200087F0200086C
:100070007F0200087F0200087F0200087F0200085C
:100080007F0200087F0200087F0200087F0200084C
:1000900015040008210400087F0200087F02000800
:1000A0007F0200087F0200087F0200087F0200082C
:1000B0007F0200087F0200087F0200087F0200081C
:1000C0007F0200087F0200087F0200087F0200080C
:1000D0007F0200087F0200087F0200087F020008FC
:1000E0007F0200087F0200087F0200087F020008EC
:1000F0007F0200080D3900087F0200087F02000817
:100100007F0200087F0200087F0200087F020008CB
:100110009D3A0008A93A00087F0200087F02000803
:100120007F0200087F0200087F0200087F020008AB
:100130007F02000800000000000000007F020008AD
:100140002D040008390400087F0200087F0200081F
:100150007F0200087F0200087F0200087F0200087B
:100160007F0200087F0200087F0200087F0200086B
:100170007F0200087F0200087F02000800000000E4
:10018000000000007F0200080000000000000000E6
:100190007F02000800000000000000007F0200084D
:1001A0000000000000000000000000007F020008C6
:1001B0007F0200087F0200087F0200087F0200081B
:1001C0007F02000800F002F800F03CF80AA090E876
:1001D000000C82448344AAF10107DA4501D100F002
:1001E00031F8AFF2090EBAE80F0013F0010F18BF93
:1001F000FB1A43F001031847C4410000E44100002A
:10020000103A24BF78C878C1FAD8520724BF30C842
:1002100030C144BF04680C60704700000023002414
:1002200000250026103A28BF78C1FBD8520728BF06
:1002300030C148BF0B6070471FB504F0A5F81FBD63
:1002400010B510BD00F0A9F81146FFF7F5FF03F057
:100250002DFD00F0C7F803B4FFF7F2FF03BC00F078
:10026000CFF800000948804709480047FEE7FEE74D
:10027000FEE7FEE7FEE7FEE7FEE7FEE7FEE7FEE756
:1002800004480549054A064B70470000F938000844
:10029000C501000820040020200A002020060020BC
:1002A0002006002053EA020C00F069802DE9F04B93
:1002B0004FF00006002B1FBFB3FA83F503FA05F4D5
:1002C00024FA05F65E4012BF1643B2FA82F502FA2E
:1002D00005F4C5F120051EBF22FA05FC44EA0C0412
:1002E000203556EA044C4FEA144418BF641C4FF002
:1002F00000084FF00009904271EB030C39D300293C
:1003000019BFB1FA81F701FA07F6B0FA80F700FADF
:1003100007F6C7F120071EBF20FA07FC46EA0C06C5
:100320002037B6FBF4FCA7EB0507103F07F01F0BC7
:10033000CBF120062CFA06F60CFA0BFB44BFB346B1
:100340000026202FA4BF5E464FF0000B5BEA060C90
:1003500008BF4FF0010B19EB0B0948EB0608ABFB8C
:10036000027C06FB02CC0BFB03CCC01B71EB0C0127
:10037000C1E70B46024641464846BDE8F08B13B53F
:10038000084318BF4FF0FF300146AFF30080BDE8CF
:100390001C407047704770477047754600F02CF856
:1003A000AE4605006946534620F00700854618B062
:1003B00020B5FFF765FFBDE820404FF000064FF085
:1003C00000074FF000084FF0000BAC46ACE8C00946
:1003D000ACE8C009ACE8C009ACE8C00921F00701ED
:1003E0008D46704710B50446AFF300802046BDE847
:1003F0001040FFF730BF0000004870476000002049
:1004000001491820ABBEFEE726000200704700003D
:10041000FEE7000040F27C20C2F2000000F0C2BA09
:1004200040F27C20C2F2000000F0BCBA40F254203E
:10043000C2F2000000F0B6BA40F25420C2F200004E
:1004400000F0B0BA70B540F2B815C2F20005687E8F
:1004500040F2202440F23C160828C2F20004C2F206
:10046000000639D1A87E082850D1E87E082816D089
:100470000420002120617620C4E90211206004F1EB
:10048000340005F1100206F16403214600F02AF958
:10049000012000F023FF4FF4FA6000F01FFF287FD7
:1004A000082808BF70BD0420002120619620C4E9FF
:1004B0000211206004F1340005F1100206F164031A
:1004C000214600F00FF9012000F008FF4FF4FA6018
:1004D000BDE8704000F002BF0420002120613620FA
:1004E000C4E90211206004F1340005F1100206F1A4
:1004F0006403214600F0F6F8012000F0EFFE4FF40F
:10050000FA6000F0EBFEA87E0828AED0042000219F
:1005100020615620C4E90211206004F1340005F185
:10052000100206F16403214600F0DCF8012000F01F
:10053000D5FE4FF4FA6000F0D1FEE87E0828AED078
:1005400096E7000070470000F0B581B040F2FC373C
:10055000044643F60C46C2F200070020C4F202062D
:10056000F86101F031F93168C9031DD43068C00762
:100570001CBF01203060306810F4F97F30D0306843
:10058000C00635D4306880063BD43068400641D47C
:100590003068000647D43068C0054DD43068800705
:1005A00054D4012001B0F0BDF4B10546601C0DD15A
:1005B0003068C003DAD53068C00344BF30685FEAF2
:1005C000C030D3D53068C003F2D4CFE701F0FCF8D7
:1005D000401BA04208D83068C003F7D4C6E700BF6C
:1005E000002001B0F0BD00BF032001B0F0BD00BF8E
:1005F000F86940F01000F861102030603068800623
:10060000C3D5F86940F00800F861202030603068F8
:100610004006BDD5F86940F00400F8614020306024
:1006200030680006B7D5F86940F00200F861802014
:1006300030603068C005B1D5F86940F00100F8615C
:100640004FF48070306030688007AAD5F86940F0B8
:100650002000F86102203060012001B0F0BD0000F0
:10066000B0B586B00C46054600F0ACFF0020019006
:100670000220059048F20000C0F6000003218542E8
:1006800008BF022101200391049001A8694600F0EF
:1006900039FE28B1EFF3108072B600BFFEE700BF4D
:1006A000E31701202946224600F0FCFE00F0F0FE90
:1006B00006B0B0BD90F82020013A012A08D80068A1
:1006C00000F114020020136819431160704700BF45
:1006D00000F1240201204FF48021136819431160B6
:1006E0007047000010B590F820E0D0F800C0AEF1DF
:1006F000010EBEF1010FDCF808E011D81EF0E05F3A
:1007000018D0CEF3016EBEF1030F1DD100F124010C
:1007100001204FF400020B681A430A6010BD00BFAD
:1007200000F1240101204FF480220B681A430A6073
:1007300010BD00BF00F1240101204FF400120B682E
:100740001A430A6010BD00BF012000FA0EF01860C5
:10075000886818B14B6840EAC30001E008684005AA
:10076000D1E9033403430CEB0E10C0F88031C0F81C
:100770008441097D012905D100F5C2710B6843F45C
:1007800080730B605168C0F88C11126800F5C0715D
:10079000C0F88821002001220B681A430A6010BDAE
:1007A000B0B590F82020013A012A2FD846F2006017
:1007B000C4F20000026842F001020260026822F402
:1007C0007C520260D1F814E0CC694A6A0368012CBB
:1007D00043EA022202600EF01F024FF0010303FA07
:1007E00002F2C3696FEA020C23EA0203C36113D069
:1007F0002CBBC36803EA0C03C360CB688C8844EA53
:10080000034300EBCE0423640B4611E0416A41F43C
:10081000802141620120B0BDC3681343C3600B68EF
:100820008C8844EA034300EBCE04236401F10C03FB
:100830008C681B8843EA044300EBCE04636443687E
:100840008D6943EA0204D1F810E0096A002D08BF5F
:1008500003EA0C0444604369BEF1000F43EA02045A
:1008600008BF03EA0C040129446102D1C1691143A4
:10087000C161016821F0010101600020B0BD0000EC
:100880007047000010B590F82040013C012C71D851
:10089000D0F800C0002977D0DCF81040A40777D04A
:1008A0000CEB011CDCF8B0410CF5D87E14F004040C
:1008B0009460DCF8B04119BFE4085460640D146022
:1008C000DEF80040002904F00204D460DCF8B441F2
:1008D00004F00F041461DCF8B441C4F307249461FC
:1008E000DCF8B4414FEA14445461DCF8B8211A70C2
:1008F000026802EB0112D2F8B8214FEA12225A70B4
:10090000026802EB0112D2F8B8214FEA12429A7043
:10091000026802EB0112D2F8B8214FEA1262DA70D3
:10092000026802EB0112D2F8BC211A71026802EBD4
:100930000112D2F8BC214FEA12225A71026802EB6E
:100940000112D2F8BC214FEA12429A71026802EBFE
:100950000112D2F8BC214FEA1262DA71006814BFAA
:1009600000F1100100F10C01002020220B681A4355
:100970000A6010BD00F1240101204FF480220B68B1
:100980001A430A6010BD00BFDCF80C40A40787D1F1
:1009900000F1240101204FF400120B681A430A6091
:1009A00010BD00002DE9F04F81B004460068466993
:1009B000D0F804908768D0F80CB0D0F810A0D0F828
:1009C0001880F10704D1002530071DD424E000BFB2
:1009D000F90710D00121BA07816009D4780700F126
:1009E000AF80380700F1B680204600F00DFC02E031
:1009F000204600F00BFC0025F80500F18780F80385
:100A000000F1B180300707D51BF0100004D020683A
:100A100045F400751021C160700708D51BF008006F
:100A200005D020680821C160204600F0FBF9B0071E
:100A300006D52068C068800702D0204600F0F4F98F
:100A4000700607D51AF0100004D0206845F48065C0
:100A500010210161B00608D51AF0080005D0206801
:100A600008210161204600F09BFBF00606D52068B6
:100A70000069800702D0204600F094FBB00308D53F
:100A800019F0100005D0206810214160204600F0C8
:100A90008BFBF00308D519F0080005D02068082169
:100AA0004160204600F0BCFB300440F19B805FEACF
:100AB000497040F1948006F4807008EA10202843C1
:100AC0005FEA8871014648BF41F00201B20558BF94
:100AD00001465FEA48700D4648BF45F004057005C1
:100AE00058BF0D46300540F17A8018F0700000F0D4
:100AF00076801038000905286CD8DFE800F003592B
:100B00005D61656945F0080564E000BF20684FF449
:100B10008071BA0581600BD4780515D438051DD4D1
:100B2000204600F075FBF8037FF56CAF1BE000BFBB
:100B3000204600F06FFBF8037FF564AF13E000BFC1
:100B40004FF4006558E700BF05F50055F8037FF541
:100B500059AF08E04FF480554EE700BF05F58045DA
:100B6000F8037FF54FAF20684FF48031BA038160FE
:100B70000AD4780310D4380314D4204600F04CFB78
:100B800030073FF541AF47E7204600F047FB30070D
:100B90003FF53AAF40E700BF05F5004530073FF5A8
:100BA00033AF39E705F5803530073FF52DAF33E733
:100BB00045F010050EE000BF45F020050AE000BF3B
:100BC00045F0400506E000BF45F0800502E000BFAB
:100BD00045F480752068816921F070018161206889
:100BE0000421416055B1606A40EA05012046616216
:100BF00001B0BDE8F04FFFF743BE00BF01B0BDE854
:100C0000F08F0000B0B5C8B1044690F8200010B9CC
:100C1000204600F071F82068016841F00101016090
:100C200000F0D2FD054600BF20684168C90707D122
:100C300000F0CAFD401B0B28F6D312E00120B0BD26
:100C4000016821F00201016000F0BEFD054600BF11
:100C50002068416889070DD500F0B6FD401B0B28C0
:100C6000F6D3606A052140F400306062012084F808
:100C70002010B0BD217E0268012922F0800208BF49
:100C800080320260617E0268012922F0400208BFC2
:100C900040320260A17E0268012922F0200208BFD2
:100CA00020320260E17E0268012922F0100218BFA2
:100CB00010320260217F0268012922F0080208BF79
:100CC00008320260617F0268012922F0040208BF35
:100CD00004320260D4E901C2D4E9033561691A43E0
:100CE0002A431143ACF101021143C16100200121EB
:100CF000606284F82010B0BDB0B586B0006846F6DA
:100D00000002C4F2000200219042CDE90411CDE9B5
:100D10000211019130D046F20041C4F20001884234
:100D20007DD140F2D021C2F200010A6843F64000B2
:100D3000C4F20200531C0B6052B9002100910168FB
:100D400041F000710160016801F0007100910099AB
:100D50000021009150F8101C152441F0020140F8C8
:100D6000101C50F8100C142500F0020000900098A0
:100D70004FF4407033E000BF43F64000C4F202007D
:100D80000091016841F080610160016801F08061BB
:100D90000091009940F2D021C2F200010A68531C70
:100DA0000B6052B900210091016841F000710160AF
:100DB000016801F00071009100990021009150F844
:100DC000101C412441F0020140F8101C50F8100C96
:100DD000402500F00200009000984FF44050019030
:100DE0000220029000200390032004900920059027
:100DF00040F20040C4F2020001A900F0FBFB2846CB
:100E00000021002200F060FD284600F04DFD204644
:100E10000021002200F058FD204600F045FD06B0FC
:100E2000B0BD000070470000B0B540F2202540F290
:100E30003C14C2F20005C2F2000405F1340005F1D1
:100E4000180204F168030021FFF71CFD40F2C00105
:100E5000C2F20001487AAB6901304872580903F0C8
:100E60001F02053B122B8882CA8200F2DF80DFE876
:100E700013F0130061009F00DD00DD00DD00DD00E8
:100E8000DD00DD00DD00DD00DD00DD00DD00DD007A
:100E9000DD00DD00DD00050140F27C22C2F200022F
:100EA000B2F84030B4F868500133A2F840302ABAA2
:100EB000120C0A8300EE102A40F20002C2F2000275
:100EC0001289B8EE400A01EE102AB8EE411A30EE4F
:100ED000410A9FEDAF1A9FEDAF2A30EE011AB4EE32
:100EE000420AF1EE10FAC8BFB0EE410A9FEDAA1A0D
:100EF0009FEDAA2A30EE011AB4EE420AF1EE10FA82
:100F0000B8BFB0EE410AB6EE001A20EE010A81ED3C
:100F10001D0A9DE000EE101A40F2B812BDEEC00AA4
:100F2000C2F20002216710EE101A12FA80F080F867
:100F30004010B0BD40F27C20C2F20000B0F8422068
:100F4000B4F868300132A0F8422018BA000C488387
:100F500000EE100A40F20000C2F200004089B8EE34
:100F6000400A01EE100AB8EE411A30EE410A9FED38
:100F7000881A9FED882A30EE011AB4EE420AF1EE8B
:100F800010FAC8BFB0EE410A9FED831A9FED832A85
:100F900030EE011AB4EE420AF1EE10FAB8BFB0EE2C
:100FA000410AB6EE001A20EE010A81ED1E0AB0BD1C
:100FB00040F27C20C2F20000B0F84420B4F868305F
:100FC0000132A0F8442018BA000C888300EE100A01
:100FD00040F20000C2F200008089B8EE400A01EE43
:100FE000100AB8EE411A30EE410A9FED691A9FEDE2
:100FF000692A30EE011AB4EE420AF1EE10FAC8BFC7
:10100000B0EE410A9FED641A9FED642A30EE011A9A
:10101000B4EE420AF1EE10FAB8BFB0EE410AB6EEF5
:10102000001A20EE010A84ED000AB0BD511E1629F7
:1010300000F2AC80DFE801F00EAA62740CAAAAAA42
:1010400076AAAAAAAAAAAAAAAAAAAA8C9EAAA8000A
:10105000A16E5FE740F27C2281B2C2F2000202EB95
:1010600041010A8D01320A8540F2B81294F86C10E1
:10107000C2F2000212FA80F00176B0BD40F27C208C
:10108000C2F20000B0F84610B4F868200131A0F8B0
:10109000461010BA000C00EE100A40F20000C2F236
:1010A0000000C08AB8EE400A01EE100AB8EE411AFC
:1010B00084ED100A30EE410A9FED351A9FED352A76
:1010C00030EE011AB4EE420AF1EE10FAC8BFB0EEEB
:1010D000410A9FED311A9FED312A30EE011AB4EE2C
:1010E000420AF1EE10FAB8BFB0EE410AB6EE001AAD
:1010F00020EE010A84ED0B0AB0BD00BFE16E40F2A4
:10110000B81200EE101ABDEEC00AC2F2000221674A
:1011100010EE101A12FA80F080F82C10B0BD00BF4B
:10112000E16EF7E6E16E82B240F2D423C0B2C2F2C1
:1011300000030828216743F8221018BFB0BDA06E35
:1011400000EE100ABDEEC00A606284ED0A0AB0BD6E
:10115000E16E40F2B81200EE101ABDEEC00AC2F203
:101160000002216710EE101A12FA80F080F8541075
:10117000B0BD00BFE16E40F2D42280B2C2F20002E4
:10118000216742F82010B0BDA06E6060B0BD00BF06
:10119000000034C40000B443000034440080B3C3F2
:1011A000704700007047000070470000B0B504466B
:1011B00090F8200001281DD1022084F8200020682A
:1011C000016821F00101016000F0FEFA054600BF50
:1011D00020684068C00713D000F0F6FA401B0B28C7
:1011E000F6D3606A40F400306062052084F8200085
:1011F0000120B0BD606A40F4002060620120B0BDF3
:1012000000206062B0BD0000704700007047000021
:1012100070470000704700007047000070470000F2
:101220007047000070B5866D044600F0CDFA94F862
:10123000351002292ED105462068216C026822F063
:1012400016020260426922F08002426109B9A16C73
:1012500019B1016821F008010160016821F0010164
:1012600001600068C00708D000F0AEFA401B0528F6
:1012700018D820680068C007F6D1E06D3F2101FA58
:1012800000F0B060012084F835000020002184F8CF
:10129000341070BD802060650120002184F8341076
:1012A00070BD00BF20206065032084F83500002158
:1012B00084F8341070BD000090F83510022909D16F
:1012C000052180F835100068016821F001010160F6
:1012D000002070478021416501207047B0B5044669
:1012E00000F072FA054640F24800C2F200000078B1
:1012F000611C18BF044400BF00F066FA401BA04206
:10130000FAD3B0BD2DE9F04381B040F2FC38C2F20F
:10131000000898F81820012A04D1022001B0BDE885
:10132000F08300BF0546012088F818004CF25030C9
:101330008946FFF709F928B1002188F8181001B093
:10134000BDE8F0834FF0FF30C9F80000286843F68D
:1013500010470128C4F202071CD12869396800022D
:1013600021F440713960396880B241F0040139607C
:101370003968084340F4803038604CF25030FFF751
:10138000E3F8396821F00401396057F8101C890529
:101390003BD452E0D5E902603044864230D2F400BA
:1013A00028694FF44072C1B2032939684FEA00201E
:1013B00021F440713960396838BF82B241EA0200D5
:1013C0003860386820F0F80038603868204340F012
:1013D00002003860386840F4803038604CF2503099
:1013E000FFF7B2F83968002821F0FA01396047D1D7
:1013F000D5E9020101360844864204F10804CFD33E
:10140000002057F8101C890517D557F8101C21F437
:10141000007147F8101C57F8101C41F4006147F8A0
:10142000101C57F8101C21F4006147F8101C57F8E5
:10143000101C41F4007147F8101C57F8101C4905A6
:101440007FF57AAF57F8101C21F4806147F8101C23
:1014500057F8101C41F4805147F8101C57F8101C25
:1014600021F4805147F8101C57F8101C41F480619A
:1014700047F8101C002188F8181001B0BDE8F0836F
:10148000C9F8006057F8101C8905BED4D5E70000E4
:1014900043F61041C4F20201086840F00042002007
:1014A0000A6070472DE9F04381B040F2FC34C2F28B
:1014B00000049046227E012A04D1022001B0BDE83A
:1014C000F08300BF0746012020764CF250301E46C4
:1014D0000D46FFF739F828B10021217601B0BDE8AB
:1014E000F08300BF43F61049022FC4F2020917D05F
:1014F000012F2BD0002F3FD1D9F8000020F44070ED
:10150000C9F80000D9F80000C9F80000D9F80000B7
:1015100040F00100C9F8000085F8008043E000BFFA
:10152000D9F8000020F44070C9F80000D9F8000094
:1015300040F40070C9F80000D9F8000040F0010044
:10154000C9F80000C5F800802DE000BFD9F8000000
:1015500020F44070C9F80000D9F8000040F4807011
:10156000C9F80000D9F8000040F00100C9F80000F7
:10157000A5F8008017E000BFD9F8000020F4407003
:10158000C9F80000D9F8000040F44070C9F8000024
:10159000D9F8000040F00100C9F80000C5F800804B
:1015A000BFF36F8F6E604CF25030FEF7CDFFD9F86D
:1015B000001021F00101C9F800100021217601B0CE
:1015C000BDE8F08343F60440C4F20200C168B1F103
:1015D000FF3FC4BF0020704740F22311C4F267519F
:1015E000016048F6AB11CCF6EF510160C068C00F46
:1015F000704700002DE9F04F82B000F13E4241F605
:10160000000502F1FF77C4F2020507224FEAB72670
:10161000A84208BF0622062E38BF4FEAB7224FF075
:10162000010A002400274FF00008009208E000BFE4
:10163000023708F10108202F04F1040400F0B480FF
:101640000E680AFA08F916EA090FF1D0D1F804A0D9
:101650000AF0030BABF10106012E17D803228668AE
:1016600002FA07FECA6826EA0E06BA4032438260D2
:101670004268CAF3001522EA090205FA08F54FEAA2
:10168000480C6FEA0E062A4342600BE00322BA4080
:10169000D643BBF1030FBC4604D1BC464FF0030B4D
:1016A00022E000BFC2688D68324005FA0CF52A437B
:1016B000BBF1020FC26017D16FF0030202EA5802B9
:1016C000024404F01C030F25D2F820E005FA03FAC7
:1016D0000D692EEA0A0E05FA03F343EA0E031362BC
:1016E000D1F804A00AF0030B02680BFA0CF33240A5
:1016F0001A431AF4403F4FF0010A026098D00022CA
:1017000043F644030192C4F202031A6843F6004E02
:1017100042F480421A601A68C4F2010E02F4804258
:101720000192019A28F003024FF6084C7244CFF65A
:10173000FF7C52F80C3004F00C060F25B540AB438B
:10174000009D05FA06F6334342F80C30DEF8082017
:101750004B6842EA090643F60C4CDD0258BF22EA08
:101760000906CEF80860C4F2010CDCF800209D02E6
:1017700042EA090658BF22EA0906CCF80060DEF802
:1017800004209D0342EA090658BF22EA0906CEF862
:101790000460DEF80020DB0342EA090658BF22EAB3
:1017A0000906CEF8006043E702B0BDE8F08F000004
:1017B0000069084018BF012070470000002A08BFD8
:1017C000090481617047000040F21C40C2F2000031
:1017D0000068704740F2480040F21C41C2F200002D
:1017E000C2F2000100780A681044086070470000E7
:1017F00080B543F60040C4F20200016841F4007174
:101800000160016841F480610160016841F4807108
:101810000160032000F084F80F2000F005F800F0CC
:1018200027F8002080BD000070B540F24806C2F2E3
:10183000000640F254013278C2F200014FF47A738C
:101840000968B3FBF2F20446B1FBF2F1084600F07E
:10185000B7FB0F2C4FF0010508D838B94FF0FF3017
:1018600021460022002500F02FF87460284670BD44
:1018700082B0002043F640010190C4F202014A68A0
:1018800042F480424A604A6802F480420192019A1E
:101890000090086840F080500860086800F08050B0
:1018A0000090009802B07047002848BF704700F0D1
:1018B0001F01012202FA01F14EF200124009CEF29C
:1018C000000242F82010704710B54EF60C5CCEF2C4
:1018D000000CDCF80030C3F3022E8EF00704042C59
:1018E00028BF0424BEF103034FF0FF3E0EFA04F4B8
:1018F00038BF0023A14399400EFA03F39A4300F046
:101900000F03043B1143634409010C3300F16042AF
:10191000B0F1FF3FC8BF02F56443197010BD00006D
:101920004EF60C51CEF200010A684FF6FF031A4042
:1019300060F30A2242F0806040F0FD70086070475A
:1019400070B582B00020019043F64000C4F202005E
:101950000168402641F0805101600068C4F20E2603
:1019600000F080500190019847F204050120C4F274
:1019700000053060FFF728FF044600BF2868C00359
:1019800006D4FFF721FF001BB0F57A7FF6D90EE0F1
:1019900001207060FFF718FF044600BF286880032D
:1019A00008D4FFF711FF001BB0F57A7FF6D90320AA
:1019B00002B070BD002002B070BD00002DE9F04102
:1019C000002800F08B8043F60808C4F202080446A1
:1019D000D8F8F8030D4600F00F00884207D288F8C7
:1019E000F853D8F8F80300F00F00A84276D1206829
:1019F000810717D5410705D5D8F8001041F4E0510B
:101A0000C8F80010010705D5D8F8001041F460416E
:101A1000C8F80010D8F80010A26821F0F0011143B6
:101A2000C8F80010C0073FD1D8F8F80300F00F0045
:101A3000A84207D988F8F853D8F8F80300F00F0047
:101A4000A8424BD12068410707D5D8F80010E268BA
:101A500021F4E0511143C8F80010000708D5D8F868
:101A60000000216920F4604040EAC100C8F800008D
:101A700000F07CF8D8F8001044F2A232C1F3031150
:101A8000C0F60002515C40F2540220FA01F140F22B
:101A90004C00C2F200000068C2F200021160FFF7C1
:101AA000C3FE0020BDE8F0816068811E022907D2D4
:101AB00058F8081C89015CBF0120BDE8F08111E0E5
:101AC000012807D158F8081C89035CBF0120BDE834
:101AD000F08107E058F8081C890703D40120BDE80D
:101AE000F08100BFD8F8001021F003010843C8F8C6
:101AF0000000FFF769FE064641F28837D8F800007B
:101B0000616800F00C00B0EB810F8DD0FFF75CFE38
:101B1000801BB842F2D90320BDE8F08140F25400A6
:101B200043F60801C2F20000C4F20201006809682D
:101B300044F2B232C1F38221C0F60002515CC840C7
:101B40007047000040F2540043F60801C2F2000062
:101B5000C4F202010068096844F2B232C1F34231B2
:101B6000C0F60002515CC8407047000010B543F653
:101B70000404C4F202046068C0F3810142F2004030
:101B8000C0F2F400DFE801F04402081841F200203E
:101B9000C0F27A0010BD00BF216801F03F02216849
:101BA00023684902C3F3881116D4A1FB0001002366
:101BB000FEF778FB17E000BF216801F03F022168C3
:101BC00023684902C3F3881116D4A1FB0001002346
:101BD000FEF768FB17E000BF41F20020C0F27A0078
:101BE0004843B0FBF2F021680222C1F3014102EB4D
:101BF0004101B0FBF1F010BD41F20020C0F27A00CB
:101C00004843B0FBF2F02168C1F30271B0FBF1F080
:101C100010BD00002DE9F04182B0002800F0968050
:101C20000446007843F60006C007C4F202062BD033
:101C3000B06800F00C00042820D0B06800F00C0060
:101C4000082802D17068400218D4B06800F00C0077
:101C50000C2802D17068400210D46068B0F5803F53
:101C600007D0B0F5A02F40F03B81306840F48020D1
:101C70003060306840F4803030603BE13068800391
:101C800002D56068002861D02078800722D5B0682E
:101C900010F00C0F11D0B06800F00C00082802D131
:101CA0007068400209D5B06800F00C000C2840F0C4
:101CB0009F807068400200F19B803068800702D5E9
:101CC000E068012842D13068216920F0F80040EA3C
:101CD000C1003060207800073CD42078400751D400
:101CE000A5698DB3B06800F00C00082840F0A8800A
:101CF000012D2BD07068E16900F480028A4225D161
:101D0000216A00F03F028A4220D147F6C071626A20
:101D10000140B1EB821F19D1A26A0023CFF6FF73F5
:101D200003EBC23200F440316FF30F0291420DD148
:101D3000E16A00F07062B2EB016F07D1216B00F035
:101D4000E040B0EB017F01D1002035E1012002B07D
:101D5000BDE8F0816069002840F20000C4F247202D
:101D60005ED00121C0F8801EFFF72EFD054600BFA2
:101D7000706F8007B1D4FFF727FD401B0228F7D909
:101D8000C5E000BF306C10F080580AD100200190EF
:101D9000306C40F080503064306C00F08050019026
:101DA000019847F20007C4F200073868C00511D453
:101DB000386840F480703860FFF706FD054600BFC4
:101DC0003868C00506D4FFF7FFFC401B0228F7D98E
:101DD0009DE000BFA068012805D0052852D1306FD2
:101DE00040F004003067306F40F00100306753E08E
:101DF000E068002860D00020C4F247200121016083
:101E0000FFF7E2FC054600BF306880073FF55BAF97
:101E1000FFF7DAFC401B02284FF00300F4D9CBE0B7
:101E20000021C0F8801EFFF7CFFC0546706F8007C9
:101E30007FF553AFFFF7C8FC401B0228F6D966E0D8
:101E40000027C4F2472700203866FFF7BDFC022DAB
:101E500005460BD1306880015ED5FFF7B5FC401B0D
:101E600002284FF00300F5D9A6E000BF30688001DA
:101E70007FF56AAFFFF7A8FC401B02284FF0030074
:101E8000F4D999E0316F002821F001013167316FF9
:101E900021F00401316765D0FFF796FC054641F259
:101EA000883700BF306F80076ED4FFF78DFC401B72
:101EB000B842F7D92BE000BF0020C4F24720002130
:101EC0000160FFF781FC0546306880077FF502AFAF
:101ED000FFF77AFC401B02284FF00300F4D96BE0B7
:101EE0003168002821F480313160316821F480218B
:101EF000316053D0FFF768FC054600BF30688003AF
:101F00003FF5C2AEFFF760FC401B6428F6D9032002
:101F100002B0BDE8F08100BF04F11C052FCD246B99
:101F200008430021CFF6FF7140EA821001EBC33174
:101F30006FF30F0140EA0560084340EA04707060E7
:101F400001203866FFF740FC044600BF306880017E
:101F50003FF5FAAEFFF738FC001B02284FF00300F4
:101F6000F4D929E0FFF730FC054641F2883700BF7D
:101F7000306F800708D5FFF727FC401BB8424FF0B1
:101F80000300F5D918E000BFB8F1000F7FF4A8AE48
:101F9000306C20F080503064A2E600BFFFF714FCE4
:101FA0000546306880037FF56FAEFFF70DFC401BE0
:101FB00064284FF00300F4D902B0BDE8F0810000BE
:101FC000411E0020B0EB116F1CBF012070474EF284
:101FD0001002CEF2000251604EF62351CEF2000103
:101FE000F0230B700721906011607047704700006C
:101FF00070470000002804BF0120704710B5044658
:1020000090F83D0028B9002084F83C00204600F0FC
:102010001FF8022084F83D002068211D01F0A0FC7B
:10202000012084F8460084F83E0084F83F0084F8DC
:10203000400084F8410084F8420084F8430084F8AA
:10204000440084F8450084F83D00002010BD0000E5
:1020500080B582B0006842F20001C4F200018842FB
:102060001CBF02B080BD0020019043F64000C4F2C6
:1020700002000168002241F48071016000680021C3
:1020800000F48070019001982D20FFF71DFC2D2099
:1020900002B0BDE88040FFF707BC000070470000B9
:1020A00010B5016804460869800744BFC8685FEA44
:1020B000807039D40869400744BFC8685FEA40703F
:1020C0003ED40869000744BFC8685FEA007045D481
:1020D0000869C00644BFC8685FEAC0604AD408699E
:1020E000C0071CBFC8685FEAC07051D1086900060C
:1020F00044BFC8685FEA006052D40869400644BF24
:10210000C8685FEA406053D40869800646BFC86863
:102110005FEA806010BD6FF0200220460A61BDE8D2
:102120001040FFF765BF00BF6FF00200086101209B
:1021300020778869800743D02046FFF7AFFF45E04E
:102140006FF00400086102202077886910F4407F56
:1021500040D02046FFF7A2FF42E000BF6FF008002A
:10216000086104202077C86980073DD02046FFF72A
:1021700095FF3FE06FF01000086108202077C869E4
:1021800010F4407F3AD02046FFF788FF3CE000BFC4
:102190006FF001000861204600F03EF82168A5E7D5
:1021A0006FF0800008612046FFF720FF2168A4E758
:1021B0006FF040000861204600F030F82168A3E786
:1021C000204600F025F8204600F024F82168002081
:1021D00020776FE7204600F01BF8204600F01AF841
:1021E0002168002020776CE7204600F011F8204697
:1021F00000F010F821680020207769E7204600F001
:1022000007F8204600F006F821680020207766E7EE
:1022100070470000704700007047000070470000E2
:102220007047000070470000B0B582B005680446F2
:102230002968EA68686901F02F03202B02F0200367
:1022400006D12BB1204602B0BDE8B04001F038BC49
:102250005FEA017C1EBF00F0010E02F4907010EBEB
:102260000E002FD1236B02EA0100C10618D5012B05
:1022700016D10020019028680190686801900198AB
:102280006869400628D4A08DE18DE28D002A1CBF2C
:10229000411A5FEA014040F0D58102B0B0BD00BFF5
:1022A000010600F1D1804006F7D5E868202120F032
:1022B0004000E860204684F83D1002B0BDE8B04020
:1022C00000F086BBC80718BF12F4807040F0D080C1
:1022D000480700F1D380D8E0A06B01684A6893B248
:1022E000002BDAD0A18D8B42D7D2E285C069B0F540
:1022F000807F00F0A08055E8030F216820F48070F3
:1023000041E80302F2B1206850E8030F216820F48D
:10231000807041E80302AAB1206850E8030F2168E9
:1023200020F4807041E8030262B1206850E8030F96
:10233000216820F4807041E803021AB1206850E857
:10234000030FDAE7206850E8050F216820F001004C
:1023500041E80502BAB3206850E8050F216820F073
:10236000010041E8050272B3206850E8050F2168BA
:1023700020F0010041E805022AB3206850E8050F6B
:10238000216820F0010041E80502002ADAD11AE0B4
:10239000206850E8050F216820F0400041E8050260
:1023A000DAB1206850E8050F216820F0400041E8CC
:1023B000050292B1206850E8050F216820F0400026
:1023C00041E805024AB1206850E8050F216820F075
:1023D000400041E80502002ADAD1202084F83E00BE
:1023E00000202063206850E8030F216820F01000CF
:1023F00041E80302DAB1206850E8030F216820F0B9
:10240000100041E8030292B1206850E8030F2168F0
:1024100020F0100041E803024AB1206850E8030FA1
:10242000216820F0100041E80302002ADAD1A06BF5
:10243000FEF7F8FEA18DE08D081A81B2204602B0A9
:10244000BDE8B040FFF7ECBE94F83D0021287FF4D2
:1024500024AFA068B0F5805F03D12069002800F0A8
:102460008781206A411C21620078686087E100BF93
:10247000206C40F001002064480706D5BEF1000F33
:1024800003D0206C40F002002064880706D5BEF11E
:10249000000F03D0206C40F004002064BCF1000F5A
:1024A00006D55EEA030003D0206C40F008002064EB
:1024B000206C00283FF4F1AE02EA0100800603D54B
:1024C000204601F0FDFA25686869216C00F04000A3
:1024D00001F00801401800F0AD8055E8030F00BF7F
:1024E000216820F4907041E80302D2B3206850E8DC
:1024F000030F216820F4907041E803028AB320683A
:1025000050E8030F216820F4907041E8030242B3C1
:10251000206850E8030F216820F4907041E803021E
:10252000FAB1206850E8030FDAE700BF206850E8EE
:10253000050F216820F0010041E80502DAB12068AA
:1025400050E8050F216820F0010041E8050292B132
:10255000206850E8050F216820F0010041E80502DD
:102560004AB1206850E8050F216820F0010041E8D9
:102570000502002ADAD1206B012824D1206850E816
:10258000030F216820F0100041E80302DAB120684F
:1025900050E8030F216820F0100041E8030292B1D7
:1025A000206850E8030F216820F0100041E8030282
:1025B0004AB1206850E8030F216820F0100041E87C
:1025C0000302002ADAD1202084F83E000020206394
:1025D00020684169490640F1C58050E8050F21682F
:1025E00020F0400041E80502002A00F0A9802068A0
:1025F00050E8050F216820F0400041E80502002A5C
:1026000000F09E80206850E8050F216820F040000F
:1026100041E80502002A00F09380206850E8050F89
:10262000216820F0400041E80502002A00F088807F
:102630002068D2E72046FFF7F5FD0020206402B0B5
:10264000B0BD00BF55E8030F226820F4907042E847
:102650000303D3B3206850E8030F226820F490707E
:1026600042E803038BB3206850E8030F226820F48C
:10267000907042E8030343B3206850E8030F2268D8
:1026800020F4907042E80303FBB1206850E8030F88
:10269000DAE700BF206850E8050F226820F001004B
:1026A00042E80503DBB1206850E8050F226820F0FE
:1026B000010042E8050393B1206850E8050F226845
:1026C00020F0010042E805034BB1206850E8050FF7
:1026D000226820F0010042E80503002BDAD1202017
:1026E00084F83E0000202063206850E8030F226831
:1026F00020F0100042E80303DBB1206850E8030F2C
:10270000226820F0100042E8030393B1206850E8EB
:10271000030F226820F0100042E803034BB1206849
:1027200050E8030F226820F0100042E80303002B5A
:10273000DAD189B2204602B0BDE8B040FFF770BDE3
:10274000A06B78B143F6B521C0F600010165FEF734
:10275000B3FD00283FF4A1ADA06B016D02B0BDE850
:10276000B0400847204602B0BDE8B040FFF75ABD70
:10277000206A30F8021B6FF35F2169602062E08CF1
:1027800001380104E0847FF488ADE86820F080001F
:10279000E860E86840F04000E86002B0B0BD0000CA
:1027A000002804BF0120704710B5044690F83D0092
:1027B00028B9002084F83C00204600F021F82420AD
:1027C00084F83D002068C16821F40051C1602046B2
:1027D00001F0F8F92068016921F490410161416933
:1027E00021F02A014161C16841F40051C16000201B
:1027F0002021206484F83D1084F83E1010BD0000B4
:10280000F0B587B0006845F20001C4F20001002471
:102810008842CDE90544CDE9034402942AD044F628
:102820000041C4F2000188426DD1002043F630011E
:102830000190C4F202010A69342442F400220A61C0
:102840000A6902F400220192019A01900A6842F09A
:1028500001020A600968022201F001010191019957
:102860000321CDE90320002002910591C4F202006A
:102870003CE000BF43F630000194C4F2020001695D
:10288000002741F4801101610169C4F2020701F4DB
:1028900080110191019901940168022541F0040120
:1028A00001600168032601F004010191019901947E
:1028B000016841F008010160006802A900F0080009
:1028C000019001984FF4805002900820069007F57F
:1028D0000060CDE903540596FEF78CFE0420CDE997
:1028E0000205CDE9044607F540603524082106912C
:1028F00002A9FEF77FFE204600210022FEF7E4FF3A
:102900002046FEF7D1FF07B0F0BD000090F83E3042
:10291000202B0BD100294FF0010318BF002A01D151
:102920001846704790F83C30012B01D102207047C7
:1029300000230363816222218285C285036480F8BB
:102940003E100269016880F83C301AB1C86840F452
:102950008070C8604869002340F001004861C86881
:1029600040F02000C86018467047000080B500683D
:1029700044F60041C4F20001884213D045F2000140
:10298000C4F20001884218BF80BD40F2B83040F266
:10299000B811C2F20000C2F200010822BDE8804076
:1029A000FFF7B4BF40F2B810C2F2000000F1080116
:1029B00040F27430C2F200000822FFF7A7FF40F295
:1029C000C000C2F20000817A0131817280BD000036
:1029D00070470000FEE700002DE9F04F81B040F2A3
:1029E000C008C2F2000898ED120A98ED141A40F2DD
:1029F0002024B4EE401A40F2B81940F23C1AF1EE2D
:102A000010FAC2F20004C2F20009C2F2000A35D084
:102A10004FF0000B042009F11005AD2104F134063C
:102A20000AF16407C4E9001B2061304621462A46AA
:102A30003B4684F814B089ED040AC4E902BBFDF7F3
:102A400051FE0120FEF74AFC304621462A463B460D
:102A5000FDF748FE0120FEF741FC304621462A469C
:102A60003B46FDF73FFE0120FEF738FCD8F8480052
:102A7000C9F810B0C9F814B0C8F8500098ED130A9E
:102A800098ED151AB4EE401AF1EE10FA35D04FF069
:102A9000000B042009F11005CD2104F134060AF1E0
:102AA0006407C4E9001B2061304621462A463B46A4
:102AB00084F814B089ED040AC4E902BBFDF712FEE4
:102AC0000120FEF70BFC304621462A463B46FDF727
:102AD00009FE0120FEF702FC304621462A463B460D
:102AE000FDF700FE0120FEF7F9FBD8F84C00C9F80D
:102AF00010B0C9F814B0C8F8540098ED160A98ED53
:102B0000171AB4EE401AF1EE10FA35D04FF0000B60
:102B1000042009F11005ED2104F134060AF16407DF
:102B2000C4E9001B2061304621462A463B4684F812
:102B300014B089ED040AC4E902BBFDF7D3FD0120FE
:102B4000FEF7CCFB304621462A463B46FDF7CAFD40
:102B50000120FEF7C3FB304621462A463B46FDF7DF
:102B6000C1FD0120FEF7BAFBD8F85800C9F810B033
:102B7000C9F814B0C8F85C0001B0BDE8F08F0000DF
:102B8000FEE70000FEE700002DE9F04F81B040F2C3
:102B9000C008C2F2000898F8021098F80100002955
:102BA00045D098F80020002A41D002283FD098F85C
:102BB000042098F80730934239D0042A0CD8DFE873
:102BC00002F00F03150303000020C4F2A000B1EED1
:102BD000040AC8F8280010E098ED0A0A0DE000BFCA
:102BE00000209FEDD90AC8F8280006E00020CCF2AA
:102BF000A000C8F82800B9EE040A012000F048FB44
:102C000098ED0A0A022000F043FB98ED0A0A03201F
:102C100000F03EFB98ED0A0A042000F039FB98F81A
:102C2000010098F8042098F8021088F8072040F274
:102C3000D422C2F2000292ED010AB0EE004AB4EED4
:102C4000440AB8EE005A92ED021AF1EE10FA4FF073
:102C50000003B4EE450A4FF0000792ED032A92ED0F
:102C6000043AB8BF0123F1EE10FAC8BF01273B4078
:102C7000B4EE441A0027F1EE10FAB8BF01273B402A
:102C8000B4EE451A0027F1EE10FAC8BF01273B4009
:102C9000B4EE442A0027F1EE10FAB8BF01273B40FA
:102CA000B4EE452A0027F1EE10FAC8BF0127B4EEB2
:102CB000443A00223B40F1EE10FA4FF00007B4EE28
:102CC000453AB8BF01273B40F1EE10FAC8BF0122D8
:102CD00040F200091A40C2F2000989F8002001EB15
:102CE00081010A2202EB810100EE101AB8EEC00A3F
:102CF000022889ED070A00F0238198F806009FED6D
:102D0000932A5A3801EE100AB8EEC13A83EE021A3D
:102D1000B9EE042A88ED0D3A21EE001AB4EE421AFB
:102D2000F1EE10FA88ED0E1A08DA31EE002A89ED7C
:102D30000A2A09F12C00B0EE401A15E0B1EE042A7F
:102D4000B4EE421AF1EE10FA06DD30EE411A89EDCA
:102D50000B1A09F1280005E009F12C00B0EE401A29
:102D600089ED0A0AB0EE402A98ED113A40F220248B
:102D7000B4EE423A40F2B81A40F23C11F1EE10FAC9
:102D8000C2F20004C2F2000AC2F2000180ED000AA1
:102D900068D044F248204FF0000BAAF816000AF160
:102DA000100508222F2004F1340701F16406C4E95C
:102DB000000B2261384621462A46334684F814B077
:102DC0008AED042AC4E902BBFDF78CFC0120FEF762
:102DD00085FA384621462A463346FDF783FC012012
:102DE000FEF77CFA384621462A463346FDF77AFC40
:102DF0000120FEF773FAD9F828000021C4F2482117
:102E0000CAE904014F20C4E9000B082020613846BC
:102E100021462A46334684F814B0C4E902BBFDF7C4
:102E200061FC0120FEF75AFA384621462A4633460D
:102E3000FDF758FC0120FEF751FA384621462A4694
:102E40003346FDF74FFC0120FEF748FA40F23C11F3
:102E5000D9F8280099ED0B1AC2F20001CAE904BBA7
:102E6000C8F8440099ED0C0AB4EE410AF1EE10FAEC
:102E700066D044F248204FF00008AAF816000AF184
:102E800010056F2004F1340701F164064FF0080BC0
:102E9000C4E90008384621462A46334684F814809F
:102EA0008AED041AC4E90288C4F810B0FDF71AFCD0
:102EB0000120FEF713FA384621462A463346FDF72D
:102EC00011FC0120FEF70AFA384621462A4633460D
:102ED000FDF708FC0120FEF701FAD9F82C000021CB
:102EE000C4F24821CAE904018F20C4E90008384629
:102EF00021462A46334684F81480C4E90288C4F87F
:102F000010B0FDF7EFFB0120FEF7E8F93846214647
:102F10002A463346FDF7E6FB0120FEF7DFF9384687
:102F200021462A463346FDF7DDFB0120FEF7D6F9A0
:102F3000D9F82C00CAF81080CAF81480C9F83000FB
:102F400001B0BDE8F08F00BF000000000000C842E3
:102F5000704700002DE9F04F81B02DED028B40F25B
:102F6000C009C2F2000999F80100022840F08781E7
:102F700099F8040099F8071040F23C188142C2F217
:102F8000000809D198ED050A98ED071AB4EE401A29
:102F9000F1EE10FA30D16EE004281ED8DFE800F020
:102FA00004080E14180000BF0021C8F8081012E031
:102FB0000021CCF2A011C8F808100EE00021C4F2E4
:102FC000A011C8F8081008E00021C4F2202102E096
:102FD0000021CCF22021C8F80C1098ED020A89F8E3
:102FE000070088ED050A88ED060A98ED071AB4EE89
:102FF000401AF1EE10FA3ED040F2202440F2B81B05
:10300000C2F20004C2F2000B4FF0000A04200BF1E0
:10301000100540F22D1104F1340608F16407C4E9EB
:10302000001A2061304621462A463B4684F814A007
:103030008BED040AC4E902AAFDF754FB0120FEF758
:103040004DF9304621462A463B46FDF74BFB012011
:10305000FEF744F9304621462A463B46FDF742FB3F
:103060000120FEF73BF9D8F81400CBF810A0CBF8FC
:1030700014A0C8F81C0098ED060A98ED081AB4EEE2
:10308000401AF1EE10FA3ED040F2202440F2B81B74
:10309000C2F20004C2F2000B4FF0000A04200BF150
:1030A000100540F24D1104F1340608F16407C4E93B
:1030B000001A2061304621462A463B4684F814A077
:1030C0008BED040AC4E902AAFDF70CFB0120FEF710
:1030D00005F9304621462A463B46FDF703FB012011
:1030E000FEF7FCF8304621462A463B46FDF7FAFA41
:1030F0000120FEF7F3F8D8F81800CBF810A0CBF8B1
:1031000014A0C8F8200098ED030A98ED041AB4EE54
:10311000401AF1EE10FA00F0B280B5EE400AF1EE7E
:1031200010FA09D099F80500022855D0012869D174
:10313000B1EE048A52E000BF40F2202440F2B81AF7
:10314000C2F20004C2F2000A4FF0000904200AF1A2
:10315000100540F20D1104F1340608F16407C4E9CA
:1031600000192061304621462A463B4684F81490D7
:103170008AED040AC4E90299FDF7B4FA0120FEF7CA
:10318000ADF8304621462A463B46FDF7ABFA012012
:10319000FEF7A4F8304621462A463B46FDF7A2FA40
:1031A0000120FEF79BF89FED388A0120B0EE480A17
:1031B000CAE9049900F06CF80220B0EE480A00F069
:1031C00067F80320B0EE480A00F062F80420B0EE81
:1031D000480A00F05DF84EE0B9EE048A0120B0EE36
:1031E000480A00F055F80220B0EE480A00F050F806
:1031F0000320B0EE480A00F04BF80420B0EE480A75
:1032000000F046F8D8F80C0040F2202540F2B8143F
:10321000C2F20005C2F200044FF00009042144F894
:10322000100F40F20D1005F1340608F16407C5E9EE
:10323000000929613046294622463B4685F814900C
:10324000C5E90299FDF74EFA0120FEF747F830462E
:10325000294622463B46FDF745FA0120FEF73EF897
:103260003046294622463B46FDF73CFA0120FEF750
:1032700035F8C4E90099D8F80C00C8F81000BDEC86
:10328000028B01B0BDE8F08F000000007047000025
:103290002DE9F04381B0411E032940F2C001C2F282
:1032A00000014A78B1EE401A38BFB0EE410A022A56
:1032B00015D00979032909D0042910D1C11EB1EE16
:1032C000401A022938BFB0EE410A08E0C11EB1EE33
:1032D000401A022938BFB0EE401AB0EE410A40F25F
:1032E00020244001C2F200044FF000080E3040F2EA
:1032F000B819C4E9000840F23C10C2F20009C2F259
:103300000000042109F1100504F1340600F16407FE
:103310002161304621462A463B4684F8148089EDD7
:10332000040AC4E90288FDF7DDF90120FDF7D6FFA4
:10333000304621462A463B46FDF7D4F90120FDF7E9
:10334000CDFF304621462A463B46FDF7CBF901200A
:10335000FDF7C4FFC9E9048801B0BDE8F0830000AF
:103360002DE9F04F81B040F2C001C2F20001C878EF
:10337000097A814200F08481022840F0C78040F23F
:10338000202440F23C10C2F20004C2F2000040F2DD
:1033900000084FF005094FF0000A04F1340500F170
:1033A0006406C4F2F01800BF40F2B81740F2000BF8
:1033B000C2F20007C4F2A01B47F810BF40F24D2034
:1033C000C4E9000A4FF0040B284621463A4633462A
:1033D00084F814A0C4E902AAC4F810B0FDF782F979
:1033E0000120FDF77BFF284621463A463346FDF78C
:1033F00079F90120FDF772FF284621463A46334607
:10340000FDF770F90120FDF769FF40F22D20C4E9B6
:10341000000A284621463A46334684F814A0C7E9F4
:10342000008AC4E902AAC4F810B0FDF75BF90120D4
:10343000FDF754FF284621463A463346FDF752F938
:103440000120FDF74BFF284621463A463346FDF75B
:1034500049F90120FDF742FF40F26D20C4E9000A5E
:10346000284621463A46334684F814A0C7E9008A24
:10347000C4E902AAC4F810B0FDF734F90120FDF741
:103480002DFF284621463A463346FDF72BF9012009
:10349000FDF724FF284621463A463346FDF722F938
:1034A0000120FDF71BFF0020C4F2A010C7E9000AAD
:1034B00040F28D20C4E9000A284621463A463346A8
:1034C00084F814A0C4E902AAC4F810B0FDF70AF900
:1034D0000120FDF703FF284621463A463346FDF713
:1034E00001F90120FDF7FAFE284621463A46334607
:1034F000FDF7F8F80120FDF7F1FEB9F10109C7F871
:1035000000A0C7F804A07FF44FAFB3E040F220243E
:1035100040F23C10C2F20004C2F200004FF0040975
:10352000002504F1340A00F1640640F28D284FF0C2
:10353000040B00BF40F2B817C2F2000747F8105F53
:1035400040F22D20C4E90005504621463A46334654
:103550002575C4E90255C4F81090FDF7C3F80120A1
:10356000FDF7BCFE504621463A463346FDF7BAF811
:103570000120FDF7B3FE504621463A463346FDF79B
:10358000B1F80120FDF7AAFE40F24D20C4E9000584
:10359000504621463A463346C7E900552575C4E9E9
:1035A0000255C4F81090FDF79DF80120FDF796FE36
:1035B000504621463A463346FDF794F80120FDF780
:1035C0008DFE504621463A463346FDF78BF80120E2
:1035D000FDF784FE40F26D20C4E900055046214607
:1035E0003A463346C7E900552575C4E90255C4F883
:1035F0001090FDF777F80120FDF770FE5046214648
:103600003A463346FDF76EF80120FDF767FE504657
:1036100021463A463346FDF765F80120FDF75EFE88
:10362000504621463A463346C7E900552575C4E958
:103630000085C4E90255C4F81090FDF753F8012045
:10364000FDF74CFE504621463A463346FDF74AF810
:103650000120FDF743FE504621463A463346FDF72A
:1036600041F80120FDF73AFEBBF1010B3D607D60A2
:103670007FF460AF40F2C001C2F20001C878087266
:1036800001B0BDE8F08F00002DE9F04381B02DEDD1
:10369000028B9FED668A0120B0EE480AFFF7F8FD25
:1036A0000220B0EE480AFFF7F3FD0320B0EE480A0F
:1036B000FFF7EEFD0420B0EE480A4FF00409FFF7D3
:1036C000E7FD40F22025C2F200054FF0000840F26D
:1036D0000D1040F2B814C5E9000840F23C10C2F2E7
:1036E0000004C2F2000044F8108F05F1340700F125
:1036F0006406384629462246334685F81480C5E9D3
:103700000288C5F81090FCF7EDFF0120FDF7E6FDFB
:103710003846294622463346FCF7E4FF0120FDF7F0
:10372000DDFD3846294622463346FCF7DBFF012003
:10373000FDF7D4FD40F22D10C5E9000838462946B2
:1037400022463346C4E9008885F81480C5E902881A
:10375000C5F81090FCF7C6FF0120FDF7BFFD384605
:10376000294622463346FCF7BDFF0120FDF7B6FD92
:103770003846294622463346FCF7B4FF0120FDF7C0
:10378000ADFD40F24D10C5E90008384629462246F5
:103790003346C4E9008885F81480C5E90288C5F875
:1037A0001090FCF79FFF0120FDF798FD3846294651
:1037B00022463346FCF796FF0120FDF78FFD384681
:1037C000294622463346FCF78DFF0120FDF786FD92
:1037D00040F26D10C5E900083846294622463346B6
:1037E000C4E9008885F81480C5E90288C5F81090FE
:1037F000FCF778FF0120FDF771FD38462946224687
:103800003346FCF76FFF0120FDF768FD3846294677
:1038100022463346FCF766FF0120FDF75FFDC4E951
:103820000088BDEC028B01B0BDE8F0830000000011
:10383000FDF7D0BF80B594B0002043F64001CDE93C
:103840000B00CDE909000690CDE90400CDE90200A6
:103850000190C4F202010A6842F080520A600968CD
:1038600001F0805101910199019047F20000C4F2EA
:103870000000016841F44041016000684FF480019C
:1038800000F4404001900198012007904FF48030EF
:103890000E910421089002200F91B4210D90CDE9E2
:1038A0001010CDE9120007A8FEF7B4F920B1EFF32C
:1038B000108072B6FEE700BFFEF742F820B1EFF3CA
:1038C000108072B6FEE700BF0F2002900320039025
:1038D000002004904FF4A05005904FF480500690C3
:1038E00002A80521FEF76AF820B1EFF3108072B646
:1038F000FEE700BF14B080BD4EF68850CEF2000047
:10390000016841F4700101607047000070B540F239
:103910002434C2F200042088013081B202292080C0
:1039200016D340F2283540F26416C2F20005C2F206
:10393000000628683168884208D040F25800C2F278
:1039400000000068FCF78CFE3068286000202080B2
:1039500040F22C30C2F20000BDE87040FEF7A0BB80
:1039600010B540F6FF3E0368C4F2000E40F2004C72
:103970007045C4F2010C27DCB0F1804F31D040F229
:103980000042C4F2000290422BD040F60002C4F282
:103990000002904225D041F6FF72C4F2000290422C
:1039A00029DC70453CDCB0F1804F5FD040F2004232
:1039B000C4F20002904259D040F60002C4F2000264
:1039C000904253D056E000BF40F60042C4F20002DD
:1039D000904206D0604504D00022C4F20102904219
:1039E000D9D14A6823F07003134341F6FF72C4F241
:1039F00000029042D5DD43F6FF72C4F2010290420C
:103A000022DC42F20002C4F2000290422ED00022D8
:103A1000C4F20102904229D0604527D02AE000BFBD
:103A200040F60042C4F2000290421FD041F600026C
:103A3000C4F20002904219D041F60042C4F20002E2
:103A4000904213D016E000BF44F20002C4F201021B
:103A500090420BD044F60002C4F20102904205D01D
:103A600044F20042C4F20102904203D1CA6823F436
:103A70004073134323F080024B69D1F800E08C6857
:103A80001A430260C46240F48062C0F828E06245D4
:103A900004BF096901630121416110BD40F2743026
:103AA000C2F20000FEF7C0BB40F2B830C2F2000024
:103AB000FEF7BABB806B0021C185C184FEF7B2BBA3
:103AC00081B090F83E10222920D18368B3F5805F41
:103AD00008D10169002957D000F128010A6803685C
:103AE0005B680AE0014651F8282F13B90369002BDF
:103AF000F5D003685B6803F07F0313700A68013236
:103B00000A60C18D01390A04C18501D001B0704736
:103B10000168CA6822F02002CA60CA6822F4807272
:103B2000CA604A6922F001024A61202280F83E20E0
:103B3000026B012A32D10022026300BF51E8031F49
:103B4000026821F0100142E803135BB3016851E8F9
:103B5000031F026821F0100142E8031313B3016848
:103B600051E8031F026821F0100142E80313CBB1B2
:103B7000016851E8031F026821F0100142E80313B5
:103B800083B10168DAE700BF0168826A49686FF3B0
:103B90005F2122F8021B8262B3E700BF01B0FEF78B
:103BA000E5BE00BF01680A68D20606D50022009271
:103BB0000A680092496800910099818D01B0FEF772
:103BC0002FBB000010B504460068D4E902C2236987
:103BD000016921F4405111430161626943EA0C011A
:103BE000E3691143C268194349F20C639A431143D4
:103BF000C1604169A26921F4407141F2004311435F
:103C000040F48062C4F201039A42416102D1FDF79F
:103C100099FF01E0FDF782FFE16963681922B1F5C0
:103C2000004FA0FB02011FD15A00DB0FFCF73AFB4B
:103C300048F21F51C5F2EB11A0FB01235A096FF0A6
:103C4000630302FB0300322303EBC000A0FB01016E
:103C50004FF4F87000EA111000EB0210C1F34211AA
:103C600022680843906010BD9A009B0FFCF71AFB76
:103C700048F21F51C5F2EB11A0FB01235A096FF066
:103C8000630302FB0300322303EB0010A0FB0101DE
:103C9000F02000EA511000EB0210C1F3431122683A
:103CA0000843906010BD0000FEE700008CB040F6B5
:103CB0000009C4F20209FDF79BFDFFF7BBFD0026DA
:103CC00043F6300006960196C4F202000168002215
:103CD00041F004010160016801F0040101910199C2
:103CE0000196016841F080010160016801F08001E6
:103CF000019101990196016841F00101016001689B
:103D000001F00101019101990196016841F0020160
:103D10000160016801F002010191019901960168B9
:103D200041F0080101600068C42100F00800019022
:103D300001984846FDF742FD02AD0424012748469C
:103D400029460294CDE903760597FDF753FCA9F5C2
:103D500000602946CDE902460496FDF74BFCC020E1
:103D6000CDE9020748462946CDE90466FDF742FC45
:103D70004FF40060CDE90206484629460496FDF757
:103D800039FC40F27C20A9F5D231C2F200004FF498
:103D900030224FF480130C2480E85200C0E9036203
:103DA000C0E905368683FCF72DFF28B1EFF31080BC
:103DB00072B600BFFEE700BF40F22028C2F2000842
:103DC000A9F5D031404640F8341F4FF420214FF47C
:103DD0000012C0E90146C0E90361C0E905268683F7
:103DE000FCF710FF20B1EFF3108072B6FEE700BFC2
:103DF00001200E21002408F134050A900791CDE935
:103E000008400B9102A92846CDE90244CDE90444BB
:103E10000694FCF7C5FC40F22C30A9F5F431C2F24F
:103E2000000040F2E73342F2273280E81600C0E992
:103E300003348461FEF7DEF820B1EFF3108072B630
:103E4000FEE700BF484640210022FDF7B7FC484688
:103E500080210022FDF7B2FC2846FDF7A7F928468D
:103E60000221FCF727FC40F6B830FDF737FA40F2A4
:103E70007430A9F5DE31C2F200004FF4E1360C27B0
:103E8000C0E90016C0E90244C0E90447C0E906449D
:103E9000FEF786FC20B1EFF3108072B6FEE700BF9C
:103EA00040F2B830A9F5DC31C2F200000022C0E9CE
:103EB0000016C0E90222C0E90427C0E90622FEF785
:103EC0006FFC28B1EFF3108072B600BFFEE700BFB1
:103ED00040F2B81A40F2B830C2F2000AC2F2000052
:103EE000514608220827FEF711FD4FF4FA60FDF74E
:103EF000F5F90420C8F81000A720C8F8000040F227
:103F00003C105446C2F2000044F8107F00F1640BEC
:103F100000262846414622465B460827C8E9026635
:103F2000FCF7E0FB1420FDF7D9F92846414622466C
:103F30005B46FCF7D7FB1420FDF7D0F92846414635
:103F400022465B46FCF7CEFB1420FDF7C7F9284656
:103F5000414622465B46FCF7C5FB1420FDF7BEF93F
:103F60002846414622465B46FCF7BCFB1420FDF781
:103F7000B5F90A20FDF7B2F90420C8F81000C720EF
:103F8000C8F800002846414622465B4627600827BD
:103F9000C8E90266FCF7A6FB1420FDF79FF9284646
:103FA000414622465B46FCF79DFB1420FDF796F93F
:103FB0002846414622465B46FCF794FB1420FDF759
:103FC0008DF92846414622465B46FCF78BFB1420C0
:103FD000FDF784F92846414622465B46FCF782FB02
:103FE0001420FDF77BF90A20FDF778F90420C8F8C2
:103FF0001000E720C8F800002846414622465B46EC
:104000002760C8E902660427FCF76CFB1420FDF763
:1040100065F92846414622465B46FCF763FB1420BF
:10402000FDF75CF92846414622465B46FCF75AFB01
:104030001420FDF753F92846414622465B46FCF71B
:1040400051FB1420FDF74AF92846414622465B46BB
:10405000FCF748FB1420FDF741F90A20FDF73EF973
:104060000820206040F20710C8F8000028464146AA
:1040700022465B46C8E90266C8F81070FCF732FBBE
:104080001420FDF72BF92846414622465B46FCF7F3
:1040900029FB1420FDF722F92846414622465B46BB
:1040A000FCF720FB1420FDF719F92846414622466B
:1040B0005B46FCF717FB1420FDF710F92846414634
:1040C00022465B46FCF70EFB1420FDF707F90A2099
:1040D000FDF704F9082020600420C8F8100040F221
:1040E0002710C8F800002846414622465B460827AC
:1040F000C8E90266FCF7F6FA1420FDF7EFF8284647
:10410000414622465B46FCF7EDFA1420FDF7E6F83F
:104110002846414622465B46FCF7E4FA1420FDF7A8
:10412000DDF82846414622465B46FCF7DBFA1420C0
:10413000FDF7D4F82846414622465B46FCF7D2FA02
:104140001420FDF7CBF80A20FDF7C8F80420C8F8C2
:10415000100040F24710C8F80000284641462246A9
:104160005B462760C8E90266FCF7BCFA1420FDF73D
:10417000B5F82846414622465B46FCF7B3FA1420C0
:10418000FDF7ACF82846414622465B46FCF7AAFA02
:104190001420FDF7A3F82846414622465B46FCF76B
:1041A000A1FA1420FDF79AF82846414622465B46BC
:1041B0000024FCF797FA1420FDF790F80A20FDF789
:1041C0008DF800265746082047F8100F0420C8F83D
:1041D000100006F22720C8F80000284641463A465B
:1041E0005B46C8E90244FCF77DFA1420FDF776F837
:1041F000284641463A465B46FCF774FA1420FDF720
:104200006DF8284641463A465B46FCF76BFA1420A7
:10421000FDF764F8284641463A465B46FCF762FAE9
:104220001420FDF75BF8284641463A465B46FCF70A
:1042300059FA1420FDF752F8284641463A465B46A3
:10424000FCF750FA1420FDF749F8284641463A4653
:104250005B46FCF747FA1420FDF740F82846414634
:104260003A465B46FCF73EFA1420FDF737F828463D
:1042700041463A465B46FCF735FA1420FDF72EF826
:10428000284641463A465B46FCF72CFA1420FDF7D7
:1042900025F84FF4FA70FDF721F82036802E91D1E1
:1042A0004846402101224FF00108FDF787FA4846B1
:1042B00080210122FDF782FA40F2C00740F2500649
:1042C000C2F20007C2F20006002405E0FEF75CFC23
:1042D000FEF740FEFEF780FB48464FF40061FDF715
:1042E00067FA9AF800103870AA2919D19AF80700CD
:1042F000FF2815D19AF806009AF802207870B8784D
:104300009AF801109AF803309AF80450002A18BF5E
:104310001046B8709AF805007B71BD713871F9705C
:104320009AF81900082818BF34709AF81A0008285B
:1043300018BF34709AF81B00082818BF34709AF818
:104340001C00082818BF3470FFF70AF830780028DE
:10435000BCD1484640210022FDF730FA4846802172
:104360000022FDF72BFAFFF78FF9FCF76BF84846B0
:104370004021012286F80080FDF720FA484680217E
:104380000122FDF71BFAA7E7F1EE100A4FF6FF71C5
:10439000C0F2C03120EA010040F04070E1EE100AA6
:1043A000704700000000000000000102030406073F
:1043B000080900000000010203040000E0430008B7
:1043C00000000020600000000002000840440008D7
:1043D00060000020C00900001C020008000000006E
:1043E00001050607010102015C01EB0199012101B0
:1043F000BD01BF027D00D401000020420000803FCB
:104400000000803FCDCC4CBE0000803F0000803FCC
:104410000000803F110000000F0000000F000000AE
:1044200014000000000040400100000010000000E7
:10443000010000000024F40000C00008000000009B
:04000005080001C529
:00000001FF
