:020000040800F2
:10000000F809002065020008DD270008D527000850
:10001000D927000811040008B532000800000000CC
:10002000000000000000000000000000C12B0008DC
:100030004505000800000000BD2B00083D2E00080B
:100040007F0200087F0200087F0200087F0200088C
:100050007F0200087F0200087F0200087F0200087C
:100060007F0200087F0200087F0200087F0200086C
:100070007F0200087F0200087F0200087F0200085C
:100080007F0200087F0200087F0200087F0200084C
:1000900015040008210400087F0200087F02000800
:1000A0007F0200087F0200087F0200087F0200082C
:1000B0007F0200087F0200087F0200087F0200081C
:1000C0007F0200087F0200087F0200087F0200080C
:1000D0007F0200087F0200087F0200087F020008FC
:1000E0007F0200087F0200087F0200087F020008EC
:1000F0007F020008192F00087F0200087F02000815
:100100007F0200087F0200087F0200087F020008CB
:10011000A9300008B53000087F0200087F020008FF
:100120007F0200087F0200087F0200087F020008AB
:100130007F02000800000000000000007F020008AD
:100140002D040008390400087F0200087F0200081F
:100150007F0200087F0200087F0200087F0200087B
:100160007F0200087F0200087F0200087F0200086B
:100170007F0200087F0200087F02000800000000E4
:10018000000000007F0200080000000000000000E6
:100190007F02000800000000000000007F0200084D
:1001A0000000000000000000000000007F020008C6
:1001B0007F0200087F0200087F0200087F0200081B
:1001C0007F02000800F002F800F03CF80AA090E876
:1001D000000C82448344AAF10107DA4501D100F002
:1001E00031F8AFF2090EBAE80F0013F0010F18BF93
:1001F000FB1A43F001031847D4360000F436000020
:10020000103A24BF78C878C1FAD8520724BF30C842
:1002100030C144BF04680C60704700000023002414
:1002200000250026103A28BF78C1FBD8520728BF06
:1002300030C148BF0B6070471FB503F02EFB1FBDD8
:1002400010B510BD00F0A9F81146FFF7F5FF03F057
:1002500033F800F0C7F803B4FFF7F2FF03BC00F077
:10026000CFF800000948804709480047FEE7FEE74D
:10027000FEE7FEE7FEE7FEE7FEE7FEE7FEE7FEE756
:1002800004480549054A064B70470000052F000841
:10029000C5010008F8030020F8090020F805002037
:1002A000F805002053EA020C00F069802DE9F04BBC
:1002B0004FF00006002B1FBFB3FA83F503FA05F4D5
:1002C00024FA05F65E4012BF1643B2FA82F502FA2E
:1002D00005F4C5F120051EBF22FA05FC44EA0C0412
:1002E000203556EA044C4FEA144418BF641C4FF002
:1002F00000084FF00009904271EB030C39D300293C
:1003000019BFB1FA81F701FA07F6B0FA80F700FADF
:1003100007F6C7F120071EBF20FA07FC46EA0C06C5
:100320002037B6FBF4FCA7EB0507103F07F01F0BC7
:10033000CBF120062CFA06F60CFA0BFB44BFB346B1
:100340000026202FA4BF5E464FF0000B5BEA060C90
:1003500008BF4FF0010B19EB0B0948EB0608ABFB8C
:10036000027C06FB02CC0BFB03CCC01B71EB0C0127
:10037000C1E70B46024641464846BDE8F08B13B53F
:10038000084318BF4FF0FF300146AFF30080BDE8CF
:100390001C407047704770477047754600F02CF856
:1003A000AE4605006946534620F00700854618B062
:1003B00020B5FFF765FFBDE820404FF000064FF085
:1003C00000074FF000084FF0000BAC46ACE8C00946
:1003D000ACE8C009ACE8C009ACE8C00921F00701ED
:1003E0008D46704710B50446AFF300802046BDE847
:1003F0001040FFF730BF0000004870475800002051
:1004000001491820ABBEFEE726000200704700003D
:10041000FEE7000040F25420C2F2000000F0C2BA31
:1004200040F25420C2F2000000F0BCBA40F22C208E
:10043000C2F2000000F0B6BA40F22C20C2F2000076
:1004400000F0B0BA70B540F2A814C2F200046078AF
:1004500040F2102640F238150828C2F20006C2F217
:1004600000050FD1A078082823D1E078082837D1DB
:10047000207908284BD14FF4FA60BDE8704000F0B5
:100480002BBE00BF3620214641F8500F0420002229
:10049000C1E90222086106F11C0005F1680205F1BC
:1004A000440300F01FF9012000F016FEA078082890
:1004B000DBD05620214641F8500F04200022C1E92C
:1004C0000222086106F11C0005F1680205F14403EF
:1004D00000F008F9012000F0FFFDE0780828C7D0FF
:1004E0007620214641F8500F04200022C1E9022263
:1004F000086106F11C0005F1680205F1440300F0F3
:10050000F1F8012000F0E8FD20790828B3D096200A
:1005100044F8500F04200021C4E90211206106F1C3
:100520001C0005F1680205F14403214600F0DAF8E9
:10053000012000F0D1FD4FF4FA60BDE8704000F0FA
:10054000CBBD000070470000F0B581B040F2D43759
:10055000044643F60C46C2F200070020C4F202062D
:10056000F86101F02FF83168C9031DD43068C00765
:100570001CBF01203060306810F4F97F30D0306843
:10058000C00635D4306880063BD43068400641D47C
:100590003068000647D43068C0054DD43068800705
:1005A00054D4012001B0F0BDF4B10546601C0DD15A
:1005B0003068C003DAD53068C00344BF30685FEAF2
:1005C000C030D3D53068C003F2D4CFE700F0FAFFD3
:1005D000401BA04208D83068C003F7D4C6E700BF6C
:1005E000002001B0F0BD00BF032001B0F0BD00BF8E
:1005F000F86940F01000F861102030603068800623
:10060000C3D5F86940F00800F861202030603068F8
:100610004006BDD5F86940F00400F8614020306024
:1006200030680006B7D5F86940F00200F861802014
:1006300030603068C005B1D5F86940F00100F8615C
:100640004FF48070306030688007AAD5F86940F0B8
:100650002000F86102203060012001B0F0BD0000F0
:10066000B0B586B00C46054600F0AAFE0020019009
:100670000220059048F20000C0F6000003218542E8
:1006800008BF022101200391049001A8694600F0EF
:1006900037FD28B1EFF3108072B600BFFEE700BF50
:1006A000E31701202946224600F0FAFD00F0EEFD96
:1006B00006B0B0BD90F82020013A012A08D80068A1
:1006C00000F114020020136819431160704700BF45
:1006D00000F1240201204FF48021136819431160B6
:1006E0007047000010B590F820E0D0F800C0AEF1DF
:1006F000010EBEF1010FDCF808E011D81EF0E05F3A
:1007000018D0CEF3016EBEF1030F1DD100F124010C
:1007100001204FF400020B681A430A6010BD00BFAD
:1007200000F1240101204FF480220B681A430A6073
:1007300010BD00BF00F1240101204FF400120B682E
:100740001A430A6010BD00BF012000FA0EF01860C5
:10075000886818B14B6840EAC30001E008684005AA
:10076000D1E9033403430CEB0E10C0F88031C0F81C
:100770008441097D012905D100F5C2710B6843F45C
:1007800080730B605168C0F88C11126800F5C0715D
:10079000C0F88821002001220B681A430A6010BDAE
:1007A000B0B590F82020013A012A2FD846F2006017
:1007B000C4F20000026842F001020260026822F402
:1007C0007C520260D1F814E0CC694A6A0368012CBB
:1007D00043EA022202600EF01F024FF0010303FA07
:1007E00002F2C3696FEA020C23EA0203C36113D069
:1007F0002CBBC36803EA0C03C360CB688C8844EA53
:10080000034300EBCE0423640B4611E0416A41F43C
:10081000802141620120B0BDC3681343C3600B68EF
:100820008C8844EA034300EBCE04236401F10C03FB
:100830008C681B8843EA044300EBCE04636443687E
:100840008D6943EA0204D1F810E0096A002D08BF5F
:1008500003EA0C0444604369BEF1000F43EA02045A
:1008600008BF03EA0C040129446102D1C1691143A4
:10087000C161016821F0010101600020B0BD0000EC
:100880007047000010B590F82040013C012C71D851
:10089000D0F800C0002977D0DCF81040A40777D04A
:1008A0000CEB011CDCF8B0410CF5D87E14F004040C
:1008B0009460DCF8B04119BFE4085460640D146022
:1008C000DEF80040002904F00204D460DCF8B441F2
:1008D00004F00F041461DCF8B441C4F307249461FC
:1008E000DCF8B4414FEA14445461DCF8B8211A70C2
:1008F000026802EB0112D2F8B8214FEA12225A70B4
:10090000026802EB0112D2F8B8214FEA12429A7043
:10091000026802EB0112D2F8B8214FEA1262DA70D3
:10092000026802EB0112D2F8BC211A71026802EBD4
:100930000112D2F8BC214FEA12225A71026802EB6E
:100940000112D2F8BC214FEA12429A71026802EBFE
:100950000112D2F8BC214FEA1262DA71006814BFAA
:1009600000F1100100F10C01002020220B681A4355
:100970000A6010BD00F1240101204FF480220B68B1
:100980001A430A6010BD00BFDCF80C40A40787D1F1
:1009900000F1240101204FF400120B681A430A6091
:1009A00010BD00002DE9F04F81B004460068466993
:1009B000D0F804908768D0F80CB0D0F810A0D0F828
:1009C0001880F10704D1002530071DD424E000BFB2
:1009D000F90710D00121BA07816009D4780700F126
:1009E000AF80380700F1B680204600F00BFB02E034
:1009F000204600F009FB0025F80500F18780F80388
:100A000000F1B180300707D51BF0100004D020683A
:100A100045F400751021C160700708D51BF008006F
:100A200005D020680821C160204600F0FBF9B0071E
:100A300006D52068C068800702D0204600F0F4F98F
:100A4000700607D51AF0100004D0206845F48065C0
:100A500010210161B00608D51AF0080005D0206801
:100A600008210161204600F099FAF00606D52068B9
:100A70000069800702D0204600F092FAB00308D542
:100A800019F0100005D0206810214160204600F0C8
:100A900089FAF00308D519F0080005D0206808216C
:100AA0004160204600F0BAFA300440F19B805FEAD2
:100AB000497040F1948006F4807008EA10202843C1
:100AC0005FEA8871014648BF41F00201B20558BF94
:100AD00001465FEA48700D4648BF45F004057005C1
:100AE00058BF0D46300540F17A8018F0700000F0D4
:100AF00076801038000905286CD8DFE800F003592B
:100B00005D61656945F0080564E000BF20684FF449
:100B10008071BA0581600BD4780515D438051DD4D1
:100B2000204600F073FAF8037FF56CAF1BE000BFBE
:100B3000204600F06DFAF8037FF564AF13E000BFC4
:100B40004FF4006558E700BF05F50055F8037FF541
:100B500059AF08E04FF480554EE700BF05F58045DA
:100B6000F8037FF54FAF20684FF48031BA038160FE
:100B70000AD4780310D4380314D4204600F04AFA7B
:100B800030073FF541AF47E7204600F045FA300710
:100B90003FF53AAF40E700BF05F5004530073FF5A8
:100BA00033AF39E705F5803530073FF52DAF33E733
:100BB00045F010050EE000BF45F020050AE000BF3B
:100BC00045F0400506E000BF45F0800502E000BFAB
:100BD00045F480752068816921F070018161206889
:100BE0000421416055B1606A40EA05012046616216
:100BF00001B0BDE8F04FFFF743BE00BF01B0BDE854
:100C0000F08F0000B0B5C8B1044690F8200010B9CC
:100C1000204600F071F82068016841F00101016090
:100C200000F0D0FC054600BF20684168C90707D125
:100C300000F0C8FC401B0B28F6D312E00120B0BD29
:100C4000016821F00201016000F0BCFC054600BF14
:100C50002068416889070DD500F0B4FC401B0B28C3
:100C6000F6D3606A052140F400306062012084F808
:100C70002010B0BD217E0268012922F0800208BF49
:100C800080320260617E0268012922F0400208BFC2
:100C900040320260A17E0268012922F0200208BFD2
:100CA00020320260E17E0268012922F0100218BFA2
:100CB00010320260217F0268012922F0080208BF79
:100CC00008320260617F0268012922F0040208BF35
:100CD00004320260D4E901C2D4E9033561691A43E0
:100CE0002A431143ACF101021143C16100200121EB
:100CF000606284F82010B0BDB0B586B0006846F6DA
:100D00000002C4F2000200219042CDE90411CDE9B5
:100D10000211019130D046F20041C4F20001884234
:100D20007DD140F2EC21C2F200010A6843F6400096
:100D3000C4F20200531C0B6052B9002100910168FB
:100D400041F000710160016801F0007100910099AB
:100D50000021009150F8101C152441F0020140F8C8
:100D6000101C50F8100C142500F0020000900098A0
:100D70004FF4407033E000BF43F64000C4F202007D
:100D80000091016841F080610160016801F08061BB
:100D90000091009940F2EC21C2F200010A68531C54
:100DA0000B6052B900210091016841F000710160AF
:100DB000016801F00071009100990021009150F844
:100DC000101C412441F0020140F8101C50F8100C96
:100DD000402500F00200009000984FF44050019030
:100DE0000220029000200390032004900920059027
:100DF00040F20040C4F2020001A900F0F9FA2846CE
:100E00000021002200F05EFC284600F04BFC20464A
:100E10000021002200F056FC204600F043FC06B002
:100E2000B0BD000070470000B0B540F2102440F2A1
:100E30003815C2F20004C2F2000504F11C0005F1ED
:100E4000480300212246FFF71DFD40F2B801C2F21F
:100E50000001487A236801304872580903F01F02E4
:100E6000072BC8810A821BD0062B21D0052B27D146
:100E700040F27C21C2F200010A8B01320A8331E088
:100E800000EE101A40F2A812BDEEC00AC2F2000233
:100E9000296510EE101A12FA80F080F82810B0BD03
:100EA00040F27C20C2F20000818B01318183B0BD11
:100EB00040F27C20C2F20000418B01314183B0BD81
:100EC000013A162A52D8DFE802F00F5121310D51B4
:100ED000515153515151515151515151513345512A
:100EE0004F0000BFA96CCBE740F27C2180B2C2F278
:100EF000000131F81020013221F8102095F84C1033
:100F000040F2A812C2F200021154B0BDE96C40F2E6
:100F1000A81200EE101ABDEEC00AC2F20002296546
:100F200010EE101A12FA80F00175B0BDE96CA7E757
:100F3000E96C40F2A81200EE101ABDEEC00AC2F22F
:100F40000002296510EE101A12FA80F080F83C10A9
:100F5000B0BD00BFE96C40F2F02280B2C2F20002E4
:100F6000296542F82010B0BDA86C0867B0BD00BF6D
:100F7000E96C82B240F2F023C0B2C2F2000308284A
:100F8000296543F8221018BFB0BDA86C00EE100A06
:100F9000BDEEC00A686185ED060AB0BD704700006D
:100FA0007047000070470000B0B5044690F820007C
:100FB00001281DD1022084F820002068016821F05A
:100FC0000101016000F0FEFA054600BF206840689C
:100FD000C00713D000F0F6FA401B0B28F6D3606A66
:100FE00040F400306062052084F820000120B0BD8C
:100FF000606A40F4002060620120B0BD00206062A1
:10100000B0BD00007047000070470000704700004E
:1010100070470000704700007047000070470000F4
:1010200070B5866D044600F0CDFA94F835100229AB
:101030002ED105462068216C026822F0160202605B
:10104000426922F08002426109B9A16C19B10168BC
:1010500021F008010160016821F0010101600068D0
:10106000C00708D000F0AEFA401B052818D8206849
:101070000068C007F6D1E06D3F2101FA00F0B060D2
:10108000012084F835000020002184F8341070BD60
:10109000802060650120002184F8341070BD00BFFD
:1010A00020206065032084F83500002184F8341086
:1010B00070BD000090F83510022909D1052180F893
:1010C00035100068016821F00101016000207047BF
:1010D0008021416501207047B0B5044600F072FAE6
:1010E000054640F24000C2F200000078611C18BFC3
:1010F000044400BF00F066FA401BA042FAD3B0BD22
:101100002DE9F04381B040F2D438C2F2000898F8DB
:101110001820012A04D1022001B0BDE8F08300BFED
:101120000546012088F818004CF250308946FFF738
:101130000BFA28B1002188F8181001B0BDE8F0833F
:101140004FF0FF30C9F80000286843F61047012827
:10115000C4F202071CD128693968000221F44071E9
:101160003960396880B241F0040139603968084358
:1011700040F4803038604CF25030FFF7E5F93968C0
:1011800021F00401396057F8101C89053BD452E066
:10119000D5E902603044864230D2F40028694FF429
:1011A0004072C1B2032939684FEA002021F440712E
:1011B0003960396838BF82B241EA02003860386865
:1011C00020F0F80038603868204340F002003860B2
:1011D000386840F4803038604CF25030FFF7B4F992
:1011E0003968002821F0FA01396047D1D5E90201B8
:1011F00001360844864204F10804CFD3002057F892
:10120000101C890517D557F8101C21F4007147F8F8
:10121000101C57F8101C41F4006147F8101C57F8D7
:10122000101C21F4006147F8101C57F8101C41F401
:10123000007147F8101C57F8101C49057FF57AAF6C
:1012400057F8101C21F4806147F8101C57F8101C47
:1012500041F4805147F8101C57F8101C21F48051BC
:1012600047F8101C57F8101C41F4806147F8101C17
:10127000002188F8181001B0BDE8F083C9F80060BB
:1012800057F8101C8905BED4D5E7000043F610417D
:10129000C4F20201086840F0004200200A60704772
:1012A0002DE9F04381B040F2D434C2F200049046FC
:1012B000227E012A04D1022001B0BDE8F08300BFE4
:1012C0000746012020764CF250301E460D46FFF7AF
:1012D0003BF928B10021217601B0BDE8F08300BFC1
:1012E00043F61049022FC4F2020917D0012F2BD068
:1012F000002F3FD1D9F8000020F44070C9F8000059
:10130000D9F80000C9F80000D9F8000040F0010049
:10131000C9F8000085F8008043E000BFD9F800005C
:1013200020F44070C9F80000D9F8000040F40070C3
:10133000C9F80000D9F8000040F00100C9F8000029
:10134000C5F800802DE000BFD9F8000020F44070FF
:10135000C9F80000D9F8000040F48070C9F8000016
:10136000D9F8000040F00100C9F80000A5F800809D
:1013700017E000BFD9F8000020F44070C9F8000061
:10138000D9F8000040F44070C9F80000D9F8000016
:1013900040F00100C9F80000C5F80080BFF36F8F6E
:1013A0006E604CF25030FFF7CFF8D9F8001021F002
:1013B0000101C9F800100021217601B0BDE8F083D9
:1013C00043F60440C4F20200C168B1F1FF3FC4BF5C
:1013D0000020704740F22311C4F26751016048F6C3
:1013E000AB11CCF6EF510160C068C00F7047000030
:1013F0002DE9F04F82B000F13E4241F6000502F1C6
:10140000FF77C4F2020507224FEAB726A84208BFB9
:101410000622062E38BF4FEAB7224FF0010A0024F9
:1014200000274FF00008009208E000BF023708F1E3
:101430000108202F04F1040400F0B4800E680AFAB9
:1014400008F916EA090FF1D0D1F804A00AF0030B4D
:10145000ABF10106012E17D80322866802FA07FEB7
:10146000CA6826EA0E06BA40324382604268CAF36E
:10147000001522EA090205FA08F54FEA480C6FEA5E
:101480000E062A4342600BE00322BA40D643BBF16A
:10149000030FBC4604D1BC464FF0030B22E000BF53
:1014A000C2688D68324005FA0CF52A43BBF1020F81
:1014B000C26017D16FF0030202EA5802024404F03E
:1014C0001C030F25D2F820E005FA03FA0D692EEA75
:1014D0000A0E05FA03F343EA0E031362D1F804A0DF
:1014E0000AF0030B02680BFA0CF332401A431AF4A9
:1014F000403F4FF0010A026098D0002243F64403B7
:101500000192C4F202031A6843F6004E42F480428C
:101510001A601A68C4F2010E02F480420192019A24
:1015200028F003024FF6084C7244CFF6FF7C52F8C5
:101530000C3004F00C060F25B540AB43009D05FAB6
:1015400006F6334342F80C30DEF808204B6842EAD6
:10155000090643F60C4CDD0258BF22EA0906CEF814
:101560000860C4F2010CDCF800209D0242EA090682
:1015700058BF22EA0906CCF80060DEF804209D037B
:1015800042EA090658BF22EA0906CEF80460DEF8EE
:101590000020DB0342EA090658BF22EA0906CEF81A
:1015A000006043E702B0BDE8F08F0000006908402A
:1015B00018BF012070470000002A08BF090481619C
:1015C0007047000040F2F430C2F20000006870473B
:1015D00040F2400040F2F431C2F20000C2F20001D9
:1015E00000780A68104408607047000080B543F630
:1015F0000040C4F20200016841F40071016001681A
:1016000041F480610160016841F480710160032050
:1016100000F084F80F2000F005F800F027F8002013
:1016200080BD000070B540F24006C2F2000640F2F4
:101630004C013278C2F200014FF47A730968B3FBAF
:10164000F2F20446B1FBF2F1084600F0B7FB0F2CB2
:101650004FF0010508D838B94FF0FF30214600227D
:10166000002500F02FF87460284670BD82B000207D
:1016700043F640010190C4F202014A6842F48042FC
:101680004A604A6802F480420192019A0090086818
:1016900040F080500860086800F08050009000988A
:1016A00002B07047002848BF704700F01F010122B8
:1016B00002FA01F14EF200124009CEF2000242F8A5
:1016C0002010704710B54EF60C5CCEF2000CDCF822
:1016D0000030C3F3022E8EF00704042C28BF04242C
:1016E000BEF103034FF0FF3E0EFA04F438BF0023AF
:1016F000A14399400EFA03F39A4300F00F03043B11
:101700001143634409010C3300F16042B0F1FF3F23
:10171000C8BF02F56443197010BD00004EF60C51AD
:10172000CEF200010A684FF6FF031A4060F30A2266
:1017300042F0806040F0FD700860704770B582B084
:101740000020019043F64000C4F2020001684026E8
:1017500041F0805101600068C4F20E2600F0805014
:101760000190019847F204050120C4F200053060A1
:10177000FFF728FF044600BF2868C00306D4FFF720
:1017800021FF001BB0F57A7FF6D90EE001207060D2
:10179000FFF718FF044600BF2868800308D4FFF74E
:1017A00011FF001BB0F57A7FF6D9032002B070BD9F
:1017B000002002B070BD00002DE9F041002800F0CB
:1017C0008B8043F60808C4F202080446D8F8F803F0
:1017D0000D4600F00F00884207D288F8F853D8F879
:1017E000F80300F00F00A84276D12068810717D5D2
:1017F000410705D5D8F8001041F4E051C8F80010B1
:10180000010705D5D8F8001041F46041C8F8001070
:10181000D8F80010A26821F0F0011143C8F80010B8
:10182000C0073FD1D8F8F80300F00F00A84207D94D
:1018300088F8F853D8F8F80300F00F00A8424BD10D
:101840002068410707D5D8F80010E26821F4E0517C
:101850001143C8F80010000708D5D8F80000216926
:1018600020F4604040EAC100C8F8000000F07CF8B5
:10187000D8F8001043F6B402C1F30311C0F6000219
:10188000515C40F24C0220FA01F140F24400C2F2F5
:1018900000000068C2F200021160FFF7C3FE0020E2
:1018A000BDE8F0816068811E022907D258F8081C43
:1018B00089015CBF0120BDE8F08111E0012807D15A
:1018C00058F8081C89035CBF0120BDE8F08107E0DF
:1018D00058F8081C890703D40120BDE8F08100BF37
:1018E000D8F8001021F003010843C8F80000FFF702
:1018F00069FE064641F28837D8F80000616800F0BA
:101900000C00B0EB810F8DD0FFF75CFE801BB8425E
:10191000F2D90320BDE8F08140F24C0043F6080103
:10192000C2F20000C4F202010068096843F6C40272
:10193000C1F38221C0F60002515CC840704700002C
:1019400040F24C0043F60801C2F20000C4F202016A
:101950000068096843F6C402C1F34231C0F60002D0
:10196000515CC8407047000010B543F60404C4F24F
:1019700002046068C0F3810142F20040C0F2F4004A
:10198000DFE801F04402081841F20020C0F27A00BA
:1019900010BD00BF216801F03F02216823684902A1
:1019A000C3F3881116D4A1FB00010023FEF77AFCD3
:1019B00017E000BF216801F03F0221682368490257
:1019C000C3F3881116D4A1FB00010023FEF76AFCC3
:1019D00017E000BF41F20020C0F27A004843B0FB9C
:1019E000F2F021680222C1F3014102EB4101B0FB98
:1019F000F1F010BD41F20020C0F27A004843B0FB84
:101A0000F2F02168C1F30271B0FBF1F010BD0000EB
:101A10002DE9F04182B0002800F09680044600785D
:101A200043F60006C007C4F202062BD0B06800F0EF
:101A30000C00042820D0B06800F00C00082802D167
:101A40007068400218D4B06800F00C000C2802D175
:101A50007068400210D46068B0F5803F07D0B0F5E0
:101A6000A02F40F03B81306840F480203060306827
:101A700040F4803030603BE13068800302D560681C
:101A8000002861D02078800722D5B06810F00C0FB4
:101A900011D0B06800F00C00082802D17068400234
:101AA00009D5B06800F00C000C2840F09F807068E9
:101AB000400200F19B803068800702D5E068012871
:101AC00042D13068216920F0F80040EAC10030605E
:101AD000207800073CD42078400751D4A5698DB305
:101AE000B06800F00C00082840F0A880012D2BD031
:101AF0007068E16900F480028A4225D1216A00F011
:101B00003F028A4220D147F6C071626A0140B1EBC0
:101B1000821F19D1A26A0023CFF6FF7303EBC232F2
:101B200000F440316FF30F0291420DD1E16A00F0F1
:101B30007062B2EB016F07D1216B00F0E040B0EBB7
:101B4000017F01D1002035E1012002B0BDE8F08124
:101B50006069002840F20000C4F247205ED00121F5
:101B6000C0F8801EFFF72EFD054600BF706F80078E
:101B7000B1D4FFF727FD401B0228F7D9C5E000BF0D
:101B8000306C10F080580AD100200190306C40F089
:101B900080503064306C00F080500190019847F222
:101BA0000007C4F200073868C00511D4386840F453
:101BB00080703860FFF706FD054600BF3868C00535
:101BC00006D4FFF7FFFC401B0228F7D99DE000BFB9
:101BD000A068012805D0052852D1306F40F00400DC
:101BE0003067306F40F00100306753E0E068002854
:101BF00060D00020C4F2472001210160FFF7E2FC21
:101C0000054600BF306880073FF55BAFFFF7DAFCA1
:101C1000401B02284FF00300F4D9CBE00021C0F8AC
:101C2000801EFFF7CFFC0546706F80077FF553AF2E
:101C3000FFF7C8FC401B0228F6D966E00027C4F273
:101C4000472700203866FFF7BDFC022D05460BD163
:101C5000306880015ED5FFF7B5FC401B02284FF0CD
:101C60000300F5D9A6E000BF306880017FF56AAFB8
:101C7000FFF7A8FC401B02284FF00300F4D999E0BD
:101C8000316F002821F001013167316F21F004012B
:101C9000316765D0FFF796FC054641F2883700BFF3
:101CA000306F80076ED4FFF78DFC401BB842F7D928
:101CB0002BE000BF0020C4F2472000210160FFF7A5
:101CC00081FC0546306880077FF502AFFFF77AFC9C
:101CD000401B02284FF00300F4D96BE03168002864
:101CE00021F480313160316821F48021316053D09A
:101CF000FFF768FC054600BF306880033FF5C2AEC1
:101D0000FFF760FC401B6428F6D9032002B0BDE851
:101D1000F08100BF04F11C052FCD246B0843002186
:101D2000CFF6FF7140EA821001EBC3316FF30F0170
:101D300040EA0560084340EA04707060012038669C
:101D4000FFF740FC044600BF306880013FF5FAAE63
:101D5000FFF738FC001B02284FF00300F4D929E0FC
:101D6000FFF730FC054641F2883700BF306F80072F
:101D700008D5FFF727FC401BB8424FF00300F5D908
:101D800018E000BFB8F1000F7FF4A8AE306C20F06F
:101D900080503064A2E600BFFFF714FC05463068AF
:101DA00080037FF56FAEFFF70DFC401B64284FF0FA
:101DB0000300F4D902B0BDE8F0810000411E00200C
:101DC000B0EB116F1CBF012070474EF21002CEF233
:101DD000000251604EF62351CEF20001F0230B7049
:101DE0000721906011607047704700007047000045
:101DF000002804BF0120704710B5044690F83D004C
:101E000028B9002084F83C00204600F01FF802208A
:101E100084F83D002068211D01F0A8F8012084F815
:101E2000460084F83E0084F83F0084F8400084F8BF
:101E3000410084F8420084F8430084F8440084F8A8
:101E4000450084F83D00002010BD000080B582B040
:101E5000006842F20001C4F2000188421CBF02B0D7
:101E600080BD0020019043F64000C4F202000168EA
:101E7000002241F4807101600068002100F480704C
:101E8000019001982D20FFF71DFC2D2002B0BDE828
:101E90008040FFF707BC00007047000010B50168E4
:101EA00004460869800744BFC8685FEA807039D477
:101EB0000869400744BFC8685FEA40703ED40869BB
:101EC000000744BFC8685FEA007045D40869C006CF
:101ED00044BFC8685FEAC0604AD40869C0071CBF35
:101EE000C8685FEAC07051D10869000644BFC8687D
:101EF0005FEA006052D40869400644BFC8685FEAE0
:101F0000406053D40869800646BFC8685FEA8060B5
:101F100010BD6FF0200220460A61BDE81040FFF7B7
:101F200065BF00BF6FF0020008610120207788695B
:101F3000800743D02046FFF7AFFF45E06FF0040075
:101F4000086102202077886910F4407F40D0204645
:101F5000FFF7A2FF42E000BF6FF008000861042015
:101F60002077C86980073DD02046FFF795FF3FE006
:101F70006FF01000086108202077C86910F4407FD6
:101F80003AD02046FFF788FF3CE000BF6FF0010029
:101F90000861204600F03EF82168A5E76FF0800058
:101FA00008612046FFF720FF2168A4E76FF040009A
:101FB0000861204600F030F82168A3E7204600F0D1
:101FC00025F8204600F024F82168002020776FE7EC
:101FD000204600F01BF8204600F01AF82168002087
:101FE00020776CE7204600F011F8204600F010F84A
:101FF00021680020207769E7204600F007F8204696
:1020000000F006F821680020207766E7704700009E
:1020100070470000704700007047000070470000E4
:1020200070470000B0B582B0056804462968EA68C8
:10203000686901F02F03202B02F0200306D12BB199
:10204000204602B0BDE8B04001F040B85FEA017C34
:102050001EBF00F0010E02F4907010EB0E002FD1A5
:10206000236B02EA0100C10618D5012B16D100200E
:10207000019028680190686801900198686940069D
:1020800028D4A08DE18DE28D002A1CBF411A5FEAA1
:10209000014040F0D58102B0B0BD00BF010600F1A3
:1020A000D1804006F7D5E868202120F04000E860A4
:1020B000204684F83D1002B0BDE8B04000F088BB77
:1020C000C80718BF12F4807040F0D080480700F1B4
:1020D000D380D8E0A06B01684A6893B2002BDAD0B5
:1020E000A18D8B42D7D2E285C069B0F5807F00F028
:1020F000A08055E8030F216820F4807041E80302B6
:10210000F2B1206850E8030F216820F4807041E8A4
:102110000302AAB1206850E8030F216820F4807000
:1021200041E8030262B1206850E8030F216820F4FF
:10213000807041E803021AB1206850E8030FDAE723
:10214000206850E8050F216820F0010041E80502F1
:10215000BAB3206850E8050F216820F0010041E87B
:10216000050272B3206850E8050F216820F00100D5
:1021700041E805022AB3206850E8050F216820F0E5
:10218000010041E80502002ADAD11AE0206850E88F
:10219000050F216820F0400041E80502DAB120680F
:1021A00050E8050F216820F0400041E8050292B197
:1021B000206850E8050F216820F0400041E8050242
:1021C0004AB1206850E8050F216820F0400041E83E
:1021D0000502002ADAD1202084F83E000020206386
:1021E000206850E8030F216820F0100041E8030246
:1021F000DAB1206850E8030F216820F0100041E8B0
:10220000030292B1206850E8030F216820F010000B
:1022100041E803024AB1206850E8030F216820F02A
:10222000100041E80302002ADAD1A06BFEF7F8FEA5
:10223000A18DE08D081A81B2204602B0BDE8B04001
:10224000FFF7ECBE94F83D0021287FF424AFA0688E
:10225000B0F5805F03D12069002800F08781206AF3
:10226000411C21620078686087E100BF206C40F06B
:1022700001002064480706D5BEF1000F03D0206C92
:1022800040F002002064880706D5BEF1000F03D09D
:10229000206C40F004002064BCF1000F06D55EEA1B
:1022A000030003D0206C40F008002064206C00285C
:1022B0003FF4F1AE02EA0100800603D5204600F0AB
:1022C00005FF25686869216C00F0400001F00801F5
:1022D000401800F0AD8055E8030F00BF216820F4DE
:1022E000907041E80302D2B3206850E8030F2168E0
:1022F00020F4907041E803028AB3206850E8030F8D
:10230000216820F4907041E8030242B3206850E84D
:10231000030F216820F4907041E80302FAB12068AD
:1023200050E8030FDAE700BF206850E8050F216886
:1023300020F0010041E80502DAB1206850E8050FFD
:10234000216820F0010041E8050292B1206850E8C0
:10235000050F216820F0010041E805024AB120681C
:1023600050E8050F216820F0010041E80502002A2D
:10237000DAD1206B012824D1206850E8030F2168AE
:1023800020F0100041E80302DAB1206850E8030FA2
:10239000216820F0100041E8030292B1206850E863
:1023A000030F216820F0100041E803024AB12068C1
:1023B00050E8030F216820F0100041E80302002AD2
:1023C000DAD1202084F83E00002020632068416993
:1023D000490640F1C58050E8050F216820F0400013
:1023E00041E80502002A00F0A980206850E8050FA6
:1023F000216820F0400041E80502002A00F09E809C
:10240000206850E8050F216820F0400041E80502EF
:10241000002A00F09380206850E8050F216820F022
:10242000400041E80502002A00F088802068D2E7D9
:102430002046FFF7F5FD0020206402B0B0BD00BFCC
:1024400055E8030F226820F4907042E80303D3B3E9
:10245000206850E8030F226820F4907042E80303DC
:102460008BB3206850E8030F226820F4907042E894
:10247000030343B3206850E8030F226820F49070F0
:1024800042E80303FBB1206850E8030FDAE700BF1E
:10249000206850E8050F226820F0010042E805039B
:1024A000DBB1206850E8050F226820F0010042E807
:1024B000050393B1206850E8050F226820F0010061
:1024C00042E805034BB1206850E8050F226820F070
:1024D000010042E80503002BDAD1202084F83E00F9
:1024E00000202063206850E8030F226820F01000CD
:1024F00042E80303DBB1206850E8030F226820F0B4
:10250000100042E8030393B1206850E8030F2268EB
:1025100020F0100042E803034BB1206850E8030F9D
:10252000226820F0100042E80303002BDAD189B2C0
:10253000204602B0BDE8B040FFF770BDA06B78B197
:1025400043F2C101C0F600010165FEF7B3FD0028AA
:102550003FF4A1ADA06B016D02B0BDE8B0400847EB
:10256000204602B0BDE8B040FFF75ABD206A30F8FF
:10257000021B6FF35F2169602062E08C0138010467
:10258000E0847FF488ADE86820F08000E860E868C7
:1025900040F04000E86002B0B0BD0000002804BF79
:1025A0000120704710B5044690F83D0028B900207E
:1025B00084F83C00204600F021F8242084F83D00F7
:1025C0002068C16821F40051C160204600F000FE7F
:1025D0002068016921F490410161416921F02A01DB
:1025E0004161C16841F40051C16000202021206494
:1025F00084F83D1084F83E1010BD0000F0B587B09F
:10260000006845F20001C4F2000100248842CDE9CF
:102610000544CDE9034402942AD044F60041C4F2B3
:10262000000188426DD1002043F630010190C4F2D0
:1026300002010A69342442F400220A610A6902F4A0
:1026400000220192019A01900A6842F001020A6098
:102650000968022201F00101019101990321CDE9EC
:102660000320002002910591C4F202003CE000BF6B
:1026700043F630000194C4F202000169002741F4DE
:10268000801101610169C4F2020701F48011019116
:10269000019901940168022541F00401016001687B
:1026A000032601F00401019101990194016841F0B0
:1026B00008010160006802A900F00800019001987B
:1026C0004FF4805002900820069007F50060CDE995
:1026D00003540596FEF78CFE0420CDE90205CDE9F2
:1026E000044607F5406035240821069102A9FEF74B
:1026F0007FFE204600210022FEF7E4FF2046FEF781
:10270000D1FF07B0F0BD000090F83E30202B0BD178
:1027100000294FF0010318BF002A01D11846704765
:1027200090F83C30012B01D1022070470023036355
:10273000816222218285C285036480F83E1002698D
:10274000016880F83C301AB1C86840F48070C860F5
:102750004869002340F001004861C86840F020004B
:10276000C86018467047000080B5006844F6004114
:10277000C4F20001884215D045F20001C4F2000104
:10278000884218BF80BD40F27C2040F23811C2F26E
:102790000000C2F200012C3058310822BDE8804010
:1027A000FFF7B2BF40F23810C2F2000000F1600142
:1027B00040F29030C2F200000822FFF7A5FF40F27D
:1027C000B800C2F20000817A0131817280BD000040
:1027D00070470000FEE70000FEE70000FEE7000093
:1027E0002DE9F04F81B040F2B809C2F2000999F822
:1027F000021099F80100002945D099F80020002A1C
:1028000041D002283FD099F8042099F8073093422C
:1028100039D0042A0CD8DFE802F00F0315030300B7
:102820000020C4F2A000B1EE040AC9F8200010E0B4
:1028300099ED080A0DE000BF00209FEDDE0AC9F8FF
:10284000200006E00020CCF2A000C9F82000B9EE7C
:10285000040A012000F0B6F999ED080A022000F000
:10286000B1F999ED080A032000F0ACF999ED080AD6
:10287000042000F0A7F999F8010099F8042099F8CC
:10288000021089F8072040F2F022C2F2000292ED15
:10289000010AB0EE004AB4EE440AB8EE005A92EDD6
:1028A000021AF1EE10FA4FF00003B4EE450A4FF0B1
:1028B000000792ED032A92ED043AB8BF0123F1EE2E
:1028C00010FAC8BF01273B40B4EE441A0027F1EECE
:1028D00010FAB8BF01273B40B4EE451A0027F1EECD
:1028E00010FAC8BF01273B40B4EE442A0027F1EE9E
:1028F00010FAB8BF01273B40B4EE452A0027F1EE9D
:1029000010FAC8BF0127B4EE443A00223B40F1EE72
:1029100010FA4FF00007B4EE453AB8BF01273B402C
:10292000F1EE10FAC8BF012240F2000A1A40C2F2CA
:10293000000A8AF8002001EB81010A2202EB8101E2
:1029400000EE101AB8EEC00A02288AED070A00F05D
:102950002E8199F806009FED982A5A3801EE100A48
:10296000B8EEC13A83EE021AB9EE042A89ED0B3AA9
:1029700021EE001AB4EE421AF1EE10FA89ED0C1AAB
:1029800008DA31EE002A8AED0A2A0AF12C00B0EEAC
:10299000401A15E0B1EE042AB4EE421AF1EE10FA34
:1029A00006DD30EE411A8AED0B1A0AF1280005E027
:1029B0000AF12C00B0EE401A8AED0A0AB0EE402A65
:1029C00099ED0F3A40F2A814B4EE423A40F23811B1
:1029D00040F21022F1EE10FAC2F20004C2F200013D
:1029E000C2F2000280ED000A72D02F20254645F881
:1029F000500F44F248204FF0000BA1F86E0001F197
:102A00006808082002F11C0601F1440781ED1A2A2A
:102A1000C5E903B03046294642463B4685F814B026
:102A2000C5E901BBFDF75EFE0120FEF755FB304610
:102A3000294642463B46FDF755FE0120FEF74CFB7A
:102A40003046294642463B46FDF74CFE0120FEF744
:102A500043FBDAF8280040F238110022C2F20001EC
:102A6000C4F24822C1E91A024F20C5E9000B082030
:102A700028613046294642463B4685F814B0C5E9F0
:102A800002BBFDF72FFE0120FEF726FB304629464C
:102A900042463B46FDF726FE0120FEF71DFB304671
:102AA000294642463B46FDF71DFE0120FEF714FB7A
:102AB00040F2102240F23811DAF828009AED0B1A91
:102AC000C2F20002C2F20001C1E91ABBC9F83C001F
:102AD0009AED0C0AB4EE410AF1EE10FA67D06F20BD
:102AE00044F8500F44F2482001F1680502F11C0738
:102AF00001F144064FF00008A1F86E0081ED1A1AAA
:102B00004FF0080938468B4621462A46334684F85A
:102B10001480C4E90188C4E90389FDF7E3FD0120BD
:102B2000FEF7DAFA384621462A463346FDF7DAFD43
:102B30000120FEF7D1FA384621462A463346FDF7F2
:102B4000D1FD0120FEF7C8FADAF82C000021C4F20A
:102B50004821CBE91A018F20C4E9000838462146F4
:102B60002A46334684F81480C4E90288C4F81090D9
:102B7000FDF7B8FD0120FEF7AFFA384621462A4698
:102B80003346FDF7AFFD0120FEF7A6FA3846214691
:102B90002A463346FDF7A6FD0120FEF79DFADAF836
:102BA0002C00CBF86880CBF86C80CAF8300001B0FC
:102BB000BDE8F08F000000000000C8427047000030
:102BC000704700002DE9F04381B0411E032940F217
:102BD000B801C2F200014A78B1EE401A38BFB0EE37
:102BE000410A022A15D00979032909D0042910D1F4
:102BF000C11EB1EE401A022938BFB0EE410A08E00A
:102C0000C11EB1EE401A022938BFB0EE401AB0EE34
:102C1000410A40F2A8144001C2F200040E3044F808
:102C2000500F4FF000080420C4E9038040F2381927
:102C300040F21020C2F20009C2F2000009F168055A
:102C400000F11C0609F14407304621462A463B465E
:102C500084F81480C4E9018889ED1A0AFDF742FD61
:102C60000120FEF739FA304621462A463B46FDF759
:102C700039FD0120FEF730FA304621462A463B4610
:102C8000FDF730FD0120FEF727FAC9E91A8801B0E7
:102C9000BDE8F0832DE9F04381B02DED028B9FED6F
:102CA000668A0120B0EE480AFFF78CFF0220B0EEE2
:102CB000480AFFF787FF0320B0EE480AFFF782FFBC
:102CC0000420B0EE480A4FF00409FFF77BFF40F202
:102CD000A814C2F2000440F20D1040F2381544F876
:102CE000500F4FF00008C2F2000540F2102045F8E6
:102CF000688FC2F20000A5F1240600F11C073846D7
:102D000021462A46334684F81480C4E90188C4E980
:102D10000389FDF7E7FC0120FEF7DEF9384621467E
:102D20002A463346FDF7DEFC0120FEF7D5F938468A
:102D300021462A463346FDF7D5FC0120FEF7CCF9A3
:102D400040F22D10C4E90008384621462A46334691
:102D5000C5E9008884F81480C4E90288C4F810909A
:102D6000FDF7C0FC0120FEF7B7F9384621462A4698
:102D70003346FDF7B7FC0120FEF7AEF93846214691
:102D80002A463346FDF7AEFC0120FEF7A5F940F2D6
:102D90004D10C4E90008384621462A463346C5E9A5
:102DA000008884F81480C4E90288C4F81090FDF704
:102DB00099FC0120FEF790F9384621462A46334611
:102DC000FDF790FC0120FEF787F9384621462A4698
:102DD0003346FDF787FC0120FEF77EF940F26D10C7
:102DE000C4E90008384621462A463346C5E900882A
:102DF00084F81480C4E90288C4F81090FDF772FCCE
:102E00000120FEF769F9384621462A463346FDF788
:102E100069FC0120FEF760F9384621462A46334610
:102E2000FDF760FC0120FEF757F9C5E90088BDEC0D
:102E3000028B01B0BDE8F08300000000FEF7C8BBC4
:102E400080B594B0002043F64001CDE90B00CDE9F8
:102E500009000690CDE90400CDE902000190C4F21A
:102E600002010A6842F080520A60096801F080514C
:102E700001910199019047F20000C4F2000001683D
:102E800041F44041016000684FF4800100F440408B
:102E900001900198012007904FF480300E91042199
:102EA000089002200F91B4210D90CDE91010CDE9CA
:102EB000120007A8FEF7ACFD20B1EFF3108072B648
:102EC000FEE700BFFEF73AFC20B1EFF3108072B6C8
:102ED000FEE700BF0F200290032003900020049023
:102EE0004FF4A05005904FF48050069002A80521A1
:102EF000FEF762FC20B1EFF3108072B6FEE700BF70
:102F000014B080BD4EF68850CEF20000016841F446
:102F1000700101607047000070B540F24034C2F2A9
:102F200000042088013081B20229208016D340F2AB
:102F3000443540F25016C2F20005C2F2000628687D
:102F40003168884208D040F25000C2F200000068A8
:102F5000FDF786FB306828600020208040F2483072
:102F6000C2F20000BDE87040FEF798BF10B540F611
:102F7000FF3E0368C4F2000E40F2004C7045C4F2FC
:102F8000010C27DCB0F1804F31D040F20042C4F296
:102F9000000290422BD040F60002C4F200029042A0
:102FA00025D041F6FF72C4F20002904229DC704540
:102FB0003CDCB0F1804F5FD040F20042C4F200022E
:102FC000904259D040F60002C4F20002904253D021
:102FD00056E000BF40F60042C4F20002904206D024
:102FE000604504D00022C4F201029042D9D14A685F
:102FF00023F07003134341F6FF72C4F200029042C3
:10300000D5DD43F6FF72C4F20102904222DC42F2A7
:103010000002C4F2000290422ED00022C4F201024B
:10302000904229D0604527D02AE000BF40F60042F8
:10303000C4F2000290421FD041F60002C4F2000226
:10304000904219D041F60042C4F20002904213D0DF
:1030500016E000BF44F20002C4F2010290420BD01D
:1030600044F60002C4F20102904205D044F200424C
:10307000C4F20102904203D1CA6823F4407313439F
:1030800023F080024B69D1F800E08C681A4302609B
:10309000C46240F48062C0F828E0624504BF096958
:1030A00001630121416110BD40F29030C2F2000085
:1030B000FEF7B8BF40F2A820C2F20000FEF7B2BF90
:1030C000806B0021C185C184FEF7AABF81B090F852
:1030D0003E10222920D18368B3F5805F08D10169B1
:1030E000002957D000F128010A6803685B680AE0EC
:1030F000014651F8282F13B90369002BF5D0036856
:103100005B6803F07F0313700A6801320A60C18DA7
:1031100001390A04C18501D001B070470168CA684D
:1031200022F02002CA60CA6822F48072CA604A692A
:1031300022F001024A61202280F83E20026B012A1F
:1031400032D10022026300BF51E8031F026821F060
:10315000100142E803135BB3016851E8031F0268E2
:1031600021F0100142E8031313B3016851E8031F73
:10317000026821F0100142E80313CBB1016851E865
:10318000031F026821F0100142E8031383B10168B4
:10319000DAE700BF0168826A49686FF35F2122F8AD
:1031A000021B8262B3E700BF01B0FFF7DDBA00BFC8
:1031B00001680A68D20606D5002200920A680092C9
:1031C000496800910099818D01B0FEF727BF00008A
:1031D00010B504460068D4E902C22369016921F4EC
:1031E000405111430161626943EA0C01E3691143F3
:1031F000C268194349F20C639A431143C1604169A3
:10320000A26921F4407141F20043114340F480620D
:10321000C4F201039A42416102D1FEF791FB01E041
:10322000FEF77AFBE16963681922B1F5004FA0FB54
:1032300002011FD15A00DB0FFDF734F848F21F518D
:10324000C5F2EB11A0FB01235A096FF0630302FBE7
:103250000300322303EBC000A0FB01014FF4F87020
:1032600000EA111000EB0210C1F34211226808437A
:10327000906010BD9A009B0FFDF714F848F21F51A3
:10328000C5F2EB11A0FB01235A096FF0630302FBA7
:103290000300322303EB0010A0FB0101F02000EA41
:1032A000511000EB0210C1F34311226808439060F3
:1032B00010BD0000FEE700008CB040F6000AC4F22A
:1032C000020AFEF793F9FFF7BBFD002643F6300034
:1032D00006960196C4F202000168002241F0040142
:1032E0000160016801F004010191019901960168F2
:1032F00041F080010160016801F0800101910199B4
:103300000196016841F001010160016801F00101CD
:10331000019101990196016841F002010160016883
:1033200001F00201019101990196016841F0080143
:1033300001600068C42100F0080001900198504627
:10334000FEF73AF902AD04240127504629460294BB
:10335000CDE903760597FEF74BF8AAF500602946FC
:10336000CDE902460496FEF743F8C020CDE90207F6
:1033700050462946CDE90466FEF73AF84FF400605E
:10338000CDE90206504629460496FEF731F840F290
:103390001025C2F20005AAF5D231284640F8441F94
:1033A0000C244FF430214FF48012C0E90146C0E9EB
:1033B0000361C0E905268683FDF724FC20B1EFF305
:1033C000108072B6FEE700BFAAF5D031284640F85B
:1033D0001C1F4FF420214FF40012C0E90146C0E940
:1033E0000361C0E905268683FDF70CFC20B1EFF3ED
:1033F000108072B6FEE700BF01200E21002405F107
:103400001C0B0A900791CDE908400B9102A9584680
:10341000CDE90244CDE904440694FDF7C1F940F238
:103420004830AAF5F431C2F2000040F2E73342F22C
:10343000273280E81600C0E903348461FEF7D8FC27
:1034400020B1EFF3108072B6FEE700BF5046402176
:103450000022FEF7B1F8504680210022FEF7ACF8BA
:103460005846FDF7A1FD58460221FDF723F940F625
:10347000B830FDF731FE40F29030AAF5DE31C2F2ED
:1034800000004FF4E1360C25C0E90016C0E9024403
:10349000C0E90445C0E90644FFF780F820B1EFF326
:1034A000108072B6FEE700BF40F27C24C2F2000436
:1034B000AAF5DC31204640F82C1F4FF00008C0E987
:1034C0000168C0E90388C0E90558C0F81C80FFF70F
:1034D00065F828B1EFF3108072B600BFFEE700BFB9
:1034E00040F23817C2F2000704F12C0007F158012E
:1034F00008220824FFF708F940F2A815B946C2F2DD
:10350000000549F8684FA7202C4644F8500F0420C6
:10351000A9F124062061584621464A463346C4E9AB
:103520000288FDF7DFF81420FDF7D6FD5846214646
:103530004A463346FDF7D6F81420FDF7CDFD584630
:1035400021464A463346FDF7CDF81420FDF7C4FD69
:10355000584621464A463346FDF7C4F81420FDF785
:10356000BBFD584621464A463346FDF7BBF81420BA
:10357000FDF7B2FD0A20FDF7AFFD0820C9F80000F5
:1035800004202061C7202060584621464A46334621
:10359000C4E90288FDF7A6F81420FDF79DFD584602
:1035A00021464A463346FDF79DF81420FDF794FD69
:1035B000584621464A463346FDF794F81420FDF755
:1035C0008BFD584621464A463346FDF78BF81420BA
:1035D000FDF782FD584621464A463346FDF782F8FC
:1035E0001420FDF779FD0A20FDF776FD0820C9F8C3
:1035F000000004202061E7202060584621464A460A
:103600003346C4E90288FDF76DF81420FDF764FD28
:10361000584621464A463346FDF764F81420FDF724
:103620005BFD584621464A463346FDF75BF81420B9
:10363000FDF752FD584621464A463346FDF752F8FB
:103640001420FDF749FD584621464A463346FDF70A
:1036500049F81420FDF740FD0A20FDF73DFD082044
:10366000C9F800000420206140F20710206058468D
:1036700021464A463346C4E90288FDF733F8142050
:10368000FDF72AFD584621464A463346FDF72AF8FB
:103690001420FDF721FD584621464A463346FDF7E2
:1036A00021F81420FDF718FD584621464A463346B6
:1036B000FDF718F81420FDF70FFD584621464A463D
:1036C0003346FDF70FF81420FDF706FD0A20FDF73D
:1036D00003FD0820C9F800000420206140F22710F3
:1036E0002060584621464A463346C4E90288FCF722
:1036F000F9FF1420FDF7F0FC584621464A463346B0
:10370000FCF7F0FF1420FDF7E7FC584621464A4637
:103710003346FCF7E7FF1420FDF7DEFC5846214650
:103720004A463346FCF7DEFF1420FDF7D5FC584629
:1037300021464A463346FCF7D5FF1420FDF7CCFC62
:103740000A20FDF7C9FC0820C9F800000420206108
:1037500040F247102060584621464A463346C4E9A5
:103760000288FCF7BFFF1420FDF7B6FC584621463F
:103770004A463346FCF7B6FF1420FDF7ADFC584629
:1037800021464A463346FCF7ADFF1420FDF7A4FC62
:10379000584621464A463346FCF7A4FF1420FDF75D
:1037A0009BFC584621464A463346FCF79BFF1420B3
:1037B000FDF792FC0A20FDF78FFC504640210122C4
:1037C0004FF00109FDF7F8FE504680210122FDF778
:1037D000F3FE4FF4FA60FDF77FFC40F2B80640F2CA
:1037E0004804C2F20006C2F2000403E02078C8B325
:1037F000FEF7F6FF50464FF40061FDF7D7FE97F84D
:1038000058103070AA2919D197F85F00FF2815D1F8
:1038100097F8590097F85A107070B07897F85B20B5
:1038200097F85C30002918BF0846B07097F85D0023
:1038300097F85E107271B3713071F1706878082872
:1038400018BF84F80080A878082818BF84F8008082
:10385000E878082818BF84F8008028790828C5D09F
:1038600084F80080504640210022FDF7A5FE504616
:1038700080210022FDF7A0FEFFF70CFAFCF7E2FD25
:1038800050464021012284F80090FDF795FE5046F5
:1038900080210122FDF790FEACE7F1EE100A4FF611
:1038A000FF71C0F2C03120EA010040F04070E1EE4B
:1038B000100A70470000000000000000010203042D
:1038C000060708090000000001020304F0380008A0
:1038D00000000020580000000002000848390008DD
:1038E00058000020A00900001C0200080000000091
:1038F000010C0D0E01010201270072018E01210150
:10390000BD01BF027D000000000020420000803F9A
:103910000000803FCDCC4CBE0000803F0000803FC7
:103920000000803F110000000F0000000F000000A9
:103930000100000010000000010000000024F4005D
:0839400000C0000800000000B7
:04000005080001C529
:00000001FF
